{
  "_format": "hh-sol-artifact-1",
  "contractName": "DStor",
  "sourceName": "src/backend/contracts/DStor.sol",
  "abi": [
    {
      "inputs": [],
      "stateMutability": "nonpayable",
      "type": "constructor"
    },
    {
      "anonymous": false,
      "inputs": [
        {
          "indexed": false,
          "internalType": "address",
          "name": "recipient",
          "type": "address"
        }
      ],
      "name": "FileUpdated",
      "type": "event"
    },
    {
      "anonymous": false,
      "inputs": [
        {
          "indexed": false,
          "internalType": "address",
          "name": "sender",
          "type": "address"
        },
        {
          "indexed": false,
          "internalType": "address",
          "name": "recipient",
          "type": "address"
        }
      ],
      "name": "FileUploaded",
      "type": "event"
    },
    {
      "anonymous": false,
      "inputs": [
        {
          "indexed": true,
          "internalType": "address",
          "name": "previousOwner",
          "type": "address"
        },
        {
          "indexed": true,
          "internalType": "address",
          "name": "newOwner",
          "type": "address"
        }
      ],
      "name": "OwnershipTransferred",
      "type": "event"
    },
    {
      "inputs": [
        {
          "internalType": "string",
          "name": "",
          "type": "string"
        }
      ],
      "name": "expiresAt",
      "outputs": [
        {
          "internalType": "uint256",
          "name": "",
          "type": "uint256"
        }
      ],
      "stateMutability": "view",
      "type": "function"
    },
    {
      "inputs": [],
      "name": "fileCount",
      "outputs": [
        {
          "internalType": "uint256",
          "name": "",
          "type": "uint256"
        }
      ],
      "stateMutability": "view",
      "type": "function"
    },
    {
      "inputs": [],
      "name": "fissionEngine",
      "outputs": [
        {
          "internalType": "address",
          "name": "",
          "type": "address"
        }
      ],
      "stateMutability": "view",
      "type": "function"
    },
    {
      "inputs": [
        {
          "internalType": "uint256",
          "name": "numBytes",
          "type": "uint256"
        }
      ],
      "name": "gasQuote",
      "outputs": [
        {
          "internalType": "uint256",
          "name": "weiPerDiem",
          "type": "uint256"
        },
        {
          "internalType": "uint256",
          "name": "weiBenchFee",
          "type": "uint256"
        }
      ],
      "stateMutability": "view",
      "type": "function"
    },
    {
      "inputs": [
        {
          "internalType": "uint256",
          "name": "fileId",
          "type": "uint256"
        }
      ],
      "name": "get",
      "outputs": [
        {
          "components": [
            {
              "internalType": "string",
              "name": "fileHash",
              "type": "string"
            },
            {
              "internalType": "uint256",
              "name": "fileSize",
              "type": "uint256"
            },
            {
              "internalType": "string",
              "name": "fileType",
              "type": "string"
            },
            {
              "internalType": "string",
              "name": "fileName",
              "type": "string"
            },
            {
              "internalType": "string",
              "name": "fileDescription",
              "type": "string"
            },
            {
              "internalType": "address",
              "name": "recipient",
              "type": "address"
            },
            {
              "internalType": "uint256",
              "name": "uploadTime",
              "type": "uint256"
            },
            {
              "internalType": "address",
              "name": "uploader",
              "type": "address"
            }
          ],
          "internalType": "struct DStor.File",
          "name": "",
          "type": "tuple"
        }
      ],
      "stateMutability": "view",
      "type": "function"
    },
    {
      "inputs": [
        {
          "internalType": "bool",
          "name": "isSender",
          "type": "bool"
        }
      ],
      "name": "getAccessibleFileIds",
      "outputs": [
        {
          "internalType": "uint256[]",
          "name": "",
          "type": "uint256[]"
        }
      ],
      "stateMutability": "view",
      "type": "function"
    },
    {
      "inputs": [
        {
          "internalType": "bool",
          "name": "isSender",
          "type": "bool"
        }
      ],
      "name": "getAccessibleFiles",
      "outputs": [
        {
          "components": [
            {
              "internalType": "string",
              "name": "fileHash",
              "type": "string"
            },
            {
              "internalType": "uint256",
              "name": "fileSize",
              "type": "uint256"
            },
            {
              "internalType": "string",
              "name": "fileType",
              "type": "string"
            },
            {
              "internalType": "string",
              "name": "fileName",
              "type": "string"
            },
            {
              "internalType": "string",
              "name": "fileDescription",
              "type": "string"
            },
            {
              "internalType": "address",
              "name": "recipient",
              "type": "address"
            },
            {
              "internalType": "uint256",
              "name": "uploadTime",
              "type": "uint256"
            },
            {
              "internalType": "address",
              "name": "uploader",
              "type": "address"
            }
          ],
          "internalType": "struct DStor.File[]",
          "name": "",
          "type": "tuple[]"
        }
      ],
      "stateMutability": "view",
      "type": "function"
    },
    {
      "inputs": [],
      "name": "minimumFileSize",
      "outputs": [
        {
          "internalType": "uint256",
          "name": "",
          "type": "uint256"
        }
      ],
      "stateMutability": "view",
      "type": "function"
    },
    {
      "inputs": [],
      "name": "minimumPin",
      "outputs": [
        {
          "internalType": "uint256",
          "name": "",
          "type": "uint256"
        }
      ],
      "stateMutability": "view",
      "type": "function"
    },
    {
      "inputs": [
        {
          "internalType": "uint256",
          "name": "fileId",
          "type": "uint256"
        },
        {
          "internalType": "string",
          "name": "fileName",
          "type": "string"
        },
        {
          "internalType": "string",
          "name": "description",
          "type": "string"
        },
        {
          "internalType": "address",
          "name": "recipient",
          "type": "address"
        }
      ],
      "name": "modify",
      "outputs": [],
      "stateMutability": "nonpayable",
      "type": "function"
    },
    {
      "inputs": [],
      "name": "name",
      "outputs": [
        {
          "internalType": "string",
          "name": "",
          "type": "string"
        }
      ],
      "stateMutability": "view",
      "type": "function"
    },
    {
      "inputs": [],
      "name": "owner",
      "outputs": [
        {
          "internalType": "address",
          "name": "",
          "type": "address"
        }
      ],
      "stateMutability": "view",
      "type": "function"
    },
    {
      "inputs": [],
      "name": "pinningRate",
      "outputs": [
        {
          "internalType": "uint256",
          "name": "",
          "type": "uint256"
        }
      ],
      "stateMutability": "view",
      "type": "function"
    },
    {
      "inputs": [
        {
          "internalType": "uint256",
          "name": "numBytes",
          "type": "uint256"
        }
      ],
      "name": "quote",
      "outputs": [
        {
          "internalType": "uint256",
          "name": "perDiem",
          "type": "uint256"
        },
        {
          "internalType": "uint256",
          "name": "benchFee",
          "type": "uint256"
        }
      ],
      "stateMutability": "view",
      "type": "function"
    },
    {
      "inputs": [],
      "name": "received",
      "outputs": [
        {
          "components": [
            {
              "internalType": "string",
              "name": "fileHash",
              "type": "string"
            },
            {
              "internalType": "uint256",
              "name": "fileSize",
              "type": "uint256"
            },
            {
              "internalType": "string",
              "name": "fileType",
              "type": "string"
            },
            {
              "internalType": "string",
              "name": "fileName",
              "type": "string"
            },
            {
              "internalType": "string",
              "name": "fileDescription",
              "type": "string"
            },
            {
              "internalType": "address",
              "name": "recipient",
              "type": "address"
            },
            {
              "internalType": "uint256",
              "name": "uploadTime",
              "type": "uint256"
            },
            {
              "internalType": "address",
              "name": "uploader",
              "type": "address"
            }
          ],
          "internalType": "struct DStor.File[]",
          "name": "",
          "type": "tuple[]"
        }
      ],
      "stateMutability": "view",
      "type": "function"
    },
    {
      "inputs": [],
      "name": "renounceOwnership",
      "outputs": [],
      "stateMutability": "nonpayable",
      "type": "function"
    },
    {
      "inputs": [],
      "name": "sent",
      "outputs": [
        {
          "components": [
            {
              "internalType": "string",
              "name": "fileHash",
              "type": "string"
            },
            {
              "internalType": "uint256",
              "name": "fileSize",
              "type": "uint256"
            },
            {
              "internalType": "string",
              "name": "fileType",
              "type": "string"
            },
            {
              "internalType": "string",
              "name": "fileName",
              "type": "string"
            },
            {
              "internalType": "string",
              "name": "fileDescription",
              "type": "string"
            },
            {
              "internalType": "address",
              "name": "recipient",
              "type": "address"
            },
            {
              "internalType": "uint256",
              "name": "uploadTime",
              "type": "uint256"
            },
            {
              "internalType": "address",
              "name": "uploader",
              "type": "address"
            }
          ],
          "internalType": "struct DStor.File[]",
          "name": "",
          "type": "tuple[]"
        }
      ],
      "stateMutability": "view",
      "type": "function"
    },
    {
      "inputs": [
        {
          "internalType": "address",
          "name": "fission",
          "type": "address"
        }
      ],
      "name": "setFission",
      "outputs": [],
      "stateMutability": "nonpayable",
      "type": "function"
    },
    {
      "inputs": [
        {
          "internalType": "uint256",
          "name": "value",
          "type": "uint256"
        }
      ],
      "name": "setPinningRate",
      "outputs": [],
      "stateMutability": "nonpayable",
      "type": "function"
    },
    {
      "inputs": [
        {
          "internalType": "bool",
          "name": "isMinimumPin",
          "type": "bool"
        },
        {
          "internalType": "uint256",
          "name": "value",
          "type": "uint256"
        }
      ],
      "name": "setRules",
      "outputs": [],
      "stateMutability": "nonpayable",
      "type": "function"
    },
    {
      "inputs": [],
      "name": "takeProfit",
      "outputs": [],
      "stateMutability": "nonpayable",
      "type": "function"
    },
    {
      "inputs": [
        {
          "internalType": "address",
          "name": "newOwner",
          "type": "address"
        }
      ],
      "name": "transferOwnership",
      "outputs": [],
      "stateMutability": "nonpayable",
      "type": "function"
    },
    {
      "inputs": [
        {
          "internalType": "string",
          "name": "_fileHash",
          "type": "string"
        },
        {
          "internalType": "uint256",
          "name": "_fileSize",
          "type": "uint256"
        },
        {
          "internalType": "string",
          "name": "_fileType",
          "type": "string"
        },
        {
          "internalType": "string",
          "name": "_fileName",
          "type": "string"
        },
        {
          "internalType": "string",
          "name": "_fileDescription",
          "type": "string"
        },
        {
          "internalType": "address",
          "name": "recipient",
          "type": "address"
        }
      ],
      "name": "upload",
      "outputs": [],
      "stateMutability": "nonpayable",
      "type": "function"
    }
  ],
  "bytecode": "0x60806040526096600255601e60035561040060045560006007553480156200002657600080fd5b50620000476200003b6200004d60201b60201c565b6200005560201b60201c565b62000119565b600033905090565b60008060009054906101000a900473ffffffffffffffffffffffffffffffffffffffff169050816000806101000a81548173ffffffffffffffffffffffffffffffffffffffff021916908373ffffffffffffffffffffffffffffffffffffffff1602179055508173ffffffffffffffffffffffffffffffffffffffff168173ffffffffffffffffffffffffffffffffffffffff167f8be0079c531659141344cd1fd0a4f28419497f9722a3daafe3b4186f6b6457e060405160405180910390a35050565b61268f80620001296000396000f3fe608060405234801561001057600080fd5b506004361061014d5760003560e01c806383a6deb5116100c3578063ba22ef261161007c578063ba22ef261461037b578063c2bfccc014610399578063e88bae8f146103b7578063ed1bd76c146103d5578063f2fde38b14610406578063fe668460146104225761014d565b806383a6deb5146102a75780638862af95146102c55780638da5cb5b146102e157806390b8ab6d146102ff5780639507d39a1461032f578063a3e0fdc31461035f5761014d565b80633c1f81ff116101155780633c1f81ff1461020b57806343953519146102275780635d7e00781461024557806366ecd0021461027557806370c1057814610293578063715018a61461029d5761014d565b80630617ff791461015257806306fdde03146101825780631932e8d1146101a057806321f6fb11146101d157806336ea2606146101ef575b600080fd5b61016c60048036038101906101679190611a3b565b61043e565b6040516101799190612093565b60405180910390f35b61018a610588565b60405161019791906120d7565b60405180910390f35b6101ba60048036038101906101b59190611bca565b6105c1565b6040516101c8929190612196565b60405180910390f35b6101d96106c0565b6040516101e6919061217b565b60405180910390f35b61020960048036038101906102049190611bca565b6106c6565b005b61022560048036038101906102209190611a64565b61074c565b005b61022f6107ed565b60405161023c919061217b565b60405180910390f35b61025f600480360381019061025a9190611a3b565b6107f3565b60405161026c91906120b5565b60405180910390f35b61027d610a83565b60405161028a919061204f565b60405180910390f35b61029b610aa9565b005b6102a5610af9565b005b6102af610b81565b6040516102bc9190612093565b60405180910390f35b6102df60048036038101906102da9190611c1c565b610b92565b005b6102e9610df7565b6040516102f6919061204f565b60405180910390f35b61031960048036038101906103149190611aa0565b610e20565b604051610326919061217b565b60405180910390f35b61034960048036038101906103449190611bca565b610e4e565b6040516103569190612159565b60405180910390f35b61037960048036038101906103749190611a12565b611236565b005b6103836112f6565b604051610390919061217b565b60405180910390f35b6103a16112fc565b6040516103ae9190612093565b60405180910390f35b6103bf61130d565b6040516103cc919061217b565b60405180910390f35b6103ef60048036038101906103ea9190611bca565b611313565b6040516103fd929190612196565b60405180910390f35b610420600480360381019061041b9190611a12565b6113a4565b005b61043c60048036038101906104379190611ae1565b61149c565b005b6060600061044b836107f3565b905060008151905060008167ffffffffffffffff811115610495577f4e487b7100000000000000000000000000000000000000000000000000000000600052604160045260246000fd5b6040519080825280602002602001820160405280156104ce57816020015b6104bb611842565b8152602001906001900390816104b35790505b50905060005b8281101561057c57610525848281518110610518577f4e487b7100000000000000000000000000000000000000000000000000000000600052603260045260246000fd5b6020026020010151610e4e565b82828151811061055e577f4e487b7100000000000000000000000000000000000000000000000000000000600052603260045260246000fd5b602002602001018190525080806105749061242c565b9150506104d4565b50809350505050919050565b6040518060400160405280601381526020017f4453746f724048656d6c6f636b5374726565740000000000000000000000000081525081565b6000806000806105d085611313565b915091506000600160009054906101000a900473ffffffffffffffffffffffffffffffffffffffff16905060008173ffffffffffffffffffffffffffffffffffffffff1663e113e6406040518163ffffffff1660e01b815260040160206040518083038186803b15801561064357600080fd5b505afa158015610657573d6000803e3d6000fd5b505050506040513d601f19601f8201168201806040525081019061067b9190611bf3565b90506305f5e100818561068e91906122e5565b61069891906122b4565b95506305f5e10081846106ab91906122e5565b6106b591906122b4565b945050505050915091565b60035481565b6106ce611776565b73ffffffffffffffffffffffffffffffffffffffff166106ec610df7565b73ffffffffffffffffffffffffffffffffffffffff1614610742576040517f08c379a000000000000000000000000000000000000000000000000000000000815260040161073990612139565b60405180910390fd5b8060028190555050565b610754611776565b73ffffffffffffffffffffffffffffffffffffffff16610772610df7565b73ffffffffffffffffffffffffffffffffffffffff16146107c8576040517f08c379a00000000000000000000000000000000000000000000000000000000081526004016107bf90612139565b60405180910390fd5b6001151582151514156107e157806003819055506107e9565b806004819055505b5050565b60075481565b6060600080600090505b60075481116108da57600084610849576006600083815260200190815260200160002060050160009054906101000a900473ffffffffffffffffffffffffffffffffffffffff16610881565b6006600083815260200190815260200160002060070160009054906101000a900473ffffffffffffffffffffffffffffffffffffffff165b90503373ffffffffffffffffffffffffffffffffffffffff168173ffffffffffffffffffffffffffffffffffffffff1614156108c65782806108c29061242c565b9350505b5080806108d29061242c565b9150506107fd565b5060008167ffffffffffffffff81111561091d577f4e487b7100000000000000000000000000000000000000000000000000000000600052604160045260246000fd5b60405190808252806020026020018201604052801561094b5781602001602082028036833780820191505090505b5090506000915060005b6007548111610a78576000856109a1576006600083815260200190815260200160002060050160009054906101000a900473ffffffffffffffffffffffffffffffffffffffff166109d9565b6006600083815260200190815260200160002060070160009054906101000a900473ffffffffffffffffffffffffffffffffffffffff165b90503373ffffffffffffffffffffffffffffffffffffffff168173ffffffffffffffffffffffffffffffffffffffff161415610a645781838581518110610a49577f4e487b7100000000000000000000000000000000000000000000000000000000600052603260045260246000fd5b6020026020010181815250508380610a609061242c565b9450505b508080610a709061242c565b915050610955565b508092505050919050565b600160009054906101000a900473ffffffffffffffffffffffffffffffffffffffff1681565b610ab1610df7565b73ffffffffffffffffffffffffffffffffffffffff166108fc479081150290604051600060405180830381858888f19350505050158015610af6573d6000803e3d6000fd5b50565b610b01611776565b73ffffffffffffffffffffffffffffffffffffffff16610b1f610df7565b73ffffffffffffffffffffffffffffffffffffffff1614610b75576040517f08c379a0000000000000000000000000000000000000000000000000000000008152600401610b6c90612139565b60405180910390fd5b610b7f600061177e565b565b6060610b8d600061043e565b905090565b60006006600086815260200190815260200160002090503373ffffffffffffffffffffffffffffffffffffffff168160070160009054906101000a900473ffffffffffffffffffffffffffffffffffffffff1673ffffffffffffffffffffffffffffffffffffffff1614610c3b576040517f08c379a0000000000000000000000000000000000000000000000000000000008152600401610c3290612119565b60405180910390fd5b600084519050600084519050600082141580610c58575060008114155b80610c905750600073ffffffffffffffffffffffffffffffffffffffff168473ffffffffffffffffffffffffffffffffffffffff1614155b8015610cc857503373ffffffffffffffffffffffffffffffffffffffff168473ffffffffffffffffffffffffffffffffffffffff1614155b15610d8e5760008214610cef5785836003019080519060200190610ced9291906118b3565b505b60008114610d115784836004019080519060200190610d0f9291906118b3565b505b600073ffffffffffffffffffffffffffffffffffffffff168473ffffffffffffffffffffffffffffffffffffffff1614610d8957838360050160006101000a81548173ffffffffffffffffffffffffffffffffffffffff021916908373ffffffffffffffffffffffffffffffffffffffff1602179055505b610d93565b600080fd5b7fc2b72a0fe8c458577d2c9ac0f97d01cbb043a6faae7c6b7eeda2a4812575027b8360050160009054906101000a900473ffffffffffffffffffffffffffffffffffffffff16604051610de6919061204f565b60405180910390a150505050505050565b60008060009054906101000a900473ffffffffffffffffffffffffffffffffffffffff16905090565b6005818051602081018201805184825260208301602085012081835280955050505050506000915090505481565b610e56611842565b60006006600084815260200190815260200160002060405180610100016040529081600082018054610e87906123c9565b80601f0160208091040260200160405190810160405280929190818152602001828054610eb3906123c9565b8015610f005780601f10610ed557610100808354040283529160200191610f00565b820191906000526020600020905b815481529060010190602001808311610ee357829003601f168201915b5050505050815260200160018201548152602001600282018054610f23906123c9565b80601f0160208091040260200160405190810160405280929190818152602001828054610f4f906123c9565b8015610f9c5780601f10610f7157610100808354040283529160200191610f9c565b820191906000526020600020905b815481529060010190602001808311610f7f57829003601f168201915b50505050508152602001600382018054610fb5906123c9565b80601f0160208091040260200160405190810160405280929190818152602001828054610fe1906123c9565b801561102e5780601f106110035761010080835404028352916020019161102e565b820191906000526020600020905b81548152906001019060200180831161101157829003601f168201915b50505050508152602001600482018054611047906123c9565b80601f0160208091040260200160405190810160405280929190818152602001828054611073906123c9565b80156110c05780601f10611095576101008083540402835291602001916110c0565b820191906000526020600020905b8154815290600101906020018083116110a357829003601f168201915b505050505081526020016005820160009054906101000a900473ffffffffffffffffffffffffffffffffffffffff1673ffffffffffffffffffffffffffffffffffffffff1673ffffffffffffffffffffffffffffffffffffffff168152602001600682015481526020016007820160009054906101000a900473ffffffffffffffffffffffffffffffffffffffff1673ffffffffffffffffffffffffffffffffffffffff1673ffffffffffffffffffffffffffffffffffffffff168152505090503373ffffffffffffffffffffffffffffffffffffffff168160e0015173ffffffffffffffffffffffffffffffffffffffff1614806111ee57503373ffffffffffffffffffffffffffffffffffffffff168160a0015173ffffffffffffffffffffffffffffffffffffffff16145b61122d576040517f08c379a000000000000000000000000000000000000000000000000000000000815260040161122490612119565b60405180910390fd5b80915050919050565b61123e611776565b73ffffffffffffffffffffffffffffffffffffffff1661125c610df7565b73ffffffffffffffffffffffffffffffffffffffff16146112b2576040517f08c379a00000000000000000000000000000000000000000000000000000000081526004016112a990612139565b60405180910390fd5b80600160006101000a81548173ffffffffffffffffffffffffffffffffffffffff021916908373ffffffffffffffffffffffffffffffffffffffff16021790555050565b60025481565b6060611308600161043e565b905090565b60045481565b60008060045483101561132557600080fd5b60006104008461133591906122b4565b90506000610400856113479190612475565b111561135c5780806113589061242c565b9150505b600062100000620f424060025461137391906122e5565b61137d91906122b4565b9050808261138b91906122e5565b93506003548461139b91906122e5565b92505050915091565b6113ac611776565b73ffffffffffffffffffffffffffffffffffffffff166113ca610df7565b73ffffffffffffffffffffffffffffffffffffffff1614611420576040517f08c379a000000000000000000000000000000000000000000000000000000000815260040161141790612139565b60405180910390fd5b600073ffffffffffffffffffffffffffffffffffffffff168173ffffffffffffffffffffffffffffffffffffffff161415611490576040517f08c379a0000000000000000000000000000000000000000000000000000000008152600401611487906120f9565b60405180910390fd5b6114998161177e565b50565b600086511180156114af57506004548510155b80156114bc575060008451115b80156114c9575060008351115b80156114d6575060008251115b801561150f5750600073ffffffffffffffffffffffffffffffffffffffff163373ffffffffffffffffffffffffffffffffffffffff1614155b801561154757503373ffffffffffffffffffffffffffffffffffffffff168173ffffffffffffffffffffffffffffffffffffffff1614155b80156115805750600073ffffffffffffffffffffffffffffffffffffffff168173ffffffffffffffffffffffffffffffffffffffff1614155b61158957600080fd5b6007600081548092919061159c9061242c565b91905055506040518061010001604052808781526020018681526020018581526020018481526020018381526020018273ffffffffffffffffffffffffffffffffffffffff1681526020014281526020013373ffffffffffffffffffffffffffffffffffffffff1681525060066000600754815260200190815260200160002060008201518160000190805190602001906116389291906118b3565b5060208201518160010155604082015181600201908051906020019061165f9291906118b3565b50606082015181600301908051906020019061167c9291906118b3565b5060808201518160040190805190602001906116999291906118b3565b5060a08201518160050160006101000a81548173ffffffffffffffffffffffffffffffffffffffff021916908373ffffffffffffffffffffffffffffffffffffffff16021790555060c0820151816006015560e08201518160070160006101000a81548173ffffffffffffffffffffffffffffffffffffffff021916908373ffffffffffffffffffffffffffffffffffffffff1602179055509050507f2ed6b29ed6f9dfc1441858346e53f608893095656cd9a14653917f5ade7a8a2e338260405161176692919061206a565b60405180910390a1505050505050565b600033905090565b60008060009054906101000a900473ffffffffffffffffffffffffffffffffffffffff169050816000806101000a81548173ffffffffffffffffffffffffffffffffffffffff021916908373ffffffffffffffffffffffffffffffffffffffff1602179055508173ffffffffffffffffffffffffffffffffffffffff168173ffffffffffffffffffffffffffffffffffffffff167f8be0079c531659141344cd1fd0a4f28419497f9722a3daafe3b4186f6b6457e060405160405180910390a35050565b6040518061010001604052806060815260200160008152602001606081526020016060815260200160608152602001600073ffffffffffffffffffffffffffffffffffffffff16815260200160008152602001600073ffffffffffffffffffffffffffffffffffffffff1681525090565b8280546118bf906123c9565b90600052602060002090601f0160209004810192826118e15760008555611928565b82601f106118fa57805160ff1916838001178555611928565b82800160010185558215611928579182015b8281111561192757825182559160200191906001019061190c565b5b5090506119359190611939565b5090565b5b8082111561195257600081600090555060010161193a565b5090565b6000611969611964846121e4565b6121bf565b90508281526020810184848401111561198157600080fd5b61198c848285612387565b509392505050565b6000813590506119a381612614565b92915050565b6000813590506119b88161262b565b92915050565b600082601f8301126119cf57600080fd5b81356119df848260208601611956565b91505092915050565b6000813590506119f781612642565b92915050565b600081519050611a0c81612642565b92915050565b600060208284031215611a2457600080fd5b6000611a3284828501611994565b91505092915050565b600060208284031215611a4d57600080fd5b6000611a5b848285016119a9565b91505092915050565b60008060408385031215611a7757600080fd5b6000611a85858286016119a9565b9250506020611a96858286016119e8565b9150509250929050565b600060208284031215611ab257600080fd5b600082013567ffffffffffffffff811115611acc57600080fd5b611ad8848285016119be565b91505092915050565b60008060008060008060c08789031215611afa57600080fd5b600087013567ffffffffffffffff811115611b1457600080fd5b611b2089828a016119be565b9650506020611b3189828a016119e8565b955050604087013567ffffffffffffffff811115611b4e57600080fd5b611b5a89828a016119be565b945050606087013567ffffffffffffffff811115611b7757600080fd5b611b8389828a016119be565b935050608087013567ffffffffffffffff811115611ba057600080fd5b611bac89828a016119be565b92505060a0611bbd89828a01611994565b9150509295509295509295565b600060208284031215611bdc57600080fd5b6000611bea848285016119e8565b91505092915050565b600060208284031215611c0557600080fd5b6000611c13848285016119fd565b91505092915050565b60008060008060808587031215611c3257600080fd5b6000611c40878288016119e8565b945050602085013567ffffffffffffffff811115611c5d57600080fd5b611c69878288016119be565b935050604085013567ffffffffffffffff811115611c8657600080fd5b611c92878288016119be565b9250506060611ca387828801611994565b91505092959194509250565b6000611cbb8383611ea7565b905092915050565b6000611ccf8383612031565b60208301905092915050565b611ce48161233f565b82525050565b611cf38161233f565b82525050565b6000611d0482612235565b611d0e8185612270565b935083602082028501611d2085612215565b8060005b85811015611d5c5784840389528151611d3d8582611caf565b9450611d4883612256565b925060208a01995050600181019050611d24565b50829750879550505050505092915050565b6000611d7982612240565b611d838185612281565b9350611d8e83612225565b8060005b83811015611dbf578151611da68882611cc3565b9750611db183612263565b925050600181019050611d92565b5085935050505092915050565b6000611dd78261224b565b611de18185612292565b9350611df1818560208601612396565b611dfa81612562565b840191505092915050565b6000611e108261224b565b611e1a81856122a3565b9350611e2a818560208601612396565b611e3381612562565b840191505092915050565b6000611e4b6026836122a3565b9150611e5682612573565b604082019050919050565b6000611e6e600d836122a3565b9150611e79826125c2565b602082019050919050565b6000611e916020836122a3565b9150611e9c826125eb565b602082019050919050565b6000610100830160008301518482036000860152611ec58282611dcc565b9150506020830151611eda6020860182612031565b5060408301518482036040860152611ef28282611dcc565b91505060608301518482036060860152611f0c8282611dcc565b91505060808301518482036080860152611f268282611dcc565b91505060a0830151611f3b60a0860182611cdb565b5060c0830151611f4e60c0860182612031565b5060e0830151611f6160e0860182611cdb565b508091505092915050565b6000610100830160008301518482036000860152611f8a8282611dcc565b9150506020830151611f9f6020860182612031565b5060408301518482036040860152611fb78282611dcc565b91505060608301518482036060860152611fd18282611dcc565b91505060808301518482036080860152611feb8282611dcc565b91505060a083015161200060a0860182611cdb565b5060c083015161201360c0860182612031565b5060e083015161202660e0860182611cdb565b508091505092915050565b61203a8161237d565b82525050565b6120498161237d565b82525050565b60006020820190506120646000830184611cea565b92915050565b600060408201905061207f6000830185611cea565b61208c6020830184611cea565b9392505050565b600060208201905081810360008301526120ad8184611cf9565b905092915050565b600060208201905081810360008301526120cf8184611d6e565b905092915050565b600060208201905081810360008301526120f18184611e05565b905092915050565b6000602082019050818103600083015261211281611e3e565b9050919050565b6000602082019050818103600083015261213281611e61565b9050919050565b6000602082019050818103600083015261215281611e84565b9050919050565b600060208201905081810360008301526121738184611f6c565b905092915050565b60006020820190506121906000830184612040565b92915050565b60006040820190506121ab6000830185612040565b6121b86020830184612040565b9392505050565b60006121c96121da565b90506121d582826123fb565b919050565b6000604051905090565b600067ffffffffffffffff8211156121ff576121fe612533565b5b61220882612562565b9050602081019050919050565b6000819050602082019050919050565b6000819050602082019050919050565b600081519050919050565b600081519050919050565b600081519050919050565b6000602082019050919050565b6000602082019050919050565b600082825260208201905092915050565b600082825260208201905092915050565b600082825260208201905092915050565b600082825260208201905092915050565b60006122bf8261237d565b91506122ca8361237d565b9250826122da576122d96124d5565b5b828204905092915050565b60006122f08261237d565b91506122fb8361237d565b9250817fffffffffffffffffffffffffffffffffffffffffffffffffffffffffffffffff0483118215151615612334576123336124a6565b5b828202905092915050565b600061234a8261235d565b9050919050565b60008115159050919050565b600073ffffffffffffffffffffffffffffffffffffffff82169050919050565b6000819050919050565b82818337600083830152505050565b60005b838110156123b4578082015181840152602081019050612399565b838111156123c3576000848401525b50505050565b600060028204905060018216806123e157607f821691505b602082108114156123f5576123f4612504565b5b50919050565b61240482612562565b810181811067ffffffffffffffff8211171561242357612422612533565b5b80604052505050565b60006124378261237d565b91507fffffffffffffffffffffffffffffffffffffffffffffffffffffffffffffffff82141561246a576124696124a6565b5b600182019050919050565b60006124808261237d565b915061248b8361237d565b92508261249b5761249a6124d5565b5b828206905092915050565b7f4e487b7100000000000000000000000000000000000000000000000000000000600052601160045260246000fd5b7f4e487b7100000000000000000000000000000000000000000000000000000000600052601260045260246000fd5b7f4e487b7100000000000000000000000000000000000000000000000000000000600052602260045260246000fd5b7f4e487b7100000000000000000000000000000000000000000000000000000000600052604160045260246000fd5b6000601f19601f8301169050919050565b7f4f776e61626c653a206e6577206f776e657220697320746865207a65726f206160008201527f6464726573730000000000000000000000000000000000000000000000000000602082015250565b7f4143434553532044454e49454400000000000000000000000000000000000000600082015250565b7f4f776e61626c653a2063616c6c6572206973206e6f7420746865206f776e6572600082015250565b61261d8161233f565b811461262857600080fd5b50565b61263481612351565b811461263f57600080fd5b50565b61264b8161237d565b811461265657600080fd5b5056fea2646970667358221220136979197c1e467488660d1f87878c3ec3aea766b98a38bacc1b6c45a1e9825564736f6c63430008040033",
  "linkReferences": {},
  "deployedLinkReferences": {}
}