{
  "_format": "hh-sol-artifact-1",
  "contractName": "DStor",
  "sourceName": "src/backend/contracts/DStor.sol",
  "abi": [
    {
      "inputs": [],
      "stateMutability": "nonpayable",
      "type": "constructor"
    },
    {
      "anonymous": false,
      "inputs": [
        {
          "indexed": false,
          "internalType": "address",
          "name": "recipient",
          "type": "address"
        }
      ],
      "name": "FileUpdated",
      "type": "event"
    },
    {
      "anonymous": false,
      "inputs": [
        {
          "indexed": false,
          "internalType": "address",
          "name": "sender",
          "type": "address"
        },
        {
          "indexed": false,
          "internalType": "address",
          "name": "recipient",
          "type": "address"
        }
      ],
      "name": "FileUploaded",
      "type": "event"
    },
    {
      "anonymous": false,
      "inputs": [
        {
          "indexed": true,
          "internalType": "address",
          "name": "previousOwner",
          "type": "address"
        },
        {
          "indexed": true,
          "internalType": "address",
          "name": "newOwner",
          "type": "address"
        }
      ],
      "name": "OwnershipTransferred",
      "type": "event"
    },
    {
      "inputs": [
        {
          "internalType": "uint256",
          "name": "",
          "type": "uint256"
        }
      ],
      "name": "expiresAt",
      "outputs": [
        {
          "internalType": "uint256",
          "name": "",
          "type": "uint256"
        }
      ],
      "stateMutability": "view",
      "type": "function"
    },
    {
      "inputs": [],
      "name": "fileCount",
      "outputs": [
        {
          "internalType": "uint256",
          "name": "",
          "type": "uint256"
        }
      ],
      "stateMutability": "view",
      "type": "function"
    },
    {
      "inputs": [
        {
          "internalType": "uint256",
          "name": "fileId",
          "type": "uint256"
        }
      ],
      "name": "get",
      "outputs": [
        {
          "components": [
            {
              "internalType": "string",
              "name": "fileHash",
              "type": "string"
            },
            {
              "internalType": "uint256",
              "name": "fileSize",
              "type": "uint256"
            },
            {
              "internalType": "string",
              "name": "fileType",
              "type": "string"
            },
            {
              "internalType": "string",
              "name": "fileName",
              "type": "string"
            },
            {
              "internalType": "string",
              "name": "fileDescription",
              "type": "string"
            },
            {
              "internalType": "address",
              "name": "recipient",
              "type": "address"
            },
            {
              "internalType": "uint256",
              "name": "uploadTime",
              "type": "uint256"
            },
            {
              "internalType": "address",
              "name": "uploader",
              "type": "address"
            }
          ],
          "internalType": "struct DStor.File",
          "name": "",
          "type": "tuple"
        }
      ],
      "stateMutability": "view",
      "type": "function"
    },
    {
      "inputs": [
        {
          "internalType": "bool",
          "name": "isSender",
          "type": "bool"
        }
      ],
      "name": "getAccessibleFileIds",
      "outputs": [
        {
          "internalType": "uint256[]",
          "name": "",
          "type": "uint256[]"
        }
      ],
      "stateMutability": "view",
      "type": "function"
    },
    {
      "inputs": [
        {
          "internalType": "bool",
          "name": "isSender",
          "type": "bool"
        }
      ],
      "name": "getAccessibleFiles",
      "outputs": [
        {
          "components": [
            {
              "internalType": "string",
              "name": "fileHash",
              "type": "string"
            },
            {
              "internalType": "uint256",
              "name": "fileSize",
              "type": "uint256"
            },
            {
              "internalType": "string",
              "name": "fileType",
              "type": "string"
            },
            {
              "internalType": "string",
              "name": "fileName",
              "type": "string"
            },
            {
              "internalType": "string",
              "name": "fileDescription",
              "type": "string"
            },
            {
              "internalType": "address",
              "name": "recipient",
              "type": "address"
            },
            {
              "internalType": "uint256",
              "name": "uploadTime",
              "type": "uint256"
            },
            {
              "internalType": "address",
              "name": "uploader",
              "type": "address"
            }
          ],
          "internalType": "struct DStor.File[]",
          "name": "",
          "type": "tuple[]"
        }
      ],
      "stateMutability": "view",
      "type": "function"
    },
    {
      "inputs": [],
      "name": "minimumPin",
      "outputs": [
        {
          "internalType": "uint256",
          "name": "",
          "type": "uint256"
        }
      ],
      "stateMutability": "view",
      "type": "function"
    },
    {
      "inputs": [
        {
          "internalType": "uint256",
          "name": "fileId",
          "type": "uint256"
        },
        {
          "internalType": "string",
          "name": "fileName",
          "type": "string"
        },
        {
          "internalType": "string",
          "name": "description",
          "type": "string"
        },
        {
          "internalType": "address",
          "name": "recipient",
          "type": "address"
        }
      ],
      "name": "modify",
      "outputs": [],
      "stateMutability": "nonpayable",
      "type": "function"
    },
    {
      "inputs": [],
      "name": "name",
      "outputs": [
        {
          "internalType": "string",
          "name": "",
          "type": "string"
        }
      ],
      "stateMutability": "view",
      "type": "function"
    },
    {
      "inputs": [],
      "name": "owner",
      "outputs": [
        {
          "internalType": "address",
          "name": "",
          "type": "address"
        }
      ],
      "stateMutability": "view",
      "type": "function"
    },
    {
      "inputs": [],
      "name": "pinningRate",
      "outputs": [
        {
          "internalType": "uint256",
          "name": "",
          "type": "uint256"
        }
      ],
      "stateMutability": "view",
      "type": "function"
    },
    {
      "inputs": [
        {
          "internalType": "uint256",
          "name": "numBytes",
          "type": "uint256"
        }
      ],
      "name": "quote",
      "outputs": [
        {
          "internalType": "uint256",
          "name": "perDiem",
          "type": "uint256"
        },
        {
          "internalType": "uint256",
          "name": "benchFee",
          "type": "uint256"
        }
      ],
      "stateMutability": "view",
      "type": "function"
    },
    {
      "inputs": [],
      "name": "received",
      "outputs": [
        {
          "components": [
            {
              "internalType": "string",
              "name": "fileHash",
              "type": "string"
            },
            {
              "internalType": "uint256",
              "name": "fileSize",
              "type": "uint256"
            },
            {
              "internalType": "string",
              "name": "fileType",
              "type": "string"
            },
            {
              "internalType": "string",
              "name": "fileName",
              "type": "string"
            },
            {
              "internalType": "string",
              "name": "fileDescription",
              "type": "string"
            },
            {
              "internalType": "address",
              "name": "recipient",
              "type": "address"
            },
            {
              "internalType": "uint256",
              "name": "uploadTime",
              "type": "uint256"
            },
            {
              "internalType": "address",
              "name": "uploader",
              "type": "address"
            }
          ],
          "internalType": "struct DStor.File[]",
          "name": "",
          "type": "tuple[]"
        }
      ],
      "stateMutability": "view",
      "type": "function"
    },
    {
      "inputs": [],
      "name": "renounceOwnership",
      "outputs": [],
      "stateMutability": "nonpayable",
      "type": "function"
    },
    {
      "inputs": [],
      "name": "sent",
      "outputs": [
        {
          "components": [
            {
              "internalType": "string",
              "name": "fileHash",
              "type": "string"
            },
            {
              "internalType": "uint256",
              "name": "fileSize",
              "type": "uint256"
            },
            {
              "internalType": "string",
              "name": "fileType",
              "type": "string"
            },
            {
              "internalType": "string",
              "name": "fileName",
              "type": "string"
            },
            {
              "internalType": "string",
              "name": "fileDescription",
              "type": "string"
            },
            {
              "internalType": "address",
              "name": "recipient",
              "type": "address"
            },
            {
              "internalType": "uint256",
              "name": "uploadTime",
              "type": "uint256"
            },
            {
              "internalType": "address",
              "name": "uploader",
              "type": "address"
            }
          ],
          "internalType": "struct DStor.File[]",
          "name": "",
          "type": "tuple[]"
        }
      ],
      "stateMutability": "view",
      "type": "function"
    },
    {
      "inputs": [
        {
          "internalType": "bool",
          "name": "isMinimumPin",
          "type": "bool"
        },
        {
          "internalType": "uint256",
          "name": "value",
          "type": "uint256"
        }
      ],
      "name": "setRules",
      "outputs": [],
      "stateMutability": "nonpayable",
      "type": "function"
    },
    {
      "inputs": [],
      "name": "takeProfit",
      "outputs": [],
      "stateMutability": "nonpayable",
      "type": "function"
    },
    {
      "inputs": [
        {
          "internalType": "address",
          "name": "newOwner",
          "type": "address"
        }
      ],
      "name": "transferOwnership",
      "outputs": [],
      "stateMutability": "nonpayable",
      "type": "function"
    },
    {
      "inputs": [
        {
          "internalType": "string",
          "name": "_fileHash",
          "type": "string"
        },
        {
          "internalType": "uint256",
          "name": "_fileSize",
          "type": "uint256"
        },
        {
          "internalType": "string",
          "name": "_fileType",
          "type": "string"
        },
        {
          "internalType": "string",
          "name": "_fileName",
          "type": "string"
        },
        {
          "internalType": "string",
          "name": "_fileDescription",
          "type": "string"
        },
        {
          "internalType": "address",
          "name": "recipient",
          "type": "address"
        }
      ],
      "name": "upload",
      "outputs": [],
      "stateMutability": "nonpayable",
      "type": "function"
    }
  ],
  "bytecode": "0x60806040526096600155601e600255600060055534801561001f57600080fd5b5061003c61003161004160201b60201c565b61004960201b60201c565b61010d565b600033905090565b60008060009054906101000a900473ffffffffffffffffffffffffffffffffffffffff169050816000806101000a81548173ffffffffffffffffffffffffffffffffffffffff021916908373ffffffffffffffffffffffffffffffffffffffff1602179055508173ffffffffffffffffffffffffffffffffffffffff168173ffffffffffffffffffffffffffffffffffffffff167f8be0079c531659141344cd1fd0a4f28419497f9722a3daafe3b4186f6b6457e060405160405180910390a35050565b6122b5806200011d6000396000f3fe608060405234801561001057600080fd5b50600436106101165760003560e01c806383a6deb5116100a2578063ba22ef2611610071578063ba22ef26146102bd578063c2bfccc0146102db578063ed1bd76c146102f9578063f2fde38b1461032a578063fe6684601461034657610116565b806383a6deb5146102355780638862af95146102535780638da5cb5b1461026f5780639507d39a1461028d57610116565b80633c1f81ff116100e95780633c1f81ff146101b757806343953519146101d35780635d7e0078146101f157806370c1057814610221578063715018a61461022b57610116565b80630617ff791461011b57806306fdde031461014b57806317c957091461016957806321f6fb1114610199575b600080fd5b610135600480360381019061013091906116cb565b610362565b6040516101429190611cb9565b60405180910390f35b6101536104b4565b6040516101609190611cfd565b60405180910390f35b610183600480360381019061017e9190611819565b6104ed565b6040516101909190611da1565b60405180910390f35b6101a1610505565b6040516101ae9190611da1565b60405180910390f35b6101d160048036038101906101cc91906116f4565b61050b565b005b6101db6105ac565b6040516101e89190611da1565b60405180910390f35b61020b600480360381019061020691906116cb565b6105b2565b6040516102189190611cdb565b60405180910390f35b610229610842565b005b610233610892565b005b61023d61091a565b60405161024a9190611cb9565b60405180910390f35b61026d60048036038101906102689190611842565b61092b565b005b610277610b90565b6040516102849190611c75565b60405180910390f35b6102a760048036038101906102a29190611819565b610bb9565b6040516102b49190611d7f565b60405180910390f35b6102c5610fa1565b6040516102d29190611da1565b60405180910390f35b6102e3610fa7565b6040516102f09190611cb9565b60405180910390f35b610313600480360381019061030e9190611819565b610fb8565b604051610321929190611dbc565b60405180910390f35b610344600480360381019061033f91906116a2565b611049565b005b610360600480360381019061035b9190611730565b611141565b005b6060600061036f836105b2565b905060008151905060008167ffffffffffffffff8111156103b9577f4e487b7100000000000000000000000000000000000000000000000000000000600052604160045260246000fd5b6040519080825280602002602001820160405280156103f257816020015b6103df6114e7565b8152602001906001900390816103d75790505b509050600082146104a95760005b8281116104a757610450848281518110610443577f4e487b7100000000000000000000000000000000000000000000000000000000600052603260045260246000fd5b6020026020010151610bb9565b828281518110610489577f4e487b7100000000000000000000000000000000000000000000000000000000600052603260045260246000fd5b6020026020010181905250808061049f90612052565b915050610400565b505b809350505050919050565b6040518060400160405280601381526020017f4453746f724048656d6c6f636b5374726565740000000000000000000000000081525081565b60036020528060005260406000206000915090505481565b60025481565b61051361141b565b73ffffffffffffffffffffffffffffffffffffffff16610531610b90565b73ffffffffffffffffffffffffffffffffffffffff1614610587576040517f08c379a000000000000000000000000000000000000000000000000000000000815260040161057e90611d5f565b60405180910390fd5b6001151582151514156105a057806002819055506105a8565b806001819055505b5050565b60055481565b6060600080600090505b600554811161069957600084610608576004600083815260200190815260200160002060050160009054906101000a900473ffffffffffffffffffffffffffffffffffffffff16610640565b6004600083815260200190815260200160002060070160009054906101000a900473ffffffffffffffffffffffffffffffffffffffff165b90503373ffffffffffffffffffffffffffffffffffffffff168173ffffffffffffffffffffffffffffffffffffffff16141561068557828061068190612052565b9350505b50808061069190612052565b9150506105bc565b5060008167ffffffffffffffff8111156106dc577f4e487b7100000000000000000000000000000000000000000000000000000000600052604160045260246000fd5b60405190808252806020026020018201604052801561070a5781602001602082028036833780820191505090505b5090506000915060005b600554811161083757600085610760576004600083815260200190815260200160002060050160009054906101000a900473ffffffffffffffffffffffffffffffffffffffff16610798565b6004600083815260200190815260200160002060070160009054906101000a900473ffffffffffffffffffffffffffffffffffffffff165b90503373ffffffffffffffffffffffffffffffffffffffff168173ffffffffffffffffffffffffffffffffffffffff1614156108235781838581518110610808577f4e487b7100000000000000000000000000000000000000000000000000000000600052603260045260246000fd5b602002602001018181525050838061081f90612052565b9450505b50808061082f90612052565b915050610714565b508092505050919050565b61084a610b90565b73ffffffffffffffffffffffffffffffffffffffff166108fc479081150290604051600060405180830381858888f1935050505015801561088f573d6000803e3d6000fd5b50565b61089a61141b565b73ffffffffffffffffffffffffffffffffffffffff166108b8610b90565b73ffffffffffffffffffffffffffffffffffffffff161461090e576040517f08c379a000000000000000000000000000000000000000000000000000000000815260040161090590611d5f565b60405180910390fd5b6109186000611423565b565b60606109266000610362565b905090565b60006004600086815260200190815260200160002090503373ffffffffffffffffffffffffffffffffffffffff168160070160009054906101000a900473ffffffffffffffffffffffffffffffffffffffff1673ffffffffffffffffffffffffffffffffffffffff16146109d4576040517f08c379a00000000000000000000000000000000000000000000000000000000081526004016109cb90611d3f565b60405180910390fd5b6000845190506000845190506000821415806109f1575060008114155b80610a295750600073ffffffffffffffffffffffffffffffffffffffff168473ffffffffffffffffffffffffffffffffffffffff1614155b8015610a6157503373ffffffffffffffffffffffffffffffffffffffff168473ffffffffffffffffffffffffffffffffffffffff1614155b15610b275760008214610a885785836003019080519060200190610a86929190611558565b505b60008114610aaa5784836004019080519060200190610aa8929190611558565b505b600073ffffffffffffffffffffffffffffffffffffffff168473ffffffffffffffffffffffffffffffffffffffff1614610b2257838360050160006101000a81548173ffffffffffffffffffffffffffffffffffffffff021916908373ffffffffffffffffffffffffffffffffffffffff1602179055505b610b2c565b600080fd5b7fc2b72a0fe8c458577d2c9ac0f97d01cbb043a6faae7c6b7eeda2a4812575027b8360050160009054906101000a900473ffffffffffffffffffffffffffffffffffffffff16604051610b7f9190611c75565b60405180910390a150505050505050565b60008060009054906101000a900473ffffffffffffffffffffffffffffffffffffffff16905090565b610bc16114e7565b60006004600084815260200190815260200160002060405180610100016040529081600082018054610bf290611fef565b80601f0160208091040260200160405190810160405280929190818152602001828054610c1e90611fef565b8015610c6b5780601f10610c4057610100808354040283529160200191610c6b565b820191906000526020600020905b815481529060010190602001808311610c4e57829003601f168201915b5050505050815260200160018201548152602001600282018054610c8e90611fef565b80601f0160208091040260200160405190810160405280929190818152602001828054610cba90611fef565b8015610d075780601f10610cdc57610100808354040283529160200191610d07565b820191906000526020600020905b815481529060010190602001808311610cea57829003601f168201915b50505050508152602001600382018054610d2090611fef565b80601f0160208091040260200160405190810160405280929190818152602001828054610d4c90611fef565b8015610d995780601f10610d6e57610100808354040283529160200191610d99565b820191906000526020600020905b815481529060010190602001808311610d7c57829003601f168201915b50505050508152602001600482018054610db290611fef565b80601f0160208091040260200160405190810160405280929190818152602001828054610dde90611fef565b8015610e2b5780601f10610e0057610100808354040283529160200191610e2b565b820191906000526020600020905b815481529060010190602001808311610e0e57829003601f168201915b505050505081526020016005820160009054906101000a900473ffffffffffffffffffffffffffffffffffffffff1673ffffffffffffffffffffffffffffffffffffffff1673ffffffffffffffffffffffffffffffffffffffff168152602001600682015481526020016007820160009054906101000a900473ffffffffffffffffffffffffffffffffffffffff1673ffffffffffffffffffffffffffffffffffffffff1673ffffffffffffffffffffffffffffffffffffffff168152505090503373ffffffffffffffffffffffffffffffffffffffff168160e0015173ffffffffffffffffffffffffffffffffffffffff161480610f5957503373ffffffffffffffffffffffffffffffffffffffff168160a0015173ffffffffffffffffffffffffffffffffffffffff16145b610f98576040517f08c379a0000000000000000000000000000000000000000000000000000000008152600401610f8f90611d3f565b60405180910390fd5b80915050919050565b60015481565b6060610fb36001610362565b905090565b600080610400831015610fca57600080fd5b600061040084610fda9190611eda565b9050600061040085610fec919061209b565b1115611001578080610ffd90612052565b9150505b600062100000620f42406001546110189190611f0b565b6110229190611eda565b905080826110309190611f0b565b9350600254846110409190611f0b565b92505050915091565b61105161141b565b73ffffffffffffffffffffffffffffffffffffffff1661106f610b90565b73ffffffffffffffffffffffffffffffffffffffff16146110c5576040517f08c379a00000000000000000000000000000000000000000000000000000000081526004016110bc90611d5f565b60405180910390fd5b600073ffffffffffffffffffffffffffffffffffffffff168173ffffffffffffffffffffffffffffffffffffffff161415611135576040517f08c379a000000000000000000000000000000000000000000000000000000000815260040161112c90611d1f565b60405180910390fd5b61113e81611423565b50565b6000865111801561115457506104008510155b8015611161575060008451115b801561116e575060008351115b801561117b575060008251115b80156111b45750600073ffffffffffffffffffffffffffffffffffffffff163373ffffffffffffffffffffffffffffffffffffffff1614155b80156111ec57503373ffffffffffffffffffffffffffffffffffffffff168173ffffffffffffffffffffffffffffffffffffffff1614155b80156112255750600073ffffffffffffffffffffffffffffffffffffffff168173ffffffffffffffffffffffffffffffffffffffff1614155b61122e57600080fd5b6005600081548092919061124190612052565b91905055506040518061010001604052808781526020018681526020018581526020018481526020018381526020018273ffffffffffffffffffffffffffffffffffffffff1681526020014281526020013373ffffffffffffffffffffffffffffffffffffffff1681525060046000600554815260200190815260200160002060008201518160000190805190602001906112dd929190611558565b50602082015181600101556040820151816002019080519060200190611304929190611558565b506060820151816003019080519060200190611321929190611558565b50608082015181600401908051906020019061133e929190611558565b5060a08201518160050160006101000a81548173ffffffffffffffffffffffffffffffffffffffff021916908373ffffffffffffffffffffffffffffffffffffffff16021790555060c0820151816006015560e08201518160070160006101000a81548173ffffffffffffffffffffffffffffffffffffffff021916908373ffffffffffffffffffffffffffffffffffffffff1602179055509050507f2ed6b29ed6f9dfc1441858346e53f608893095656cd9a14653917f5ade7a8a2e338260405161140b929190611c90565b60405180910390a1505050505050565b600033905090565b60008060009054906101000a900473ffffffffffffffffffffffffffffffffffffffff169050816000806101000a81548173ffffffffffffffffffffffffffffffffffffffff021916908373ffffffffffffffffffffffffffffffffffffffff1602179055508173ffffffffffffffffffffffffffffffffffffffff168173ffffffffffffffffffffffffffffffffffffffff167f8be0079c531659141344cd1fd0a4f28419497f9722a3daafe3b4186f6b6457e060405160405180910390a35050565b6040518061010001604052806060815260200160008152602001606081526020016060815260200160608152602001600073ffffffffffffffffffffffffffffffffffffffff16815260200160008152602001600073ffffffffffffffffffffffffffffffffffffffff1681525090565b82805461156490611fef565b90600052602060002090601f01602090048101928261158657600085556115cd565b82601f1061159f57805160ff19168380011785556115cd565b828001600101855582156115cd579182015b828111156115cc5782518255916020019190600101906115b1565b5b5090506115da91906115de565b5090565b5b808211156115f75760008160009055506001016115df565b5090565b600061160e61160984611e0a565b611de5565b90508281526020810184848401111561162657600080fd5b611631848285611fad565b509392505050565b6000813590506116488161223a565b92915050565b60008135905061165d81612251565b92915050565b600082601f83011261167457600080fd5b81356116848482602086016115fb565b91505092915050565b60008135905061169c81612268565b92915050565b6000602082840312156116b457600080fd5b60006116c284828501611639565b91505092915050565b6000602082840312156116dd57600080fd5b60006116eb8482850161164e565b91505092915050565b6000806040838503121561170757600080fd5b60006117158582860161164e565b92505060206117268582860161168d565b9150509250929050565b60008060008060008060c0878903121561174957600080fd5b600087013567ffffffffffffffff81111561176357600080fd5b61176f89828a01611663565b965050602061178089828a0161168d565b955050604087013567ffffffffffffffff81111561179d57600080fd5b6117a989828a01611663565b945050606087013567ffffffffffffffff8111156117c657600080fd5b6117d289828a01611663565b935050608087013567ffffffffffffffff8111156117ef57600080fd5b6117fb89828a01611663565b92505060a061180c89828a01611639565b9150509295509295509295565b60006020828403121561182b57600080fd5b60006118398482850161168d565b91505092915050565b6000806000806080858703121561185857600080fd5b60006118668782880161168d565b945050602085013567ffffffffffffffff81111561188357600080fd5b61188f87828801611663565b935050604085013567ffffffffffffffff8111156118ac57600080fd5b6118b887828801611663565b92505060606118c987828801611639565b91505092959194509250565b60006118e18383611acd565b905092915050565b60006118f58383611c57565b60208301905092915050565b61190a81611f65565b82525050565b61191981611f65565b82525050565b600061192a82611e5b565b6119348185611e96565b93508360208202850161194685611e3b565b8060005b85811015611982578484038952815161196385826118d5565b945061196e83611e7c565b925060208a0199505060018101905061194a565b50829750879550505050505092915050565b600061199f82611e66565b6119a98185611ea7565b93506119b483611e4b565b8060005b838110156119e55781516119cc88826118e9565b97506119d783611e89565b9250506001810190506119b8565b5085935050505092915050565b60006119fd82611e71565b611a078185611eb8565b9350611a17818560208601611fbc565b611a2081612188565b840191505092915050565b6000611a3682611e71565b611a408185611ec9565b9350611a50818560208601611fbc565b611a5981612188565b840191505092915050565b6000611a71602683611ec9565b9150611a7c82612199565b604082019050919050565b6000611a94600d83611ec9565b9150611a9f826121e8565b602082019050919050565b6000611ab7602083611ec9565b9150611ac282612211565b602082019050919050565b6000610100830160008301518482036000860152611aeb82826119f2565b9150506020830151611b006020860182611c57565b5060408301518482036040860152611b1882826119f2565b91505060608301518482036060860152611b3282826119f2565b91505060808301518482036080860152611b4c82826119f2565b91505060a0830151611b6160a0860182611901565b5060c0830151611b7460c0860182611c57565b5060e0830151611b8760e0860182611901565b508091505092915050565b6000610100830160008301518482036000860152611bb082826119f2565b9150506020830151611bc56020860182611c57565b5060408301518482036040860152611bdd82826119f2565b91505060608301518482036060860152611bf782826119f2565b91505060808301518482036080860152611c1182826119f2565b91505060a0830151611c2660a0860182611901565b5060c0830151611c3960c0860182611c57565b5060e0830151611c4c60e0860182611901565b508091505092915050565b611c6081611fa3565b82525050565b611c6f81611fa3565b82525050565b6000602082019050611c8a6000830184611910565b92915050565b6000604082019050611ca56000830185611910565b611cb26020830184611910565b9392505050565b60006020820190508181036000830152611cd3818461191f565b905092915050565b60006020820190508181036000830152611cf58184611994565b905092915050565b60006020820190508181036000830152611d178184611a2b565b905092915050565b60006020820190508181036000830152611d3881611a64565b9050919050565b60006020820190508181036000830152611d5881611a87565b9050919050565b60006020820190508181036000830152611d7881611aaa565b9050919050565b60006020820190508181036000830152611d998184611b92565b905092915050565b6000602082019050611db66000830184611c66565b92915050565b6000604082019050611dd16000830185611c66565b611dde6020830184611c66565b9392505050565b6000611def611e00565b9050611dfb8282612021565b919050565b6000604051905090565b600067ffffffffffffffff821115611e2557611e24612159565b5b611e2e82612188565b9050602081019050919050565b6000819050602082019050919050565b6000819050602082019050919050565b600081519050919050565b600081519050919050565b600081519050919050565b6000602082019050919050565b6000602082019050919050565b600082825260208201905092915050565b600082825260208201905092915050565b600082825260208201905092915050565b600082825260208201905092915050565b6000611ee582611fa3565b9150611ef083611fa3565b925082611f0057611eff6120fb565b5b828204905092915050565b6000611f1682611fa3565b9150611f2183611fa3565b9250817fffffffffffffffffffffffffffffffffffffffffffffffffffffffffffffffff0483118215151615611f5a57611f596120cc565b5b828202905092915050565b6000611f7082611f83565b9050919050565b60008115159050919050565b600073ffffffffffffffffffffffffffffffffffffffff82169050919050565b6000819050919050565b82818337600083830152505050565b60005b83811015611fda578082015181840152602081019050611fbf565b83811115611fe9576000848401525b50505050565b6000600282049050600182168061200757607f821691505b6020821081141561201b5761201a61212a565b5b50919050565b61202a82612188565b810181811067ffffffffffffffff8211171561204957612048612159565b5b80604052505050565b600061205d82611fa3565b91507fffffffffffffffffffffffffffffffffffffffffffffffffffffffffffffffff8214156120905761208f6120cc565b5b600182019050919050565b60006120a682611fa3565b91506120b183611fa3565b9250826120c1576120c06120fb565b5b828206905092915050565b7f4e487b7100000000000000000000000000000000000000000000000000000000600052601160045260246000fd5b7f4e487b7100000000000000000000000000000000000000000000000000000000600052601260045260246000fd5b7f4e487b7100000000000000000000000000000000000000000000000000000000600052602260045260246000fd5b7f4e487b7100000000000000000000000000000000000000000000000000000000600052604160045260246000fd5b6000601f19601f8301169050919050565b7f4f776e61626c653a206e6577206f776e657220697320746865207a65726f206160008201527f6464726573730000000000000000000000000000000000000000000000000000602082015250565b7f4143434553532044454e49454400000000000000000000000000000000000000600082015250565b7f4f776e61626c653a2063616c6c6572206973206e6f7420746865206f776e6572600082015250565b61224381611f65565b811461224e57600080fd5b50565b61225a81611f77565b811461226557600080fd5b50565b61227181611fa3565b811461227c57600080fd5b5056fea2646970667358221220907d3149527cfe92df0e1573dc6f8ae45c8af9c359d56b307cc3e36fef13cb9c64736f6c63430008040033",
  "linkReferences": {},
  "deployedLinkReferences": {}
}