{
  "_format": "hh-sol-artifact-1",
  "contractName": "DStor",
  "sourceName": "src/backend/contracts/DStor.sol",
  "abi": [
    {
      "inputs": [],
      "stateMutability": "nonpayable",
      "type": "constructor"
    },
    {
      "anonymous": false,
      "inputs": [
        {
          "indexed": false,
          "internalType": "address",
          "name": "recipient",
          "type": "address"
        }
      ],
      "name": "FileUpdated",
      "type": "event"
    },
    {
      "anonymous": false,
      "inputs": [
        {
          "indexed": false,
          "internalType": "address",
          "name": "sender",
          "type": "address"
        },
        {
          "indexed": false,
          "internalType": "address",
          "name": "recipient",
          "type": "address"
        }
      ],
      "name": "FileUploaded",
      "type": "event"
    },
    {
      "anonymous": false,
      "inputs": [
        {
          "indexed": true,
          "internalType": "address",
          "name": "previousOwner",
          "type": "address"
        },
        {
          "indexed": true,
          "internalType": "address",
          "name": "newOwner",
          "type": "address"
        }
      ],
      "name": "OwnershipTransferred",
      "type": "event"
    },
    {
      "inputs": [
        {
          "internalType": "uint256",
          "name": "",
          "type": "uint256"
        }
      ],
      "name": "expiresAt",
      "outputs": [
        {
          "internalType": "uint256",
          "name": "",
          "type": "uint256"
        }
      ],
      "stateMutability": "view",
      "type": "function"
    },
    {
      "inputs": [],
      "name": "fileCount",
      "outputs": [
        {
          "internalType": "uint256",
          "name": "",
          "type": "uint256"
        }
      ],
      "stateMutability": "view",
      "type": "function"
    },
    {
      "inputs": [],
      "name": "fissionEngine",
      "outputs": [
        {
          "internalType": "address",
          "name": "",
          "type": "address"
        }
      ],
      "stateMutability": "view",
      "type": "function"
    },
    {
      "inputs": [
        {
          "internalType": "uint256",
          "name": "numBytes",
          "type": "uint256"
        }
      ],
      "name": "gasQuote",
      "outputs": [
        {
          "internalType": "uint256",
          "name": "weiPerDiem",
          "type": "uint256"
        },
        {
          "internalType": "uint256",
          "name": "weiBenchFee",
          "type": "uint256"
        }
      ],
      "stateMutability": "view",
      "type": "function"
    },
    {
      "inputs": [
        {
          "internalType": "uint256",
          "name": "fileId",
          "type": "uint256"
        }
      ],
      "name": "get",
      "outputs": [
        {
          "components": [
            {
              "internalType": "string",
              "name": "fileHash",
              "type": "string"
            },
            {
              "internalType": "uint256",
              "name": "fileSize",
              "type": "uint256"
            },
            {
              "internalType": "string",
              "name": "fileType",
              "type": "string"
            },
            {
              "internalType": "string",
              "name": "fileName",
              "type": "string"
            },
            {
              "internalType": "string",
              "name": "fileDescription",
              "type": "string"
            },
            {
              "internalType": "address",
              "name": "recipient",
              "type": "address"
            },
            {
              "internalType": "uint256",
              "name": "uploadTime",
              "type": "uint256"
            },
            {
              "internalType": "address",
              "name": "uploader",
              "type": "address"
            }
          ],
          "internalType": "struct DStor.File",
          "name": "",
          "type": "tuple"
        }
      ],
      "stateMutability": "view",
      "type": "function"
    },
    {
      "inputs": [
        {
          "internalType": "bool",
          "name": "isSender",
          "type": "bool"
        }
      ],
      "name": "getAccessibleFileIds",
      "outputs": [
        {
          "internalType": "uint256[]",
          "name": "",
          "type": "uint256[]"
        }
      ],
      "stateMutability": "view",
      "type": "function"
    },
    {
      "inputs": [
        {
          "internalType": "bool",
          "name": "isSender",
          "type": "bool"
        }
      ],
      "name": "getAccessibleFiles",
      "outputs": [
        {
          "components": [
            {
              "internalType": "string",
              "name": "fileHash",
              "type": "string"
            },
            {
              "internalType": "uint256",
              "name": "fileSize",
              "type": "uint256"
            },
            {
              "internalType": "string",
              "name": "fileType",
              "type": "string"
            },
            {
              "internalType": "string",
              "name": "fileName",
              "type": "string"
            },
            {
              "internalType": "string",
              "name": "fileDescription",
              "type": "string"
            },
            {
              "internalType": "address",
              "name": "recipient",
              "type": "address"
            },
            {
              "internalType": "uint256",
              "name": "uploadTime",
              "type": "uint256"
            },
            {
              "internalType": "address",
              "name": "uploader",
              "type": "address"
            }
          ],
          "internalType": "struct DStor.File[]",
          "name": "",
          "type": "tuple[]"
        }
      ],
      "stateMutability": "view",
      "type": "function"
    },
    {
      "inputs": [],
      "name": "minimumPin",
      "outputs": [
        {
          "internalType": "uint256",
          "name": "",
          "type": "uint256"
        }
      ],
      "stateMutability": "view",
      "type": "function"
    },
    {
      "inputs": [
        {
          "internalType": "uint256",
          "name": "fileId",
          "type": "uint256"
        },
        {
          "internalType": "string",
          "name": "fileName",
          "type": "string"
        },
        {
          "internalType": "string",
          "name": "description",
          "type": "string"
        },
        {
          "internalType": "address",
          "name": "recipient",
          "type": "address"
        }
      ],
      "name": "modify",
      "outputs": [],
      "stateMutability": "nonpayable",
      "type": "function"
    },
    {
      "inputs": [],
      "name": "name",
      "outputs": [
        {
          "internalType": "string",
          "name": "",
          "type": "string"
        }
      ],
      "stateMutability": "view",
      "type": "function"
    },
    {
      "inputs": [],
      "name": "owner",
      "outputs": [
        {
          "internalType": "address",
          "name": "",
          "type": "address"
        }
      ],
      "stateMutability": "view",
      "type": "function"
    },
    {
      "inputs": [],
      "name": "pinningRate",
      "outputs": [
        {
          "internalType": "uint256",
          "name": "",
          "type": "uint256"
        }
      ],
      "stateMutability": "view",
      "type": "function"
    },
    {
      "inputs": [
        {
          "internalType": "uint256",
          "name": "numBytes",
          "type": "uint256"
        }
      ],
      "name": "quote",
      "outputs": [
        {
          "internalType": "uint256",
          "name": "perDiem",
          "type": "uint256"
        },
        {
          "internalType": "uint256",
          "name": "benchFee",
          "type": "uint256"
        }
      ],
      "stateMutability": "view",
      "type": "function"
    },
    {
      "inputs": [],
      "name": "received",
      "outputs": [
        {
          "components": [
            {
              "internalType": "string",
              "name": "fileHash",
              "type": "string"
            },
            {
              "internalType": "uint256",
              "name": "fileSize",
              "type": "uint256"
            },
            {
              "internalType": "string",
              "name": "fileType",
              "type": "string"
            },
            {
              "internalType": "string",
              "name": "fileName",
              "type": "string"
            },
            {
              "internalType": "string",
              "name": "fileDescription",
              "type": "string"
            },
            {
              "internalType": "address",
              "name": "recipient",
              "type": "address"
            },
            {
              "internalType": "uint256",
              "name": "uploadTime",
              "type": "uint256"
            },
            {
              "internalType": "address",
              "name": "uploader",
              "type": "address"
            }
          ],
          "internalType": "struct DStor.File[]",
          "name": "",
          "type": "tuple[]"
        }
      ],
      "stateMutability": "view",
      "type": "function"
    },
    {
      "inputs": [],
      "name": "renounceOwnership",
      "outputs": [],
      "stateMutability": "nonpayable",
      "type": "function"
    },
    {
      "inputs": [],
      "name": "sent",
      "outputs": [
        {
          "components": [
            {
              "internalType": "string",
              "name": "fileHash",
              "type": "string"
            },
            {
              "internalType": "uint256",
              "name": "fileSize",
              "type": "uint256"
            },
            {
              "internalType": "string",
              "name": "fileType",
              "type": "string"
            },
            {
              "internalType": "string",
              "name": "fileName",
              "type": "string"
            },
            {
              "internalType": "string",
              "name": "fileDescription",
              "type": "string"
            },
            {
              "internalType": "address",
              "name": "recipient",
              "type": "address"
            },
            {
              "internalType": "uint256",
              "name": "uploadTime",
              "type": "uint256"
            },
            {
              "internalType": "address",
              "name": "uploader",
              "type": "address"
            }
          ],
          "internalType": "struct DStor.File[]",
          "name": "",
          "type": "tuple[]"
        }
      ],
      "stateMutability": "view",
      "type": "function"
    },
    {
      "inputs": [
        {
          "internalType": "address",
          "name": "fission",
          "type": "address"
        }
      ],
      "name": "setFission",
      "outputs": [],
      "stateMutability": "nonpayable",
      "type": "function"
    },
    {
      "inputs": [
        {
          "internalType": "bool",
          "name": "isMinimumPin",
          "type": "bool"
        },
        {
          "internalType": "uint256",
          "name": "value",
          "type": "uint256"
        }
      ],
      "name": "setRules",
      "outputs": [],
      "stateMutability": "nonpayable",
      "type": "function"
    },
    {
      "inputs": [],
      "name": "takeProfit",
      "outputs": [],
      "stateMutability": "nonpayable",
      "type": "function"
    },
    {
      "inputs": [
        {
          "internalType": "address",
          "name": "newOwner",
          "type": "address"
        }
      ],
      "name": "transferOwnership",
      "outputs": [],
      "stateMutability": "nonpayable",
      "type": "function"
    },
    {
      "inputs": [
        {
          "internalType": "string",
          "name": "_fileHash",
          "type": "string"
        },
        {
          "internalType": "uint256",
          "name": "_fileSize",
          "type": "uint256"
        },
        {
          "internalType": "string",
          "name": "_fileType",
          "type": "string"
        },
        {
          "internalType": "string",
          "name": "_fileName",
          "type": "string"
        },
        {
          "internalType": "string",
          "name": "_fileDescription",
          "type": "string"
        },
        {
          "internalType": "address",
          "name": "recipient",
          "type": "address"
        }
      ],
      "name": "upload",
      "outputs": [],
      "stateMutability": "nonpayable",
      "type": "function"
    }
  ],
  "bytecode": "0x60806040526096600255601e60035560006006553480156200002057600080fd5b5062000041620000356200004760201b60201c565b6200004f60201b60201c565b62000113565b600033905090565b60008060009054906101000a900473ffffffffffffffffffffffffffffffffffffffff169050816000806101000a81548173ffffffffffffffffffffffffffffffffffffffff021916908373ffffffffffffffffffffffffffffffffffffffff1602179055508173ffffffffffffffffffffffffffffffffffffffff168173ffffffffffffffffffffffffffffffffffffffff167f8be0079c531659141344cd1fd0a4f28419497f9722a3daafe3b4186f6b6457e060405160405180910390a35050565b61255c80620001236000396000f3fe608060405234801561001057600080fd5b50600436106101375760003560e01c8063715018a6116100b8578063a3e0fdc31161007c578063a3e0fdc31461032d578063ba22ef2614610349578063c2bfccc014610367578063ed1bd76c14610385578063f2fde38b146103b6578063fe668460146103d257610137565b8063715018a61461029b57806383a6deb5146102a55780638862af95146102c35780638da5cb5b146102df5780639507d39a146102fd57610137565b80633c1f81ff116100ff5780633c1f81ff1461020957806343953519146102255780635d7e00781461024357806366ecd0021461027357806370c105781461029157610137565b80630617ff791461013c57806306fdde031461016c57806317c957091461018a5780631932e8d1146101ba57806321f6fb11146101eb575b600080fd5b61015660048036038101906101519190611949565b6103ee565b6040516101639190611f60565b60405180910390f35b610174610538565b6040516101819190611fa4565b60405180910390f35b6101a4600480360381019061019f9190611a97565b610571565b6040516101b19190612048565b60405180910390f35b6101d460048036038101906101cf9190611a97565b610589565b6040516101e2929190612063565b60405180910390f35b6101f3610688565b6040516102009190612048565b60405180910390f35b610223600480360381019061021e9190611972565b61068e565b005b61022d61072f565b60405161023a9190612048565b60405180910390f35b61025d60048036038101906102589190611949565b610735565b60405161026a9190611f82565b60405180910390f35b61027b6109c5565b6040516102889190611f1c565b60405180910390f35b6102996109eb565b005b6102a3610a3b565b005b6102ad610ac3565b6040516102ba9190611f60565b60405180910390f35b6102dd60048036038101906102d89190611ae9565b610ad4565b005b6102e7610d39565b6040516102f49190611f1c565b60405180910390f35b61031760048036038101906103129190611a97565b610d62565b6040516103249190612026565b60405180910390f35b61034760048036038101906103429190611920565b61114a565b005b61035161120a565b60405161035e9190612048565b60405180910390f35b61036f611210565b60405161037c9190611f60565b60405180910390f35b61039f600480360381019061039a9190611a97565b611221565b6040516103ad929190612063565b60405180910390f35b6103d060048036038101906103cb9190611920565b6112b2565b005b6103ec60048036038101906103e791906119ae565b6113aa565b005b606060006103fb83610735565b905060008151905060008167ffffffffffffffff811115610445577f4e487b7100000000000000000000000000000000000000000000000000000000600052604160045260246000fd5b60405190808252806020026020018201604052801561047e57816020015b61046b611750565b8152602001906001900390816104635790505b50905060005b8281101561052c576104d58482815181106104c8577f4e487b7100000000000000000000000000000000000000000000000000000000600052603260045260246000fd5b6020026020010151610d62565b82828151811061050e577f4e487b7100000000000000000000000000000000000000000000000000000000600052603260045260246000fd5b60200260200101819052508080610524906122f9565b915050610484565b50809350505050919050565b6040518060400160405280601381526020017f4453746f724048656d6c6f636b5374726565740000000000000000000000000081525081565b60046020528060005260406000206000915090505481565b60008060008061059885611221565b915091506000600160009054906101000a900473ffffffffffffffffffffffffffffffffffffffff16905060008173ffffffffffffffffffffffffffffffffffffffff1663e113e6406040518163ffffffff1660e01b815260040160206040518083038186803b15801561060b57600080fd5b505afa15801561061f573d6000803e3d6000fd5b505050506040513d601f19601f820116820180604052508101906106439190611ac0565b90506305f5e100818561065691906121b2565b6106609190612181565b95506305f5e100818461067391906121b2565b61067d9190612181565b945050505050915091565b60035481565b610696611684565b73ffffffffffffffffffffffffffffffffffffffff166106b4610d39565b73ffffffffffffffffffffffffffffffffffffffff161461070a576040517f08c379a000000000000000000000000000000000000000000000000000000000815260040161070190612006565b60405180910390fd5b600115158215151415610723578060038190555061072b565b806002819055505b5050565b60065481565b6060600080600090505b600654811161081c5760008461078b576005600083815260200190815260200160002060050160009054906101000a900473ffffffffffffffffffffffffffffffffffffffff166107c3565b6005600083815260200190815260200160002060070160009054906101000a900473ffffffffffffffffffffffffffffffffffffffff165b90503373ffffffffffffffffffffffffffffffffffffffff168173ffffffffffffffffffffffffffffffffffffffff161415610808578280610804906122f9565b9350505b508080610814906122f9565b91505061073f565b5060008167ffffffffffffffff81111561085f577f4e487b7100000000000000000000000000000000000000000000000000000000600052604160045260246000fd5b60405190808252806020026020018201604052801561088d5781602001602082028036833780820191505090505b5090506000915060005b60065481116109ba576000856108e3576005600083815260200190815260200160002060050160009054906101000a900473ffffffffffffffffffffffffffffffffffffffff1661091b565b6005600083815260200190815260200160002060070160009054906101000a900473ffffffffffffffffffffffffffffffffffffffff165b90503373ffffffffffffffffffffffffffffffffffffffff168173ffffffffffffffffffffffffffffffffffffffff1614156109a6578183858151811061098b577f4e487b7100000000000000000000000000000000000000000000000000000000600052603260045260246000fd5b60200260200101818152505083806109a2906122f9565b9450505b5080806109b2906122f9565b915050610897565b508092505050919050565b600160009054906101000a900473ffffffffffffffffffffffffffffffffffffffff1681565b6109f3610d39565b73ffffffffffffffffffffffffffffffffffffffff166108fc479081150290604051600060405180830381858888f19350505050158015610a38573d6000803e3d6000fd5b50565b610a43611684565b73ffffffffffffffffffffffffffffffffffffffff16610a61610d39565b73ffffffffffffffffffffffffffffffffffffffff1614610ab7576040517f08c379a0000000000000000000000000000000000000000000000000000000008152600401610aae90612006565b60405180910390fd5b610ac1600061168c565b565b6060610acf60006103ee565b905090565b60006005600086815260200190815260200160002090503373ffffffffffffffffffffffffffffffffffffffff168160070160009054906101000a900473ffffffffffffffffffffffffffffffffffffffff1673ffffffffffffffffffffffffffffffffffffffff1614610b7d576040517f08c379a0000000000000000000000000000000000000000000000000000000008152600401610b7490611fe6565b60405180910390fd5b600084519050600084519050600082141580610b9a575060008114155b80610bd25750600073ffffffffffffffffffffffffffffffffffffffff168473ffffffffffffffffffffffffffffffffffffffff1614155b8015610c0a57503373ffffffffffffffffffffffffffffffffffffffff168473ffffffffffffffffffffffffffffffffffffffff1614155b15610cd05760008214610c315785836003019080519060200190610c2f9291906117c1565b505b60008114610c535784836004019080519060200190610c519291906117c1565b505b600073ffffffffffffffffffffffffffffffffffffffff168473ffffffffffffffffffffffffffffffffffffffff1614610ccb57838360050160006101000a81548173ffffffffffffffffffffffffffffffffffffffff021916908373ffffffffffffffffffffffffffffffffffffffff1602179055505b610cd5565b600080fd5b7fc2b72a0fe8c458577d2c9ac0f97d01cbb043a6faae7c6b7eeda2a4812575027b8360050160009054906101000a900473ffffffffffffffffffffffffffffffffffffffff16604051610d289190611f1c565b60405180910390a150505050505050565b60008060009054906101000a900473ffffffffffffffffffffffffffffffffffffffff16905090565b610d6a611750565b60006005600084815260200190815260200160002060405180610100016040529081600082018054610d9b90612296565b80601f0160208091040260200160405190810160405280929190818152602001828054610dc790612296565b8015610e145780601f10610de957610100808354040283529160200191610e14565b820191906000526020600020905b815481529060010190602001808311610df757829003601f168201915b5050505050815260200160018201548152602001600282018054610e3790612296565b80601f0160208091040260200160405190810160405280929190818152602001828054610e6390612296565b8015610eb05780601f10610e8557610100808354040283529160200191610eb0565b820191906000526020600020905b815481529060010190602001808311610e9357829003601f168201915b50505050508152602001600382018054610ec990612296565b80601f0160208091040260200160405190810160405280929190818152602001828054610ef590612296565b8015610f425780601f10610f1757610100808354040283529160200191610f42565b820191906000526020600020905b815481529060010190602001808311610f2557829003601f168201915b50505050508152602001600482018054610f5b90612296565b80601f0160208091040260200160405190810160405280929190818152602001828054610f8790612296565b8015610fd45780601f10610fa957610100808354040283529160200191610fd4565b820191906000526020600020905b815481529060010190602001808311610fb757829003601f168201915b505050505081526020016005820160009054906101000a900473ffffffffffffffffffffffffffffffffffffffff1673ffffffffffffffffffffffffffffffffffffffff1673ffffffffffffffffffffffffffffffffffffffff168152602001600682015481526020016007820160009054906101000a900473ffffffffffffffffffffffffffffffffffffffff1673ffffffffffffffffffffffffffffffffffffffff1673ffffffffffffffffffffffffffffffffffffffff168152505090503373ffffffffffffffffffffffffffffffffffffffff168160e0015173ffffffffffffffffffffffffffffffffffffffff16148061110257503373ffffffffffffffffffffffffffffffffffffffff168160a0015173ffffffffffffffffffffffffffffffffffffffff16145b611141576040517f08c379a000000000000000000000000000000000000000000000000000000000815260040161113890611fe6565b60405180910390fd5b80915050919050565b611152611684565b73ffffffffffffffffffffffffffffffffffffffff16611170610d39565b73ffffffffffffffffffffffffffffffffffffffff16146111c6576040517f08c379a00000000000000000000000000000000000000000000000000000000081526004016111bd90612006565b60405180910390fd5b80600160006101000a81548173ffffffffffffffffffffffffffffffffffffffff021916908373ffffffffffffffffffffffffffffffffffffffff16021790555050565b60025481565b606061121c60016103ee565b905090565b60008061040083101561123357600080fd5b6000610400846112439190612181565b90506000610400856112559190612342565b111561126a578080611266906122f9565b9150505b600062100000620f424060025461128191906121b2565b61128b9190612181565b9050808261129991906121b2565b9350600354846112a991906121b2565b92505050915091565b6112ba611684565b73ffffffffffffffffffffffffffffffffffffffff166112d8610d39565b73ffffffffffffffffffffffffffffffffffffffff161461132e576040517f08c379a000000000000000000000000000000000000000000000000000000000815260040161132590612006565b60405180910390fd5b600073ffffffffffffffffffffffffffffffffffffffff168173ffffffffffffffffffffffffffffffffffffffff16141561139e576040517f08c379a000000000000000000000000000000000000000000000000000000000815260040161139590611fc6565b60405180910390fd5b6113a78161168c565b50565b600086511180156113bd57506104008510155b80156113ca575060008451115b80156113d7575060008351115b80156113e4575060008251115b801561141d5750600073ffffffffffffffffffffffffffffffffffffffff163373ffffffffffffffffffffffffffffffffffffffff1614155b801561145557503373ffffffffffffffffffffffffffffffffffffffff168173ffffffffffffffffffffffffffffffffffffffff1614155b801561148e5750600073ffffffffffffffffffffffffffffffffffffffff168173ffffffffffffffffffffffffffffffffffffffff1614155b61149757600080fd5b600660008154809291906114aa906122f9565b91905055506040518061010001604052808781526020018681526020018581526020018481526020018381526020018273ffffffffffffffffffffffffffffffffffffffff1681526020014281526020013373ffffffffffffffffffffffffffffffffffffffff1681525060056000600654815260200190815260200160002060008201518160000190805190602001906115469291906117c1565b5060208201518160010155604082015181600201908051906020019061156d9291906117c1565b50606082015181600301908051906020019061158a9291906117c1565b5060808201518160040190805190602001906115a79291906117c1565b5060a08201518160050160006101000a81548173ffffffffffffffffffffffffffffffffffffffff021916908373ffffffffffffffffffffffffffffffffffffffff16021790555060c0820151816006015560e08201518160070160006101000a81548173ffffffffffffffffffffffffffffffffffffffff021916908373ffffffffffffffffffffffffffffffffffffffff1602179055509050507f2ed6b29ed6f9dfc1441858346e53f608893095656cd9a14653917f5ade7a8a2e3382604051611674929190611f37565b60405180910390a1505050505050565b600033905090565b60008060009054906101000a900473ffffffffffffffffffffffffffffffffffffffff169050816000806101000a81548173ffffffffffffffffffffffffffffffffffffffff021916908373ffffffffffffffffffffffffffffffffffffffff1602179055508173ffffffffffffffffffffffffffffffffffffffff168173ffffffffffffffffffffffffffffffffffffffff167f8be0079c531659141344cd1fd0a4f28419497f9722a3daafe3b4186f6b6457e060405160405180910390a35050565b6040518061010001604052806060815260200160008152602001606081526020016060815260200160608152602001600073ffffffffffffffffffffffffffffffffffffffff16815260200160008152602001600073ffffffffffffffffffffffffffffffffffffffff1681525090565b8280546117cd90612296565b90600052602060002090601f0160209004810192826117ef5760008555611836565b82601f1061180857805160ff1916838001178555611836565b82800160010185558215611836579182015b8281111561183557825182559160200191906001019061181a565b5b5090506118439190611847565b5090565b5b80821115611860576000816000905550600101611848565b5090565b6000611877611872846120b1565b61208c565b90508281526020810184848401111561188f57600080fd5b61189a848285612254565b509392505050565b6000813590506118b1816124e1565b92915050565b6000813590506118c6816124f8565b92915050565b600082601f8301126118dd57600080fd5b81356118ed848260208601611864565b91505092915050565b6000813590506119058161250f565b92915050565b60008151905061191a8161250f565b92915050565b60006020828403121561193257600080fd5b6000611940848285016118a2565b91505092915050565b60006020828403121561195b57600080fd5b6000611969848285016118b7565b91505092915050565b6000806040838503121561198557600080fd5b6000611993858286016118b7565b92505060206119a4858286016118f6565b9150509250929050565b60008060008060008060c087890312156119c757600080fd5b600087013567ffffffffffffffff8111156119e157600080fd5b6119ed89828a016118cc565b96505060206119fe89828a016118f6565b955050604087013567ffffffffffffffff811115611a1b57600080fd5b611a2789828a016118cc565b945050606087013567ffffffffffffffff811115611a4457600080fd5b611a5089828a016118cc565b935050608087013567ffffffffffffffff811115611a6d57600080fd5b611a7989828a016118cc565b92505060a0611a8a89828a016118a2565b9150509295509295509295565b600060208284031215611aa957600080fd5b6000611ab7848285016118f6565b91505092915050565b600060208284031215611ad257600080fd5b6000611ae08482850161190b565b91505092915050565b60008060008060808587031215611aff57600080fd5b6000611b0d878288016118f6565b945050602085013567ffffffffffffffff811115611b2a57600080fd5b611b36878288016118cc565b935050604085013567ffffffffffffffff811115611b5357600080fd5b611b5f878288016118cc565b9250506060611b70878288016118a2565b91505092959194509250565b6000611b888383611d74565b905092915050565b6000611b9c8383611efe565b60208301905092915050565b611bb18161220c565b82525050565b611bc08161220c565b82525050565b6000611bd182612102565b611bdb818561213d565b935083602082028501611bed856120e2565b8060005b85811015611c295784840389528151611c0a8582611b7c565b9450611c1583612123565b925060208a01995050600181019050611bf1565b50829750879550505050505092915050565b6000611c468261210d565b611c50818561214e565b9350611c5b836120f2565b8060005b83811015611c8c578151611c738882611b90565b9750611c7e83612130565b925050600181019050611c5f565b5085935050505092915050565b6000611ca482612118565b611cae818561215f565b9350611cbe818560208601612263565b611cc78161242f565b840191505092915050565b6000611cdd82612118565b611ce78185612170565b9350611cf7818560208601612263565b611d008161242f565b840191505092915050565b6000611d18602683612170565b9150611d2382612440565b604082019050919050565b6000611d3b600d83612170565b9150611d468261248f565b602082019050919050565b6000611d5e602083612170565b9150611d69826124b8565b602082019050919050565b6000610100830160008301518482036000860152611d928282611c99565b9150506020830151611da76020860182611efe565b5060408301518482036040860152611dbf8282611c99565b91505060608301518482036060860152611dd98282611c99565b91505060808301518482036080860152611df38282611c99565b91505060a0830151611e0860a0860182611ba8565b5060c0830151611e1b60c0860182611efe565b5060e0830151611e2e60e0860182611ba8565b508091505092915050565b6000610100830160008301518482036000860152611e578282611c99565b9150506020830151611e6c6020860182611efe565b5060408301518482036040860152611e848282611c99565b91505060608301518482036060860152611e9e8282611c99565b91505060808301518482036080860152611eb88282611c99565b91505060a0830151611ecd60a0860182611ba8565b5060c0830151611ee060c0860182611efe565b5060e0830151611ef360e0860182611ba8565b508091505092915050565b611f078161224a565b82525050565b611f168161224a565b82525050565b6000602082019050611f316000830184611bb7565b92915050565b6000604082019050611f4c6000830185611bb7565b611f596020830184611bb7565b9392505050565b60006020820190508181036000830152611f7a8184611bc6565b905092915050565b60006020820190508181036000830152611f9c8184611c3b565b905092915050565b60006020820190508181036000830152611fbe8184611cd2565b905092915050565b60006020820190508181036000830152611fdf81611d0b565b9050919050565b60006020820190508181036000830152611fff81611d2e565b9050919050565b6000602082019050818103600083015261201f81611d51565b9050919050565b600060208201905081810360008301526120408184611e39565b905092915050565b600060208201905061205d6000830184611f0d565b92915050565b60006040820190506120786000830185611f0d565b6120856020830184611f0d565b9392505050565b60006120966120a7565b90506120a282826122c8565b919050565b6000604051905090565b600067ffffffffffffffff8211156120cc576120cb612400565b5b6120d58261242f565b9050602081019050919050565b6000819050602082019050919050565b6000819050602082019050919050565b600081519050919050565b600081519050919050565b600081519050919050565b6000602082019050919050565b6000602082019050919050565b600082825260208201905092915050565b600082825260208201905092915050565b600082825260208201905092915050565b600082825260208201905092915050565b600061218c8261224a565b91506121978361224a565b9250826121a7576121a66123a2565b5b828204905092915050565b60006121bd8261224a565b91506121c88361224a565b9250817fffffffffffffffffffffffffffffffffffffffffffffffffffffffffffffffff048311821515161561220157612200612373565b5b828202905092915050565b60006122178261222a565b9050919050565b60008115159050919050565b600073ffffffffffffffffffffffffffffffffffffffff82169050919050565b6000819050919050565b82818337600083830152505050565b60005b83811015612281578082015181840152602081019050612266565b83811115612290576000848401525b50505050565b600060028204905060018216806122ae57607f821691505b602082108114156122c2576122c16123d1565b5b50919050565b6122d18261242f565b810181811067ffffffffffffffff821117156122f0576122ef612400565b5b80604052505050565b60006123048261224a565b91507fffffffffffffffffffffffffffffffffffffffffffffffffffffffffffffffff82141561233757612336612373565b5b600182019050919050565b600061234d8261224a565b91506123588361224a565b925082612368576123676123a2565b5b828206905092915050565b7f4e487b7100000000000000000000000000000000000000000000000000000000600052601160045260246000fd5b7f4e487b7100000000000000000000000000000000000000000000000000000000600052601260045260246000fd5b7f4e487b7100000000000000000000000000000000000000000000000000000000600052602260045260246000fd5b7f4e487b7100000000000000000000000000000000000000000000000000000000600052604160045260246000fd5b6000601f19601f8301169050919050565b7f4f776e61626c653a206e6577206f776e657220697320746865207a65726f206160008201527f6464726573730000000000000000000000000000000000000000000000000000602082015250565b7f4143434553532044454e49454400000000000000000000000000000000000000600082015250565b7f4f776e61626c653a2063616c6c6572206973206e6f7420746865206f776e6572600082015250565b6124ea8161220c565b81146124f557600080fd5b50565b6125018161221e565b811461250c57600080fd5b50565b6125188161224a565b811461252357600080fd5b5056fea26469706673582212205debc097586471418bcf755ac308336ec91a69bc23d2ac5bd4e031275f3c0cc064736f6c63430008040033",
  "linkReferences": {},
  "deployedLinkReferences": {}
}