{
  "_format": "hh-sol-artifact-1",
  "contractName": "DStor",
  "sourceName": "src/backend/contracts/DStor.sol",
  "abi": [
    {
      "inputs": [],
      "stateMutability": "nonpayable",
      "type": "constructor"
    },
    {
      "anonymous": false,
      "inputs": [
        {
          "indexed": false,
          "internalType": "address",
          "name": "recipient",
          "type": "address"
        }
      ],
      "name": "FileUpdated",
      "type": "event"
    },
    {
      "anonymous": false,
      "inputs": [
        {
          "indexed": false,
          "internalType": "address",
          "name": "sender",
          "type": "address"
        },
        {
          "indexed": false,
          "internalType": "address",
          "name": "recipient",
          "type": "address"
        }
      ],
      "name": "FileUploaded",
      "type": "event"
    },
    {
      "anonymous": false,
      "inputs": [
        {
          "indexed": true,
          "internalType": "address",
          "name": "previousOwner",
          "type": "address"
        },
        {
          "indexed": true,
          "internalType": "address",
          "name": "newOwner",
          "type": "address"
        }
      ],
      "name": "OwnershipTransferred",
      "type": "event"
    },
    {
      "inputs": [
        {
          "internalType": "uint256",
          "name": "",
          "type": "uint256"
        }
      ],
      "name": "expiresAt",
      "outputs": [
        {
          "internalType": "uint256",
          "name": "",
          "type": "uint256"
        }
      ],
      "stateMutability": "view",
      "type": "function"
    },
    {
      "inputs": [],
      "name": "fileCount",
      "outputs": [
        {
          "internalType": "uint256",
          "name": "",
          "type": "uint256"
        }
      ],
      "stateMutability": "view",
      "type": "function"
    },
    {
      "inputs": [
        {
          "internalType": "uint256",
          "name": "fileId",
          "type": "uint256"
        }
      ],
      "name": "get",
      "outputs": [
        {
          "components": [
            {
              "internalType": "string",
              "name": "fileHash",
              "type": "string"
            },
            {
              "internalType": "uint256",
              "name": "fileSize",
              "type": "uint256"
            },
            {
              "internalType": "string",
              "name": "fileType",
              "type": "string"
            },
            {
              "internalType": "string",
              "name": "fileName",
              "type": "string"
            },
            {
              "internalType": "string",
              "name": "fileDescription",
              "type": "string"
            },
            {
              "internalType": "address",
              "name": "recipient",
              "type": "address"
            },
            {
              "internalType": "uint256",
              "name": "uploadTime",
              "type": "uint256"
            },
            {
              "internalType": "address",
              "name": "uploader",
              "type": "address"
            }
          ],
          "internalType": "struct DStor.File",
          "name": "",
          "type": "tuple"
        }
      ],
      "stateMutability": "view",
      "type": "function"
    },
    {
      "inputs": [
        {
          "internalType": "bool",
          "name": "isSender",
          "type": "bool"
        }
      ],
      "name": "getAccessibleFileIds",
      "outputs": [
        {
          "internalType": "uint256[]",
          "name": "",
          "type": "uint256[]"
        }
      ],
      "stateMutability": "view",
      "type": "function"
    },
    {
      "inputs": [
        {
          "internalType": "bool",
          "name": "isSender",
          "type": "bool"
        }
      ],
      "name": "getAccessibleFiles",
      "outputs": [
        {
          "components": [
            {
              "internalType": "string",
              "name": "fileHash",
              "type": "string"
            },
            {
              "internalType": "uint256",
              "name": "fileSize",
              "type": "uint256"
            },
            {
              "internalType": "string",
              "name": "fileType",
              "type": "string"
            },
            {
              "internalType": "string",
              "name": "fileName",
              "type": "string"
            },
            {
              "internalType": "string",
              "name": "fileDescription",
              "type": "string"
            },
            {
              "internalType": "address",
              "name": "recipient",
              "type": "address"
            },
            {
              "internalType": "uint256",
              "name": "uploadTime",
              "type": "uint256"
            },
            {
              "internalType": "address",
              "name": "uploader",
              "type": "address"
            }
          ],
          "internalType": "struct DStor.File[]",
          "name": "",
          "type": "tuple[]"
        }
      ],
      "stateMutability": "view",
      "type": "function"
    },
    {
      "inputs": [],
      "name": "minimumPin",
      "outputs": [
        {
          "internalType": "uint256",
          "name": "",
          "type": "uint256"
        }
      ],
      "stateMutability": "view",
      "type": "function"
    },
    {
      "inputs": [
        {
          "internalType": "uint256",
          "name": "fileId",
          "type": "uint256"
        },
        {
          "internalType": "string",
          "name": "fileName",
          "type": "string"
        },
        {
          "internalType": "string",
          "name": "description",
          "type": "string"
        },
        {
          "internalType": "address",
          "name": "recipient",
          "type": "address"
        }
      ],
      "name": "modify",
      "outputs": [],
      "stateMutability": "nonpayable",
      "type": "function"
    },
    {
      "inputs": [],
      "name": "name",
      "outputs": [
        {
          "internalType": "string",
          "name": "",
          "type": "string"
        }
      ],
      "stateMutability": "view",
      "type": "function"
    },
    {
      "inputs": [],
      "name": "owner",
      "outputs": [
        {
          "internalType": "address",
          "name": "",
          "type": "address"
        }
      ],
      "stateMutability": "view",
      "type": "function"
    },
    {
      "inputs": [],
      "name": "pinningRate",
      "outputs": [
        {
          "internalType": "uint256",
          "name": "",
          "type": "uint256"
        }
      ],
      "stateMutability": "view",
      "type": "function"
    },
    {
      "inputs": [
        {
          "internalType": "uint256",
          "name": "numBytes",
          "type": "uint256"
        }
      ],
      "name": "quote",
      "outputs": [
        {
          "internalType": "uint256",
          "name": "perDiem",
          "type": "uint256"
        },
        {
          "internalType": "uint256",
          "name": "benchFee",
          "type": "uint256"
        }
      ],
      "stateMutability": "view",
      "type": "function"
    },
    {
      "inputs": [],
      "name": "received",
      "outputs": [
        {
          "components": [
            {
              "internalType": "string",
              "name": "fileHash",
              "type": "string"
            },
            {
              "internalType": "uint256",
              "name": "fileSize",
              "type": "uint256"
            },
            {
              "internalType": "string",
              "name": "fileType",
              "type": "string"
            },
            {
              "internalType": "string",
              "name": "fileName",
              "type": "string"
            },
            {
              "internalType": "string",
              "name": "fileDescription",
              "type": "string"
            },
            {
              "internalType": "address",
              "name": "recipient",
              "type": "address"
            },
            {
              "internalType": "uint256",
              "name": "uploadTime",
              "type": "uint256"
            },
            {
              "internalType": "address",
              "name": "uploader",
              "type": "address"
            }
          ],
          "internalType": "struct DStor.File[]",
          "name": "",
          "type": "tuple[]"
        }
      ],
      "stateMutability": "view",
      "type": "function"
    },
    {
      "inputs": [],
      "name": "renounceOwnership",
      "outputs": [],
      "stateMutability": "nonpayable",
      "type": "function"
    },
    {
      "inputs": [],
      "name": "sent",
      "outputs": [
        {
          "components": [
            {
              "internalType": "string",
              "name": "fileHash",
              "type": "string"
            },
            {
              "internalType": "uint256",
              "name": "fileSize",
              "type": "uint256"
            },
            {
              "internalType": "string",
              "name": "fileType",
              "type": "string"
            },
            {
              "internalType": "string",
              "name": "fileName",
              "type": "string"
            },
            {
              "internalType": "string",
              "name": "fileDescription",
              "type": "string"
            },
            {
              "internalType": "address",
              "name": "recipient",
              "type": "address"
            },
            {
              "internalType": "uint256",
              "name": "uploadTime",
              "type": "uint256"
            },
            {
              "internalType": "address",
              "name": "uploader",
              "type": "address"
            }
          ],
          "internalType": "struct DStor.File[]",
          "name": "",
          "type": "tuple[]"
        }
      ],
      "stateMutability": "view",
      "type": "function"
    },
    {
      "inputs": [
        {
          "internalType": "bool",
          "name": "isMinimumPin",
          "type": "bool"
        },
        {
          "internalType": "uint256",
          "name": "value",
          "type": "uint256"
        }
      ],
      "name": "setRules",
      "outputs": [],
      "stateMutability": "nonpayable",
      "type": "function"
    },
    {
      "inputs": [],
      "name": "takeProfit",
      "outputs": [],
      "stateMutability": "nonpayable",
      "type": "function"
    },
    {
      "inputs": [
        {
          "internalType": "address",
          "name": "newOwner",
          "type": "address"
        }
      ],
      "name": "transferOwnership",
      "outputs": [],
      "stateMutability": "nonpayable",
      "type": "function"
    },
    {
      "inputs": [
        {
          "internalType": "string",
          "name": "_fileHash",
          "type": "string"
        },
        {
          "internalType": "uint256",
          "name": "_fileSize",
          "type": "uint256"
        },
        {
          "internalType": "string",
          "name": "_fileType",
          "type": "string"
        },
        {
          "internalType": "string",
          "name": "_fileName",
          "type": "string"
        },
        {
          "internalType": "string",
          "name": "_fileDescription",
          "type": "string"
        },
        {
          "internalType": "address",
          "name": "recipient",
          "type": "address"
        }
      ],
      "name": "upload",
      "outputs": [],
      "stateMutability": "nonpayable",
      "type": "function"
    }
  ],
  "bytecode": "0x60806040526096600155601e600255600060055534801561001f57600080fd5b5061003c61003161004160201b60201c565b61004960201b60201c565b61010d565b600033905090565b60008060009054906101000a900473ffffffffffffffffffffffffffffffffffffffff169050816000806101000a81548173ffffffffffffffffffffffffffffffffffffffff021916908373ffffffffffffffffffffffffffffffffffffffff1602179055508173ffffffffffffffffffffffffffffffffffffffff168173ffffffffffffffffffffffffffffffffffffffff167f8be0079c531659141344cd1fd0a4f28419497f9722a3daafe3b4186f6b6457e060405160405180910390a35050565b6122ad806200011d6000396000f3fe608060405234801561001057600080fd5b50600436106101165760003560e01c806383a6deb5116100a2578063ba22ef2611610071578063ba22ef26146102bd578063c2bfccc0146102db578063ed1bd76c146102f9578063f2fde38b1461032a578063fe6684601461034657610116565b806383a6deb5146102355780638862af95146102535780638da5cb5b1461026f5780639507d39a1461028d57610116565b80633c1f81ff116100e95780633c1f81ff146101b757806343953519146101d35780635d7e0078146101f157806370c1057814610221578063715018a61461022b57610116565b80630617ff791461011b57806306fdde031461014b57806317c957091461016957806321f6fb1114610199575b600080fd5b610135600480360381019061013091906116c3565b610362565b6040516101429190611cb1565b60405180910390f35b6101536104ac565b6040516101609190611cf5565b60405180910390f35b610183600480360381019061017e9190611811565b6104e5565b6040516101909190611d99565b60405180910390f35b6101a16104fd565b6040516101ae9190611d99565b60405180910390f35b6101d160048036038101906101cc91906116ec565b610503565b005b6101db6105a4565b6040516101e89190611d99565b60405180910390f35b61020b600480360381019061020691906116c3565b6105aa565b6040516102189190611cd3565b60405180910390f35b61022961083a565b005b61023361088a565b005b61023d610912565b60405161024a9190611cb1565b60405180910390f35b61026d6004803603810190610268919061183a565b610923565b005b610277610b88565b6040516102849190611c6d565b60405180910390f35b6102a760048036038101906102a29190611811565b610bb1565b6040516102b49190611d77565b60405180910390f35b6102c5610f99565b6040516102d29190611d99565b60405180910390f35b6102e3610f9f565b6040516102f09190611cb1565b60405180910390f35b610313600480360381019061030e9190611811565b610fb0565b604051610321929190611db4565b60405180910390f35b610344600480360381019061033f919061169a565b611041565b005b610360600480360381019061035b9190611728565b611139565b005b6060600061036f836105aa565b905060008151905060008167ffffffffffffffff8111156103b9577f4e487b7100000000000000000000000000000000000000000000000000000000600052604160045260246000fd5b6040519080825280602002602001820160405280156103f257816020015b6103df6114df565b8152602001906001900390816103d75790505b50905060005b828110156104a05761044984828151811061043c577f4e487b7100000000000000000000000000000000000000000000000000000000600052603260045260246000fd5b6020026020010151610bb1565b828281518110610482577f4e487b7100000000000000000000000000000000000000000000000000000000600052603260045260246000fd5b602002602001018190525080806104989061204a565b9150506103f8565b50809350505050919050565b6040518060400160405280601381526020017f4453746f724048656d6c6f636b5374726565740000000000000000000000000081525081565b60036020528060005260406000206000915090505481565b60025481565b61050b611413565b73ffffffffffffffffffffffffffffffffffffffff16610529610b88565b73ffffffffffffffffffffffffffffffffffffffff161461057f576040517f08c379a000000000000000000000000000000000000000000000000000000000815260040161057690611d57565b60405180910390fd5b60011515821515141561059857806002819055506105a0565b806001819055505b5050565b60055481565b6060600080600090505b600554811161069157600084610600576004600083815260200190815260200160002060050160009054906101000a900473ffffffffffffffffffffffffffffffffffffffff16610638565b6004600083815260200190815260200160002060070160009054906101000a900473ffffffffffffffffffffffffffffffffffffffff165b90503373ffffffffffffffffffffffffffffffffffffffff168173ffffffffffffffffffffffffffffffffffffffff16141561067d5782806106799061204a565b9350505b5080806106899061204a565b9150506105b4565b5060008167ffffffffffffffff8111156106d4577f4e487b7100000000000000000000000000000000000000000000000000000000600052604160045260246000fd5b6040519080825280602002602001820160405280156107025781602001602082028036833780820191505090505b5090506000915060005b600554811161082f57600085610758576004600083815260200190815260200160002060050160009054906101000a900473ffffffffffffffffffffffffffffffffffffffff16610790565b6004600083815260200190815260200160002060070160009054906101000a900473ffffffffffffffffffffffffffffffffffffffff165b90503373ffffffffffffffffffffffffffffffffffffffff168173ffffffffffffffffffffffffffffffffffffffff16141561081b5781838581518110610800577f4e487b7100000000000000000000000000000000000000000000000000000000600052603260045260246000fd5b60200260200101818152505083806108179061204a565b9450505b5080806108279061204a565b91505061070c565b508092505050919050565b610842610b88565b73ffffffffffffffffffffffffffffffffffffffff166108fc479081150290604051600060405180830381858888f19350505050158015610887573d6000803e3d6000fd5b50565b610892611413565b73ffffffffffffffffffffffffffffffffffffffff166108b0610b88565b73ffffffffffffffffffffffffffffffffffffffff1614610906576040517f08c379a00000000000000000000000000000000000000000000000000000000081526004016108fd90611d57565b60405180910390fd5b610910600061141b565b565b606061091e6000610362565b905090565b60006004600086815260200190815260200160002090503373ffffffffffffffffffffffffffffffffffffffff168160070160009054906101000a900473ffffffffffffffffffffffffffffffffffffffff1673ffffffffffffffffffffffffffffffffffffffff16146109cc576040517f08c379a00000000000000000000000000000000000000000000000000000000081526004016109c390611d37565b60405180910390fd5b6000845190506000845190506000821415806109e9575060008114155b80610a215750600073ffffffffffffffffffffffffffffffffffffffff168473ffffffffffffffffffffffffffffffffffffffff1614155b8015610a5957503373ffffffffffffffffffffffffffffffffffffffff168473ffffffffffffffffffffffffffffffffffffffff1614155b15610b1f5760008214610a805785836003019080519060200190610a7e929190611550565b505b60008114610aa25784836004019080519060200190610aa0929190611550565b505b600073ffffffffffffffffffffffffffffffffffffffff168473ffffffffffffffffffffffffffffffffffffffff1614610b1a57838360050160006101000a81548173ffffffffffffffffffffffffffffffffffffffff021916908373ffffffffffffffffffffffffffffffffffffffff1602179055505b610b24565b600080fd5b7fc2b72a0fe8c458577d2c9ac0f97d01cbb043a6faae7c6b7eeda2a4812575027b8360050160009054906101000a900473ffffffffffffffffffffffffffffffffffffffff16604051610b779190611c6d565b60405180910390a150505050505050565b60008060009054906101000a900473ffffffffffffffffffffffffffffffffffffffff16905090565b610bb96114df565b60006004600084815260200190815260200160002060405180610100016040529081600082018054610bea90611fe7565b80601f0160208091040260200160405190810160405280929190818152602001828054610c1690611fe7565b8015610c635780601f10610c3857610100808354040283529160200191610c63565b820191906000526020600020905b815481529060010190602001808311610c4657829003601f168201915b5050505050815260200160018201548152602001600282018054610c8690611fe7565b80601f0160208091040260200160405190810160405280929190818152602001828054610cb290611fe7565b8015610cff5780601f10610cd457610100808354040283529160200191610cff565b820191906000526020600020905b815481529060010190602001808311610ce257829003601f168201915b50505050508152602001600382018054610d1890611fe7565b80601f0160208091040260200160405190810160405280929190818152602001828054610d4490611fe7565b8015610d915780601f10610d6657610100808354040283529160200191610d91565b820191906000526020600020905b815481529060010190602001808311610d7457829003601f168201915b50505050508152602001600482018054610daa90611fe7565b80601f0160208091040260200160405190810160405280929190818152602001828054610dd690611fe7565b8015610e235780601f10610df857610100808354040283529160200191610e23565b820191906000526020600020905b815481529060010190602001808311610e0657829003601f168201915b505050505081526020016005820160009054906101000a900473ffffffffffffffffffffffffffffffffffffffff1673ffffffffffffffffffffffffffffffffffffffff1673ffffffffffffffffffffffffffffffffffffffff168152602001600682015481526020016007820160009054906101000a900473ffffffffffffffffffffffffffffffffffffffff1673ffffffffffffffffffffffffffffffffffffffff1673ffffffffffffffffffffffffffffffffffffffff168152505090503373ffffffffffffffffffffffffffffffffffffffff168160e0015173ffffffffffffffffffffffffffffffffffffffff161480610f5157503373ffffffffffffffffffffffffffffffffffffffff168160a0015173ffffffffffffffffffffffffffffffffffffffff16145b610f90576040517f08c379a0000000000000000000000000000000000000000000000000000000008152600401610f8790611d37565b60405180910390fd5b80915050919050565b60015481565b6060610fab6001610362565b905090565b600080610400831015610fc257600080fd5b600061040084610fd29190611ed2565b9050600061040085610fe49190612093565b1115610ff9578080610ff59061204a565b9150505b600062100000620f42406001546110109190611f03565b61101a9190611ed2565b905080826110289190611f03565b9350600254846110389190611f03565b92505050915091565b611049611413565b73ffffffffffffffffffffffffffffffffffffffff16611067610b88565b73ffffffffffffffffffffffffffffffffffffffff16146110bd576040517f08c379a00000000000000000000000000000000000000000000000000000000081526004016110b490611d57565b60405180910390fd5b600073ffffffffffffffffffffffffffffffffffffffff168173ffffffffffffffffffffffffffffffffffffffff16141561112d576040517f08c379a000000000000000000000000000000000000000000000000000000000815260040161112490611d17565b60405180910390fd5b6111368161141b565b50565b6000865111801561114c57506104008510155b8015611159575060008451115b8015611166575060008351115b8015611173575060008251115b80156111ac5750600073ffffffffffffffffffffffffffffffffffffffff163373ffffffffffffffffffffffffffffffffffffffff1614155b80156111e457503373ffffffffffffffffffffffffffffffffffffffff168173ffffffffffffffffffffffffffffffffffffffff1614155b801561121d5750600073ffffffffffffffffffffffffffffffffffffffff168173ffffffffffffffffffffffffffffffffffffffff1614155b61122657600080fd5b600560008154809291906112399061204a565b91905055506040518061010001604052808781526020018681526020018581526020018481526020018381526020018273ffffffffffffffffffffffffffffffffffffffff1681526020014281526020013373ffffffffffffffffffffffffffffffffffffffff1681525060046000600554815260200190815260200160002060008201518160000190805190602001906112d5929190611550565b506020820151816001015560408201518160020190805190602001906112fc929190611550565b506060820151816003019080519060200190611319929190611550565b506080820151816004019080519060200190611336929190611550565b5060a08201518160050160006101000a81548173ffffffffffffffffffffffffffffffffffffffff021916908373ffffffffffffffffffffffffffffffffffffffff16021790555060c0820151816006015560e08201518160070160006101000a81548173ffffffffffffffffffffffffffffffffffffffff021916908373ffffffffffffffffffffffffffffffffffffffff1602179055509050507f2ed6b29ed6f9dfc1441858346e53f608893095656cd9a14653917f5ade7a8a2e3382604051611403929190611c88565b60405180910390a1505050505050565b600033905090565b60008060009054906101000a900473ffffffffffffffffffffffffffffffffffffffff169050816000806101000a81548173ffffffffffffffffffffffffffffffffffffffff021916908373ffffffffffffffffffffffffffffffffffffffff1602179055508173ffffffffffffffffffffffffffffffffffffffff168173ffffffffffffffffffffffffffffffffffffffff167f8be0079c531659141344cd1fd0a4f28419497f9722a3daafe3b4186f6b6457e060405160405180910390a35050565b6040518061010001604052806060815260200160008152602001606081526020016060815260200160608152602001600073ffffffffffffffffffffffffffffffffffffffff16815260200160008152602001600073ffffffffffffffffffffffffffffffffffffffff1681525090565b82805461155c90611fe7565b90600052602060002090601f01602090048101928261157e57600085556115c5565b82601f1061159757805160ff19168380011785556115c5565b828001600101855582156115c5579182015b828111156115c45782518255916020019190600101906115a9565b5b5090506115d291906115d6565b5090565b5b808211156115ef5760008160009055506001016115d7565b5090565b600061160661160184611e02565b611ddd565b90508281526020810184848401111561161e57600080fd5b611629848285611fa5565b509392505050565b60008135905061164081612232565b92915050565b60008135905061165581612249565b92915050565b600082601f83011261166c57600080fd5b813561167c8482602086016115f3565b91505092915050565b60008135905061169481612260565b92915050565b6000602082840312156116ac57600080fd5b60006116ba84828501611631565b91505092915050565b6000602082840312156116d557600080fd5b60006116e384828501611646565b91505092915050565b600080604083850312156116ff57600080fd5b600061170d85828601611646565b925050602061171e85828601611685565b9150509250929050565b60008060008060008060c0878903121561174157600080fd5b600087013567ffffffffffffffff81111561175b57600080fd5b61176789828a0161165b565b965050602061177889828a01611685565b955050604087013567ffffffffffffffff81111561179557600080fd5b6117a189828a0161165b565b945050606087013567ffffffffffffffff8111156117be57600080fd5b6117ca89828a0161165b565b935050608087013567ffffffffffffffff8111156117e757600080fd5b6117f389828a0161165b565b92505060a061180489828a01611631565b9150509295509295509295565b60006020828403121561182357600080fd5b600061183184828501611685565b91505092915050565b6000806000806080858703121561185057600080fd5b600061185e87828801611685565b945050602085013567ffffffffffffffff81111561187b57600080fd5b6118878782880161165b565b935050604085013567ffffffffffffffff8111156118a457600080fd5b6118b08782880161165b565b92505060606118c187828801611631565b91505092959194509250565b60006118d98383611ac5565b905092915050565b60006118ed8383611c4f565b60208301905092915050565b61190281611f5d565b82525050565b61191181611f5d565b82525050565b600061192282611e53565b61192c8185611e8e565b93508360208202850161193e85611e33565b8060005b8581101561197a578484038952815161195b85826118cd565b945061196683611e74565b925060208a01995050600181019050611942565b50829750879550505050505092915050565b600061199782611e5e565b6119a18185611e9f565b93506119ac83611e43565b8060005b838110156119dd5781516119c488826118e1565b97506119cf83611e81565b9250506001810190506119b0565b5085935050505092915050565b60006119f582611e69565b6119ff8185611eb0565b9350611a0f818560208601611fb4565b611a1881612180565b840191505092915050565b6000611a2e82611e69565b611a388185611ec1565b9350611a48818560208601611fb4565b611a5181612180565b840191505092915050565b6000611a69602683611ec1565b9150611a7482612191565b604082019050919050565b6000611a8c600d83611ec1565b9150611a97826121e0565b602082019050919050565b6000611aaf602083611ec1565b9150611aba82612209565b602082019050919050565b6000610100830160008301518482036000860152611ae382826119ea565b9150506020830151611af86020860182611c4f565b5060408301518482036040860152611b1082826119ea565b91505060608301518482036060860152611b2a82826119ea565b91505060808301518482036080860152611b4482826119ea565b91505060a0830151611b5960a08601826118f9565b5060c0830151611b6c60c0860182611c4f565b5060e0830151611b7f60e08601826118f9565b508091505092915050565b6000610100830160008301518482036000860152611ba882826119ea565b9150506020830151611bbd6020860182611c4f565b5060408301518482036040860152611bd582826119ea565b91505060608301518482036060860152611bef82826119ea565b91505060808301518482036080860152611c0982826119ea565b91505060a0830151611c1e60a08601826118f9565b5060c0830151611c3160c0860182611c4f565b5060e0830151611c4460e08601826118f9565b508091505092915050565b611c5881611f9b565b82525050565b611c6781611f9b565b82525050565b6000602082019050611c826000830184611908565b92915050565b6000604082019050611c9d6000830185611908565b611caa6020830184611908565b9392505050565b60006020820190508181036000830152611ccb8184611917565b905092915050565b60006020820190508181036000830152611ced818461198c565b905092915050565b60006020820190508181036000830152611d0f8184611a23565b905092915050565b60006020820190508181036000830152611d3081611a5c565b9050919050565b60006020820190508181036000830152611d5081611a7f565b9050919050565b60006020820190508181036000830152611d7081611aa2565b9050919050565b60006020820190508181036000830152611d918184611b8a565b905092915050565b6000602082019050611dae6000830184611c5e565b92915050565b6000604082019050611dc96000830185611c5e565b611dd66020830184611c5e565b9392505050565b6000611de7611df8565b9050611df38282612019565b919050565b6000604051905090565b600067ffffffffffffffff821115611e1d57611e1c612151565b5b611e2682612180565b9050602081019050919050565b6000819050602082019050919050565b6000819050602082019050919050565b600081519050919050565b600081519050919050565b600081519050919050565b6000602082019050919050565b6000602082019050919050565b600082825260208201905092915050565b600082825260208201905092915050565b600082825260208201905092915050565b600082825260208201905092915050565b6000611edd82611f9b565b9150611ee883611f9b565b925082611ef857611ef76120f3565b5b828204905092915050565b6000611f0e82611f9b565b9150611f1983611f9b565b9250817fffffffffffffffffffffffffffffffffffffffffffffffffffffffffffffffff0483118215151615611f5257611f516120c4565b5b828202905092915050565b6000611f6882611f7b565b9050919050565b60008115159050919050565b600073ffffffffffffffffffffffffffffffffffffffff82169050919050565b6000819050919050565b82818337600083830152505050565b60005b83811015611fd2578082015181840152602081019050611fb7565b83811115611fe1576000848401525b50505050565b60006002820490506001821680611fff57607f821691505b6020821081141561201357612012612122565b5b50919050565b61202282612180565b810181811067ffffffffffffffff8211171561204157612040612151565b5b80604052505050565b600061205582611f9b565b91507fffffffffffffffffffffffffffffffffffffffffffffffffffffffffffffffff821415612088576120876120c4565b5b600182019050919050565b600061209e82611f9b565b91506120a983611f9b565b9250826120b9576120b86120f3565b5b828206905092915050565b7f4e487b7100000000000000000000000000000000000000000000000000000000600052601160045260246000fd5b7f4e487b7100000000000000000000000000000000000000000000000000000000600052601260045260246000fd5b7f4e487b7100000000000000000000000000000000000000000000000000000000600052602260045260246000fd5b7f4e487b7100000000000000000000000000000000000000000000000000000000600052604160045260246000fd5b6000601f19601f8301169050919050565b7f4f776e61626c653a206e6577206f776e657220697320746865207a65726f206160008201527f6464726573730000000000000000000000000000000000000000000000000000602082015250565b7f4143434553532044454e49454400000000000000000000000000000000000000600082015250565b7f4f776e61626c653a2063616c6c6572206973206e6f7420746865206f776e6572600082015250565b61223b81611f5d565b811461224657600080fd5b50565b61225281611f6f565b811461225d57600080fd5b50565b61226981611f9b565b811461227457600080fd5b5056fea2646970667358221220e28a9af01632565bdb670238e27d42c1cfb03a09639fecadf0c1c9d111678d0c64736f6c63430008040033",
  "linkReferences": {},
  "deployedLinkReferences": {}
}