{
  "_format": "hh-sol-artifact-1",
  "contractName": "FissionEngine",
  "sourceName": "src/backend/contracts/FissionEngine.sol",
  "abi": [
    {
      "inputs": [
        {
          "internalType": "address",
          "name": "_priceFeedAddress",
          "type": "address"
        },
        {
          "internalType": "address",
          "name": "_sister",
          "type": "address"
        }
      ],
      "stateMutability": "nonpayable",
      "type": "constructor"
    },
    {
      "inputs": [],
      "name": "flipRate",
      "outputs": [
        {
          "internalType": "uint256",
          "name": "tokensPerUnit",
          "type": "uint256"
        }
      ],
      "stateMutability": "view",
      "type": "function"
    },
    {
      "inputs": [],
      "name": "priceFeedAddress",
      "outputs": [
        {
          "internalType": "address",
          "name": "",
          "type": "address"
        }
      ],
      "stateMutability": "view",
      "type": "function"
    },
    {
      "inputs": [],
      "name": "sister",
      "outputs": [
        {
          "internalType": "address",
          "name": "",
          "type": "address"
        }
      ],
      "stateMutability": "view",
      "type": "function"
    }
  ],
  "bytecode": "0x608060405234801561001057600080fd5b50604051610942380380610942833981810160405281019061003291906100cf565b816000806101000a81548173ffffffffffffffffffffffffffffffffffffffff021916908373ffffffffffffffffffffffffffffffffffffffff16021790555080600160006101000a81548173ffffffffffffffffffffffffffffffffffffffff021916908373ffffffffffffffffffffffffffffffffffffffff1602179055505050610154565b6000815190506100c98161013d565b92915050565b600080604083850312156100e257600080fd5b60006100f0858286016100ba565b9250506020610101858286016100ba565b9150509250929050565b60006101168261011d565b9050919050565b600073ffffffffffffffffffffffffffffffffffffffff82169050919050565b6101468161010b565b811461015157600080fd5b50565b6107df806101636000396000f3fe608060405234801561001057600080fd5b50600436106100415760003560e01c8063a9ed003d14610046578063e0abca0b14610064578063e113e64014610082575b600080fd5b61004e6100a0565b60405161005b9190610447565b60405180910390f35b61006c6100c6565b6040516100799190610447565b60405180910390f35b61008a6100ea565b6040516100979190610462565b60405180910390f35b600160009054906101000a900473ffffffffffffffffffffffffffffffffffffffff1681565b60008054906101000a900473ffffffffffffffffffffffffffffffffffffffff1681565b6000600160009054906101000a900473ffffffffffffffffffffffffffffffffffffffff1673ffffffffffffffffffffffffffffffffffffffff163373ffffffffffffffffffffffffffffffffffffffff161461014657600080fd5b60008060009054906101000a900473ffffffffffffffffffffffffffffffffffffffff16905060008173ffffffffffffffffffffffffffffffffffffffff1663313ce5676040518163ffffffff1660e01b815260040160206040518083038186803b1580156101b457600080fd5b505afa1580156101c8573d6000803e3d6000fd5b505050506040513d601f19601f820116820180604052508101906101ec9190610400565b600a6101f89190610501565b90506000670de0b6b3a7640000905060006002836102169190610501565b905060008473ffffffffffffffffffffffffffffffffffffffff1663feaf968c6040518163ffffffff1660e01b815260040160a06040518083038186803b15801561026057600080fd5b505afa158015610274573d6000803e3d6000fd5b505050506040513d601f19601f820116820180604052508101906102989190610389565b505050915050600081905060006002826102b29190610501565b90506000808787106102f05787876102ca919061047d565b9150600082856102da919061061f565b905086816102e8919061061f565b91505061030d565b86886102fc919061061f565b9150818461030a919061061f565b90505b8281610319919061047d565b995060008a141561032957600080fd5b50505050505050505090565b6000815190506103448161074d565b92915050565b60008151905061035981610764565b92915050565b60008151905061036e81610792565b92915050565b6000815190506103838161077b565b92915050565b600080600080600060a086880312156103a157600080fd5b60006103af8882890161035f565b95505060206103c088828901610335565b94505060406103d18882890161034a565b93505060606103e28882890161034a565b92505060806103f38882890161035f565b9150509295509295909350565b60006020828403121561041257600080fd5b600061042084828501610374565b91505092915050565b61043281610679565b82525050565b610441816106b5565b82525050565b600060208201905061045c6000830184610429565b92915050565b60006020820190506104776000830184610438565b92915050565b6000610488826106b5565b9150610493836106b5565b9250826104a3576104a2610711565b5b828204905092915050565b6000808291508390505b60018511156104f8578086048111156104d4576104d36106e2565b5b60018516156104e35780820291505b80810290506104f185610740565b94506104b8565b94509492505050565b600061050c826106b5565b9150610517836106bf565b92506105447fffffffffffffffffffffffffffffffffffffffffffffffffffffffffffffffff848461054c565b905092915050565b60008261055c5760019050610618565b8161056a5760009050610618565b8160018114610580576002811461058a576105b9565b6001915050610618565b60ff84111561059c5761059b6106e2565b5b8360020a9150848211156105b3576105b26106e2565b5b50610618565b5060208310610133831016604e8410600b84101617156105ee5782820a9050838111156105e9576105e86106e2565b5b610618565b6105fb84848460016104ae565b92509050818404811115610612576106116106e2565b5b81810290505b9392505050565b600061062a826106b5565b9150610635836106b5565b9250817fffffffffffffffffffffffffffffffffffffffffffffffffffffffffffffffff048311821515161561066e5761066d6106e2565b5b828202905092915050565b600061068482610695565b9050919050565b6000819050919050565b600073ffffffffffffffffffffffffffffffffffffffff82169050919050565b6000819050919050565b600060ff82169050919050565b600069ffffffffffffffffffff82169050919050565b7f4e487b7100000000000000000000000000000000000000000000000000000000600052601160045260246000fd5b7f4e487b7100000000000000000000000000000000000000000000000000000000600052601260045260246000fd5b60008160011c9050919050565b6107568161068b565b811461076157600080fd5b50565b61076d816106b5565b811461077857600080fd5b50565b610784816106bf565b811461078f57600080fd5b50565b61079b816106cc565b81146107a657600080fd5b5056fea2646970667358221220c68da349f3d7d10255e014035852b347000ed48b2bf8a27c9c45ac36418cd5b264736f6c63430008040033",
  "linkReferences": {},
  "deployedLinkReferences": {}
}