{
  "_format": "hh-sol-artifact-1",
  "contractName": "PolygonLinkSim",
  "sourceName": "src/backend/contracts/PolygonLinkSim.sol",
  "abi": [
    {
      "inputs": [],
      "name": "decimals",
      "outputs": [
        {
          "internalType": "uint8",
          "name": "",
          "type": "uint8"
        }
      ],
      "stateMutability": "pure",
      "type": "function"
    },
    {
      "inputs": [],
      "name": "description",
      "outputs": [
        {
          "internalType": "string",
          "name": "",
          "type": "string"
        }
      ],
      "stateMutability": "pure",
      "type": "function"
    },
    {
      "inputs": [
        {
          "internalType": "uint80",
          "name": "_roundId",
          "type": "uint80"
        }
      ],
      "name": "getRoundData",
      "outputs": [
        {
          "internalType": "uint80",
          "name": "roundId",
          "type": "uint80"
        },
        {
          "internalType": "int256",
          "name": "answer",
          "type": "int256"
        },
        {
          "internalType": "uint256",
          "name": "startedAt",
          "type": "uint256"
        },
        {
          "internalType": "uint256",
          "name": "updatedAt",
          "type": "uint256"
        },
        {
          "internalType": "uint80",
          "name": "answeredInRound",
          "type": "uint80"
        }
      ],
      "stateMutability": "pure",
      "type": "function"
    },
    {
      "inputs": [],
      "name": "latestRoundData",
      "outputs": [
        {
          "internalType": "uint80",
          "name": "roundId",
          "type": "uint80"
        },
        {
          "internalType": "int256",
          "name": "answer",
          "type": "int256"
        },
        {
          "internalType": "uint256",
          "name": "startedAt",
          "type": "uint256"
        },
        {
          "internalType": "uint256",
          "name": "updatedAt",
          "type": "uint256"
        },
        {
          "internalType": "uint80",
          "name": "answeredInRound",
          "type": "uint80"
        }
      ],
      "stateMutability": "pure",
      "type": "function"
    },
    {
      "inputs": [],
      "name": "version",
      "outputs": [
        {
          "internalType": "uint256",
          "name": "",
          "type": "uint256"
        }
      ],
      "stateMutability": "pure",
      "type": "function"
    }
  ],
  "bytecode": "0x608060405234801561001057600080fd5b5061045b806100206000396000f3fe608060405234801561001057600080fd5b50600436106100575760003560e01c8063313ce5671461005c57806354fd4d501461007a5780637284e416146100985780639a6fc8f5146100b6578063feaf968c146100ea575b600080fd5b61006461010c565b60405161007191906102fa565b60405180910390f35b610082610115565b60405161008f919061028c565b60405180910390f35b6100a061011f565b6040516100ad919061026a565b60405180910390f35b6100d060048036038101906100cb91906101cc565b61015c565b6040516100e19594939291906102a7565b60405180910390f35b6100f2610191565b6040516101039594939291906102a7565b60405180910390f35b60006008905090565b600061a455905090565b60606040518060400160405280600b81526020017f4d41544943202f20555344000000000000000000000000000000000000000000815250905090565b6000806000806000859450600292506003915060049050858061017e9061039b565b965050630bebc200935091939590929450565b600080600080600060019450600292506003915060049050630bebc20093509091929394565b6000813590506101c68161040e565b92915050565b6000602082840312156101de57600080fd5b60006101ec848285016101b7565b91505092915050565b6101fe81610331565b82525050565b600061020f82610315565b6102198185610320565b9350610229818560208601610368565b610232816103fd565b840191505092915050565b6102468161033b565b82525050565b61025581610352565b82525050565b61026481610345565b82525050565b600060208201905081810360008301526102848184610204565b905092915050565b60006020820190506102a1600083018461023d565b92915050565b600060a0820190506102bc600083018861024c565b6102c960208301876101f5565b6102d6604083018661023d565b6102e3606083018561023d565b6102f0608083018461024c565b9695505050505050565b600060208201905061030f600083018461025b565b92915050565b600081519050919050565b600082825260208201905092915050565b6000819050919050565b6000819050919050565b600060ff82169050919050565b600069ffffffffffffffffffff82169050919050565b60005b8381101561038657808201518184015260208101905061036b565b83811115610395576000848401525b50505050565b60006103a682610352565b915069ffffffffffffffffffff8214156103c3576103c26103ce565b5b600182019050919050565b7f4e487b7100000000000000000000000000000000000000000000000000000000600052601160045260246000fd5b6000601f19601f8301169050919050565b61041781610352565b811461042257600080fd5b5056fea2646970667358221220e78eac097c1fbd4ef46f67486b91fe763f25e68cbbfd042702b4a5a86488571f64736f6c63430008040033",
  "linkReferences": {},
  "deployedLinkReferences": {}
}