{
  "_format": "hh-sol-artifact-1",
  "contractName": "DStor",
  "sourceName": "src/solidity/contracts/DStor.sol",
  "abi": [
    {
      "inputs": [],
      "stateMutability": "nonpayable",
      "type": "constructor"
    },
    {
      "anonymous": false,
      "inputs": [
        {
          "indexed": false,
          "internalType": "address",
          "name": "recipient",
          "type": "address"
        }
      ],
      "name": "FileUpdated",
      "type": "event"
    },
    {
      "anonymous": false,
      "inputs": [
        {
          "indexed": true,
          "internalType": "address",
          "name": "previousOwner",
          "type": "address"
        },
        {
          "indexed": true,
          "internalType": "address",
          "name": "newOwner",
          "type": "address"
        }
      ],
      "name": "OwnershipTransferred",
      "type": "event"
    },
    {
      "inputs": [
        {
          "internalType": "uint256",
          "name": "fileId",
          "type": "uint256"
        }
      ],
      "name": "addTime",
      "outputs": [],
      "stateMutability": "payable",
      "type": "function"
    },
    {
      "inputs": [],
      "name": "basicInfo",
      "outputs": [
        {
          "internalType": "string",
          "name": "n",
          "type": "string"
        },
        {
          "internalType": "address",
          "name": "fe",
          "type": "address"
        },
        {
          "internalType": "uint256",
          "name": "mp",
          "type": "uint256"
        },
        {
          "internalType": "uint256",
          "name": "pr",
          "type": "uint256"
        },
        {
          "internalType": "uint256",
          "name": "mfs",
          "type": "uint256"
        },
        {
          "internalType": "uint256",
          "name": "fc",
          "type": "uint256"
        }
      ],
      "stateMutability": "view",
      "type": "function"
    },
    {
      "inputs": [
        {
          "internalType": "string[]",
          "name": "query",
          "type": "string[]"
        }
      ],
      "name": "batchExpQuery",
      "outputs": [
        {
          "internalType": "bool[]",
          "name": "isExpired",
          "type": "bool[]"
        },
        {
          "internalType": "uint256[]",
          "name": "tilExpiry",
          "type": "uint256[]"
        }
      ],
      "stateMutability": "view",
      "type": "function"
    },
    {
      "inputs": [
        {
          "internalType": "uint256",
          "name": "numBytes",
          "type": "uint256"
        }
      ],
      "name": "bothQuotes",
      "outputs": [
        {
          "internalType": "uint256",
          "name": "perDiem",
          "type": "uint256"
        },
        {
          "internalType": "uint256",
          "name": "benchFee",
          "type": "uint256"
        },
        {
          "internalType": "uint256",
          "name": "weiPerDiem",
          "type": "uint256"
        },
        {
          "internalType": "uint256",
          "name": "weiBenchFee",
          "type": "uint256"
        }
      ],
      "stateMutability": "view",
      "type": "function"
    },
    {
      "inputs": [
        {
          "internalType": "string",
          "name": "",
          "type": "string"
        }
      ],
      "name": "expirationDates",
      "outputs": [
        {
          "internalType": "uint256",
          "name": "",
          "type": "uint256"
        }
      ],
      "stateMutability": "view",
      "type": "function"
    },
    {
      "inputs": [],
      "name": "fileCount",
      "outputs": [
        {
          "internalType": "uint256",
          "name": "",
          "type": "uint256"
        }
      ],
      "stateMutability": "view",
      "type": "function"
    },
    {
      "inputs": [],
      "name": "fissionEngine",
      "outputs": [
        {
          "internalType": "address",
          "name": "",
          "type": "address"
        }
      ],
      "stateMutability": "view",
      "type": "function"
    },
    {
      "inputs": [
        {
          "internalType": "uint256",
          "name": "numBytes",
          "type": "uint256"
        }
      ],
      "name": "gasQuote",
      "outputs": [
        {
          "internalType": "uint256",
          "name": "weiPerDiem",
          "type": "uint256"
        },
        {
          "internalType": "uint256",
          "name": "weiBenchFee",
          "type": "uint256"
        }
      ],
      "stateMutability": "view",
      "type": "function"
    },
    {
      "inputs": [
        {
          "internalType": "uint256",
          "name": "fileId",
          "type": "uint256"
        }
      ],
      "name": "get",
      "outputs": [
        {
          "components": [
            {
              "internalType": "string",
              "name": "fileHash",
              "type": "string"
            },
            {
              "internalType": "uint256",
              "name": "fileSize",
              "type": "uint256"
            },
            {
              "internalType": "string",
              "name": "fileType",
              "type": "string"
            },
            {
              "internalType": "string",
              "name": "fileName",
              "type": "string"
            },
            {
              "internalType": "string",
              "name": "fileDescription",
              "type": "string"
            },
            {
              "internalType": "address",
              "name": "recipient",
              "type": "address"
            },
            {
              "internalType": "uint256",
              "name": "uploadTime",
              "type": "uint256"
            },
            {
              "internalType": "address",
              "name": "uploader",
              "type": "address"
            }
          ],
          "internalType": "struct DStor.File",
          "name": "",
          "type": "tuple"
        }
      ],
      "stateMutability": "view",
      "type": "function"
    },
    {
      "inputs": [
        {
          "internalType": "bool",
          "name": "isSender",
          "type": "bool"
        }
      ],
      "name": "getAccessibleExps",
      "outputs": [
        {
          "internalType": "uint256[]",
          "name": "",
          "type": "uint256[]"
        }
      ],
      "stateMutability": "view",
      "type": "function"
    },
    {
      "inputs": [
        {
          "internalType": "bool",
          "name": "isSender",
          "type": "bool"
        }
      ],
      "name": "getAccessibleFileIds",
      "outputs": [
        {
          "internalType": "uint256[]",
          "name": "",
          "type": "uint256[]"
        }
      ],
      "stateMutability": "view",
      "type": "function"
    },
    {
      "inputs": [
        {
          "internalType": "bool",
          "name": "isSender",
          "type": "bool"
        }
      ],
      "name": "getAccessibleFiles",
      "outputs": [
        {
          "components": [
            {
              "internalType": "string",
              "name": "fileHash",
              "type": "string"
            },
            {
              "internalType": "uint256",
              "name": "fileSize",
              "type": "uint256"
            },
            {
              "internalType": "string",
              "name": "fileType",
              "type": "string"
            },
            {
              "internalType": "string",
              "name": "fileName",
              "type": "string"
            },
            {
              "internalType": "string",
              "name": "fileDescription",
              "type": "string"
            },
            {
              "internalType": "address",
              "name": "recipient",
              "type": "address"
            },
            {
              "internalType": "uint256",
              "name": "uploadTime",
              "type": "uint256"
            },
            {
              "internalType": "address",
              "name": "uploader",
              "type": "address"
            }
          ],
          "internalType": "struct DStor.File[]",
          "name": "",
          "type": "tuple[]"
        }
      ],
      "stateMutability": "view",
      "type": "function"
    },
    {
      "inputs": [
        {
          "internalType": "string",
          "name": "query",
          "type": "string"
        }
      ],
      "name": "getAddresses",
      "outputs": [
        {
          "internalType": "address",
          "name": "from",
          "type": "address"
        },
        {
          "internalType": "address",
          "name": "to",
          "type": "address"
        }
      ],
      "stateMutability": "view",
      "type": "function"
    },
    {
      "inputs": [],
      "name": "getAllData",
      "outputs": [
        {
          "components": [
            {
              "internalType": "string",
              "name": "fileHash",
              "type": "string"
            },
            {
              "internalType": "uint256",
              "name": "fileSize",
              "type": "uint256"
            },
            {
              "internalType": "string",
              "name": "fileType",
              "type": "string"
            },
            {
              "internalType": "string",
              "name": "fileName",
              "type": "string"
            },
            {
              "internalType": "string",
              "name": "fileDescription",
              "type": "string"
            },
            {
              "internalType": "address",
              "name": "recipient",
              "type": "address"
            },
            {
              "internalType": "uint256",
              "name": "uploadTime",
              "type": "uint256"
            },
            {
              "internalType": "address",
              "name": "uploader",
              "type": "address"
            }
          ],
          "internalType": "struct DStor.File[]",
          "name": "sent",
          "type": "tuple[]"
        },
        {
          "internalType": "uint256[]",
          "name": "sentExps",
          "type": "uint256[]"
        },
        {
          "internalType": "uint256[]",
          "name": "sentIds",
          "type": "uint256[]"
        },
        {
          "components": [
            {
              "internalType": "string",
              "name": "fileHash",
              "type": "string"
            },
            {
              "internalType": "uint256",
              "name": "fileSize",
              "type": "uint256"
            },
            {
              "internalType": "string",
              "name": "fileType",
              "type": "string"
            },
            {
              "internalType": "string",
              "name": "fileName",
              "type": "string"
            },
            {
              "internalType": "string",
              "name": "fileDescription",
              "type": "string"
            },
            {
              "internalType": "address",
              "name": "recipient",
              "type": "address"
            },
            {
              "internalType": "uint256",
              "name": "uploadTime",
              "type": "uint256"
            },
            {
              "internalType": "address",
              "name": "uploader",
              "type": "address"
            }
          ],
          "internalType": "struct DStor.File[]",
          "name": "received",
          "type": "tuple[]"
        },
        {
          "internalType": "uint256[]",
          "name": "receivedExps",
          "type": "uint256[]"
        },
        {
          "internalType": "uint256[]",
          "name": "receivedIds",
          "type": "uint256[]"
        }
      ],
      "stateMutability": "view",
      "type": "function"
    },
    {
      "inputs": [],
      "name": "minimumFileSize",
      "outputs": [
        {
          "internalType": "uint256",
          "name": "",
          "type": "uint256"
        }
      ],
      "stateMutability": "view",
      "type": "function"
    },
    {
      "inputs": [],
      "name": "minimumPin",
      "outputs": [
        {
          "internalType": "uint256",
          "name": "",
          "type": "uint256"
        }
      ],
      "stateMutability": "view",
      "type": "function"
    },
    {
      "inputs": [
        {
          "internalType": "uint256",
          "name": "fileId",
          "type": "uint256"
        },
        {
          "internalType": "string",
          "name": "fileName",
          "type": "string"
        },
        {
          "internalType": "string",
          "name": "description",
          "type": "string"
        },
        {
          "internalType": "address",
          "name": "recipient",
          "type": "address"
        }
      ],
      "name": "modify",
      "outputs": [],
      "stateMutability": "nonpayable",
      "type": "function"
    },
    {
      "inputs": [],
      "name": "name",
      "outputs": [
        {
          "internalType": "string",
          "name": "",
          "type": "string"
        }
      ],
      "stateMutability": "view",
      "type": "function"
    },
    {
      "inputs": [],
      "name": "owner",
      "outputs": [
        {
          "internalType": "address",
          "name": "",
          "type": "address"
        }
      ],
      "stateMutability": "view",
      "type": "function"
    },
    {
      "inputs": [],
      "name": "pinningRate",
      "outputs": [
        {
          "internalType": "uint256",
          "name": "",
          "type": "uint256"
        }
      ],
      "stateMutability": "view",
      "type": "function"
    },
    {
      "inputs": [
        {
          "internalType": "uint256",
          "name": "numBytes",
          "type": "uint256"
        }
      ],
      "name": "quote",
      "outputs": [
        {
          "internalType": "uint256",
          "name": "perDiem",
          "type": "uint256"
        },
        {
          "internalType": "uint256",
          "name": "benchFee",
          "type": "uint256"
        }
      ],
      "stateMutability": "view",
      "type": "function"
    },
    {
      "inputs": [],
      "name": "renounceOwnership",
      "outputs": [],
      "stateMutability": "nonpayable",
      "type": "function"
    },
    {
      "inputs": [
        {
          "internalType": "address",
          "name": "fission",
          "type": "address"
        }
      ],
      "name": "setFission",
      "outputs": [],
      "stateMutability": "nonpayable",
      "type": "function"
    },
    {
      "inputs": [
        {
          "internalType": "uint256",
          "name": "value",
          "type": "uint256"
        }
      ],
      "name": "setMinFileSize",
      "outputs": [],
      "stateMutability": "nonpayable",
      "type": "function"
    },
    {
      "inputs": [
        {
          "internalType": "uint256",
          "name": "value",
          "type": "uint256"
        }
      ],
      "name": "setPinningRate",
      "outputs": [],
      "stateMutability": "nonpayable",
      "type": "function"
    },
    {
      "inputs": [],
      "name": "takeProfit",
      "outputs": [],
      "stateMutability": "nonpayable",
      "type": "function"
    },
    {
      "inputs": [
        {
          "internalType": "address",
          "name": "newOwner",
          "type": "address"
        }
      ],
      "name": "transferOwnership",
      "outputs": [],
      "stateMutability": "nonpayable",
      "type": "function"
    },
    {
      "inputs": [
        {
          "internalType": "string",
          "name": "_fileHash",
          "type": "string"
        },
        {
          "internalType": "uint256",
          "name": "_fileSize",
          "type": "uint256"
        },
        {
          "internalType": "string",
          "name": "_fileType",
          "type": "string"
        },
        {
          "internalType": "string",
          "name": "_fileName",
          "type": "string"
        },
        {
          "internalType": "string",
          "name": "_fileDescription",
          "type": "string"
        },
        {
          "internalType": "address",
          "name": "recipient",
          "type": "address"
        }
      ],
      "name": "upload",
      "outputs": [],
      "stateMutability": "payable",
      "type": "function"
    }
  ],
  "bytecode": "0x60806040526096600255610400600355600060065534801561002057600080fd5b5061002a3361002f565b61007f565b600080546001600160a01b038381166001600160a01b0319831681178455604051919092169283917f8be0079c531659141344cd1fd0a4f28419497f9722a3daafe3b4186f6b6457e09190a35050565b6125b08061008e6000396000f3fe6080604052600436106101b75760003560e01c806370c10578116100ec578063ba22ef261161008a578063ed1bd76c11610064578063ed1bd76c14610577578063ee0a395114610597578063f2fde38b14610605578063fe6684601461062557600080fd5b8063ba22ef261461051d578063d8ca79d214610533578063e88bae8f1461056157600080fd5b80638da5cb5b116100c65780638da5cb5b146104925780638e6513a8146104b05780639507d39a146104d0578063a3e0fdc3146104fd57600080fd5b806370c1057814610448578063715018a61461045d5780638862af951461047257600080fd5b806336ea260611610159578063439535191161013357806343953519146103ad57806348358d8f146103c35780635d7e0078146103e357806366ecd0021461041057600080fd5b806336ea26061461030d57806339a0f5571461032d57806339b64c301461036d57600080fd5b806307a8e14c1161019557806307a8e14c146102565780631932e8d11461029c57806321f6fb11146102d15780632d10fa28146102e657600080fd5b80630502ca6b146101bc5780630617ff79146101d157806306fdde0314610207575b600080fd5b6101cf6101ca366004611f9b565b610638565b005b3480156101dd57600080fd5b506101f16101ec366004611e7f565b610765565b6040516101fe91906122c3565b60405180910390f35b34801561021357600080fd5b506102496040518060400160405280601681526020017519195859111c9bdc1012195b5b1bd8dad4dd1c99595d60521b81525081565b6040516101fe919061236b565b34801561026257600080fd5b5061028e610271366004611e9f565b805160208183018101805160048252928201919093012091525481565b6040519081526020016101fe565b3480156102a857600080fd5b506102bc6102b7366004611f9b565b61085e565b604080519283526020830191909152016101fe565b3480156102dd57600080fd5b5061028e601e81565b3480156102f257600080fd5b506102fb610934565b6040516101fe969594939291906122d6565b34801561031957600080fd5b506101cf610328366004611f9b565b61098d565b34801561033957600080fd5b5061034d610348366004611f9b565b6109bc565b6040805194855260208501939093529183015260608201526080016101fe565b34801561037957600080fd5b5061038d610388366004611e9f565b6109e5565b604080516001600160a01b039384168152929091166020830152016101fe565b3480156103b957600080fd5b5061028e60065481565b3480156103cf57600080fd5b506101cf6103de366004611f9b565b610d12565b3480156103ef57600080fd5b506104036103fe366004611e7f565b610d41565b6040516101fe9190612358565b34801561041c57600080fd5b50600154610430906001600160a01b031681565b6040516001600160a01b0390911681526020016101fe565b34801561045457600080fd5b506101cf610f5a565b34801561046957600080fd5b506101cf610f97565b34801561047e57600080fd5b506101cf61048d366004611fcb565b610fcd565b34801561049e57600080fd5b506000546001600160a01b0316610430565b3480156104bc57600080fd5b506104036104cb366004611e7f565b611197565b3480156104dc57600080fd5b506104f06104eb366004611f9b565b611290565b6040516101fe91906123f8565b34801561050957600080fd5b506101cf610518366004611d9c565b61159b565b34801561052957600080fd5b5061028e60025481565b34801561053f57600080fd5b5061055361054e366004611dbd565b6115e7565b6040516101fe92919061226a565b34801561056d57600080fd5b5061028e60035481565b34801561058357600080fd5b506102bc610592366004611f9b565b6117b9565b3480156105a357600080fd5b506105f360408051808201909152601681527519195859111c9bdc1012195b5b1bd8dad4dd1c99595d60521b602082015260015460025460035460065493946001600160a01b0390931693601e93565b6040516101fe9695949392919061237e565b34801561061157600080fd5b506101cf610620366004611d9c565b611872565b6101cf610633366004611eda565b61190a565b600061064382611290565b90506000610654826020015161085e565b509050803410156040518060400160405280600981526020016856414c5545204c4f5760b81b815250906106a45760405162461bcd60e51b815260040161069b919061236b565b60405180910390fd5b50815160405142906004906106ba9084906121b3565b90815260200160405180910390205410156040518060400160405280600d81526020016c1050d0d154d4c8111153925151609a1b8152509061070f5760405162461bcd60e51b815260040161069b919061236b565b50600061071c8334612454565b6107299062015180612468565b90508060048360405161073c91906121b3565b90815260200160405180910390206000828254610759919061243c565b90915550505050505050565b6060600061077283610d41565b805190915060008167ffffffffffffffff8111156107a057634e487b7160e01b600052604160045260246000fd5b6040519080825280602002602001820160405280156107d957816020015b6107c6611c25565b8152602001906001900390816107be5790505b50905060005b828110156108555761081784828151811061080a57634e487b7160e01b600052603260045260246000fd5b6020026020010151611290565b82828151811061083757634e487b7160e01b600052603260045260246000fd5b6020026020010181905250808061084d90612509565b9150506107df565b50949350505050565b60008060008061086d856117b9565b600154604080516303844f9960e61b815290519395509193506001600160a01b031691600091839163e113e64091600480820192602092909190829003018186803b1580156108bb57600080fd5b505afa1580156108cf573d6000803e3d6000fd5b505050506040513d601f19601f820116820180604052508101906108f39190611fb3565b90506305f5e1006109048286612468565b61090e9190612454565b95506305f5e10061091f8285612468565b6109299190612454565b945050505050915091565b6060806060806060806109476001610765565b95506109536001611197565b945061095f6001610d41565b935061096b6000610765565b92506109776000611197565b91506109836000610d41565b9050909192939495565b6000546001600160a01b031633146109b75760405162461bcd60e51b815260040161069b906123c3565b600255565b6000806000806109cb856117b9565b90945092506109d9856117b9565b94969395509392915050565b60008060015b6006548111610d0c5760008181526005602052604080822081516101008101909252805482908290610a1c906124ce565b80601f0160208091040260200160405190810160405280929190818152602001828054610a48906124ce565b8015610a955780601f10610a6a57610100808354040283529160200191610a95565b820191906000526020600020905b815481529060010190602001808311610a7857829003601f168201915b5050505050815260200160018201548152602001600282018054610ab8906124ce565b80601f0160208091040260200160405190810160405280929190818152602001828054610ae4906124ce565b8015610b315780601f10610b0657610100808354040283529160200191610b31565b820191906000526020600020905b815481529060010190602001808311610b1457829003601f168201915b50505050508152602001600382018054610b4a906124ce565b80601f0160208091040260200160405190810160405280929190818152602001828054610b76906124ce565b8015610bc35780601f10610b9857610100808354040283529160200191610bc3565b820191906000526020600020905b815481529060010190602001808311610ba657829003601f168201915b50505050508152602001600482018054610bdc906124ce565b80601f0160208091040260200160405190810160405280929190818152602001828054610c08906124ce565b8015610c555780601f10610c2a57610100808354040283529160200191610c55565b820191906000526020600020905b815481529060010190602001808311610c3857829003601f168201915b505050918352505060058201546001600160a01b0390811660208084019190915260068401546040808501919091526007909401549091166060909201919091529051919250610ca7918791016121b3565b60408051601f1981840301815290829052805160209182012083519092610cce92016121b3565b604051602081830303815290604052805190602001201415610cf9578060e0015193508060a0015192505b5080610d0481612509565b9150506109eb565b50915091565b6000546001600160a01b03163314610d3c5760405162461bcd60e51b815260040161069b906123c3565b600355565b60606000805b6006548111610e0857600084610d7857600082815260056020819052604090912001546001600160a01b0316610d94565b6000828152600560205260409020600701546001600160a01b03165b60008381526005602052604080822090519293509091600491610db6916121cf565b90815260405190819003602001902054421190506001600160a01b03821633148015610de0575080155b15610df35783610def81612509565b9450505b50508080610e0090612509565b915050610d47565b5060008167ffffffffffffffff811115610e3257634e487b7160e01b600052604160045260246000fd5b604051908082528060200260200182016040528015610e5b578160200160208202803683370190505b5090506000915060005b6006548111610f5257600085610e9657600082815260056020819052604090912001546001600160a01b0316610eb2565b6000828152600560205260409020600701546001600160a01b03165b60008381526005602052604080822090519293509091600491610ed4916121cf565b90815260405190819003602001902054421190506001600160a01b03821633148015610efe575080155b15610f3d5782848681518110610f2457634e487b7160e01b600052603260045260246000fd5b602090810291909101015284610f3981612509565b9550505b50508080610f4a90612509565b915050610e65565b509392505050565b600080546040516001600160a01b03909116914780156108fc02929091818181858888f19350505050158015610f94573d6000803e3d6000fd5b50565b6000546001600160a01b03163314610fc15760405162461bcd60e51b815260040161069b906123c3565b610fcb6000611bd5565b565b60008481526005602090815260409182902060078101548351808501909452600d84526c1050d0d154d4c8111153925151609a1b9284019290925291906001600160a01b031633146110325760405162461bcd60e51b815260040161069b919061236b565b5060408051808201909152600c81526b1393c814d153118814d1539160a21b60208201526001600160a01b0383163314156110805760405162461bcd60e51b815260040161069b919061236b565b50835183518115158061109257508015155b806110a557506001600160a01b03841615155b156111165781156110c75785516110c59060038501906020890190611c7c565b505b80156110e45784516110e29060048501906020880190611c7c565b505b6001600160a01b03841615611111576005830180546001600160a01b0319166001600160a01b0386161790555b61114c565b60408051808201825260088152671090510810d0531360c21b6020820152905162461bcd60e51b815261069b919060040161236b565b60058301546040516001600160a01b0390911681527fc2b72a0fe8c458577d2c9ac0f97d01cbb043a6faae7c6b7eeda2a4812575027b9060200160405180910390a150505050505050565b606060006111a483610765565b805190915060008167ffffffffffffffff8111156111d257634e487b7160e01b600052604160045260246000fd5b6040519080825280602002602001820160405280156111fb578160200160208202803683370190505b50905060005b8281101561085557600484828151811061122b57634e487b7160e01b600052603260045260246000fd5b60200260200101516000015160405161124491906121b3565b90815260200160405180910390205482828151811061127357634e487b7160e01b600052603260045260246000fd5b60209081029190910101528061128881612509565b915050611201565b611298611c25565b600082815260056020526040808220815161010081019092528054829082906112c0906124ce565b80601f01602080910402602001604051908101604052809291908181526020018280546112ec906124ce565b80156113395780601f1061130e57610100808354040283529160200191611339565b820191906000526020600020905b81548152906001019060200180831161131c57829003601f168201915b505050505081526020016001820154815260200160028201805461135c906124ce565b80601f0160208091040260200160405190810160405280929190818152602001828054611388906124ce565b80156113d55780601f106113aa576101008083540402835291602001916113d5565b820191906000526020600020905b8154815290600101906020018083116113b857829003601f168201915b505050505081526020016003820180546113ee906124ce565b80601f016020809104026020016040519081016040528092919081815260200182805461141a906124ce565b80156114675780601f1061143c57610100808354040283529160200191611467565b820191906000526020600020905b81548152906001019060200180831161144a57829003601f168201915b50505050508152602001600482018054611480906124ce565b80601f01602080910402602001604051908101604052809291908181526020018280546114ac906124ce565b80156114f95780601f106114ce576101008083540402835291602001916114f9565b820191906000526020600020905b8154815290600101906020018083116114dc57829003601f168201915b505050918352505060058201546001600160a01b03908116602083015260068301546040830152600790920154821660609091015260e082015191925016331480611550575060a08101516001600160a01b031633145b6040518060400160405280600d81526020016c1050d0d154d4c8111153925151609a1b815250906115945760405162461bcd60e51b815260040161069b919061236b565b5092915050565b6000546001600160a01b031633146115c55760405162461bcd60e51b815260040161069b906123c3565b600180546001600160a01b0319166001600160a01b0392909216919091179055565b8051606090819060008167ffffffffffffffff81111561161757634e487b7160e01b600052604160045260246000fd5b604051908082528060200260200182016040528015611640578160200160208202803683370190505b50905060008267ffffffffffffffff81111561166c57634e487b7160e01b600052604160045260246000fd5b604051908082528060200260200182016040528015611695578160200160208202803683370190505b50905060005b838110156117ad57600060048883815181106116c757634e487b7160e01b600052603260045260246000fd5b60200260200101516040516116dc91906121b3565b908152602001604051809103902054905042600489848151811061171057634e487b7160e01b600052603260045260246000fd5b602002602001015160405161172591906121b3565b9081526020016040518091039020541184838151811061175557634e487b7160e01b600052603260045260246000fd5b9115156020928302919091019091015261176f8142612487565b83838151811061178f57634e487b7160e01b600052603260045260246000fd5b602090810291909101015250806117a581612509565b91505061169b565b50909590945092505050565b600080600354831015604051806040016040528060088152602001671090510810d0531360c21b815250906118015760405162461bcd60e51b815260040161069b919061236b565b50600061181061040085612454565b9050600061182061040086612524565b1115611834578061183081612509565b9150505b62100000600254620f42406118499190612468565b6118539190612454565b61185d9082612468565b915061186a601e83612454565b925050915091565b6000546001600160a01b0316331461189c5760405162461bcd60e51b815260040161069b906123c3565b6001600160a01b0381166119015760405162461bcd60e51b815260206004820152602660248201527f4f776e61626c653a206e6577206f776e657220697320746865207a65726f206160448201526564647265737360d01b606482015260840161069b565b610f9481611bd5565b6000865111801561191d57506003548510155b801561192a575060008451115b8015611937575060008351115b8015611944575060008251115b801561194f57503315155b801561196357506001600160a01b03811615155b604051806040016040528060088152602001671090510810d0531360c21b815250906119a25760405162461bcd60e51b815260040161069b919061236b565b5060408051808201909152600c81526b1393c814d153118814d1539160a21b60208201526001600160a01b0382163314156119f05760405162461bcd60e51b815260040161069b919061236b565b506000806119fd8761085e565b91509150803410156040518060400160405280600981526020016856414c5545204c4f5760b81b81525090611a455760405162461bcd60e51b815260040161069b919061236b565b50600082611a538334612487565b611a5d9190612454565b611a6a9062015180612468565b9050600081611a7c4262278d0061243c565b611a86919061243c565b90508060048b604051611a9991906121b3565b9081526040519081900360200190205560068054906000611ab983612509565b909155505060408051610100810182528b815260208082018c90528183018b9052606082018a9052608082018990526001600160a01b03881660a08301524260c08301523360e0830152600654600090815260058252929092208151805192939192611b289284920190611c7c565b50602082810151600183015560408301518051611b4b9260028501920190611c7c565b5060608201518051611b67916003840191602090910190611c7c565b5060808201518051611b83916004840191602090910190611c7c565b5060a08201516005820180546001600160a01b03199081166001600160a01b039384161790915560c0840151600684015560e09093015160079092018054909316911617905550505050505050505050565b600080546001600160a01b038381166001600160a01b0319831681178455604051919092169283917f8be0079c531659141344cd1fd0a4f28419497f9722a3daafe3b4186f6b6457e09190a35050565b604051806101000160405280606081526020016000815260200160608152602001606081526020016060815260200160006001600160a01b031681526020016000815260200160006001600160a01b031681525090565b828054611c88906124ce565b90600052602060002090601f016020900481019282611caa5760008555611cf0565b82601f10611cc357805160ff1916838001178555611cf0565b82800160010185558215611cf0579182015b82811115611cf0578251825591602001919060010190611cd5565b50611cfc929150611d00565b5090565b5b80821115611cfc5760008155600101611d01565b80356001600160a01b0381168114611d2c57600080fd5b919050565b600082601f830112611d41578081fd5b813567ffffffffffffffff811115611d5b57611d5b612564565b611d6e601f8201601f191660200161240b565b818152846020838601011115611d82578283fd5b816020850160208301379081016020019190915292915050565b600060208284031215611dad578081fd5b611db682611d15565b9392505050565b60006020808385031215611dcf578182fd5b823567ffffffffffffffff80821115611de6578384fd5b818501915085601f830112611df9578384fd5b813581811115611e0b57611e0b612564565b8060051b611e1a85820161240b565b8281528581019085870183870188018b1015611e34578889fd5b8893505b84841015611e7157803586811115611e4e57898afd5b611e5c8c8a838b0101611d31565b84525060019390930192918701918701611e38565b509998505050505050505050565b600060208284031215611e90578081fd5b81358015158114611db6578182fd5b600060208284031215611eb0578081fd5b813567ffffffffffffffff811115611ec6578182fd5b611ed284828501611d31565b949350505050565b60008060008060008060c08789031215611ef2578182fd5b863567ffffffffffffffff80821115611f09578384fd5b611f158a838b01611d31565b9750602089013596506040890135915080821115611f31578384fd5b611f3d8a838b01611d31565b95506060890135915080821115611f52578384fd5b611f5e8a838b01611d31565b94506080890135915080821115611f73578384fd5b50611f8089828a01611d31565b925050611f8f60a08801611d15565b90509295509295509295565b600060208284031215611fac578081fd5b5035919050565b600060208284031215611fc4578081fd5b5051919050565b60008060008060808587031215611fe0578384fd5b84359350602085013567ffffffffffffffff80821115611ffe578485fd5b61200a88838901611d31565b9450604087013591508082111561201f578384fd5b5061202c87828801611d31565b92505061203b60608601611d15565b905092959194509250565b600082825180855260208086019550808260051b840101818601855b8481101561209057601f1986840301895261207e838351612103565b98840198925090830190600101612062565b5090979650505050505050565b6000815180845260208085019450808401835b838110156120cc578151875295820195908201906001016120b0565b509495945050505050565b600081518084526120ef81602086016020860161249e565b601f01601f19169290920160200192915050565b60006101008251818552612119828601826120d7565b915050602083015160208501526040830151848203604086015261213d82826120d7565b9150506060830151848203606086015261215782826120d7565b9150506080830151848203608086015261217182826120d7565b91505060a083015161218e60a08601826001600160a01b03169052565b5060c083015160c085015260e0830151610f5260e08601826001600160a01b03169052565b600082516121c581846020870161249e565b9190910192915050565b600080835482600182811c9150808316806121eb57607f831692505b602080841082141561220b57634e487b7160e01b87526022600452602487fd5b81801561221f57600181146122305761225c565b60ff1986168952848901965061225c565b60008a815260209020885b868110156122545781548b82015290850190830161223b565b505084890196505b509498975050505050505050565b604080825283519082018190526000906020906060840190828701845b828110156122a5578151151584529284019290840190600101612287565b505050838103828501526122b9818661209d565b9695505050505050565b602081526000611db66020830184612046565b60c0815260006122e960c0830189612046565b82810360208401526122fb818961209d565b9050828103604084015261230f818861209d565b905082810360608401526123238187612046565b90508281036080840152612337818661209d565b905082810360a084015261234b818561209d565b9998505050505050505050565b602081526000611db6602083018461209d565b602081526000611db660208301846120d7565b60c08152600061239160c08301896120d7565b6001600160a01b039790971660208301525060408101949094526060840192909252608083015260a090910152919050565b6020808252818101527f4f776e61626c653a2063616c6c6572206973206e6f7420746865206f776e6572604082015260600190565b602081526000611db66020830184612103565b604051601f8201601f1916810167ffffffffffffffff8111828210171561243457612434612564565b604052919050565b6000821982111561244f5761244f612538565b500190565b6000826124635761246361254e565b500490565b600081600019048311821515161561248257612482612538565b500290565b60008282101561249957612499612538565b500390565b60005b838110156124b95781810151838201526020016124a1565b838111156124c8576000848401525b50505050565b600181811c908216806124e257607f821691505b6020821081141561250357634e487b7160e01b600052602260045260246000fd5b50919050565b600060001982141561251d5761251d612538565b5060010190565b6000826125335761253361254e565b500690565b634e487b7160e01b600052601160045260246000fd5b634e487b7160e01b600052601260045260246000fd5b634e487b7160e01b600052604160045260246000fdfea2646970667358221220de813e9b0f833b413f839f125d509b3812d9be35a9c55da566410ccf9149dc5264736f6c63430008040033",
  "linkReferences": {},
  "deployedLinkReferences": {}
}