{
  "_format": "hh-sol-artifact-1",
  "contractName": "FissionEngine",
  "sourceName": "src/solidity/contracts/FissionEngine.sol",
  "abi": [
    {
      "inputs": [
        {
          "internalType": "address",
          "name": "_priceFeedAddress",
          "type": "address"
        },
        {
          "internalType": "address",
          "name": "_sister",
          "type": "address"
        }
      ],
      "stateMutability": "nonpayable",
      "type": "constructor"
    },
    {
      "inputs": [],
      "name": "flipRate",
      "outputs": [
        {
          "internalType": "uint256",
          "name": "tokensPerUnit",
          "type": "uint256"
        }
      ],
      "stateMutability": "view",
      "type": "function"
    },
    {
      "inputs": [],
      "name": "priceFeedAddress",
      "outputs": [
        {
          "internalType": "address",
          "name": "",
          "type": "address"
        }
      ],
      "stateMutability": "view",
      "type": "function"
    },
    {
      "inputs": [],
      "name": "sister",
      "outputs": [
        {
          "internalType": "address",
          "name": "",
          "type": "address"
        }
      ],
      "stateMutability": "view",
      "type": "function"
    }
  ],
  "bytecode": "0x608060405234801561001057600080fd5b5060405161052a38038061052a83398101604081905261002f9161007c565b600080546001600160a01b039384166001600160a01b031991821617909155600180549290931691161790556100ae565b80516001600160a01b038116811461007757600080fd5b919050565b6000806040838503121561008e578182fd5b61009783610060565b91506100a560208401610060565b90509250929050565b61046d806100bd6000396000f3fe608060405234801561001057600080fd5b50600436106100415760003560e01c8063a9ed003d14610046578063e0abca0b14610076578063e113e64014610089575b600080fd5b600154610059906001600160a01b031681565b6040516001600160a01b0390911681526020015b60405180910390f35b600054610059906001600160a01b031681565b61009161009f565b60405190815260200161006d565b6001546000906001600160a01b031633146100b957600080fd5b600080546040805163313ce56760e01b815290516001600160a01b039092169291839163313ce567916004808301926020929190829003018186803b15801561010157600080fd5b505afa158015610115573d6000803e3d6000fd5b505050506040513d601f19601f8201168201806040525081019061013991906102ca565b61014490600a610355565b9050670de0b6b3a7640000600061015c600284610355565b90506000846001600160a01b031663feaf968c6040518163ffffffff1660e01b815260040160a06040518083038186803b15801561019957600080fd5b505afa1580156101ad573d6000803e3d6000fd5b505050506040513d601f19601f820116820180604052508101906101d1919061027b565b50919350839250600091506101e99050600283610355565b9050600080878710610221576101ff88886102f2565b9150600061020d8386610402565b90506102198782610402565b91505061023a565b61022b8789610402565b91506102378285610402565b90505b61024483826102f2565b99508961025057600080fd5b50505050505050505090565b805169ffffffffffffffffffff8116811461027657600080fd5b919050565b600080600080600060a08688031215610292578081fd5b61029b8661025c565b94506020860151935060408601519250606086015191506102be6080870161025c565b90509295509295909350565b6000602082840312156102db578081fd5b815160ff811681146102eb578182fd5b9392505050565b60008261030d57634e487b7160e01b81526012600452602481fd5b500490565b600181815b8085111561034d57816000190482111561033357610333610421565b8085161561034057918102915b93841c9390800290610317565b509250929050565b60006102eb60ff84168360008261036e575060016103fc565b8161037b575060006103fc565b8160018114610391576002811461039b576103b7565b60019150506103fc565b60ff8411156103ac576103ac610421565b50506001821b6103fc565b5060208310610133831016604e8410600b84101617156103da575081810a6103fc565b6103e48383610312565b80600019048211156103f8576103f8610421565b0290505b92915050565b600081600019048311821515161561041c5761041c610421565b500290565b634e487b7160e01b600052601160045260246000fdfea2646970667358221220bec697958671d4555248a6193ff27ed15216f445d9df264632c55f8372512fe864736f6c63430008040033",
  "linkReferences": {},
  "deployedLinkReferences": {}
}