{
  "_format": "hh-sol-artifact-1",
  "contractName": "DStor",
  "sourceName": "src/backend/contracts/DStor.sol",
  "abi": [
    {
      "inputs": [],
      "stateMutability": "nonpayable",
      "type": "constructor"
    },
    {
      "anonymous": false,
      "inputs": [
        {
          "indexed": false,
          "internalType": "address",
          "name": "recipient",
          "type": "address"
        }
      ],
      "name": "FileUpdated",
      "type": "event"
    },
    {
      "anonymous": false,
      "inputs": [
        {
          "indexed": true,
          "internalType": "address",
          "name": "previousOwner",
          "type": "address"
        },
        {
          "indexed": true,
          "internalType": "address",
          "name": "newOwner",
          "type": "address"
        }
      ],
      "name": "OwnershipTransferred",
      "type": "event"
    },
    {
      "inputs": [
        {
          "internalType": "uint256",
          "name": "fileId",
          "type": "uint256"
        }
      ],
      "name": "addTime",
      "outputs": [],
      "stateMutability": "payable",
      "type": "function"
    },
    {
      "inputs": [
        {
          "internalType": "string[]",
          "name": "query",
          "type": "string[]"
        }
      ],
      "name": "batchExpQuery",
      "outputs": [
        {
          "internalType": "bool[]",
          "name": "isExpired",
          "type": "bool[]"
        },
        {
          "internalType": "uint256[]",
          "name": "tilExpiry",
          "type": "uint256[]"
        }
      ],
      "stateMutability": "view",
      "type": "function"
    },
    {
      "inputs": [
        {
          "internalType": "string",
          "name": "",
          "type": "string"
        }
      ],
      "name": "expirationDates",
      "outputs": [
        {
          "internalType": "uint256",
          "name": "",
          "type": "uint256"
        }
      ],
      "stateMutability": "view",
      "type": "function"
    },
    {
      "inputs": [],
      "name": "fileCount",
      "outputs": [
        {
          "internalType": "uint256",
          "name": "",
          "type": "uint256"
        }
      ],
      "stateMutability": "view",
      "type": "function"
    },
    {
      "inputs": [],
      "name": "fissionEngine",
      "outputs": [
        {
          "internalType": "address",
          "name": "",
          "type": "address"
        }
      ],
      "stateMutability": "view",
      "type": "function"
    },
    {
      "inputs": [
        {
          "internalType": "uint256",
          "name": "numBytes",
          "type": "uint256"
        }
      ],
      "name": "gasQuote",
      "outputs": [
        {
          "internalType": "uint256",
          "name": "weiPerDiem",
          "type": "uint256"
        },
        {
          "internalType": "uint256",
          "name": "weiBenchFee",
          "type": "uint256"
        }
      ],
      "stateMutability": "view",
      "type": "function"
    },
    {
      "inputs": [
        {
          "internalType": "uint256",
          "name": "fileId",
          "type": "uint256"
        }
      ],
      "name": "get",
      "outputs": [
        {
          "components": [
            {
              "internalType": "string",
              "name": "fileHash",
              "type": "string"
            },
            {
              "internalType": "uint256",
              "name": "fileSize",
              "type": "uint256"
            },
            {
              "internalType": "string",
              "name": "fileType",
              "type": "string"
            },
            {
              "internalType": "string",
              "name": "fileName",
              "type": "string"
            },
            {
              "internalType": "string",
              "name": "fileDescription",
              "type": "string"
            },
            {
              "internalType": "address",
              "name": "recipient",
              "type": "address"
            },
            {
              "internalType": "uint256",
              "name": "uploadTime",
              "type": "uint256"
            },
            {
              "internalType": "address",
              "name": "uploader",
              "type": "address"
            }
          ],
          "internalType": "struct DStor.File",
          "name": "",
          "type": "tuple"
        }
      ],
      "stateMutability": "view",
      "type": "function"
    },
    {
      "inputs": [
        {
          "internalType": "bool",
          "name": "isSender",
          "type": "bool"
        }
      ],
      "name": "getAccessibleExps",
      "outputs": [
        {
          "internalType": "uint256[]",
          "name": "",
          "type": "uint256[]"
        }
      ],
      "stateMutability": "view",
      "type": "function"
    },
    {
      "inputs": [
        {
          "internalType": "bool",
          "name": "isSender",
          "type": "bool"
        }
      ],
      "name": "getAccessibleFileIds",
      "outputs": [
        {
          "internalType": "uint256[]",
          "name": "",
          "type": "uint256[]"
        }
      ],
      "stateMutability": "view",
      "type": "function"
    },
    {
      "inputs": [
        {
          "internalType": "bool",
          "name": "isSender",
          "type": "bool"
        }
      ],
      "name": "getAccessibleFiles",
      "outputs": [
        {
          "components": [
            {
              "internalType": "string",
              "name": "fileHash",
              "type": "string"
            },
            {
              "internalType": "uint256",
              "name": "fileSize",
              "type": "uint256"
            },
            {
              "internalType": "string",
              "name": "fileType",
              "type": "string"
            },
            {
              "internalType": "string",
              "name": "fileName",
              "type": "string"
            },
            {
              "internalType": "string",
              "name": "fileDescription",
              "type": "string"
            },
            {
              "internalType": "address",
              "name": "recipient",
              "type": "address"
            },
            {
              "internalType": "uint256",
              "name": "uploadTime",
              "type": "uint256"
            },
            {
              "internalType": "address",
              "name": "uploader",
              "type": "address"
            }
          ],
          "internalType": "struct DStor.File[]",
          "name": "",
          "type": "tuple[]"
        }
      ],
      "stateMutability": "view",
      "type": "function"
    },
    {
      "inputs": [],
      "name": "getAllData",
      "outputs": [
        {
          "components": [
            {
              "internalType": "string",
              "name": "fileHash",
              "type": "string"
            },
            {
              "internalType": "uint256",
              "name": "fileSize",
              "type": "uint256"
            },
            {
              "internalType": "string",
              "name": "fileType",
              "type": "string"
            },
            {
              "internalType": "string",
              "name": "fileName",
              "type": "string"
            },
            {
              "internalType": "string",
              "name": "fileDescription",
              "type": "string"
            },
            {
              "internalType": "address",
              "name": "recipient",
              "type": "address"
            },
            {
              "internalType": "uint256",
              "name": "uploadTime",
              "type": "uint256"
            },
            {
              "internalType": "address",
              "name": "uploader",
              "type": "address"
            }
          ],
          "internalType": "struct DStor.File[]",
          "name": "sent",
          "type": "tuple[]"
        },
        {
          "internalType": "uint256[]",
          "name": "sentExps",
          "type": "uint256[]"
        },
        {
          "internalType": "uint256[]",
          "name": "sentIds",
          "type": "uint256[]"
        },
        {
          "components": [
            {
              "internalType": "string",
              "name": "fileHash",
              "type": "string"
            },
            {
              "internalType": "uint256",
              "name": "fileSize",
              "type": "uint256"
            },
            {
              "internalType": "string",
              "name": "fileType",
              "type": "string"
            },
            {
              "internalType": "string",
              "name": "fileName",
              "type": "string"
            },
            {
              "internalType": "string",
              "name": "fileDescription",
              "type": "string"
            },
            {
              "internalType": "address",
              "name": "recipient",
              "type": "address"
            },
            {
              "internalType": "uint256",
              "name": "uploadTime",
              "type": "uint256"
            },
            {
              "internalType": "address",
              "name": "uploader",
              "type": "address"
            }
          ],
          "internalType": "struct DStor.File[]",
          "name": "received",
          "type": "tuple[]"
        },
        {
          "internalType": "uint256[]",
          "name": "receivedExps",
          "type": "uint256[]"
        },
        {
          "internalType": "uint256[]",
          "name": "receivedIds",
          "type": "uint256[]"
        }
      ],
      "stateMutability": "view",
      "type": "function"
    },
    {
      "inputs": [],
      "name": "minimumFileSize",
      "outputs": [
        {
          "internalType": "uint256",
          "name": "",
          "type": "uint256"
        }
      ],
      "stateMutability": "view",
      "type": "function"
    },
    {
      "inputs": [],
      "name": "minimumPin",
      "outputs": [
        {
          "internalType": "uint256",
          "name": "",
          "type": "uint256"
        }
      ],
      "stateMutability": "view",
      "type": "function"
    },
    {
      "inputs": [
        {
          "internalType": "uint256",
          "name": "fileId",
          "type": "uint256"
        },
        {
          "internalType": "string",
          "name": "fileName",
          "type": "string"
        },
        {
          "internalType": "string",
          "name": "description",
          "type": "string"
        },
        {
          "internalType": "address",
          "name": "recipient",
          "type": "address"
        }
      ],
      "name": "modify",
      "outputs": [],
      "stateMutability": "nonpayable",
      "type": "function"
    },
    {
      "inputs": [],
      "name": "name",
      "outputs": [
        {
          "internalType": "string",
          "name": "",
          "type": "string"
        }
      ],
      "stateMutability": "view",
      "type": "function"
    },
    {
      "inputs": [],
      "name": "owner",
      "outputs": [
        {
          "internalType": "address",
          "name": "",
          "type": "address"
        }
      ],
      "stateMutability": "view",
      "type": "function"
    },
    {
      "inputs": [],
      "name": "pinningRate",
      "outputs": [
        {
          "internalType": "uint256",
          "name": "",
          "type": "uint256"
        }
      ],
      "stateMutability": "view",
      "type": "function"
    },
    {
      "inputs": [
        {
          "internalType": "uint256",
          "name": "numBytes",
          "type": "uint256"
        }
      ],
      "name": "quote",
      "outputs": [
        {
          "internalType": "uint256",
          "name": "perDiem",
          "type": "uint256"
        },
        {
          "internalType": "uint256",
          "name": "benchFee",
          "type": "uint256"
        }
      ],
      "stateMutability": "view",
      "type": "function"
    },
    {
      "inputs": [],
      "name": "renounceOwnership",
      "outputs": [],
      "stateMutability": "nonpayable",
      "type": "function"
    },
    {
      "inputs": [
        {
          "internalType": "address",
          "name": "fission",
          "type": "address"
        }
      ],
      "name": "setFission",
      "outputs": [],
      "stateMutability": "nonpayable",
      "type": "function"
    },
    {
      "inputs": [
        {
          "internalType": "uint256",
          "name": "value",
          "type": "uint256"
        }
      ],
      "name": "setPinningRate",
      "outputs": [],
      "stateMutability": "nonpayable",
      "type": "function"
    },
    {
      "inputs": [
        {
          "internalType": "bool",
          "name": "isMinimumPin",
          "type": "bool"
        },
        {
          "internalType": "uint256",
          "name": "value",
          "type": "uint256"
        }
      ],
      "name": "setRules",
      "outputs": [],
      "stateMutability": "nonpayable",
      "type": "function"
    },
    {
      "inputs": [],
      "name": "takeProfit",
      "outputs": [],
      "stateMutability": "nonpayable",
      "type": "function"
    },
    {
      "inputs": [
        {
          "internalType": "address",
          "name": "newOwner",
          "type": "address"
        }
      ],
      "name": "transferOwnership",
      "outputs": [],
      "stateMutability": "nonpayable",
      "type": "function"
    },
    {
      "inputs": [
        {
          "internalType": "string",
          "name": "_fileHash",
          "type": "string"
        },
        {
          "internalType": "uint256",
          "name": "_fileSize",
          "type": "uint256"
        },
        {
          "internalType": "string",
          "name": "_fileType",
          "type": "string"
        },
        {
          "internalType": "string",
          "name": "_fileName",
          "type": "string"
        },
        {
          "internalType": "string",
          "name": "_fileDescription",
          "type": "string"
        },
        {
          "internalType": "address",
          "name": "recipient",
          "type": "address"
        }
      ],
      "name": "upload",
      "outputs": [],
      "stateMutability": "payable",
      "type": "function"
    }
  ],
  "bytecode": "0x60806040526096600255601e60035561040060045560006007553480156200002657600080fd5b50620000476200003b6200004d60201b60201c565b6200005560201b60201c565b62000119565b600033905090565b60008060009054906101000a900473ffffffffffffffffffffffffffffffffffffffff169050816000806101000a81548173ffffffffffffffffffffffffffffffffffffffff021916908373ffffffffffffffffffffffffffffffffffffffff1602179055508173ffffffffffffffffffffffffffffffffffffffff168173ffffffffffffffffffffffffffffffffffffffff167f8be0079c531659141344cd1fd0a4f28419497f9722a3daafe3b4186f6b6457e060405160405180910390a35050565b61341980620001296000396000f3fe6080604052600436106101665760003560e01c806370c10578116100d1578063a3e0fdc31161008a578063e88bae8f11610064578063e88bae8f14610538578063ed1bd76c14610563578063f2fde38b146105a1578063fe668460146105ca57610166565b8063a3e0fdc3146104a6578063ba22ef26146104cf578063d8ca79d2146104fa57610166565b806370c10578146103aa578063715018a6146103c15780638862af95146103d85780638da5cb5b146104015780638e6513a81461042c5780639507d39a1461046957610166565b80632d10fa28116101235780632d10fa281461029557806336ea2606146102c55780633c1f81ff146102ee57806343953519146103175780635d7e00781461034257806366ecd0021461037f57610166565b80630502ca6b1461016b5780630617ff791461018757806306fdde03146101c457806307a8e14c146101ef5780631932e8d11461022c57806321f6fb111461026a575b600080fd5b61018560048036038101906101809190612760565b6105e6565b005b34801561019357600080fd5b506101ae60048036038101906101a991906125d1565b61077e565b6040516101bb9190612ce1565b60405180910390f35b3480156101d057600080fd5b506101d96108c8565b6040516101e69190612db0565b60405180910390f35b3480156101fb57600080fd5b5061021660048036038101906102119190612636565b610901565b6040516102239190612e34565b60405180910390f35b34801561023857600080fd5b50610253600480360381019061024e9190612760565b61092f565b604051610261929190612e4f565b60405180910390f35b34801561027657600080fd5b5061027f610a2e565b60405161028c9190612e34565b60405180910390f35b3480156102a157600080fd5b506102aa610a34565b6040516102bc96959493929190612d03565b60405180910390f35b3480156102d157600080fd5b506102ec60048036038101906102e79190612760565b610a8d565b005b3480156102fa57600080fd5b50610315600480360381019061031091906125fa565b610b13565b005b34801561032357600080fd5b5061032c610bb4565b6040516103399190612e34565b60405180910390f35b34801561034e57600080fd5b50610369600480360381019061036491906125d1565b610bba565b6040516103769190612d8e565b60405180910390f35b34801561038b57600080fd5b50610394610e4a565b6040516103a19190612c8f565b60405180910390f35b3480156103b657600080fd5b506103bf610e70565b005b3480156103cd57600080fd5b506103d6610ec0565b005b3480156103e457600080fd5b506103ff60048036038101906103fa91906127b2565b610f48565b005b34801561040d57600080fd5b506104166112c3565b6040516104239190612c8f565b60405180910390f35b34801561043857600080fd5b50610453600480360381019061044e91906125d1565b6112ec565b6040516104609190612d8e565b60405180910390f35b34801561047557600080fd5b50610490600480360381019061048b9190612760565b611446565b60405161049d9190612e12565b60405180910390f35b3480156104b257600080fd5b506104cd60048036038101906104c89190612567565b611867565b005b3480156104db57600080fd5b506104e4611927565b6040516104f19190612e34565b60405180910390f35b34801561050657600080fd5b50610521600480360381019061051c9190612590565b61192d565b60405161052f929190612caa565b60405180910390f35b34801561054457600080fd5b5061054d611baa565b60405161055a9190612e34565b60405180910390f35b34801561056f57600080fd5b5061058a60048036038101906105859190612760565b611bb0565b604051610598929190612e4f565b60405180910390f35b3480156105ad57600080fd5b506105c860048036038101906105c39190612567565b611ca9565b005b6105e460048036038101906105df9190612677565b611da1565b005b60006105f182611446565b90506000610602826020015161092f565b509050803410156040518060400160405280600981526020017f56414c5545204c4f57000000000000000000000000000000000000000000000081525090610680576040517f08c379a00000000000000000000000000000000000000000000000000000000081526004016106779190612db0565b60405180910390fd5b506000826000015190504260058260405161069b9190612c78565b90815260200160405180910390205410156040518060400160405280600d81526020017f4143434553532044454e4945440000000000000000000000000000000000000081525090610723576040517f08c379a000000000000000000000000000000000000000000000000000000000815260040161071a9190612db0565b60405180910390fd5b5060006201518083346107369190613033565b6107409190613064565b9050806005836040516107539190612c78565b908152602001604051809103902060008282546107709190612fdd565b925050819055505050505050565b6060600061078b83610bba565b905060008151905060008167ffffffffffffffff8111156107d5577f4e487b7100000000000000000000000000000000000000000000000000000000600052604160045260246000fd5b60405190808252806020026020018201604052801561080e57816020015b6107fb6122e7565b8152602001906001900390816107f35790505b50905060005b828110156108bc57610865848281518110610858577f4e487b7100000000000000000000000000000000000000000000000000000000600052603260045260246000fd5b6020026020010151611446565b82828151811061089e577f4e487b7100000000000000000000000000000000000000000000000000000000600052603260045260246000fd5b602002602001018190525080806108b4906131df565b915050610814565b50809350505050919050565b6040518060400160405280601681526020017f4465616444726f704048656d6c6f636b5374726565740000000000000000000081525081565b6005818051602081018201805184825260208301602085012081835280955050505050506000915090505481565b60008060008061093e85611bb0565b915091506000600160009054906101000a900473ffffffffffffffffffffffffffffffffffffffff16905060008173ffffffffffffffffffffffffffffffffffffffff1663e113e6406040518163ffffffff1660e01b815260040160206040518083038186803b1580156109b157600080fd5b505afa1580156109c5573d6000803e3d6000fd5b505050506040513d601f19601f820116820180604052508101906109e99190612789565b90506305f5e10081856109fc9190613064565b610a069190613033565b95506305f5e1008184610a199190613064565b610a239190613033565b945050505050915091565b60035481565b606080606080606080610a47600161077e565b9550610a5360016112ec565b9450610a5f6001610bba565b9350610a6b600061077e565b9250610a7760006112ec565b9150610a836000610bba565b9050909192939495565b610a9561221b565b73ffffffffffffffffffffffffffffffffffffffff16610ab36112c3565b73ffffffffffffffffffffffffffffffffffffffff1614610b09576040517f08c379a0000000000000000000000000000000000000000000000000000000008152600401610b0090612df2565b60405180910390fd5b8060028190555050565b610b1b61221b565b73ffffffffffffffffffffffffffffffffffffffff16610b396112c3565b73ffffffffffffffffffffffffffffffffffffffff1614610b8f576040517f08c379a0000000000000000000000000000000000000000000000000000000008152600401610b8690612df2565b60405180910390fd5b600115158215151415610ba85780600381905550610bb0565b806004819055505b5050565b60075481565b6060600080600090505b6007548111610ca157600084610c10576006600083815260200190815260200160002060050160009054906101000a900473ffffffffffffffffffffffffffffffffffffffff16610c48565b6006600083815260200190815260200160002060070160009054906101000a900473ffffffffffffffffffffffffffffffffffffffff165b90503373ffffffffffffffffffffffffffffffffffffffff168173ffffffffffffffffffffffffffffffffffffffff161415610c8d578280610c89906131df565b9350505b508080610c99906131df565b915050610bc4565b5060008167ffffffffffffffff811115610ce4577f4e487b7100000000000000000000000000000000000000000000000000000000600052604160045260246000fd5b604051908082528060200260200182016040528015610d125781602001602082028036833780820191505090505b5090506000915060005b6007548111610e3f57600085610d68576006600083815260200190815260200160002060050160009054906101000a900473ffffffffffffffffffffffffffffffffffffffff16610da0565b6006600083815260200190815260200160002060070160009054906101000a900473ffffffffffffffffffffffffffffffffffffffff165b90503373ffffffffffffffffffffffffffffffffffffffff168173ffffffffffffffffffffffffffffffffffffffff161415610e2b5781838581518110610e10577f4e487b7100000000000000000000000000000000000000000000000000000000600052603260045260246000fd5b6020026020010181815250508380610e27906131df565b9450505b508080610e37906131df565b915050610d1c565b508092505050919050565b600160009054906101000a900473ffffffffffffffffffffffffffffffffffffffff1681565b610e786112c3565b73ffffffffffffffffffffffffffffffffffffffff166108fc479081150290604051600060405180830381858888f19350505050158015610ebd573d6000803e3d6000fd5b50565b610ec861221b565b73ffffffffffffffffffffffffffffffffffffffff16610ee66112c3565b73ffffffffffffffffffffffffffffffffffffffff1614610f3c576040517f08c379a0000000000000000000000000000000000000000000000000000000008152600401610f3390612df2565b60405180910390fd5b610f466000612223565b565b60006006600086815260200190815260200160002090503373ffffffffffffffffffffffffffffffffffffffff168160070160009054906101000a900473ffffffffffffffffffffffffffffffffffffffff1673ffffffffffffffffffffffffffffffffffffffff16146040518060400160405280600d81526020017f4143434553532044454e4945440000000000000000000000000000000000000081525090611029576040517f08c379a00000000000000000000000000000000000000000000000000000000081526004016110209190612db0565b60405180910390fd5b503373ffffffffffffffffffffffffffffffffffffffff168273ffffffffffffffffffffffffffffffffffffffff1614156040518060400160405280600c81526020017f4e4f2053454c462053454e440000000000000000000000000000000000000000815250906110d1576040517f08c379a00000000000000000000000000000000000000000000000000000000081526004016110c89190612db0565b60405180910390fd5b506000845190506000845190506000821415806110ef575060008114155b806111275750600073ffffffffffffffffffffffffffffffffffffffff168473ffffffffffffffffffffffffffffffffffffffff1614155b156111ed576000821461114e578583600301908051906020019061114c929190612358565b505b60008114611170578483600401908051906020019061116e929190612358565b505b600073ffffffffffffffffffffffffffffffffffffffff168473ffffffffffffffffffffffffffffffffffffffff16146111e857838360050160006101000a81548173ffffffffffffffffffffffffffffffffffffffff021916908373ffffffffffffffffffffffffffffffffffffffff1602179055505b61125f565b6040518060400160405280600881526020017f4241442043414c4c0000000000000000000000000000000000000000000000008152506040517f08c379a00000000000000000000000000000000000000000000000000000000081526004016112569190612db0565b60405180910390fd5b7fc2b72a0fe8c458577d2c9ac0f97d01cbb043a6faae7c6b7eeda2a4812575027b8360050160009054906101000a900473ffffffffffffffffffffffffffffffffffffffff166040516112b29190612c8f565b60405180910390a150505050505050565b60008060009054906101000a900473ffffffffffffffffffffffffffffffffffffffff16905090565b606060006112f98361077e565b905060008151905060008167ffffffffffffffff811115611343577f4e487b7100000000000000000000000000000000000000000000000000000000600052604160045260246000fd5b6040519080825280602002602001820160405280156113715781602001602082028036833780820191505090505b50905060005b8281101561143a5760058482815181106113ba577f4e487b7100000000000000000000000000000000000000000000000000000000600052603260045260246000fd5b6020026020010151600001516040516113d39190612c78565b90815260200160405180910390205482828151811061141b577f4e487b7100000000000000000000000000000000000000000000000000000000600052603260045260246000fd5b6020026020010181815250508080611432906131df565b915050611377565b50809350505050919050565b61144e6122e7565b6000600660008481526020019081526020016000206040518061010001604052908160008201805461147f9061317c565b80601f01602080910402602001604051908101604052809291908181526020018280546114ab9061317c565b80156114f85780601f106114cd576101008083540402835291602001916114f8565b820191906000526020600020905b8154815290600101906020018083116114db57829003601f168201915b505050505081526020016001820154815260200160028201805461151b9061317c565b80601f01602080910402602001604051908101604052809291908181526020018280546115479061317c565b80156115945780601f1061156957610100808354040283529160200191611594565b820191906000526020600020905b81548152906001019060200180831161157757829003601f168201915b505050505081526020016003820180546115ad9061317c565b80601f01602080910402602001604051908101604052809291908181526020018280546115d99061317c565b80156116265780601f106115fb57610100808354040283529160200191611626565b820191906000526020600020905b81548152906001019060200180831161160957829003601f168201915b5050505050815260200160048201805461163f9061317c565b80601f016020809104026020016040519081016040528092919081815260200182805461166b9061317c565b80156116b85780601f1061168d576101008083540402835291602001916116b8565b820191906000526020600020905b81548152906001019060200180831161169b57829003601f168201915b505050505081526020016005820160009054906101000a900473ffffffffffffffffffffffffffffffffffffffff1673ffffffffffffffffffffffffffffffffffffffff1673ffffffffffffffffffffffffffffffffffffffff168152602001600682015481526020016007820160009054906101000a900473ffffffffffffffffffffffffffffffffffffffff1673ffffffffffffffffffffffffffffffffffffffff1673ffffffffffffffffffffffffffffffffffffffff168152505090503373ffffffffffffffffffffffffffffffffffffffff168160e0015173ffffffffffffffffffffffffffffffffffffffff1614806117e657503373ffffffffffffffffffffffffffffffffffffffff168160a0015173ffffffffffffffffffffffffffffffffffffffff16145b6040518060400160405280600d81526020017f4143434553532044454e494544000000000000000000000000000000000000008152509061185d576040517f08c379a00000000000000000000000000000000000000000000000000000000081526004016118549190612db0565b60405180910390fd5b5080915050919050565b61186f61221b565b73ffffffffffffffffffffffffffffffffffffffff1661188d6112c3565b73ffffffffffffffffffffffffffffffffffffffff16146118e3576040517f08c379a00000000000000000000000000000000000000000000000000000000081526004016118da90612df2565b60405180910390fd5b80600160006101000a81548173ffffffffffffffffffffffffffffffffffffffff021916908373ffffffffffffffffffffffffffffffffffffffff16021790555050565b60025481565b60608060008351905060008167ffffffffffffffff811115611978577f4e487b7100000000000000000000000000000000000000000000000000000000600052604160045260246000fd5b6040519080825280602002602001820160405280156119a65781602001602082028036833780820191505090505b50905060008267ffffffffffffffff8111156119eb577f4e487b7100000000000000000000000000000000000000000000000000000000600052604160045260246000fd5b604051908082528060200260200182016040528015611a195781602001602082028036833780820191505090505b50905060005b83811015611b9b5760006005888381518110611a64577f4e487b7100000000000000000000000000000000000000000000000000000000600052603260045260246000fd5b6020026020010151604051611a799190612c78565b9081526020016040518091039020549050426005898481518110611ac6577f4e487b7100000000000000000000000000000000000000000000000000000000600052603260045260246000fd5b6020026020010151604051611adb9190612c78565b90815260200160405180910390205411848381518110611b24577f4e487b7100000000000000000000000000000000000000000000000000000000600052603260045260246000fd5b6020026020010190151590811515815250508042611b4291906130be565b838381518110611b7b577f4e487b7100000000000000000000000000000000000000000000000000000000600052603260045260246000fd5b602002602001018181525050508080611b93906131df565b915050611a1f565b50819450809350505050915091565b60045481565b6000806004548310156040518060400160405280600881526020017f4241442043414c4c00000000000000000000000000000000000000000000000081525090611c30576040517f08c379a0000000000000000000000000000000000000000000000000000000008152600401611c279190612db0565b60405180910390fd5b50600061040084611c419190613033565b9050600061040085611c539190613228565b1115611c68578080611c64906131df565b9150505b62100000620f4240600254611c7d9190613064565b611c879190613033565b81611c929190613064565b9150601e82611ca19190613033565b925050915091565b611cb161221b565b73ffffffffffffffffffffffffffffffffffffffff16611ccf6112c3565b73ffffffffffffffffffffffffffffffffffffffff1614611d25576040517f08c379a0000000000000000000000000000000000000000000000000000000008152600401611d1c90612df2565b60405180910390fd5b600073ffffffffffffffffffffffffffffffffffffffff168173ffffffffffffffffffffffffffffffffffffffff161415611d95576040517f08c379a0000000000000000000000000000000000000000000000000000000008152600401611d8c90612dd2565b60405180910390fd5b611d9e81612223565b50565b60008651118015611db457506004548510155b8015611dc1575060008451115b8015611dce575060008351115b8015611ddb575060008251115b8015611e145750600073ffffffffffffffffffffffffffffffffffffffff163373ffffffffffffffffffffffffffffffffffffffff1614155b8015611e4d5750600073ffffffffffffffffffffffffffffffffffffffff168173ffffffffffffffffffffffffffffffffffffffff1614155b6040518060400160405280600881526020017f4241442043414c4c00000000000000000000000000000000000000000000000081525090611ec4576040517f08c379a0000000000000000000000000000000000000000000000000000000008152600401611ebb9190612db0565b60405180910390fd5b503373ffffffffffffffffffffffffffffffffffffffff168173ffffffffffffffffffffffffffffffffffffffff1614156040518060400160405280600c81526020017f4e4f2053454c462053454e44000000000000000000000000000000000000000081525090611f6c576040517f08c379a0000000000000000000000000000000000000000000000000000000008152600401611f639190612db0565b60405180910390fd5b50600080611f798761092f565b91509150803410156040518060400160405280600981526020017f56414c5545204c4f57000000000000000000000000000000000000000000000081525090611ff8576040517f08c379a0000000000000000000000000000000000000000000000000000000008152600401611fef9190612db0565b60405180910390fd5b5060006201518083833461200c91906130be565b6120169190613033565b6120209190613064565b905060008162278d00426120349190612fdd565b61203e9190612fdd565b90508060058b6040516120519190612c78565b90815260200160405180910390208190555060076000815480929190612076906131df565b91905055506040518061010001604052808b81526020018a81526020018981526020018881526020018781526020018673ffffffffffffffffffffffffffffffffffffffff1681526020014281526020013373ffffffffffffffffffffffffffffffffffffffff168152506006600060075481526020019081526020016000206000820151816000019080519060200190612112929190612358565b50602082015181600101556040820151816002019080519060200190612139929190612358565b506060820151816003019080519060200190612156929190612358565b506080820151816004019080519060200190612173929190612358565b5060a08201518160050160006101000a81548173ffffffffffffffffffffffffffffffffffffffff021916908373ffffffffffffffffffffffffffffffffffffffff16021790555060c0820151816006015560e08201518160070160006101000a81548173ffffffffffffffffffffffffffffffffffffffff021916908373ffffffffffffffffffffffffffffffffffffffff16021790555090505050505050505050505050565b600033905090565b60008060009054906101000a900473ffffffffffffffffffffffffffffffffffffffff169050816000806101000a81548173ffffffffffffffffffffffffffffffffffffffff021916908373ffffffffffffffffffffffffffffffffffffffff1602179055508173ffffffffffffffffffffffffffffffffffffffff168173ffffffffffffffffffffffffffffffffffffffff167f8be0079c531659141344cd1fd0a4f28419497f9722a3daafe3b4186f6b6457e060405160405180910390a35050565b6040518061010001604052806060815260200160008152602001606081526020016060815260200160608152602001600073ffffffffffffffffffffffffffffffffffffffff16815260200160008152602001600073ffffffffffffffffffffffffffffffffffffffff1681525090565b8280546123649061317c565b90600052602060002090601f01602090048101928261238657600085556123cd565b82601f1061239f57805160ff19168380011785556123cd565b828001600101855582156123cd579182015b828111156123cc5782518255916020019190600101906123b1565b5b5090506123da91906123de565b5090565b5b808211156123f75760008160009055506001016123df565b5090565b600061240e61240984612e9d565b612e78565b9050808382526020820190508285602086028201111561242d57600080fd5b60005b8581101561247757813567ffffffffffffffff81111561244f57600080fd5b80860161245c8982612513565b85526020850194506020840193505050600181019050612430565b5050509392505050565b600061249461248f84612ec9565b612e78565b9050828152602081018484840111156124ac57600080fd5b6124b784828561313a565b509392505050565b6000813590506124ce8161339e565b92915050565b600082601f8301126124e557600080fd5b81356124f58482602086016123fb565b91505092915050565b60008135905061250d816133b5565b92915050565b600082601f83011261252457600080fd5b8135612534848260208601612481565b91505092915050565b60008135905061254c816133cc565b92915050565b600081519050612561816133cc565b92915050565b60006020828403121561257957600080fd5b6000612587848285016124bf565b91505092915050565b6000602082840312156125a257600080fd5b600082013567ffffffffffffffff8111156125bc57600080fd5b6125c8848285016124d4565b91505092915050565b6000602082840312156125e357600080fd5b60006125f1848285016124fe565b91505092915050565b6000806040838503121561260d57600080fd5b600061261b858286016124fe565b925050602061262c8582860161253d565b9150509250929050565b60006020828403121561264857600080fd5b600082013567ffffffffffffffff81111561266257600080fd5b61266e84828501612513565b91505092915050565b60008060008060008060c0878903121561269057600080fd5b600087013567ffffffffffffffff8111156126aa57600080fd5b6126b689828a01612513565b96505060206126c789828a0161253d565b955050604087013567ffffffffffffffff8111156126e457600080fd5b6126f089828a01612513565b945050606087013567ffffffffffffffff81111561270d57600080fd5b61271989828a01612513565b935050608087013567ffffffffffffffff81111561273657600080fd5b61274289828a01612513565b92505060a061275389828a016124bf565b9150509295509295509295565b60006020828403121561277257600080fd5b60006127808482850161253d565b91505092915050565b60006020828403121561279b57600080fd5b60006127a984828501612552565b91505092915050565b600080600080608085870312156127c857600080fd5b60006127d68782880161253d565b945050602085013567ffffffffffffffff8111156127f357600080fd5b6127ff87828801612513565b935050604085013567ffffffffffffffff81111561281c57600080fd5b61282887828801612513565b9250506060612839878288016124bf565b91505092959194509250565b600061285183836129d8565b60208301905092915050565b60006128698383612ad0565b905092915050565b600061287d8383612c5a565b60208301905092915050565b612892816130f2565b82525050565b6128a1816130f2565b82525050565b60006128b282612f2a565b6128bc8185612f7d565b93506128c783612efa565b8060005b838110156128f85781516128df8882612845565b97506128ea83612f56565b9250506001810190506128cb565b5085935050505092915050565b600061291082612f35565b61291a8185612f8e565b93508360208202850161292c85612f0a565b8060005b858110156129685784840389528151612949858261285d565b945061295483612f63565b925060208a01995050600181019050612930565b50829750879550505050505092915050565b600061298582612f40565b61298f8185612f9f565b935061299a83612f1a565b8060005b838110156129cb5781516129b28882612871565b97506129bd83612f70565b92505060018101905061299e565b5085935050505092915050565b6129e181613104565b82525050565b60006129f282612f4b565b6129fc8185612fb0565b9350612a0c818560208601613149565b612a1581613315565b840191505092915050565b6000612a2b82612f4b565b612a358185612fc1565b9350612a45818560208601613149565b612a4e81613315565b840191505092915050565b6000612a6482612f4b565b612a6e8185612fd2565b9350612a7e818560208601613149565b80840191505092915050565b6000612a97602683612fc1565b9150612aa282613326565b604082019050919050565b6000612aba602083612fc1565b9150612ac582613375565b602082019050919050565b6000610100830160008301518482036000860152612aee82826129e7565b9150506020830151612b036020860182612c5a565b5060408301518482036040860152612b1b82826129e7565b91505060608301518482036060860152612b3582826129e7565b91505060808301518482036080860152612b4f82826129e7565b91505060a0830151612b6460a0860182612889565b5060c0830151612b7760c0860182612c5a565b5060e0830151612b8a60e0860182612889565b508091505092915050565b6000610100830160008301518482036000860152612bb382826129e7565b9150506020830151612bc86020860182612c5a565b5060408301518482036040860152612be082826129e7565b91505060608301518482036060860152612bfa82826129e7565b91505060808301518482036080860152612c1482826129e7565b91505060a0830151612c2960a0860182612889565b5060c0830151612c3c60c0860182612c5a565b5060e0830151612c4f60e0860182612889565b508091505092915050565b612c6381613130565b82525050565b612c7281613130565b82525050565b6000612c848284612a59565b915081905092915050565b6000602082019050612ca46000830184612898565b92915050565b60006040820190508181036000830152612cc481856128a7565b90508181036020830152612cd8818461297a565b90509392505050565b60006020820190508181036000830152612cfb8184612905565b905092915050565b600060c0820190508181036000830152612d1d8189612905565b90508181036020830152612d31818861297a565b90508181036040830152612d45818761297a565b90508181036060830152612d598186612905565b90508181036080830152612d6d818561297a565b905081810360a0830152612d81818461297a565b9050979650505050505050565b60006020820190508181036000830152612da8818461297a565b905092915050565b60006020820190508181036000830152612dca8184612a20565b905092915050565b60006020820190508181036000830152612deb81612a8a565b9050919050565b60006020820190508181036000830152612e0b81612aad565b9050919050565b60006020820190508181036000830152612e2c8184612b95565b905092915050565b6000602082019050612e496000830184612c69565b92915050565b6000604082019050612e646000830185612c69565b612e716020830184612c69565b9392505050565b6000612e82612e93565b9050612e8e82826131ae565b919050565b6000604051905090565b600067ffffffffffffffff821115612eb857612eb76132e6565b5b602082029050602081019050919050565b600067ffffffffffffffff821115612ee457612ee36132e6565b5b612eed82613315565b9050602081019050919050565b6000819050602082019050919050565b6000819050602082019050919050565b6000819050602082019050919050565b600081519050919050565b600081519050919050565b600081519050919050565b600081519050919050565b6000602082019050919050565b6000602082019050919050565b6000602082019050919050565b600082825260208201905092915050565b600082825260208201905092915050565b600082825260208201905092915050565b600082825260208201905092915050565b600082825260208201905092915050565b600081905092915050565b6000612fe882613130565b9150612ff383613130565b9250827fffffffffffffffffffffffffffffffffffffffffffffffffffffffffffffffff0382111561302857613027613259565b5b828201905092915050565b600061303e82613130565b915061304983613130565b92508261305957613058613288565b5b828204905092915050565b600061306f82613130565b915061307a83613130565b9250817fffffffffffffffffffffffffffffffffffffffffffffffffffffffffffffffff04831182151516156130b3576130b2613259565b5b828202905092915050565b60006130c982613130565b91506130d483613130565b9250828210156130e7576130e6613259565b5b828203905092915050565b60006130fd82613110565b9050919050565b60008115159050919050565b600073ffffffffffffffffffffffffffffffffffffffff82169050919050565b6000819050919050565b82818337600083830152505050565b60005b8381101561316757808201518184015260208101905061314c565b83811115613176576000848401525b50505050565b6000600282049050600182168061319457607f821691505b602082108114156131a8576131a76132b7565b5b50919050565b6131b782613315565b810181811067ffffffffffffffff821117156131d6576131d56132e6565b5b80604052505050565b60006131ea82613130565b91507fffffffffffffffffffffffffffffffffffffffffffffffffffffffffffffffff82141561321d5761321c613259565b5b600182019050919050565b600061323382613130565b915061323e83613130565b92508261324e5761324d613288565b5b828206905092915050565b7f4e487b7100000000000000000000000000000000000000000000000000000000600052601160045260246000fd5b7f4e487b7100000000000000000000000000000000000000000000000000000000600052601260045260246000fd5b7f4e487b7100000000000000000000000000000000000000000000000000000000600052602260045260246000fd5b7f4e487b7100000000000000000000000000000000000000000000000000000000600052604160045260246000fd5b6000601f19601f8301169050919050565b7f4f776e61626c653a206e6577206f776e657220697320746865207a65726f206160008201527f6464726573730000000000000000000000000000000000000000000000000000602082015250565b7f4f776e61626c653a2063616c6c6572206973206e6f7420746865206f776e6572600082015250565b6133a7816130f2565b81146133b257600080fd5b50565b6133be81613104565b81146133c957600080fd5b50565b6133d581613130565b81146133e057600080fd5b5056fea26469706673582212203e70d920767fa7963c550636bf4e0e56da6897b61ddcd935d173e9c01a719e7b64736f6c63430008040033",
  "linkReferences": {},
  "deployedLinkReferences": {}
}