{
  "_format": "hh-sol-artifact-1",
  "contractName": "DStor",
  "sourceName": "src/backend/contracts/DStor.sol",
  "abi": [
    {
      "inputs": [],
      "stateMutability": "nonpayable",
      "type": "constructor"
    },
    {
      "anonymous": false,
      "inputs": [
        {
          "indexed": false,
          "internalType": "address",
          "name": "recipient",
          "type": "address"
        }
      ],
      "name": "FileUpdated",
      "type": "event"
    },
    {
      "anonymous": false,
      "inputs": [
        {
          "indexed": true,
          "internalType": "address",
          "name": "previousOwner",
          "type": "address"
        },
        {
          "indexed": true,
          "internalType": "address",
          "name": "newOwner",
          "type": "address"
        }
      ],
      "name": "OwnershipTransferred",
      "type": "event"
    },
    {
      "inputs": [
        {
          "internalType": "uint256",
          "name": "fileId",
          "type": "uint256"
        }
      ],
      "name": "addTime",
      "outputs": [],
      "stateMutability": "payable",
      "type": "function"
    },
    {
      "inputs": [
        {
          "internalType": "string[]",
          "name": "query",
          "type": "string[]"
        }
      ],
      "name": "batchExpQuery",
      "outputs": [
        {
          "internalType": "bool[]",
          "name": "isExpired",
          "type": "bool[]"
        },
        {
          "internalType": "uint256[]",
          "name": "tilExpiry",
          "type": "uint256[]"
        }
      ],
      "stateMutability": "view",
      "type": "function"
    },
    {
      "inputs": [
        {
          "internalType": "string",
          "name": "",
          "type": "string"
        }
      ],
      "name": "expirationDates",
      "outputs": [
        {
          "internalType": "uint256",
          "name": "",
          "type": "uint256"
        }
      ],
      "stateMutability": "view",
      "type": "function"
    },
    {
      "inputs": [],
      "name": "fileCount",
      "outputs": [
        {
          "internalType": "uint256",
          "name": "",
          "type": "uint256"
        }
      ],
      "stateMutability": "view",
      "type": "function"
    },
    {
      "inputs": [],
      "name": "fissionEngine",
      "outputs": [
        {
          "internalType": "address",
          "name": "",
          "type": "address"
        }
      ],
      "stateMutability": "view",
      "type": "function"
    },
    {
      "inputs": [
        {
          "internalType": "uint256",
          "name": "numBytes",
          "type": "uint256"
        }
      ],
      "name": "gasQuote",
      "outputs": [
        {
          "internalType": "uint256",
          "name": "weiPerDiem",
          "type": "uint256"
        },
        {
          "internalType": "uint256",
          "name": "weiBenchFee",
          "type": "uint256"
        }
      ],
      "stateMutability": "view",
      "type": "function"
    },
    {
      "inputs": [
        {
          "internalType": "uint256",
          "name": "fileId",
          "type": "uint256"
        }
      ],
      "name": "get",
      "outputs": [
        {
          "components": [
            {
              "internalType": "string",
              "name": "fileHash",
              "type": "string"
            },
            {
              "internalType": "uint256",
              "name": "fileSize",
              "type": "uint256"
            },
            {
              "internalType": "string",
              "name": "fileType",
              "type": "string"
            },
            {
              "internalType": "string",
              "name": "fileName",
              "type": "string"
            },
            {
              "internalType": "string",
              "name": "fileDescription",
              "type": "string"
            },
            {
              "internalType": "address",
              "name": "recipient",
              "type": "address"
            },
            {
              "internalType": "uint256",
              "name": "uploadTime",
              "type": "uint256"
            },
            {
              "internalType": "address",
              "name": "uploader",
              "type": "address"
            }
          ],
          "internalType": "struct DStor.File",
          "name": "",
          "type": "tuple"
        }
      ],
      "stateMutability": "view",
      "type": "function"
    },
    {
      "inputs": [
        {
          "internalType": "bool",
          "name": "isSender",
          "type": "bool"
        }
      ],
      "name": "getAccessibleExps",
      "outputs": [
        {
          "internalType": "uint256[]",
          "name": "",
          "type": "uint256[]"
        }
      ],
      "stateMutability": "view",
      "type": "function"
    },
    {
      "inputs": [
        {
          "internalType": "bool",
          "name": "isSender",
          "type": "bool"
        }
      ],
      "name": "getAccessibleFileIds",
      "outputs": [
        {
          "internalType": "uint256[]",
          "name": "",
          "type": "uint256[]"
        }
      ],
      "stateMutability": "view",
      "type": "function"
    },
    {
      "inputs": [
        {
          "internalType": "bool",
          "name": "isSender",
          "type": "bool"
        }
      ],
      "name": "getAccessibleFiles",
      "outputs": [
        {
          "components": [
            {
              "internalType": "string",
              "name": "fileHash",
              "type": "string"
            },
            {
              "internalType": "uint256",
              "name": "fileSize",
              "type": "uint256"
            },
            {
              "internalType": "string",
              "name": "fileType",
              "type": "string"
            },
            {
              "internalType": "string",
              "name": "fileName",
              "type": "string"
            },
            {
              "internalType": "string",
              "name": "fileDescription",
              "type": "string"
            },
            {
              "internalType": "address",
              "name": "recipient",
              "type": "address"
            },
            {
              "internalType": "uint256",
              "name": "uploadTime",
              "type": "uint256"
            },
            {
              "internalType": "address",
              "name": "uploader",
              "type": "address"
            }
          ],
          "internalType": "struct DStor.File[]",
          "name": "",
          "type": "tuple[]"
        }
      ],
      "stateMutability": "view",
      "type": "function"
    },
    {
      "inputs": [],
      "name": "getAllData",
      "outputs": [
        {
          "components": [
            {
              "internalType": "string",
              "name": "fileHash",
              "type": "string"
            },
            {
              "internalType": "uint256",
              "name": "fileSize",
              "type": "uint256"
            },
            {
              "internalType": "string",
              "name": "fileType",
              "type": "string"
            },
            {
              "internalType": "string",
              "name": "fileName",
              "type": "string"
            },
            {
              "internalType": "string",
              "name": "fileDescription",
              "type": "string"
            },
            {
              "internalType": "address",
              "name": "recipient",
              "type": "address"
            },
            {
              "internalType": "uint256",
              "name": "uploadTime",
              "type": "uint256"
            },
            {
              "internalType": "address",
              "name": "uploader",
              "type": "address"
            }
          ],
          "internalType": "struct DStor.File[]",
          "name": "sent",
          "type": "tuple[]"
        },
        {
          "internalType": "uint256[]",
          "name": "sentExps",
          "type": "uint256[]"
        },
        {
          "components": [
            {
              "internalType": "string",
              "name": "fileHash",
              "type": "string"
            },
            {
              "internalType": "uint256",
              "name": "fileSize",
              "type": "uint256"
            },
            {
              "internalType": "string",
              "name": "fileType",
              "type": "string"
            },
            {
              "internalType": "string",
              "name": "fileName",
              "type": "string"
            },
            {
              "internalType": "string",
              "name": "fileDescription",
              "type": "string"
            },
            {
              "internalType": "address",
              "name": "recipient",
              "type": "address"
            },
            {
              "internalType": "uint256",
              "name": "uploadTime",
              "type": "uint256"
            },
            {
              "internalType": "address",
              "name": "uploader",
              "type": "address"
            }
          ],
          "internalType": "struct DStor.File[]",
          "name": "received",
          "type": "tuple[]"
        },
        {
          "internalType": "uint256[]",
          "name": "receivedExps",
          "type": "uint256[]"
        }
      ],
      "stateMutability": "view",
      "type": "function"
    },
    {
      "inputs": [],
      "name": "minimumFileSize",
      "outputs": [
        {
          "internalType": "uint256",
          "name": "",
          "type": "uint256"
        }
      ],
      "stateMutability": "view",
      "type": "function"
    },
    {
      "inputs": [],
      "name": "minimumPin",
      "outputs": [
        {
          "internalType": "uint256",
          "name": "",
          "type": "uint256"
        }
      ],
      "stateMutability": "view",
      "type": "function"
    },
    {
      "inputs": [
        {
          "internalType": "uint256",
          "name": "fileId",
          "type": "uint256"
        },
        {
          "internalType": "string",
          "name": "fileName",
          "type": "string"
        },
        {
          "internalType": "string",
          "name": "description",
          "type": "string"
        },
        {
          "internalType": "address",
          "name": "recipient",
          "type": "address"
        }
      ],
      "name": "modify",
      "outputs": [],
      "stateMutability": "nonpayable",
      "type": "function"
    },
    {
      "inputs": [],
      "name": "name",
      "outputs": [
        {
          "internalType": "string",
          "name": "",
          "type": "string"
        }
      ],
      "stateMutability": "view",
      "type": "function"
    },
    {
      "inputs": [],
      "name": "owner",
      "outputs": [
        {
          "internalType": "address",
          "name": "",
          "type": "address"
        }
      ],
      "stateMutability": "view",
      "type": "function"
    },
    {
      "inputs": [],
      "name": "pinningRate",
      "outputs": [
        {
          "internalType": "uint256",
          "name": "",
          "type": "uint256"
        }
      ],
      "stateMutability": "view",
      "type": "function"
    },
    {
      "inputs": [
        {
          "internalType": "uint256",
          "name": "numBytes",
          "type": "uint256"
        }
      ],
      "name": "quote",
      "outputs": [
        {
          "internalType": "uint256",
          "name": "perDiem",
          "type": "uint256"
        },
        {
          "internalType": "uint256",
          "name": "benchFee",
          "type": "uint256"
        }
      ],
      "stateMutability": "view",
      "type": "function"
    },
    {
      "inputs": [],
      "name": "renounceOwnership",
      "outputs": [],
      "stateMutability": "nonpayable",
      "type": "function"
    },
    {
      "inputs": [
        {
          "internalType": "address",
          "name": "fission",
          "type": "address"
        }
      ],
      "name": "setFission",
      "outputs": [],
      "stateMutability": "nonpayable",
      "type": "function"
    },
    {
      "inputs": [
        {
          "internalType": "uint256",
          "name": "value",
          "type": "uint256"
        }
      ],
      "name": "setPinningRate",
      "outputs": [],
      "stateMutability": "nonpayable",
      "type": "function"
    },
    {
      "inputs": [
        {
          "internalType": "bool",
          "name": "isMinimumPin",
          "type": "bool"
        },
        {
          "internalType": "uint256",
          "name": "value",
          "type": "uint256"
        }
      ],
      "name": "setRules",
      "outputs": [],
      "stateMutability": "nonpayable",
      "type": "function"
    },
    {
      "inputs": [],
      "name": "takeProfit",
      "outputs": [],
      "stateMutability": "nonpayable",
      "type": "function"
    },
    {
      "inputs": [
        {
          "internalType": "address",
          "name": "newOwner",
          "type": "address"
        }
      ],
      "name": "transferOwnership",
      "outputs": [],
      "stateMutability": "nonpayable",
      "type": "function"
    },
    {
      "inputs": [
        {
          "internalType": "string",
          "name": "_fileHash",
          "type": "string"
        },
        {
          "internalType": "uint256",
          "name": "_fileSize",
          "type": "uint256"
        },
        {
          "internalType": "string",
          "name": "_fileType",
          "type": "string"
        },
        {
          "internalType": "string",
          "name": "_fileName",
          "type": "string"
        },
        {
          "internalType": "string",
          "name": "_fileDescription",
          "type": "string"
        },
        {
          "internalType": "address",
          "name": "recipient",
          "type": "address"
        }
      ],
      "name": "upload",
      "outputs": [],
      "stateMutability": "payable",
      "type": "function"
    }
  ],
  "bytecode": "0x60806040526096600255601e60035561040060045560006007553480156200002657600080fd5b50620000476200003b6200004d60201b60201c565b6200005560201b60201c565b62000119565b600033905090565b60008060009054906101000a900473ffffffffffffffffffffffffffffffffffffffff169050816000806101000a81548173ffffffffffffffffffffffffffffffffffffffff021916908373ffffffffffffffffffffffffffffffffffffffff1602179055508173ffffffffffffffffffffffffffffffffffffffff168173ffffffffffffffffffffffffffffffffffffffff167f8be0079c531659141344cd1fd0a4f28419497f9722a3daafe3b4186f6b6457e060405160405180910390a35050565b6133d780620001296000396000f3fe6080604052600436106101665760003560e01c806370c10578116100d1578063a3e0fdc31161008a578063e88bae8f11610064578063e88bae8f14610536578063ed1bd76c14610561578063f2fde38b1461059f578063fe668460146105c857610166565b8063a3e0fdc3146104a4578063ba22ef26146104cd578063d8ca79d2146104f857610166565b806370c10578146103a8578063715018a6146103bf5780638862af95146103d65780638da5cb5b146103ff5780638e6513a81461042a5780639507d39a1461046757610166565b80632d10fa28116101235780632d10fa281461029557806336ea2606146102c35780633c1f81ff146102ec57806343953519146103155780635d7e00781461034057806366ecd0021461037d57610166565b80630502ca6b1461016b5780630617ff791461018757806306fdde03146101c457806307a8e14c146101ef5780631932e8d11461022c57806321f6fb111461026a575b600080fd5b61018560048036038101906101809190612748565b6105e4565b005b34801561019357600080fd5b506101ae60048036038101906101a991906125b9565b61077c565b6040516101bb9190612cc9565b60405180910390f35b3480156101d057600080fd5b506101d96108c6565b6040516101e69190612d6e565b60405180910390f35b3480156101fb57600080fd5b506102166004803603810190610211919061261e565b6108ff565b6040516102239190612df2565b60405180910390f35b34801561023857600080fd5b50610253600480360381019061024e9190612748565b61092d565b604051610261929190612e0d565b60405180910390f35b34801561027657600080fd5b5061027f610a2c565b60405161028c9190612df2565b60405180910390f35b3480156102a157600080fd5b506102aa610a32565b6040516102ba9493929190612ceb565b60405180910390f35b3480156102cf57600080fd5b506102ea60048036038101906102e59190612748565b610a6e565b005b3480156102f857600080fd5b50610313600480360381019061030e91906125e2565b610af4565b005b34801561032157600080fd5b5061032a610b95565b6040516103379190612df2565b60405180910390f35b34801561034c57600080fd5b50610367600480360381019061036291906125b9565b610b9b565b6040516103749190612d4c565b60405180910390f35b34801561038957600080fd5b50610392610e2b565b60405161039f9190612c77565b60405180910390f35b3480156103b457600080fd5b506103bd610e51565b005b3480156103cb57600080fd5b506103d4610ea1565b005b3480156103e257600080fd5b506103fd60048036038101906103f8919061279a565b610f29565b005b34801561040b57600080fd5b506104146112a4565b6040516104219190612c77565b60405180910390f35b34801561043657600080fd5b50610451600480360381019061044c91906125b9565b6112cd565b60405161045e9190612d4c565b60405180910390f35b34801561047357600080fd5b5061048e60048036038101906104899190612748565b611427565b60405161049b9190612dd0565b60405180910390f35b3480156104b057600080fd5b506104cb60048036038101906104c6919061254f565b611848565b005b3480156104d957600080fd5b506104e2611908565b6040516104ef9190612df2565b60405180910390f35b34801561050457600080fd5b5061051f600480360381019061051a9190612578565b61190e565b60405161052d929190612c92565b60405180910390f35b34801561054257600080fd5b5061054b611b8b565b6040516105589190612df2565b60405180910390f35b34801561056d57600080fd5b5061058860048036038101906105839190612748565b611b91565b604051610596929190612e0d565b60405180910390f35b3480156105ab57600080fd5b506105c660048036038101906105c1919061254f565b611c91565b005b6105e260048036038101906105dd919061265f565b611d89565b005b60006105ef82611427565b90506000610600826020015161092d565b509050803410156040518060400160405280600981526020017f56414c5545204c4f5700000000000000000000000000000000000000000000008152509061067e576040517f08c379a00000000000000000000000000000000000000000000000000000000081526004016106759190612d6e565b60405180910390fd5b50600082600001519050426005826040516106999190612c60565b90815260200160405180910390205410156040518060400160405280600d81526020017f4143434553532044454e4945440000000000000000000000000000000000000081525090610721576040517f08c379a00000000000000000000000000000000000000000000000000000000081526004016107189190612d6e565b60405180910390fd5b5060006201518083346107349190612ff1565b61073e9190613022565b9050806005836040516107519190612c60565b9081526020016040518091039020600082825461076e9190612f9b565b925050819055505050505050565b6060600061078983610b9b565b905060008151905060008167ffffffffffffffff8111156107d3577f4e487b7100000000000000000000000000000000000000000000000000000000600052604160045260246000fd5b60405190808252806020026020018201604052801561080c57816020015b6107f96122cf565b8152602001906001900390816107f15790505b50905060005b828110156108ba57610863848281518110610856577f4e487b7100000000000000000000000000000000000000000000000000000000600052603260045260246000fd5b6020026020010151611427565b82828151811061089c577f4e487b7100000000000000000000000000000000000000000000000000000000600052603260045260246000fd5b602002602001018190525080806108b29061319d565b915050610812565b50809350505050919050565b6040518060400160405280601681526020017f4465616444726f704048656d6c6f636b5374726565740000000000000000000081525081565b6005818051602081018201805184825260208301602085012081835280955050505050506000915090505481565b60008060008061093c85611b91565b915091506000600160009054906101000a900473ffffffffffffffffffffffffffffffffffffffff16905060008173ffffffffffffffffffffffffffffffffffffffff1663e113e6406040518163ffffffff1660e01b815260040160206040518083038186803b1580156109af57600080fd5b505afa1580156109c3573d6000803e3d6000fd5b505050506040513d601f19601f820116820180604052508101906109e79190612771565b90506305f5e10081856109fa9190613022565b610a049190612ff1565b95506305f5e1008184610a179190613022565b610a219190612ff1565b945050505050915091565b60035481565b606080606080610a42600161077c565b9350610a4e60016112cd565b9250610a5a600061077c565b9150610a6660006112cd565b905090919293565b610a76612203565b73ffffffffffffffffffffffffffffffffffffffff16610a946112a4565b73ffffffffffffffffffffffffffffffffffffffff1614610aea576040517f08c379a0000000000000000000000000000000000000000000000000000000008152600401610ae190612db0565b60405180910390fd5b8060028190555050565b610afc612203565b73ffffffffffffffffffffffffffffffffffffffff16610b1a6112a4565b73ffffffffffffffffffffffffffffffffffffffff1614610b70576040517f08c379a0000000000000000000000000000000000000000000000000000000008152600401610b6790612db0565b60405180910390fd5b600115158215151415610b895780600381905550610b91565b806004819055505b5050565b60075481565b6060600080600090505b6007548111610c8257600084610bf1576006600083815260200190815260200160002060050160009054906101000a900473ffffffffffffffffffffffffffffffffffffffff16610c29565b6006600083815260200190815260200160002060070160009054906101000a900473ffffffffffffffffffffffffffffffffffffffff165b90503373ffffffffffffffffffffffffffffffffffffffff168173ffffffffffffffffffffffffffffffffffffffff161415610c6e578280610c6a9061319d565b9350505b508080610c7a9061319d565b915050610ba5565b5060008167ffffffffffffffff811115610cc5577f4e487b7100000000000000000000000000000000000000000000000000000000600052604160045260246000fd5b604051908082528060200260200182016040528015610cf35781602001602082028036833780820191505090505b5090506000915060005b6007548111610e2057600085610d49576006600083815260200190815260200160002060050160009054906101000a900473ffffffffffffffffffffffffffffffffffffffff16610d81565b6006600083815260200190815260200160002060070160009054906101000a900473ffffffffffffffffffffffffffffffffffffffff165b90503373ffffffffffffffffffffffffffffffffffffffff168173ffffffffffffffffffffffffffffffffffffffff161415610e0c5781838581518110610df1577f4e487b7100000000000000000000000000000000000000000000000000000000600052603260045260246000fd5b6020026020010181815250508380610e089061319d565b9450505b508080610e189061319d565b915050610cfd565b508092505050919050565b600160009054906101000a900473ffffffffffffffffffffffffffffffffffffffff1681565b610e596112a4565b73ffffffffffffffffffffffffffffffffffffffff166108fc479081150290604051600060405180830381858888f19350505050158015610e9e573d6000803e3d6000fd5b50565b610ea9612203565b73ffffffffffffffffffffffffffffffffffffffff16610ec76112a4565b73ffffffffffffffffffffffffffffffffffffffff1614610f1d576040517f08c379a0000000000000000000000000000000000000000000000000000000008152600401610f1490612db0565b60405180910390fd5b610f27600061220b565b565b60006006600086815260200190815260200160002090503373ffffffffffffffffffffffffffffffffffffffff168160070160009054906101000a900473ffffffffffffffffffffffffffffffffffffffff1673ffffffffffffffffffffffffffffffffffffffff16146040518060400160405280600d81526020017f4143434553532044454e494544000000000000000000000000000000000000008152509061100a576040517f08c379a00000000000000000000000000000000000000000000000000000000081526004016110019190612d6e565b60405180910390fd5b503373ffffffffffffffffffffffffffffffffffffffff168273ffffffffffffffffffffffffffffffffffffffff1614156040518060400160405280600c81526020017f4e4f2053454c462053454e440000000000000000000000000000000000000000815250906110b2576040517f08c379a00000000000000000000000000000000000000000000000000000000081526004016110a99190612d6e565b60405180910390fd5b506000845190506000845190506000821415806110d0575060008114155b806111085750600073ffffffffffffffffffffffffffffffffffffffff168473ffffffffffffffffffffffffffffffffffffffff1614155b156111ce576000821461112f578583600301908051906020019061112d929190612340565b505b60008114611151578483600401908051906020019061114f929190612340565b505b600073ffffffffffffffffffffffffffffffffffffffff168473ffffffffffffffffffffffffffffffffffffffff16146111c957838360050160006101000a81548173ffffffffffffffffffffffffffffffffffffffff021916908373ffffffffffffffffffffffffffffffffffffffff1602179055505b611240565b6040518060400160405280600881526020017f4241442043414c4c0000000000000000000000000000000000000000000000008152506040517f08c379a00000000000000000000000000000000000000000000000000000000081526004016112379190612d6e565b60405180910390fd5b7fc2b72a0fe8c458577d2c9ac0f97d01cbb043a6faae7c6b7eeda2a4812575027b8360050160009054906101000a900473ffffffffffffffffffffffffffffffffffffffff166040516112939190612c77565b60405180910390a150505050505050565b60008060009054906101000a900473ffffffffffffffffffffffffffffffffffffffff16905090565b606060006112da8361077c565b905060008151905060008167ffffffffffffffff811115611324577f4e487b7100000000000000000000000000000000000000000000000000000000600052604160045260246000fd5b6040519080825280602002602001820160405280156113525781602001602082028036833780820191505090505b50905060005b8281101561141b57600584828151811061139b577f4e487b7100000000000000000000000000000000000000000000000000000000600052603260045260246000fd5b6020026020010151600001516040516113b49190612c60565b9081526020016040518091039020548282815181106113fc577f4e487b7100000000000000000000000000000000000000000000000000000000600052603260045260246000fd5b60200260200101818152505080806114139061319d565b915050611358565b50809350505050919050565b61142f6122cf565b600060066000848152602001908152602001600020604051806101000160405290816000820180546114609061313a565b80601f016020809104026020016040519081016040528092919081815260200182805461148c9061313a565b80156114d95780601f106114ae576101008083540402835291602001916114d9565b820191906000526020600020905b8154815290600101906020018083116114bc57829003601f168201915b50505050508152602001600182015481526020016002820180546114fc9061313a565b80601f01602080910402602001604051908101604052809291908181526020018280546115289061313a565b80156115755780601f1061154a57610100808354040283529160200191611575565b820191906000526020600020905b81548152906001019060200180831161155857829003601f168201915b5050505050815260200160038201805461158e9061313a565b80601f01602080910402602001604051908101604052809291908181526020018280546115ba9061313a565b80156116075780601f106115dc57610100808354040283529160200191611607565b820191906000526020600020905b8154815290600101906020018083116115ea57829003601f168201915b505050505081526020016004820180546116209061313a565b80601f016020809104026020016040519081016040528092919081815260200182805461164c9061313a565b80156116995780601f1061166e57610100808354040283529160200191611699565b820191906000526020600020905b81548152906001019060200180831161167c57829003601f168201915b505050505081526020016005820160009054906101000a900473ffffffffffffffffffffffffffffffffffffffff1673ffffffffffffffffffffffffffffffffffffffff1673ffffffffffffffffffffffffffffffffffffffff168152602001600682015481526020016007820160009054906101000a900473ffffffffffffffffffffffffffffffffffffffff1673ffffffffffffffffffffffffffffffffffffffff1673ffffffffffffffffffffffffffffffffffffffff168152505090503373ffffffffffffffffffffffffffffffffffffffff168160e0015173ffffffffffffffffffffffffffffffffffffffff1614806117c757503373ffffffffffffffffffffffffffffffffffffffff168160a0015173ffffffffffffffffffffffffffffffffffffffff16145b6040518060400160405280600d81526020017f4143434553532044454e494544000000000000000000000000000000000000008152509061183e576040517f08c379a00000000000000000000000000000000000000000000000000000000081526004016118359190612d6e565b60405180910390fd5b5080915050919050565b611850612203565b73ffffffffffffffffffffffffffffffffffffffff1661186e6112a4565b73ffffffffffffffffffffffffffffffffffffffff16146118c4576040517f08c379a00000000000000000000000000000000000000000000000000000000081526004016118bb90612db0565b60405180910390fd5b80600160006101000a81548173ffffffffffffffffffffffffffffffffffffffff021916908373ffffffffffffffffffffffffffffffffffffffff16021790555050565b60025481565b60608060008351905060008167ffffffffffffffff811115611959577f4e487b7100000000000000000000000000000000000000000000000000000000600052604160045260246000fd5b6040519080825280602002602001820160405280156119875781602001602082028036833780820191505090505b50905060008267ffffffffffffffff8111156119cc577f4e487b7100000000000000000000000000000000000000000000000000000000600052604160045260246000fd5b6040519080825280602002602001820160405280156119fa5781602001602082028036833780820191505090505b50905060005b83811015611b7c5760006005888381518110611a45577f4e487b7100000000000000000000000000000000000000000000000000000000600052603260045260246000fd5b6020026020010151604051611a5a9190612c60565b9081526020016040518091039020549050426005898481518110611aa7577f4e487b7100000000000000000000000000000000000000000000000000000000600052603260045260246000fd5b6020026020010151604051611abc9190612c60565b90815260200160405180910390205411848381518110611b05577f4e487b7100000000000000000000000000000000000000000000000000000000600052603260045260246000fd5b6020026020010190151590811515815250508042611b23919061307c565b838381518110611b5c577f4e487b7100000000000000000000000000000000000000000000000000000000600052603260045260246000fd5b602002602001018181525050508080611b749061319d565b915050611a00565b50819450809350505050915091565b60045481565b6000806004548310156040518060400160405280600881526020017f4241442043414c4c00000000000000000000000000000000000000000000000081525090611c11576040517f08c379a0000000000000000000000000000000000000000000000000000000008152600401611c089190612d6e565b60405180910390fd5b50600061040084611c229190612ff1565b9050600061040085611c3491906131e6565b1115611c49578080611c459061319d565b9150505b600062100000620f4240600254611c609190613022565b611c6a9190612ff1565b90508082611c789190613022565b935060035484611c889190613022565b92505050915091565b611c99612203565b73ffffffffffffffffffffffffffffffffffffffff16611cb76112a4565b73ffffffffffffffffffffffffffffffffffffffff1614611d0d576040517f08c379a0000000000000000000000000000000000000000000000000000000008152600401611d0490612db0565b60405180910390fd5b600073ffffffffffffffffffffffffffffffffffffffff168173ffffffffffffffffffffffffffffffffffffffff161415611d7d576040517f08c379a0000000000000000000000000000000000000000000000000000000008152600401611d7490612d90565b60405180910390fd5b611d868161220b565b50565b60008651118015611d9c57506004548510155b8015611da9575060008451115b8015611db6575060008351115b8015611dc3575060008251115b8015611dfc5750600073ffffffffffffffffffffffffffffffffffffffff163373ffffffffffffffffffffffffffffffffffffffff1614155b8015611e355750600073ffffffffffffffffffffffffffffffffffffffff168173ffffffffffffffffffffffffffffffffffffffff1614155b6040518060400160405280600881526020017f4241442043414c4c00000000000000000000000000000000000000000000000081525090611eac576040517f08c379a0000000000000000000000000000000000000000000000000000000008152600401611ea39190612d6e565b60405180910390fd5b503373ffffffffffffffffffffffffffffffffffffffff168173ffffffffffffffffffffffffffffffffffffffff1614156040518060400160405280600c81526020017f4e4f2053454c462053454e44000000000000000000000000000000000000000081525090611f54576040517f08c379a0000000000000000000000000000000000000000000000000000000008152600401611f4b9190612d6e565b60405180910390fd5b50600080611f618761092d565b91509150803410156040518060400160405280600981526020017f56414c5545204c4f57000000000000000000000000000000000000000000000081525090611fe0576040517f08c379a0000000000000000000000000000000000000000000000000000000008152600401611fd79190612d6e565b60405180910390fd5b50600062015180838334611ff4919061307c565b611ffe9190612ff1565b6120089190613022565b905060008162278d004261201c9190612f9b565b6120269190612f9b565b90508060058b6040516120399190612c60565b9081526020016040518091039020819055506007600081548092919061205e9061319d565b91905055506040518061010001604052808b81526020018a81526020018981526020018881526020018781526020018673ffffffffffffffffffffffffffffffffffffffff1681526020014281526020013373ffffffffffffffffffffffffffffffffffffffff1681525060066000600754815260200190815260200160002060008201518160000190805190602001906120fa929190612340565b50602082015181600101556040820151816002019080519060200190612121929190612340565b50606082015181600301908051906020019061213e929190612340565b50608082015181600401908051906020019061215b929190612340565b5060a08201518160050160006101000a81548173ffffffffffffffffffffffffffffffffffffffff021916908373ffffffffffffffffffffffffffffffffffffffff16021790555060c0820151816006015560e08201518160070160006101000a81548173ffffffffffffffffffffffffffffffffffffffff021916908373ffffffffffffffffffffffffffffffffffffffff16021790555090505050505050505050505050565b600033905090565b60008060009054906101000a900473ffffffffffffffffffffffffffffffffffffffff169050816000806101000a81548173ffffffffffffffffffffffffffffffffffffffff021916908373ffffffffffffffffffffffffffffffffffffffff1602179055508173ffffffffffffffffffffffffffffffffffffffff168173ffffffffffffffffffffffffffffffffffffffff167f8be0079c531659141344cd1fd0a4f28419497f9722a3daafe3b4186f6b6457e060405160405180910390a35050565b6040518061010001604052806060815260200160008152602001606081526020016060815260200160608152602001600073ffffffffffffffffffffffffffffffffffffffff16815260200160008152602001600073ffffffffffffffffffffffffffffffffffffffff1681525090565b82805461234c9061313a565b90600052602060002090601f01602090048101928261236e57600085556123b5565b82601f1061238757805160ff19168380011785556123b5565b828001600101855582156123b5579182015b828111156123b4578251825591602001919060010190612399565b5b5090506123c291906123c6565b5090565b5b808211156123df5760008160009055506001016123c7565b5090565b60006123f66123f184612e5b565b612e36565b9050808382526020820190508285602086028201111561241557600080fd5b60005b8581101561245f57813567ffffffffffffffff81111561243757600080fd5b80860161244489826124fb565b85526020850194506020840193505050600181019050612418565b5050509392505050565b600061247c61247784612e87565b612e36565b90508281526020810184848401111561249457600080fd5b61249f8482856130f8565b509392505050565b6000813590506124b68161335c565b92915050565b600082601f8301126124cd57600080fd5b81356124dd8482602086016123e3565b91505092915050565b6000813590506124f581613373565b92915050565b600082601f83011261250c57600080fd5b813561251c848260208601612469565b91505092915050565b6000813590506125348161338a565b92915050565b6000815190506125498161338a565b92915050565b60006020828403121561256157600080fd5b600061256f848285016124a7565b91505092915050565b60006020828403121561258a57600080fd5b600082013567ffffffffffffffff8111156125a457600080fd5b6125b0848285016124bc565b91505092915050565b6000602082840312156125cb57600080fd5b60006125d9848285016124e6565b91505092915050565b600080604083850312156125f557600080fd5b6000612603858286016124e6565b925050602061261485828601612525565b9150509250929050565b60006020828403121561263057600080fd5b600082013567ffffffffffffffff81111561264a57600080fd5b612656848285016124fb565b91505092915050565b60008060008060008060c0878903121561267857600080fd5b600087013567ffffffffffffffff81111561269257600080fd5b61269e89828a016124fb565b96505060206126af89828a01612525565b955050604087013567ffffffffffffffff8111156126cc57600080fd5b6126d889828a016124fb565b945050606087013567ffffffffffffffff8111156126f557600080fd5b61270189828a016124fb565b935050608087013567ffffffffffffffff81111561271e57600080fd5b61272a89828a016124fb565b92505060a061273b89828a016124a7565b9150509295509295509295565b60006020828403121561275a57600080fd5b600061276884828501612525565b91505092915050565b60006020828403121561278357600080fd5b60006127918482850161253a565b91505092915050565b600080600080608085870312156127b057600080fd5b60006127be87828801612525565b945050602085013567ffffffffffffffff8111156127db57600080fd5b6127e7878288016124fb565b935050604085013567ffffffffffffffff81111561280457600080fd5b612810878288016124fb565b9250506060612821878288016124a7565b91505092959194509250565b600061283983836129c0565b60208301905092915050565b60006128518383612ab8565b905092915050565b60006128658383612c42565b60208301905092915050565b61287a816130b0565b82525050565b612889816130b0565b82525050565b600061289a82612ee8565b6128a48185612f3b565b93506128af83612eb8565b8060005b838110156128e05781516128c7888261282d565b97506128d283612f14565b9250506001810190506128b3565b5085935050505092915050565b60006128f882612ef3565b6129028185612f4c565b93508360208202850161291485612ec8565b8060005b8581101561295057848403895281516129318582612845565b945061293c83612f21565b925060208a01995050600181019050612918565b50829750879550505050505092915050565b600061296d82612efe565b6129778185612f5d565b935061298283612ed8565b8060005b838110156129b357815161299a8882612859565b97506129a583612f2e565b925050600181019050612986565b5085935050505092915050565b6129c9816130c2565b82525050565b60006129da82612f09565b6129e48185612f6e565b93506129f4818560208601613107565b6129fd816132d3565b840191505092915050565b6000612a1382612f09565b612a1d8185612f7f565b9350612a2d818560208601613107565b612a36816132d3565b840191505092915050565b6000612a4c82612f09565b612a568185612f90565b9350612a66818560208601613107565b80840191505092915050565b6000612a7f602683612f7f565b9150612a8a826132e4565b604082019050919050565b6000612aa2602083612f7f565b9150612aad82613333565b602082019050919050565b6000610100830160008301518482036000860152612ad682826129cf565b9150506020830151612aeb6020860182612c42565b5060408301518482036040860152612b0382826129cf565b91505060608301518482036060860152612b1d82826129cf565b91505060808301518482036080860152612b3782826129cf565b91505060a0830151612b4c60a0860182612871565b5060c0830151612b5f60c0860182612c42565b5060e0830151612b7260e0860182612871565b508091505092915050565b6000610100830160008301518482036000860152612b9b82826129cf565b9150506020830151612bb06020860182612c42565b5060408301518482036040860152612bc882826129cf565b91505060608301518482036060860152612be282826129cf565b91505060808301518482036080860152612bfc82826129cf565b91505060a0830151612c1160a0860182612871565b5060c0830151612c2460c0860182612c42565b5060e0830151612c3760e0860182612871565b508091505092915050565b612c4b816130ee565b82525050565b612c5a816130ee565b82525050565b6000612c6c8284612a41565b915081905092915050565b6000602082019050612c8c6000830184612880565b92915050565b60006040820190508181036000830152612cac818561288f565b90508181036020830152612cc08184612962565b90509392505050565b60006020820190508181036000830152612ce381846128ed565b905092915050565b60006080820190508181036000830152612d0581876128ed565b90508181036020830152612d198186612962565b90508181036040830152612d2d81856128ed565b90508181036060830152612d418184612962565b905095945050505050565b60006020820190508181036000830152612d668184612962565b905092915050565b60006020820190508181036000830152612d888184612a08565b905092915050565b60006020820190508181036000830152612da981612a72565b9050919050565b60006020820190508181036000830152612dc981612a95565b9050919050565b60006020820190508181036000830152612dea8184612b7d565b905092915050565b6000602082019050612e076000830184612c51565b92915050565b6000604082019050612e226000830185612c51565b612e2f6020830184612c51565b9392505050565b6000612e40612e51565b9050612e4c828261316c565b919050565b6000604051905090565b600067ffffffffffffffff821115612e7657612e756132a4565b5b602082029050602081019050919050565b600067ffffffffffffffff821115612ea257612ea16132a4565b5b612eab826132d3565b9050602081019050919050565b6000819050602082019050919050565b6000819050602082019050919050565b6000819050602082019050919050565b600081519050919050565b600081519050919050565b600081519050919050565b600081519050919050565b6000602082019050919050565b6000602082019050919050565b6000602082019050919050565b600082825260208201905092915050565b600082825260208201905092915050565b600082825260208201905092915050565b600082825260208201905092915050565b600082825260208201905092915050565b600081905092915050565b6000612fa6826130ee565b9150612fb1836130ee565b9250827fffffffffffffffffffffffffffffffffffffffffffffffffffffffffffffffff03821115612fe657612fe5613217565b5b828201905092915050565b6000612ffc826130ee565b9150613007836130ee565b92508261301757613016613246565b5b828204905092915050565b600061302d826130ee565b9150613038836130ee565b9250817fffffffffffffffffffffffffffffffffffffffffffffffffffffffffffffffff048311821515161561307157613070613217565b5b828202905092915050565b6000613087826130ee565b9150613092836130ee565b9250828210156130a5576130a4613217565b5b828203905092915050565b60006130bb826130ce565b9050919050565b60008115159050919050565b600073ffffffffffffffffffffffffffffffffffffffff82169050919050565b6000819050919050565b82818337600083830152505050565b60005b8381101561312557808201518184015260208101905061310a565b83811115613134576000848401525b50505050565b6000600282049050600182168061315257607f821691505b6020821081141561316657613165613275565b5b50919050565b613175826132d3565b810181811067ffffffffffffffff82111715613194576131936132a4565b5b80604052505050565b60006131a8826130ee565b91507fffffffffffffffffffffffffffffffffffffffffffffffffffffffffffffffff8214156131db576131da613217565b5b600182019050919050565b60006131f1826130ee565b91506131fc836130ee565b92508261320c5761320b613246565b5b828206905092915050565b7f4e487b7100000000000000000000000000000000000000000000000000000000600052601160045260246000fd5b7f4e487b7100000000000000000000000000000000000000000000000000000000600052601260045260246000fd5b7f4e487b7100000000000000000000000000000000000000000000000000000000600052602260045260246000fd5b7f4e487b7100000000000000000000000000000000000000000000000000000000600052604160045260246000fd5b6000601f19601f8301169050919050565b7f4f776e61626c653a206e6577206f776e657220697320746865207a65726f206160008201527f6464726573730000000000000000000000000000000000000000000000000000602082015250565b7f4f776e61626c653a2063616c6c6572206973206e6f7420746865206f776e6572600082015250565b613365816130b0565b811461337057600080fd5b50565b61337c816130c2565b811461338757600080fd5b50565b613393816130ee565b811461339e57600080fd5b5056fea26469706673582212206c4e35b25b6501fde11231779aee884cd84df531bdf03bfb9a4fc4d7d2cc9c8364736f6c63430008040033",
  "linkReferences": {},
  "deployedLinkReferences": {}
}