{
  "_format": "hh-sol-artifact-1",
  "contractName": "DStor",
  "sourceName": "src/backend/contracts/DStor.sol",
  "abi": [
    {
      "inputs": [],
      "stateMutability": "nonpayable",
      "type": "constructor"
    },
    {
      "anonymous": false,
      "inputs": [
        {
          "indexed": false,
          "internalType": "address",
          "name": "recipient",
          "type": "address"
        }
      ],
      "name": "FileUpdated",
      "type": "event"
    },
    {
      "anonymous": false,
      "inputs": [
        {
          "indexed": false,
          "internalType": "address",
          "name": "sender",
          "type": "address"
        },
        {
          "indexed": false,
          "internalType": "address",
          "name": "recipient",
          "type": "address"
        }
      ],
      "name": "FileUploaded",
      "type": "event"
    },
    {
      "anonymous": false,
      "inputs": [
        {
          "indexed": true,
          "internalType": "address",
          "name": "previousOwner",
          "type": "address"
        },
        {
          "indexed": true,
          "internalType": "address",
          "name": "newOwner",
          "type": "address"
        }
      ],
      "name": "OwnershipTransferred",
      "type": "event"
    },
    {
      "inputs": [
        {
          "internalType": "uint256",
          "name": "fileId",
          "type": "uint256"
        }
      ],
      "name": "addTime",
      "outputs": [],
      "stateMutability": "payable",
      "type": "function"
    },
    {
      "inputs": [
        {
          "internalType": "string",
          "name": "",
          "type": "string"
        }
      ],
      "name": "expirationDates",
      "outputs": [
        {
          "internalType": "uint256",
          "name": "",
          "type": "uint256"
        }
      ],
      "stateMutability": "view",
      "type": "function"
    },
    {
      "inputs": [],
      "name": "fileCount",
      "outputs": [
        {
          "internalType": "uint256",
          "name": "",
          "type": "uint256"
        }
      ],
      "stateMutability": "view",
      "type": "function"
    },
    {
      "inputs": [],
      "name": "fissionEngine",
      "outputs": [
        {
          "internalType": "address",
          "name": "",
          "type": "address"
        }
      ],
      "stateMutability": "view",
      "type": "function"
    },
    {
      "inputs": [
        {
          "internalType": "uint256",
          "name": "numBytes",
          "type": "uint256"
        }
      ],
      "name": "gasQuote",
      "outputs": [
        {
          "internalType": "uint256",
          "name": "weiPerDiem",
          "type": "uint256"
        },
        {
          "internalType": "uint256",
          "name": "weiBenchFee",
          "type": "uint256"
        }
      ],
      "stateMutability": "view",
      "type": "function"
    },
    {
      "inputs": [
        {
          "internalType": "uint256",
          "name": "fileId",
          "type": "uint256"
        }
      ],
      "name": "get",
      "outputs": [
        {
          "components": [
            {
              "internalType": "string",
              "name": "fileHash",
              "type": "string"
            },
            {
              "internalType": "uint256",
              "name": "fileSize",
              "type": "uint256"
            },
            {
              "internalType": "string",
              "name": "fileType",
              "type": "string"
            },
            {
              "internalType": "string",
              "name": "fileName",
              "type": "string"
            },
            {
              "internalType": "string",
              "name": "fileDescription",
              "type": "string"
            },
            {
              "internalType": "address",
              "name": "recipient",
              "type": "address"
            },
            {
              "internalType": "uint256",
              "name": "uploadTime",
              "type": "uint256"
            },
            {
              "internalType": "address",
              "name": "uploader",
              "type": "address"
            }
          ],
          "internalType": "struct DStor.File",
          "name": "",
          "type": "tuple"
        }
      ],
      "stateMutability": "view",
      "type": "function"
    },
    {
      "inputs": [
        {
          "internalType": "bool",
          "name": "isSender",
          "type": "bool"
        }
      ],
      "name": "getAccessibleFileIds",
      "outputs": [
        {
          "internalType": "uint256[]",
          "name": "",
          "type": "uint256[]"
        }
      ],
      "stateMutability": "view",
      "type": "function"
    },
    {
      "inputs": [
        {
          "internalType": "bool",
          "name": "isSender",
          "type": "bool"
        }
      ],
      "name": "getAccessibleFiles",
      "outputs": [
        {
          "components": [
            {
              "internalType": "string",
              "name": "fileHash",
              "type": "string"
            },
            {
              "internalType": "uint256",
              "name": "fileSize",
              "type": "uint256"
            },
            {
              "internalType": "string",
              "name": "fileType",
              "type": "string"
            },
            {
              "internalType": "string",
              "name": "fileName",
              "type": "string"
            },
            {
              "internalType": "string",
              "name": "fileDescription",
              "type": "string"
            },
            {
              "internalType": "address",
              "name": "recipient",
              "type": "address"
            },
            {
              "internalType": "uint256",
              "name": "uploadTime",
              "type": "uint256"
            },
            {
              "internalType": "address",
              "name": "uploader",
              "type": "address"
            }
          ],
          "internalType": "struct DStor.File[]",
          "name": "",
          "type": "tuple[]"
        }
      ],
      "stateMutability": "view",
      "type": "function"
    },
    {
      "inputs": [],
      "name": "minimumFileSize",
      "outputs": [
        {
          "internalType": "uint256",
          "name": "",
          "type": "uint256"
        }
      ],
      "stateMutability": "view",
      "type": "function"
    },
    {
      "inputs": [],
      "name": "minimumPin",
      "outputs": [
        {
          "internalType": "uint256",
          "name": "",
          "type": "uint256"
        }
      ],
      "stateMutability": "view",
      "type": "function"
    },
    {
      "inputs": [
        {
          "internalType": "uint256",
          "name": "fileId",
          "type": "uint256"
        },
        {
          "internalType": "string",
          "name": "fileName",
          "type": "string"
        },
        {
          "internalType": "string",
          "name": "description",
          "type": "string"
        },
        {
          "internalType": "address",
          "name": "recipient",
          "type": "address"
        }
      ],
      "name": "modify",
      "outputs": [],
      "stateMutability": "nonpayable",
      "type": "function"
    },
    {
      "inputs": [],
      "name": "name",
      "outputs": [
        {
          "internalType": "string",
          "name": "",
          "type": "string"
        }
      ],
      "stateMutability": "view",
      "type": "function"
    },
    {
      "inputs": [],
      "name": "owner",
      "outputs": [
        {
          "internalType": "address",
          "name": "",
          "type": "address"
        }
      ],
      "stateMutability": "view",
      "type": "function"
    },
    {
      "inputs": [],
      "name": "pinningRate",
      "outputs": [
        {
          "internalType": "uint256",
          "name": "",
          "type": "uint256"
        }
      ],
      "stateMutability": "view",
      "type": "function"
    },
    {
      "inputs": [
        {
          "internalType": "uint256",
          "name": "numBytes",
          "type": "uint256"
        }
      ],
      "name": "quote",
      "outputs": [
        {
          "internalType": "uint256",
          "name": "perDiem",
          "type": "uint256"
        },
        {
          "internalType": "uint256",
          "name": "benchFee",
          "type": "uint256"
        }
      ],
      "stateMutability": "view",
      "type": "function"
    },
    {
      "inputs": [],
      "name": "received",
      "outputs": [
        {
          "components": [
            {
              "internalType": "string",
              "name": "fileHash",
              "type": "string"
            },
            {
              "internalType": "uint256",
              "name": "fileSize",
              "type": "uint256"
            },
            {
              "internalType": "string",
              "name": "fileType",
              "type": "string"
            },
            {
              "internalType": "string",
              "name": "fileName",
              "type": "string"
            },
            {
              "internalType": "string",
              "name": "fileDescription",
              "type": "string"
            },
            {
              "internalType": "address",
              "name": "recipient",
              "type": "address"
            },
            {
              "internalType": "uint256",
              "name": "uploadTime",
              "type": "uint256"
            },
            {
              "internalType": "address",
              "name": "uploader",
              "type": "address"
            }
          ],
          "internalType": "struct DStor.File[]",
          "name": "",
          "type": "tuple[]"
        }
      ],
      "stateMutability": "view",
      "type": "function"
    },
    {
      "inputs": [],
      "name": "renounceOwnership",
      "outputs": [],
      "stateMutability": "nonpayable",
      "type": "function"
    },
    {
      "inputs": [],
      "name": "sent",
      "outputs": [
        {
          "components": [
            {
              "internalType": "string",
              "name": "fileHash",
              "type": "string"
            },
            {
              "internalType": "uint256",
              "name": "fileSize",
              "type": "uint256"
            },
            {
              "internalType": "string",
              "name": "fileType",
              "type": "string"
            },
            {
              "internalType": "string",
              "name": "fileName",
              "type": "string"
            },
            {
              "internalType": "string",
              "name": "fileDescription",
              "type": "string"
            },
            {
              "internalType": "address",
              "name": "recipient",
              "type": "address"
            },
            {
              "internalType": "uint256",
              "name": "uploadTime",
              "type": "uint256"
            },
            {
              "internalType": "address",
              "name": "uploader",
              "type": "address"
            }
          ],
          "internalType": "struct DStor.File[]",
          "name": "",
          "type": "tuple[]"
        }
      ],
      "stateMutability": "view",
      "type": "function"
    },
    {
      "inputs": [
        {
          "internalType": "address",
          "name": "fission",
          "type": "address"
        }
      ],
      "name": "setFission",
      "outputs": [],
      "stateMutability": "nonpayable",
      "type": "function"
    },
    {
      "inputs": [
        {
          "internalType": "uint256",
          "name": "value",
          "type": "uint256"
        }
      ],
      "name": "setPinningRate",
      "outputs": [],
      "stateMutability": "nonpayable",
      "type": "function"
    },
    {
      "inputs": [
        {
          "internalType": "bool",
          "name": "isMinimumPin",
          "type": "bool"
        },
        {
          "internalType": "uint256",
          "name": "value",
          "type": "uint256"
        }
      ],
      "name": "setRules",
      "outputs": [],
      "stateMutability": "nonpayable",
      "type": "function"
    },
    {
      "inputs": [],
      "name": "takeProfit",
      "outputs": [],
      "stateMutability": "nonpayable",
      "type": "function"
    },
    {
      "inputs": [
        {
          "internalType": "address",
          "name": "newOwner",
          "type": "address"
        }
      ],
      "name": "transferOwnership",
      "outputs": [],
      "stateMutability": "nonpayable",
      "type": "function"
    },
    {
      "inputs": [
        {
          "internalType": "string",
          "name": "_fileHash",
          "type": "string"
        },
        {
          "internalType": "uint256",
          "name": "_fileSize",
          "type": "uint256"
        },
        {
          "internalType": "string",
          "name": "_fileType",
          "type": "string"
        },
        {
          "internalType": "string",
          "name": "_fileName",
          "type": "string"
        },
        {
          "internalType": "string",
          "name": "_fileDescription",
          "type": "string"
        },
        {
          "internalType": "address",
          "name": "recipient",
          "type": "address"
        }
      ],
      "name": "upload",
      "outputs": [],
      "stateMutability": "payable",
      "type": "function"
    }
  ],
  "bytecode": "0x60806040526096600255601e60035561040060045560006007553480156200002657600080fd5b50620000476200003b6200004d60201b60201c565b6200005560201b60201c565b62000119565b600033905090565b60008060009054906101000a900473ffffffffffffffffffffffffffffffffffffffff169050816000806101000a81548173ffffffffffffffffffffffffffffffffffffffff021916908373ffffffffffffffffffffffffffffffffffffffff1602179055508173ffffffffffffffffffffffffffffffffffffffff168173ffffffffffffffffffffffffffffffffffffffff167f8be0079c531659141344cd1fd0a4f28419497f9722a3daafe3b4186f6b6457e060405160405180910390a35050565b612a0480620001296000396000f3fe60806040526004361061014b5760003560e01c8063715018a6116100b6578063ba22ef261161006f578063ba22ef2614610472578063c2bfccc01461049d578063e88bae8f146104c8578063ed1bd76c146104f3578063f2fde38b14610531578063fe6684601461055a5761014b565b8063715018a61461037657806383a6deb51461038d5780638862af95146103b85780638da5cb5b146103e15780639507d39a1461040c578063a3e0fdc3146104495761014b565b806336ea26061161010857806336ea26061461027a5780633c1f81ff146102a357806343953519146102cc5780635d7e0078146102f757806366ecd0021461033457806370c105781461035f5761014b565b80630502ca6b146101505780630617ff791461016c57806306fdde03146101a957806307a8e14c146101d45780631932e8d11461021157806321f6fb111461024f575b600080fd5b61016a60048036038101906101659190611e62565b610576565b005b34801561017857600080fd5b50610193600480360381019061018e9190611cd3565b610630565b6040516101a09190612373565b60405180910390f35b3480156101b557600080fd5b506101be61077a565b6040516101cb91906123b7565b60405180910390f35b3480156101e057600080fd5b506101fb60048036038101906101f69190611d38565b6107b3565b604051610208919061245b565b60405180910390f35b34801561021d57600080fd5b5061023860048036038101906102339190611e62565b6107e1565b604051610246929190612476565b60405180910390f35b34801561025b57600080fd5b506102646108e0565b604051610271919061245b565b60405180910390f35b34801561028657600080fd5b506102a1600480360381019061029c9190611e62565b6108e6565b005b3480156102af57600080fd5b506102ca60048036038101906102c59190611cfc565b61096c565b005b3480156102d857600080fd5b506102e1610a0d565b6040516102ee919061245b565b60405180910390f35b34801561030357600080fd5b5061031e60048036038101906103199190611cd3565b610a13565b60405161032b9190612395565b60405180910390f35b34801561034057600080fd5b50610349610ca3565b604051610356919061232f565b60405180910390f35b34801561036b57600080fd5b50610374610cc9565b005b34801561038257600080fd5b5061038b610d19565b005b34801561039957600080fd5b506103a2610da1565b6040516103af9190612373565b60405180910390f35b3480156103c457600080fd5b506103df60048036038101906103da9190611eb4565b610db2565b005b3480156103ed57600080fd5b506103f6611017565b604051610403919061232f565b60405180910390f35b34801561041857600080fd5b50610433600480360381019061042e9190611e62565b611040565b6040516104409190612439565b60405180910390f35b34801561045557600080fd5b50610470600480360381019061046b9190611caa565b611428565b005b34801561047e57600080fd5b506104876114e8565b604051610494919061245b565b60405180910390f35b3480156104a957600080fd5b506104b26114ee565b6040516104bf9190612373565b60405180910390f35b3480156104d457600080fd5b506104dd6114ff565b6040516104ea919061245b565b60405180910390f35b3480156104ff57600080fd5b5061051a60048036038101906105159190611e62565b611505565b604051610528929190612476565b60405180910390f35b34801561053d57600080fd5b5061055860048036038101906105539190611caa565b611596565b005b610574600480360381019061056f9190611d79565b61168e565b005b600061058182611040565b9050600061059282602001516107e1565b509050803410156105a257600080fd5b600082600001519050426005826040516105bc9190612318565b90815260200160405180910390205410156105d657600080fd5b60006201518083346105e891906127ea565b6105f29190612626565b9050806005836040516106059190612318565b90815260200160405180910390206000828254610622919061259f565b925050819055505050505050565b6060600061063d83610a13565b905060008151905060008167ffffffffffffffff811115610687577f4e487b7100000000000000000000000000000000000000000000000000000000600052604160045260246000fd5b6040519080825280602002602001820160405280156106c057816020015b6106ad611ada565b8152602001906001900390816106a55790505b50905060005b8281101561076e5761071784828151811061070a577f4e487b7100000000000000000000000000000000000000000000000000000000600052603260045260246000fd5b6020026020010151611040565b828281518110610750577f4e487b7100000000000000000000000000000000000000000000000000000000600052603260045260246000fd5b60200260200101819052508080610766906127a1565b9150506106c6565b50809350505050919050565b6040518060400160405280601681526020017f4465616444726f704048656d6c6f636b5374726565740000000000000000000081525081565b6005818051602081018201805184825260208301602085012081835280955050505050506000915090505481565b6000806000806107f085611505565b915091506000600160009054906101000a900473ffffffffffffffffffffffffffffffffffffffff16905060008173ffffffffffffffffffffffffffffffffffffffff1663e113e6406040518163ffffffff1660e01b815260040160206040518083038186803b15801561086357600080fd5b505afa158015610877573d6000803e3d6000fd5b505050506040513d601f19601f8201168201806040525081019061089b9190611e8b565b90506305f5e10081856108ae9190612626565b6108b891906125f5565b95506305f5e10081846108cb9190612626565b6108d591906125f5565b945050505050915091565b60035481565b6108ee6119c8565b73ffffffffffffffffffffffffffffffffffffffff1661090c611017565b73ffffffffffffffffffffffffffffffffffffffff1614610962576040517f08c379a000000000000000000000000000000000000000000000000000000000815260040161095990612419565b60405180910390fd5b8060028190555050565b6109746119c8565b73ffffffffffffffffffffffffffffffffffffffff16610992611017565b73ffffffffffffffffffffffffffffffffffffffff16146109e8576040517f08c379a00000000000000000000000000000000000000000000000000000000081526004016109df90612419565b60405180910390fd5b600115158215151415610a015780600381905550610a09565b806004819055505b5050565b60075481565b6060600080600090505b6007548111610afa57600084610a69576006600083815260200190815260200160002060050160009054906101000a900473ffffffffffffffffffffffffffffffffffffffff16610aa1565b6006600083815260200190815260200160002060070160009054906101000a900473ffffffffffffffffffffffffffffffffffffffff165b90503373ffffffffffffffffffffffffffffffffffffffff168173ffffffffffffffffffffffffffffffffffffffff161415610ae6578280610ae2906127a1565b9350505b508080610af2906127a1565b915050610a1d565b5060008167ffffffffffffffff811115610b3d577f4e487b7100000000000000000000000000000000000000000000000000000000600052604160045260246000fd5b604051908082528060200260200182016040528015610b6b5781602001602082028036833780820191505090505b5090506000915060005b6007548111610c9857600085610bc1576006600083815260200190815260200160002060050160009054906101000a900473ffffffffffffffffffffffffffffffffffffffff16610bf9565b6006600083815260200190815260200160002060070160009054906101000a900473ffffffffffffffffffffffffffffffffffffffff165b90503373ffffffffffffffffffffffffffffffffffffffff168173ffffffffffffffffffffffffffffffffffffffff161415610c845781838581518110610c69577f4e487b7100000000000000000000000000000000000000000000000000000000600052603260045260246000fd5b6020026020010181815250508380610c80906127a1565b9450505b508080610c90906127a1565b915050610b75565b508092505050919050565b600160009054906101000a900473ffffffffffffffffffffffffffffffffffffffff1681565b610cd1611017565b73ffffffffffffffffffffffffffffffffffffffff166108fc479081150290604051600060405180830381858888f19350505050158015610d16573d6000803e3d6000fd5b50565b610d216119c8565b73ffffffffffffffffffffffffffffffffffffffff16610d3f611017565b73ffffffffffffffffffffffffffffffffffffffff1614610d95576040517f08c379a0000000000000000000000000000000000000000000000000000000008152600401610d8c90612419565b60405180910390fd5b610d9f60006119d0565b565b6060610dad6000610630565b905090565b60006006600086815260200190815260200160002090503373ffffffffffffffffffffffffffffffffffffffff168160070160009054906101000a900473ffffffffffffffffffffffffffffffffffffffff1673ffffffffffffffffffffffffffffffffffffffff1614610e5b576040517f08c379a0000000000000000000000000000000000000000000000000000000008152600401610e52906123f9565b60405180910390fd5b600084519050600084519050600082141580610e78575060008114155b80610eb05750600073ffffffffffffffffffffffffffffffffffffffff168473ffffffffffffffffffffffffffffffffffffffff1614155b8015610ee857503373ffffffffffffffffffffffffffffffffffffffff168473ffffffffffffffffffffffffffffffffffffffff1614155b15610fae5760008214610f0f5785836003019080519060200190610f0d929190611b4b565b505b60008114610f315784836004019080519060200190610f2f929190611b4b565b505b600073ffffffffffffffffffffffffffffffffffffffff168473ffffffffffffffffffffffffffffffffffffffff1614610fa957838360050160006101000a81548173ffffffffffffffffffffffffffffffffffffffff021916908373ffffffffffffffffffffffffffffffffffffffff1602179055505b610fb3565b600080fd5b7fc2b72a0fe8c458577d2c9ac0f97d01cbb043a6faae7c6b7eeda2a4812575027b8360050160009054906101000a900473ffffffffffffffffffffffffffffffffffffffff16604051611006919061232f565b60405180910390a150505050505050565b60008060009054906101000a900473ffffffffffffffffffffffffffffffffffffffff16905090565b611048611ada565b600060066000848152602001908152602001600020604051806101000160405290816000820180546110799061273e565b80601f01602080910402602001604051908101604052809291908181526020018280546110a59061273e565b80156110f25780601f106110c7576101008083540402835291602001916110f2565b820191906000526020600020905b8154815290600101906020018083116110d557829003601f168201915b50505050508152602001600182015481526020016002820180546111159061273e565b80601f01602080910402602001604051908101604052809291908181526020018280546111419061273e565b801561118e5780601f106111635761010080835404028352916020019161118e565b820191906000526020600020905b81548152906001019060200180831161117157829003601f168201915b505050505081526020016003820180546111a79061273e565b80601f01602080910402602001604051908101604052809291908181526020018280546111d39061273e565b80156112205780601f106111f557610100808354040283529160200191611220565b820191906000526020600020905b81548152906001019060200180831161120357829003601f168201915b505050505081526020016004820180546112399061273e565b80601f01602080910402602001604051908101604052809291908181526020018280546112659061273e565b80156112b25780601f10611287576101008083540402835291602001916112b2565b820191906000526020600020905b81548152906001019060200180831161129557829003601f168201915b505050505081526020016005820160009054906101000a900473ffffffffffffffffffffffffffffffffffffffff1673ffffffffffffffffffffffffffffffffffffffff1673ffffffffffffffffffffffffffffffffffffffff168152602001600682015481526020016007820160009054906101000a900473ffffffffffffffffffffffffffffffffffffffff1673ffffffffffffffffffffffffffffffffffffffff1673ffffffffffffffffffffffffffffffffffffffff168152505090503373ffffffffffffffffffffffffffffffffffffffff168160e0015173ffffffffffffffffffffffffffffffffffffffff1614806113e057503373ffffffffffffffffffffffffffffffffffffffff168160a0015173ffffffffffffffffffffffffffffffffffffffff16145b61141f576040517f08c379a0000000000000000000000000000000000000000000000000000000008152600401611416906123f9565b60405180910390fd5b80915050919050565b6114306119c8565b73ffffffffffffffffffffffffffffffffffffffff1661144e611017565b73ffffffffffffffffffffffffffffffffffffffff16146114a4576040517f08c379a000000000000000000000000000000000000000000000000000000000815260040161149b90612419565b60405180910390fd5b80600160006101000a81548173ffffffffffffffffffffffffffffffffffffffff021916908373ffffffffffffffffffffffffffffffffffffffff16021790555050565b60025481565b60606114fa6001610630565b905090565b60045481565b60008060045483101561151757600080fd5b60006104008461152791906125f5565b905060006104008561153991906127ea565b111561154e57808061154a906127a1565b9150505b600062100000620f42406002546115659190612626565b61156f91906125f5565b9050808261157d9190612626565b93506003548461158d9190612626565b92505050915091565b61159e6119c8565b73ffffffffffffffffffffffffffffffffffffffff166115bc611017565b73ffffffffffffffffffffffffffffffffffffffff1614611612576040517f08c379a000000000000000000000000000000000000000000000000000000000815260040161160990612419565b60405180910390fd5b600073ffffffffffffffffffffffffffffffffffffffff168173ffffffffffffffffffffffffffffffffffffffff161415611682576040517f08c379a0000000000000000000000000000000000000000000000000000000008152600401611679906123d9565b60405180910390fd5b61168b816119d0565b50565b600086511180156116a157506004548510155b80156116ae575060008451115b80156116bb575060008351115b80156116c8575060008251115b80156117015750600073ffffffffffffffffffffffffffffffffffffffff163373ffffffffffffffffffffffffffffffffffffffff1614155b801561173957503373ffffffffffffffffffffffffffffffffffffffff168173ffffffffffffffffffffffffffffffffffffffff1614155b80156117725750600073ffffffffffffffffffffffffffffffffffffffff168173ffffffffffffffffffffffffffffffffffffffff1614155b61177b57600080fd5b600080611787876107e1565b915091508034101561179857600080fd5b60006117a5828434611a94565b905062278d00816117b6919061259f565b60058a6040516117c69190612318565b908152602001604051809103902081905550600760008154809291906117eb906127a1565b91905055506040518061010001604052808a81526020018981526020018881526020018781526020018681526020018573ffffffffffffffffffffffffffffffffffffffff1681526020014281526020013373ffffffffffffffffffffffffffffffffffffffff168152506006600060075481526020019081526020016000206000820151816000019080519060200190611887929190611b4b565b506020820151816001015560408201518160020190805190602001906118ae929190611b4b565b5060608201518160030190805190602001906118cb929190611b4b565b5060808201518160040190805190602001906118e8929190611b4b565b5060a08201518160050160006101000a81548173ffffffffffffffffffffffffffffffffffffffff021916908373ffffffffffffffffffffffffffffffffffffffff16021790555060c0820151816006015560e08201518160070160006101000a81548173ffffffffffffffffffffffffffffffffffffffff021916908373ffffffffffffffffffffffffffffffffffffffff1602179055509050507f2ed6b29ed6f9dfc1441858346e53f608893095656cd9a14653917f5ade7a8a2e33856040516119b592919061234a565b60405180910390a1505050505050505050565b600033905090565b60008060009054906101000a900473ffffffffffffffffffffffffffffffffffffffff169050816000806101000a81548173ffffffffffffffffffffffffffffffffffffffff021916908373ffffffffffffffffffffffffffffffffffffffff1602179055508173ffffffffffffffffffffffffffffffffffffffff168173ffffffffffffffffffffffffffffffffffffffff167f8be0079c531659141344cd1fd0a4f28419497f9722a3daafe3b4186f6b6457e060405160405180910390a35050565b6000808483611aa39190612680565b90506000620151808583611ab791906127ea565b611ac19190612626565b90504281611acf919061259f565b925050509392505050565b6040518061010001604052806060815260200160008152602001606081526020016060815260200160608152602001600073ffffffffffffffffffffffffffffffffffffffff16815260200160008152602001600073ffffffffffffffffffffffffffffffffffffffff1681525090565b828054611b579061273e565b90600052602060002090601f016020900481019282611b795760008555611bc0565b82601f10611b9257805160ff1916838001178555611bc0565b82800160010185558215611bc0579182015b82811115611bbf578251825591602001919060010190611ba4565b5b509050611bcd9190611bd1565b5090565b5b80821115611bea576000816000905550600101611bd2565b5090565b6000611c01611bfc846124c4565b61249f565b905082815260208101848484011115611c1957600080fd5b611c248482856126fc565b509392505050565b600081359050611c3b81612989565b92915050565b600081359050611c50816129a0565b92915050565b600082601f830112611c6757600080fd5b8135611c77848260208601611bee565b91505092915050565b600081359050611c8f816129b7565b92915050565b600081519050611ca4816129b7565b92915050565b600060208284031215611cbc57600080fd5b6000611cca84828501611c2c565b91505092915050565b600060208284031215611ce557600080fd5b6000611cf384828501611c41565b91505092915050565b60008060408385031215611d0f57600080fd5b6000611d1d85828601611c41565b9250506020611d2e85828601611c80565b9150509250929050565b600060208284031215611d4a57600080fd5b600082013567ffffffffffffffff811115611d6457600080fd5b611d7084828501611c56565b91505092915050565b60008060008060008060c08789031215611d9257600080fd5b600087013567ffffffffffffffff811115611dac57600080fd5b611db889828a01611c56565b9650506020611dc989828a01611c80565b955050604087013567ffffffffffffffff811115611de657600080fd5b611df289828a01611c56565b945050606087013567ffffffffffffffff811115611e0f57600080fd5b611e1b89828a01611c56565b935050608087013567ffffffffffffffff811115611e3857600080fd5b611e4489828a01611c56565b92505060a0611e5589828a01611c2c565b9150509295509295509295565b600060208284031215611e7457600080fd5b6000611e8284828501611c80565b91505092915050565b600060208284031215611e9d57600080fd5b6000611eab84828501611c95565b91505092915050565b60008060008060808587031215611eca57600080fd5b6000611ed887828801611c80565b945050602085013567ffffffffffffffff811115611ef557600080fd5b611f0187828801611c56565b935050604085013567ffffffffffffffff811115611f1e57600080fd5b611f2a87828801611c56565b9250506060611f3b87828801611c2c565b91505092959194509250565b6000611f538383612170565b905092915050565b6000611f6783836122fa565b60208301905092915050565b611f7c816126b4565b82525050565b611f8b816126b4565b82525050565b6000611f9c82612515565b611fa68185612550565b935083602082028501611fb8856124f5565b8060005b85811015611ff45784840389528151611fd58582611f47565b9450611fe083612536565b925060208a01995050600181019050611fbc565b50829750879550505050505092915050565b600061201182612520565b61201b8185612561565b935061202683612505565b8060005b8381101561205757815161203e8882611f5b565b975061204983612543565b92505060018101905061202a565b5085935050505092915050565b600061206f8261252b565b6120798185612572565b935061208981856020860161270b565b612092816128d7565b840191505092915050565b60006120a88261252b565b6120b28185612583565b93506120c281856020860161270b565b6120cb816128d7565b840191505092915050565b60006120e18261252b565b6120eb8185612594565b93506120fb81856020860161270b565b80840191505092915050565b6000612114602683612583565b915061211f826128e8565b604082019050919050565b6000612137600d83612583565b915061214282612937565b602082019050919050565b600061215a602083612583565b915061216582612960565b602082019050919050565b600061010083016000830151848203600086015261218e8282612064565b91505060208301516121a360208601826122fa565b50604083015184820360408601526121bb8282612064565b915050606083015184820360608601526121d58282612064565b915050608083015184820360808601526121ef8282612064565b91505060a083015161220460a0860182611f73565b5060c083015161221760c08601826122fa565b5060e083015161222a60e0860182611f73565b508091505092915050565b60006101008301600083015184820360008601526122538282612064565b915050602083015161226860208601826122fa565b50604083015184820360408601526122808282612064565b9150506060830151848203606086015261229a8282612064565b915050608083015184820360808601526122b48282612064565b91505060a08301516122c960a0860182611f73565b5060c08301516122dc60c08601826122fa565b5060e08301516122ef60e0860182611f73565b508091505092915050565b612303816126f2565b82525050565b612312816126f2565b82525050565b600061232482846120d6565b915081905092915050565b60006020820190506123446000830184611f82565b92915050565b600060408201905061235f6000830185611f82565b61236c6020830184611f82565b9392505050565b6000602082019050818103600083015261238d8184611f91565b905092915050565b600060208201905081810360008301526123af8184612006565b905092915050565b600060208201905081810360008301526123d1818461209d565b905092915050565b600060208201905081810360008301526123f281612107565b9050919050565b600060208201905081810360008301526124128161212a565b9050919050565b600060208201905081810360008301526124328161214d565b9050919050565b600060208201905081810360008301526124538184612235565b905092915050565b60006020820190506124706000830184612309565b92915050565b600060408201905061248b6000830185612309565b6124986020830184612309565b9392505050565b60006124a96124ba565b90506124b58282612770565b919050565b6000604051905090565b600067ffffffffffffffff8211156124df576124de6128a8565b5b6124e8826128d7565b9050602081019050919050565b6000819050602082019050919050565b6000819050602082019050919050565b600081519050919050565b600081519050919050565b600081519050919050565b6000602082019050919050565b6000602082019050919050565b600082825260208201905092915050565b600082825260208201905092915050565b600082825260208201905092915050565b600082825260208201905092915050565b600081905092915050565b60006125aa826126f2565b91506125b5836126f2565b9250827fffffffffffffffffffffffffffffffffffffffffffffffffffffffffffffffff038211156125ea576125e961281b565b5b828201905092915050565b6000612600826126f2565b915061260b836126f2565b92508261261b5761261a61284a565b5b828204905092915050565b6000612631826126f2565b915061263c836126f2565b9250817fffffffffffffffffffffffffffffffffffffffffffffffffffffffffffffffff04831182151516156126755761267461281b565b5b828202905092915050565b600061268b826126f2565b9150612696836126f2565b9250828210156126a9576126a861281b565b5b828203905092915050565b60006126bf826126d2565b9050919050565b60008115159050919050565b600073ffffffffffffffffffffffffffffffffffffffff82169050919050565b6000819050919050565b82818337600083830152505050565b60005b8381101561272957808201518184015260208101905061270e565b83811115612738576000848401525b50505050565b6000600282049050600182168061275657607f821691505b6020821081141561276a57612769612879565b5b50919050565b612779826128d7565b810181811067ffffffffffffffff82111715612798576127976128a8565b5b80604052505050565b60006127ac826126f2565b91507fffffffffffffffffffffffffffffffffffffffffffffffffffffffffffffffff8214156127df576127de61281b565b5b600182019050919050565b60006127f5826126f2565b9150612800836126f2565b9250826128105761280f61284a565b5b828206905092915050565b7f4e487b7100000000000000000000000000000000000000000000000000000000600052601160045260246000fd5b7f4e487b7100000000000000000000000000000000000000000000000000000000600052601260045260246000fd5b7f4e487b7100000000000000000000000000000000000000000000000000000000600052602260045260246000fd5b7f4e487b7100000000000000000000000000000000000000000000000000000000600052604160045260246000fd5b6000601f19601f8301169050919050565b7f4f776e61626c653a206e6577206f776e657220697320746865207a65726f206160008201527f6464726573730000000000000000000000000000000000000000000000000000602082015250565b7f4143434553532044454e49454400000000000000000000000000000000000000600082015250565b7f4f776e61626c653a2063616c6c6572206973206e6f7420746865206f776e6572600082015250565b612992816126b4565b811461299d57600080fd5b50565b6129a9816126c6565b81146129b457600080fd5b50565b6129c0816126f2565b81146129cb57600080fd5b5056fea26469706673582212205017f52ce1b7cc871aca4401899ae844dc982c4263ef016b1f5b789dfa44992a64736f6c63430008040033",
  "linkReferences": {},
  "deployedLinkReferences": {}
}