{
  "_format": "hh-sol-artifact-1",
  "contractName": "DStor",
  "sourceName": "src/backend/contracts/DStor.sol",
  "abi": [
    {
      "inputs": [],
      "stateMutability": "nonpayable",
      "type": "constructor"
    },
    {
      "anonymous": false,
      "inputs": [
        {
          "indexed": false,
          "internalType": "address",
          "name": "recipient",
          "type": "address"
        }
      ],
      "name": "FileUpdated",
      "type": "event"
    },
    {
      "anonymous": false,
      "inputs": [
        {
          "indexed": false,
          "internalType": "address",
          "name": "sender",
          "type": "address"
        },
        {
          "indexed": false,
          "internalType": "address",
          "name": "recipient",
          "type": "address"
        }
      ],
      "name": "FileUploaded",
      "type": "event"
    },
    {
      "anonymous": false,
      "inputs": [
        {
          "indexed": true,
          "internalType": "address",
          "name": "previousOwner",
          "type": "address"
        },
        {
          "indexed": true,
          "internalType": "address",
          "name": "newOwner",
          "type": "address"
        }
      ],
      "name": "OwnershipTransferred",
      "type": "event"
    },
    {
      "inputs": [
        {
          "internalType": "uint256",
          "name": "fileId",
          "type": "uint256"
        }
      ],
      "name": "addTime",
      "outputs": [],
      "stateMutability": "payable",
      "type": "function"
    },
    {
      "inputs": [
        {
          "internalType": "string",
          "name": "",
          "type": "string"
        }
      ],
      "name": "expirationDates",
      "outputs": [
        {
          "internalType": "uint256",
          "name": "",
          "type": "uint256"
        }
      ],
      "stateMutability": "view",
      "type": "function"
    },
    {
      "inputs": [],
      "name": "fileCount",
      "outputs": [
        {
          "internalType": "uint256",
          "name": "",
          "type": "uint256"
        }
      ],
      "stateMutability": "view",
      "type": "function"
    },
    {
      "inputs": [],
      "name": "fissionEngine",
      "outputs": [
        {
          "internalType": "address",
          "name": "",
          "type": "address"
        }
      ],
      "stateMutability": "view",
      "type": "function"
    },
    {
      "inputs": [
        {
          "internalType": "uint256",
          "name": "numBytes",
          "type": "uint256"
        }
      ],
      "name": "gasQuote",
      "outputs": [
        {
          "internalType": "uint256",
          "name": "weiPerDiem",
          "type": "uint256"
        },
        {
          "internalType": "uint256",
          "name": "weiBenchFee",
          "type": "uint256"
        }
      ],
      "stateMutability": "view",
      "type": "function"
    },
    {
      "inputs": [
        {
          "internalType": "uint256",
          "name": "fileId",
          "type": "uint256"
        }
      ],
      "name": "get",
      "outputs": [
        {
          "components": [
            {
              "internalType": "string",
              "name": "fileHash",
              "type": "string"
            },
            {
              "internalType": "uint256",
              "name": "fileSize",
              "type": "uint256"
            },
            {
              "internalType": "string",
              "name": "fileType",
              "type": "string"
            },
            {
              "internalType": "string",
              "name": "fileName",
              "type": "string"
            },
            {
              "internalType": "string",
              "name": "fileDescription",
              "type": "string"
            },
            {
              "internalType": "address",
              "name": "recipient",
              "type": "address"
            },
            {
              "internalType": "uint256",
              "name": "uploadTime",
              "type": "uint256"
            },
            {
              "internalType": "address",
              "name": "uploader",
              "type": "address"
            }
          ],
          "internalType": "struct DStor.File",
          "name": "",
          "type": "tuple"
        }
      ],
      "stateMutability": "view",
      "type": "function"
    },
    {
      "inputs": [
        {
          "internalType": "bool",
          "name": "isSender",
          "type": "bool"
        }
      ],
      "name": "getAccessibleExps",
      "outputs": [
        {
          "internalType": "uint256[]",
          "name": "",
          "type": "uint256[]"
        }
      ],
      "stateMutability": "view",
      "type": "function"
    },
    {
      "inputs": [
        {
          "internalType": "bool",
          "name": "isSender",
          "type": "bool"
        }
      ],
      "name": "getAccessibleFileIds",
      "outputs": [
        {
          "internalType": "uint256[]",
          "name": "",
          "type": "uint256[]"
        }
      ],
      "stateMutability": "view",
      "type": "function"
    },
    {
      "inputs": [
        {
          "internalType": "bool",
          "name": "isSender",
          "type": "bool"
        }
      ],
      "name": "getAccessibleFiles",
      "outputs": [
        {
          "components": [
            {
              "internalType": "string",
              "name": "fileHash",
              "type": "string"
            },
            {
              "internalType": "uint256",
              "name": "fileSize",
              "type": "uint256"
            },
            {
              "internalType": "string",
              "name": "fileType",
              "type": "string"
            },
            {
              "internalType": "string",
              "name": "fileName",
              "type": "string"
            },
            {
              "internalType": "string",
              "name": "fileDescription",
              "type": "string"
            },
            {
              "internalType": "address",
              "name": "recipient",
              "type": "address"
            },
            {
              "internalType": "uint256",
              "name": "uploadTime",
              "type": "uint256"
            },
            {
              "internalType": "address",
              "name": "uploader",
              "type": "address"
            }
          ],
          "internalType": "struct DStor.File[]",
          "name": "",
          "type": "tuple[]"
        }
      ],
      "stateMutability": "view",
      "type": "function"
    },
    {
      "inputs": [],
      "name": "getAllData",
      "outputs": [
        {
          "components": [
            {
              "internalType": "string",
              "name": "fileHash",
              "type": "string"
            },
            {
              "internalType": "uint256",
              "name": "fileSize",
              "type": "uint256"
            },
            {
              "internalType": "string",
              "name": "fileType",
              "type": "string"
            },
            {
              "internalType": "string",
              "name": "fileName",
              "type": "string"
            },
            {
              "internalType": "string",
              "name": "fileDescription",
              "type": "string"
            },
            {
              "internalType": "address",
              "name": "recipient",
              "type": "address"
            },
            {
              "internalType": "uint256",
              "name": "uploadTime",
              "type": "uint256"
            },
            {
              "internalType": "address",
              "name": "uploader",
              "type": "address"
            }
          ],
          "internalType": "struct DStor.File[]",
          "name": "sent",
          "type": "tuple[]"
        },
        {
          "internalType": "uint256[]",
          "name": "sentExps",
          "type": "uint256[]"
        },
        {
          "components": [
            {
              "internalType": "string",
              "name": "fileHash",
              "type": "string"
            },
            {
              "internalType": "uint256",
              "name": "fileSize",
              "type": "uint256"
            },
            {
              "internalType": "string",
              "name": "fileType",
              "type": "string"
            },
            {
              "internalType": "string",
              "name": "fileName",
              "type": "string"
            },
            {
              "internalType": "string",
              "name": "fileDescription",
              "type": "string"
            },
            {
              "internalType": "address",
              "name": "recipient",
              "type": "address"
            },
            {
              "internalType": "uint256",
              "name": "uploadTime",
              "type": "uint256"
            },
            {
              "internalType": "address",
              "name": "uploader",
              "type": "address"
            }
          ],
          "internalType": "struct DStor.File[]",
          "name": "received",
          "type": "tuple[]"
        },
        {
          "internalType": "uint256[]",
          "name": "receivedExps",
          "type": "uint256[]"
        }
      ],
      "stateMutability": "view",
      "type": "function"
    },
    {
      "inputs": [],
      "name": "minimumFileSize",
      "outputs": [
        {
          "internalType": "uint256",
          "name": "",
          "type": "uint256"
        }
      ],
      "stateMutability": "view",
      "type": "function"
    },
    {
      "inputs": [],
      "name": "minimumPin",
      "outputs": [
        {
          "internalType": "uint256",
          "name": "",
          "type": "uint256"
        }
      ],
      "stateMutability": "view",
      "type": "function"
    },
    {
      "inputs": [
        {
          "internalType": "uint256",
          "name": "fileId",
          "type": "uint256"
        },
        {
          "internalType": "string",
          "name": "fileName",
          "type": "string"
        },
        {
          "internalType": "string",
          "name": "description",
          "type": "string"
        },
        {
          "internalType": "address",
          "name": "recipient",
          "type": "address"
        }
      ],
      "name": "modify",
      "outputs": [],
      "stateMutability": "nonpayable",
      "type": "function"
    },
    {
      "inputs": [],
      "name": "name",
      "outputs": [
        {
          "internalType": "string",
          "name": "",
          "type": "string"
        }
      ],
      "stateMutability": "view",
      "type": "function"
    },
    {
      "inputs": [],
      "name": "owner",
      "outputs": [
        {
          "internalType": "address",
          "name": "",
          "type": "address"
        }
      ],
      "stateMutability": "view",
      "type": "function"
    },
    {
      "inputs": [],
      "name": "pinningRate",
      "outputs": [
        {
          "internalType": "uint256",
          "name": "",
          "type": "uint256"
        }
      ],
      "stateMutability": "view",
      "type": "function"
    },
    {
      "inputs": [
        {
          "internalType": "uint256",
          "name": "numBytes",
          "type": "uint256"
        }
      ],
      "name": "quote",
      "outputs": [
        {
          "internalType": "uint256",
          "name": "perDiem",
          "type": "uint256"
        },
        {
          "internalType": "uint256",
          "name": "benchFee",
          "type": "uint256"
        }
      ],
      "stateMutability": "view",
      "type": "function"
    },
    {
      "inputs": [],
      "name": "renounceOwnership",
      "outputs": [],
      "stateMutability": "nonpayable",
      "type": "function"
    },
    {
      "inputs": [
        {
          "internalType": "address",
          "name": "fission",
          "type": "address"
        }
      ],
      "name": "setFission",
      "outputs": [],
      "stateMutability": "nonpayable",
      "type": "function"
    },
    {
      "inputs": [
        {
          "internalType": "uint256",
          "name": "value",
          "type": "uint256"
        }
      ],
      "name": "setPinningRate",
      "outputs": [],
      "stateMutability": "nonpayable",
      "type": "function"
    },
    {
      "inputs": [
        {
          "internalType": "bool",
          "name": "isMinimumPin",
          "type": "bool"
        },
        {
          "internalType": "uint256",
          "name": "value",
          "type": "uint256"
        }
      ],
      "name": "setRules",
      "outputs": [],
      "stateMutability": "nonpayable",
      "type": "function"
    },
    {
      "inputs": [],
      "name": "takeProfit",
      "outputs": [],
      "stateMutability": "nonpayable",
      "type": "function"
    },
    {
      "inputs": [
        {
          "internalType": "address",
          "name": "newOwner",
          "type": "address"
        }
      ],
      "name": "transferOwnership",
      "outputs": [],
      "stateMutability": "nonpayable",
      "type": "function"
    },
    {
      "inputs": [
        {
          "internalType": "string",
          "name": "_fileHash",
          "type": "string"
        },
        {
          "internalType": "uint256",
          "name": "_fileSize",
          "type": "uint256"
        },
        {
          "internalType": "string",
          "name": "_fileType",
          "type": "string"
        },
        {
          "internalType": "string",
          "name": "_fileName",
          "type": "string"
        },
        {
          "internalType": "string",
          "name": "_fileDescription",
          "type": "string"
        },
        {
          "internalType": "address",
          "name": "recipient",
          "type": "address"
        }
      ],
      "name": "upload",
      "outputs": [],
      "stateMutability": "payable",
      "type": "function"
    }
  ],
  "bytecode": "0x60806040526096600255601e60035561040060045560006007553480156200002657600080fd5b50620000476200003b6200004d60201b60201c565b6200005560201b60201c565b62000119565b600033905090565b60008060009054906101000a900473ffffffffffffffffffffffffffffffffffffffff169050816000806101000a81548173ffffffffffffffffffffffffffffffffffffffff021916908373ffffffffffffffffffffffffffffffffffffffff1602179055508173ffffffffffffffffffffffffffffffffffffffff168173ffffffffffffffffffffffffffffffffffffffff167f8be0079c531659141344cd1fd0a4f28419497f9722a3daafe3b4186f6b6457e060405160405180910390a35050565b612bd380620001296000396000f3fe60806040526004361061014b5760003560e01c806370c10578116100b6578063a3e0fdc31161006f578063a3e0fdc314610489578063ba22ef26146104b2578063e88bae8f146104dd578063ed1bd76c14610508578063f2fde38b14610546578063fe6684601461056f5761014b565b806370c105781461038d578063715018a6146103a45780638862af95146103bb5780638da5cb5b146103e45780638e6513a81461040f5780639507d39a1461044c5761014b565b80632d10fa28116101085780632d10fa281461027a57806336ea2606146102a85780633c1f81ff146102d157806343953519146102fa5780635d7e00781461032557806366ecd002146103625761014b565b80630502ca6b146101505780630617ff791461016c57806306fdde03146101a957806307a8e14c146101d45780631932e8d11461021157806321f6fb111461024f575b600080fd5b61016a60048036038101906101659190611fd0565b61058b565b005b34801561017857600080fd5b50610193600480360381019061018e9190611e41565b610645565b6040516101a091906124e1565b60405180910390f35b3480156101b557600080fd5b506101be61078f565b6040516101cb9190612586565b60405180910390f35b3480156101e057600080fd5b506101fb60048036038101906101f69190611ea6565b6107c8565b604051610208919061262a565b60405180910390f35b34801561021d57600080fd5b5061023860048036038101906102339190611fd0565b6107f6565b604051610246929190612645565b60405180910390f35b34801561025b57600080fd5b506102646108f5565b604051610271919061262a565b60405180910390f35b34801561028657600080fd5b5061028f6108fb565b60405161029f9493929190612503565b60405180910390f35b3480156102b457600080fd5b506102cf60048036038101906102ca9190611fd0565b610937565b005b3480156102dd57600080fd5b506102f860048036038101906102f39190611e6a565b6109bd565b005b34801561030657600080fd5b5061030f610a5e565b60405161031c919061262a565b60405180910390f35b34801561033157600080fd5b5061034c60048036038101906103479190611e41565b610a64565b6040516103599190612564565b60405180910390f35b34801561036e57600080fd5b50610377610cf4565b604051610384919061249d565b60405180910390f35b34801561039957600080fd5b506103a2610d1a565b005b3480156103b057600080fd5b506103b9610d6a565b005b3480156103c757600080fd5b506103e260048036038101906103dd9190612022565b610df2565b005b3480156103f057600080fd5b506103f9611057565b604051610406919061249d565b60405180910390f35b34801561041b57600080fd5b5061043660048036038101906104319190611e41565b611080565b6040516104439190612564565b60405180910390f35b34801561045857600080fd5b50610473600480360381019061046e9190611fd0565b6111da565b6040516104809190612608565b60405180910390f35b34801561049557600080fd5b506104b060048036038101906104ab9190611e18565b6115c2565b005b3480156104be57600080fd5b506104c7611682565b6040516104d4919061262a565b60405180910390f35b3480156104e957600080fd5b506104f2611688565b6040516104ff919061262a565b60405180910390f35b34801561051457600080fd5b5061052f600480360381019061052a9190611fd0565b61168e565b60405161053d929190612645565b60405180910390f35b34801561055257600080fd5b5061056d60048036038101906105689190611e18565b61171f565b005b61058960048036038101906105849190611ee7565b611817565b005b6000610596826111da565b905060006105a782602001516107f6565b509050803410156105b757600080fd5b600082600001519050426005826040516105d19190612486565b90815260200160405180910390205410156105eb57600080fd5b60006201518083346105fd91906127c4565b61060791906127f5565b90508060058360405161061a9190612486565b90815260200160405180910390206000828254610637919061276e565b925050819055505050505050565b6060600061065283610a64565b905060008151905060008167ffffffffffffffff81111561069c577f4e487b7100000000000000000000000000000000000000000000000000000000600052604160045260246000fd5b6040519080825280602002602001820160405280156106d557816020015b6106c2611c48565b8152602001906001900390816106ba5790505b50905060005b828110156107835761072c84828151811061071f577f4e487b7100000000000000000000000000000000000000000000000000000000600052603260045260246000fd5b60200260200101516111da565b828281518110610765577f4e487b7100000000000000000000000000000000000000000000000000000000600052603260045260246000fd5b6020026020010181905250808061077b90612970565b9150506106db565b50809350505050919050565b6040518060400160405280601681526020017f4465616444726f704048656d6c6f636b5374726565740000000000000000000081525081565b6005818051602081018201805184825260208301602085012081835280955050505050506000915090505481565b6000806000806108058561168e565b915091506000600160009054906101000a900473ffffffffffffffffffffffffffffffffffffffff16905060008173ffffffffffffffffffffffffffffffffffffffff1663e113e6406040518163ffffffff1660e01b815260040160206040518083038186803b15801561087857600080fd5b505afa15801561088c573d6000803e3d6000fd5b505050506040513d601f19601f820116820180604052508101906108b09190611ff9565b90506305f5e10081856108c391906127f5565b6108cd91906127c4565b95506305f5e10081846108e091906127f5565b6108ea91906127c4565b945050505050915091565b60035481565b60608060608061090b6001610645565b93506109176001611080565b92506109236000610645565b915061092f6000611080565b905090919293565b61093f611b7c565b73ffffffffffffffffffffffffffffffffffffffff1661095d611057565b73ffffffffffffffffffffffffffffffffffffffff16146109b3576040517f08c379a00000000000000000000000000000000000000000000000000000000081526004016109aa906125e8565b60405180910390fd5b8060028190555050565b6109c5611b7c565b73ffffffffffffffffffffffffffffffffffffffff166109e3611057565b73ffffffffffffffffffffffffffffffffffffffff1614610a39576040517f08c379a0000000000000000000000000000000000000000000000000000000008152600401610a30906125e8565b60405180910390fd5b600115158215151415610a525780600381905550610a5a565b806004819055505b5050565b60075481565b6060600080600090505b6007548111610b4b57600084610aba576006600083815260200190815260200160002060050160009054906101000a900473ffffffffffffffffffffffffffffffffffffffff16610af2565b6006600083815260200190815260200160002060070160009054906101000a900473ffffffffffffffffffffffffffffffffffffffff165b90503373ffffffffffffffffffffffffffffffffffffffff168173ffffffffffffffffffffffffffffffffffffffff161415610b37578280610b3390612970565b9350505b508080610b4390612970565b915050610a6e565b5060008167ffffffffffffffff811115610b8e577f4e487b7100000000000000000000000000000000000000000000000000000000600052604160045260246000fd5b604051908082528060200260200182016040528015610bbc5781602001602082028036833780820191505090505b5090506000915060005b6007548111610ce957600085610c12576006600083815260200190815260200160002060050160009054906101000a900473ffffffffffffffffffffffffffffffffffffffff16610c4a565b6006600083815260200190815260200160002060070160009054906101000a900473ffffffffffffffffffffffffffffffffffffffff165b90503373ffffffffffffffffffffffffffffffffffffffff168173ffffffffffffffffffffffffffffffffffffffff161415610cd55781838581518110610cba577f4e487b7100000000000000000000000000000000000000000000000000000000600052603260045260246000fd5b6020026020010181815250508380610cd190612970565b9450505b508080610ce190612970565b915050610bc6565b508092505050919050565b600160009054906101000a900473ffffffffffffffffffffffffffffffffffffffff1681565b610d22611057565b73ffffffffffffffffffffffffffffffffffffffff166108fc479081150290604051600060405180830381858888f19350505050158015610d67573d6000803e3d6000fd5b50565b610d72611b7c565b73ffffffffffffffffffffffffffffffffffffffff16610d90611057565b73ffffffffffffffffffffffffffffffffffffffff1614610de6576040517f08c379a0000000000000000000000000000000000000000000000000000000008152600401610ddd906125e8565b60405180910390fd5b610df06000611b84565b565b60006006600086815260200190815260200160002090503373ffffffffffffffffffffffffffffffffffffffff168160070160009054906101000a900473ffffffffffffffffffffffffffffffffffffffff1673ffffffffffffffffffffffffffffffffffffffff1614610e9b576040517f08c379a0000000000000000000000000000000000000000000000000000000008152600401610e92906125c8565b60405180910390fd5b600084519050600084519050600082141580610eb8575060008114155b80610ef05750600073ffffffffffffffffffffffffffffffffffffffff168473ffffffffffffffffffffffffffffffffffffffff1614155b8015610f2857503373ffffffffffffffffffffffffffffffffffffffff168473ffffffffffffffffffffffffffffffffffffffff1614155b15610fee5760008214610f4f5785836003019080519060200190610f4d929190611cb9565b505b60008114610f715784836004019080519060200190610f6f929190611cb9565b505b600073ffffffffffffffffffffffffffffffffffffffff168473ffffffffffffffffffffffffffffffffffffffff1614610fe957838360050160006101000a81548173ffffffffffffffffffffffffffffffffffffffff021916908373ffffffffffffffffffffffffffffffffffffffff1602179055505b610ff3565b600080fd5b7fc2b72a0fe8c458577d2c9ac0f97d01cbb043a6faae7c6b7eeda2a4812575027b8360050160009054906101000a900473ffffffffffffffffffffffffffffffffffffffff16604051611046919061249d565b60405180910390a150505050505050565b60008060009054906101000a900473ffffffffffffffffffffffffffffffffffffffff16905090565b6060600061108d83610645565b905060008151905060008167ffffffffffffffff8111156110d7577f4e487b7100000000000000000000000000000000000000000000000000000000600052604160045260246000fd5b6040519080825280602002602001820160405280156111055781602001602082028036833780820191505090505b50905060005b828110156111ce57600584828151811061114e577f4e487b7100000000000000000000000000000000000000000000000000000000600052603260045260246000fd5b6020026020010151600001516040516111679190612486565b9081526020016040518091039020548282815181106111af577f4e487b7100000000000000000000000000000000000000000000000000000000600052603260045260246000fd5b60200260200101818152505080806111c690612970565b91505061110b565b50809350505050919050565b6111e2611c48565b600060066000848152602001908152602001600020604051806101000160405290816000820180546112139061290d565b80601f016020809104026020016040519081016040528092919081815260200182805461123f9061290d565b801561128c5780601f106112615761010080835404028352916020019161128c565b820191906000526020600020905b81548152906001019060200180831161126f57829003601f168201915b50505050508152602001600182015481526020016002820180546112af9061290d565b80601f01602080910402602001604051908101604052809291908181526020018280546112db9061290d565b80156113285780601f106112fd57610100808354040283529160200191611328565b820191906000526020600020905b81548152906001019060200180831161130b57829003601f168201915b505050505081526020016003820180546113419061290d565b80601f016020809104026020016040519081016040528092919081815260200182805461136d9061290d565b80156113ba5780601f1061138f576101008083540402835291602001916113ba565b820191906000526020600020905b81548152906001019060200180831161139d57829003601f168201915b505050505081526020016004820180546113d39061290d565b80601f01602080910402602001604051908101604052809291908181526020018280546113ff9061290d565b801561144c5780601f106114215761010080835404028352916020019161144c565b820191906000526020600020905b81548152906001019060200180831161142f57829003601f168201915b505050505081526020016005820160009054906101000a900473ffffffffffffffffffffffffffffffffffffffff1673ffffffffffffffffffffffffffffffffffffffff1673ffffffffffffffffffffffffffffffffffffffff168152602001600682015481526020016007820160009054906101000a900473ffffffffffffffffffffffffffffffffffffffff1673ffffffffffffffffffffffffffffffffffffffff1673ffffffffffffffffffffffffffffffffffffffff168152505090503373ffffffffffffffffffffffffffffffffffffffff168160e0015173ffffffffffffffffffffffffffffffffffffffff16148061157a57503373ffffffffffffffffffffffffffffffffffffffff168160a0015173ffffffffffffffffffffffffffffffffffffffff16145b6115b9576040517f08c379a00000000000000000000000000000000000000000000000000000000081526004016115b0906125c8565b60405180910390fd5b80915050919050565b6115ca611b7c565b73ffffffffffffffffffffffffffffffffffffffff166115e8611057565b73ffffffffffffffffffffffffffffffffffffffff161461163e576040517f08c379a0000000000000000000000000000000000000000000000000000000008152600401611635906125e8565b60405180910390fd5b80600160006101000a81548173ffffffffffffffffffffffffffffffffffffffff021916908373ffffffffffffffffffffffffffffffffffffffff16021790555050565b60025481565b60045481565b6000806004548310156116a057600080fd5b6000610400846116b091906127c4565b90506000610400856116c291906129b9565b11156116d75780806116d390612970565b9150505b600062100000620f42406002546116ee91906127f5565b6116f891906127c4565b9050808261170691906127f5565b93506003548461171691906127f5565b92505050915091565b611727611b7c565b73ffffffffffffffffffffffffffffffffffffffff16611745611057565b73ffffffffffffffffffffffffffffffffffffffff161461179b576040517f08c379a0000000000000000000000000000000000000000000000000000000008152600401611792906125e8565b60405180910390fd5b600073ffffffffffffffffffffffffffffffffffffffff168173ffffffffffffffffffffffffffffffffffffffff16141561180b576040517f08c379a0000000000000000000000000000000000000000000000000000000008152600401611802906125a8565b60405180910390fd5b61181481611b84565b50565b6000865111801561182a57506004548510155b8015611837575060008451115b8015611844575060008351115b8015611851575060008251115b801561188a5750600073ffffffffffffffffffffffffffffffffffffffff163373ffffffffffffffffffffffffffffffffffffffff1614155b80156118c257503373ffffffffffffffffffffffffffffffffffffffff168173ffffffffffffffffffffffffffffffffffffffff1614155b80156118fb5750600073ffffffffffffffffffffffffffffffffffffffff168173ffffffffffffffffffffffffffffffffffffffff1614155b61190457600080fd5b600080611910876107f6565b915091508034101561192157600080fd5b600062015180838334611934919061284f565b61193e91906127c4565b61194891906127f5565b905060008162278d004261195c919061276e565b611966919061276e565b90508060058b6040516119799190612486565b9081526020016040518091039020819055506007600081548092919061199e90612970565b91905055506040518061010001604052808b81526020018a81526020018981526020018881526020018781526020018673ffffffffffffffffffffffffffffffffffffffff1681526020014281526020013373ffffffffffffffffffffffffffffffffffffffff168152506006600060075481526020019081526020016000206000820151816000019080519060200190611a3a929190611cb9565b50602082015181600101556040820151816002019080519060200190611a61929190611cb9565b506060820151816003019080519060200190611a7e929190611cb9565b506080820151816004019080519060200190611a9b929190611cb9565b5060a08201518160050160006101000a81548173ffffffffffffffffffffffffffffffffffffffff021916908373ffffffffffffffffffffffffffffffffffffffff16021790555060c0820151816006015560e08201518160070160006101000a81548173ffffffffffffffffffffffffffffffffffffffff021916908373ffffffffffffffffffffffffffffffffffffffff1602179055509050507f2ed6b29ed6f9dfc1441858346e53f608893095656cd9a14653917f5ade7a8a2e3386604051611b689291906124b8565b60405180910390a150505050505050505050565b600033905090565b60008060009054906101000a900473ffffffffffffffffffffffffffffffffffffffff169050816000806101000a81548173ffffffffffffffffffffffffffffffffffffffff021916908373ffffffffffffffffffffffffffffffffffffffff1602179055508173ffffffffffffffffffffffffffffffffffffffff168173ffffffffffffffffffffffffffffffffffffffff167f8be0079c531659141344cd1fd0a4f28419497f9722a3daafe3b4186f6b6457e060405160405180910390a35050565b6040518061010001604052806060815260200160008152602001606081526020016060815260200160608152602001600073ffffffffffffffffffffffffffffffffffffffff16815260200160008152602001600073ffffffffffffffffffffffffffffffffffffffff1681525090565b828054611cc59061290d565b90600052602060002090601f016020900481019282611ce75760008555611d2e565b82601f10611d0057805160ff1916838001178555611d2e565b82800160010185558215611d2e579182015b82811115611d2d578251825591602001919060010190611d12565b5b509050611d3b9190611d3f565b5090565b5b80821115611d58576000816000905550600101611d40565b5090565b6000611d6f611d6a84612693565b61266e565b905082815260208101848484011115611d8757600080fd5b611d928482856128cb565b509392505050565b600081359050611da981612b58565b92915050565b600081359050611dbe81612b6f565b92915050565b600082601f830112611dd557600080fd5b8135611de5848260208601611d5c565b91505092915050565b600081359050611dfd81612b86565b92915050565b600081519050611e1281612b86565b92915050565b600060208284031215611e2a57600080fd5b6000611e3884828501611d9a565b91505092915050565b600060208284031215611e5357600080fd5b6000611e6184828501611daf565b91505092915050565b60008060408385031215611e7d57600080fd5b6000611e8b85828601611daf565b9250506020611e9c85828601611dee565b9150509250929050565b600060208284031215611eb857600080fd5b600082013567ffffffffffffffff811115611ed257600080fd5b611ede84828501611dc4565b91505092915050565b60008060008060008060c08789031215611f0057600080fd5b600087013567ffffffffffffffff811115611f1a57600080fd5b611f2689828a01611dc4565b9650506020611f3789828a01611dee565b955050604087013567ffffffffffffffff811115611f5457600080fd5b611f6089828a01611dc4565b945050606087013567ffffffffffffffff811115611f7d57600080fd5b611f8989828a01611dc4565b935050608087013567ffffffffffffffff811115611fa657600080fd5b611fb289828a01611dc4565b92505060a0611fc389828a01611d9a565b9150509295509295509295565b600060208284031215611fe257600080fd5b6000611ff084828501611dee565b91505092915050565b60006020828403121561200b57600080fd5b600061201984828501611e03565b91505092915050565b6000806000806080858703121561203857600080fd5b600061204687828801611dee565b945050602085013567ffffffffffffffff81111561206357600080fd5b61206f87828801611dc4565b935050604085013567ffffffffffffffff81111561208c57600080fd5b61209887828801611dc4565b92505060606120a987828801611d9a565b91505092959194509250565b60006120c183836122de565b905092915050565b60006120d58383612468565b60208301905092915050565b6120ea81612883565b82525050565b6120f981612883565b82525050565b600061210a826126e4565b612114818561271f565b935083602082028501612126856126c4565b8060005b85811015612162578484038952815161214385826120b5565b945061214e83612705565b925060208a0199505060018101905061212a565b50829750879550505050505092915050565b600061217f826126ef565b6121898185612730565b9350612194836126d4565b8060005b838110156121c55781516121ac88826120c9565b97506121b783612712565b925050600181019050612198565b5085935050505092915050565b60006121dd826126fa565b6121e78185612741565b93506121f78185602086016128da565b61220081612aa6565b840191505092915050565b6000612216826126fa565b6122208185612752565b93506122308185602086016128da565b61223981612aa6565b840191505092915050565b600061224f826126fa565b6122598185612763565b93506122698185602086016128da565b80840191505092915050565b6000612282602683612752565b915061228d82612ab7565b604082019050919050565b60006122a5600d83612752565b91506122b082612b06565b602082019050919050565b60006122c8602083612752565b91506122d382612b2f565b602082019050919050565b60006101008301600083015184820360008601526122fc82826121d2565b91505060208301516123116020860182612468565b506040830151848203604086015261232982826121d2565b9150506060830151848203606086015261234382826121d2565b9150506080830151848203608086015261235d82826121d2565b91505060a083015161237260a08601826120e1565b5060c083015161238560c0860182612468565b5060e083015161239860e08601826120e1565b508091505092915050565b60006101008301600083015184820360008601526123c182826121d2565b91505060208301516123d66020860182612468565b50604083015184820360408601526123ee82826121d2565b9150506060830151848203606086015261240882826121d2565b9150506080830151848203608086015261242282826121d2565b91505060a083015161243760a08601826120e1565b5060c083015161244a60c0860182612468565b5060e083015161245d60e08601826120e1565b508091505092915050565b612471816128c1565b82525050565b612480816128c1565b82525050565b60006124928284612244565b915081905092915050565b60006020820190506124b260008301846120f0565b92915050565b60006040820190506124cd60008301856120f0565b6124da60208301846120f0565b9392505050565b600060208201905081810360008301526124fb81846120ff565b905092915050565b6000608082019050818103600083015261251d81876120ff565b905081810360208301526125318186612174565b9050818103604083015261254581856120ff565b905081810360608301526125598184612174565b905095945050505050565b6000602082019050818103600083015261257e8184612174565b905092915050565b600060208201905081810360008301526125a0818461220b565b905092915050565b600060208201905081810360008301526125c181612275565b9050919050565b600060208201905081810360008301526125e181612298565b9050919050565b60006020820190508181036000830152612601816122bb565b9050919050565b6000602082019050818103600083015261262281846123a3565b905092915050565b600060208201905061263f6000830184612477565b92915050565b600060408201905061265a6000830185612477565b6126676020830184612477565b9392505050565b6000612678612689565b9050612684828261293f565b919050565b6000604051905090565b600067ffffffffffffffff8211156126ae576126ad612a77565b5b6126b782612aa6565b9050602081019050919050565b6000819050602082019050919050565b6000819050602082019050919050565b600081519050919050565b600081519050919050565b600081519050919050565b6000602082019050919050565b6000602082019050919050565b600082825260208201905092915050565b600082825260208201905092915050565b600082825260208201905092915050565b600082825260208201905092915050565b600081905092915050565b6000612779826128c1565b9150612784836128c1565b9250827fffffffffffffffffffffffffffffffffffffffffffffffffffffffffffffffff038211156127b9576127b86129ea565b5b828201905092915050565b60006127cf826128c1565b91506127da836128c1565b9250826127ea576127e9612a19565b5b828204905092915050565b6000612800826128c1565b915061280b836128c1565b9250817fffffffffffffffffffffffffffffffffffffffffffffffffffffffffffffffff0483118215151615612844576128436129ea565b5b828202905092915050565b600061285a826128c1565b9150612865836128c1565b925082821015612878576128776129ea565b5b828203905092915050565b600061288e826128a1565b9050919050565b60008115159050919050565b600073ffffffffffffffffffffffffffffffffffffffff82169050919050565b6000819050919050565b82818337600083830152505050565b60005b838110156128f85780820151818401526020810190506128dd565b83811115612907576000848401525b50505050565b6000600282049050600182168061292557607f821691505b6020821081141561293957612938612a48565b5b50919050565b61294882612aa6565b810181811067ffffffffffffffff8211171561296757612966612a77565b5b80604052505050565b600061297b826128c1565b91507fffffffffffffffffffffffffffffffffffffffffffffffffffffffffffffffff8214156129ae576129ad6129ea565b5b600182019050919050565b60006129c4826128c1565b91506129cf836128c1565b9250826129df576129de612a19565b5b828206905092915050565b7f4e487b7100000000000000000000000000000000000000000000000000000000600052601160045260246000fd5b7f4e487b7100000000000000000000000000000000000000000000000000000000600052601260045260246000fd5b7f4e487b7100000000000000000000000000000000000000000000000000000000600052602260045260246000fd5b7f4e487b7100000000000000000000000000000000000000000000000000000000600052604160045260246000fd5b6000601f19601f8301169050919050565b7f4f776e61626c653a206e6577206f776e657220697320746865207a65726f206160008201527f6464726573730000000000000000000000000000000000000000000000000000602082015250565b7f4143434553532044454e49454400000000000000000000000000000000000000600082015250565b7f4f776e61626c653a2063616c6c6572206973206e6f7420746865206f776e6572600082015250565b612b6181612883565b8114612b6c57600080fd5b50565b612b7881612895565b8114612b8357600080fd5b50565b612b8f816128c1565b8114612b9a57600080fd5b5056fea26469706673582212208e7c2b991cfca5ea7b9da4ba49da65029de08bd0681c4d0f04486a297ac0437c64736f6c63430008040033",
  "linkReferences": {},
  "deployedLinkReferences": {}
}