{
  "_format": "hh-sol-artifact-1",
  "contractName": "DStor",
  "sourceName": "src/backend/contracts/DStor.sol",
  "abi": [
    {
      "inputs": [],
      "stateMutability": "nonpayable",
      "type": "constructor"
    },
    {
      "anonymous": false,
      "inputs": [
        {
          "indexed": false,
          "internalType": "address",
          "name": "recipient",
          "type": "address"
        }
      ],
      "name": "FileUpdated",
      "type": "event"
    },
    {
      "anonymous": false,
      "inputs": [
        {
          "indexed": true,
          "internalType": "address",
          "name": "previousOwner",
          "type": "address"
        },
        {
          "indexed": true,
          "internalType": "address",
          "name": "newOwner",
          "type": "address"
        }
      ],
      "name": "OwnershipTransferred",
      "type": "event"
    },
    {
      "inputs": [
        {
          "internalType": "uint256",
          "name": "fileId",
          "type": "uint256"
        }
      ],
      "name": "addTime",
      "outputs": [],
      "stateMutability": "payable",
      "type": "function"
    },
    {
      "inputs": [],
      "name": "basicInfo",
      "outputs": [
        {
          "internalType": "string",
          "name": "n",
          "type": "string"
        },
        {
          "internalType": "address",
          "name": "fe",
          "type": "address"
        },
        {
          "internalType": "uint256",
          "name": "mp",
          "type": "uint256"
        },
        {
          "internalType": "uint256",
          "name": "pr",
          "type": "uint256"
        },
        {
          "internalType": "uint256",
          "name": "mfs",
          "type": "uint256"
        },
        {
          "internalType": "uint256",
          "name": "fc",
          "type": "uint256"
        }
      ],
      "stateMutability": "view",
      "type": "function"
    },
    {
      "inputs": [
        {
          "internalType": "string[]",
          "name": "query",
          "type": "string[]"
        }
      ],
      "name": "batchExpQuery",
      "outputs": [
        {
          "internalType": "bool[]",
          "name": "isExpired",
          "type": "bool[]"
        },
        {
          "internalType": "uint256[]",
          "name": "tilExpiry",
          "type": "uint256[]"
        }
      ],
      "stateMutability": "view",
      "type": "function"
    },
    {
      "inputs": [
        {
          "internalType": "uint256",
          "name": "numBytes",
          "type": "uint256"
        }
      ],
      "name": "bothQuotes",
      "outputs": [
        {
          "internalType": "uint256",
          "name": "perDiem",
          "type": "uint256"
        },
        {
          "internalType": "uint256",
          "name": "benchFee",
          "type": "uint256"
        },
        {
          "internalType": "uint256",
          "name": "weiPerDiem",
          "type": "uint256"
        },
        {
          "internalType": "uint256",
          "name": "weiBenchFee",
          "type": "uint256"
        }
      ],
      "stateMutability": "view",
      "type": "function"
    },
    {
      "inputs": [
        {
          "internalType": "string",
          "name": "",
          "type": "string"
        }
      ],
      "name": "expirationDates",
      "outputs": [
        {
          "internalType": "uint256",
          "name": "",
          "type": "uint256"
        }
      ],
      "stateMutability": "view",
      "type": "function"
    },
    {
      "inputs": [],
      "name": "fileCount",
      "outputs": [
        {
          "internalType": "uint256",
          "name": "",
          "type": "uint256"
        }
      ],
      "stateMutability": "view",
      "type": "function"
    },
    {
      "inputs": [],
      "name": "fissionEngine",
      "outputs": [
        {
          "internalType": "address",
          "name": "",
          "type": "address"
        }
      ],
      "stateMutability": "view",
      "type": "function"
    },
    {
      "inputs": [
        {
          "internalType": "uint256",
          "name": "numBytes",
          "type": "uint256"
        }
      ],
      "name": "gasQuote",
      "outputs": [
        {
          "internalType": "uint256",
          "name": "weiPerDiem",
          "type": "uint256"
        },
        {
          "internalType": "uint256",
          "name": "weiBenchFee",
          "type": "uint256"
        }
      ],
      "stateMutability": "view",
      "type": "function"
    },
    {
      "inputs": [
        {
          "internalType": "uint256",
          "name": "fileId",
          "type": "uint256"
        }
      ],
      "name": "get",
      "outputs": [
        {
          "components": [
            {
              "internalType": "string",
              "name": "fileHash",
              "type": "string"
            },
            {
              "internalType": "uint256",
              "name": "fileSize",
              "type": "uint256"
            },
            {
              "internalType": "string",
              "name": "fileType",
              "type": "string"
            },
            {
              "internalType": "string",
              "name": "fileName",
              "type": "string"
            },
            {
              "internalType": "string",
              "name": "fileDescription",
              "type": "string"
            },
            {
              "internalType": "address",
              "name": "recipient",
              "type": "address"
            },
            {
              "internalType": "uint256",
              "name": "uploadTime",
              "type": "uint256"
            },
            {
              "internalType": "address",
              "name": "uploader",
              "type": "address"
            }
          ],
          "internalType": "struct DStor.File",
          "name": "",
          "type": "tuple"
        }
      ],
      "stateMutability": "view",
      "type": "function"
    },
    {
      "inputs": [
        {
          "internalType": "bool",
          "name": "isSender",
          "type": "bool"
        }
      ],
      "name": "getAccessibleExps",
      "outputs": [
        {
          "internalType": "uint256[]",
          "name": "",
          "type": "uint256[]"
        }
      ],
      "stateMutability": "view",
      "type": "function"
    },
    {
      "inputs": [
        {
          "internalType": "bool",
          "name": "isSender",
          "type": "bool"
        }
      ],
      "name": "getAccessibleFileIds",
      "outputs": [
        {
          "internalType": "uint256[]",
          "name": "",
          "type": "uint256[]"
        }
      ],
      "stateMutability": "view",
      "type": "function"
    },
    {
      "inputs": [
        {
          "internalType": "bool",
          "name": "isSender",
          "type": "bool"
        }
      ],
      "name": "getAccessibleFiles",
      "outputs": [
        {
          "components": [
            {
              "internalType": "string",
              "name": "fileHash",
              "type": "string"
            },
            {
              "internalType": "uint256",
              "name": "fileSize",
              "type": "uint256"
            },
            {
              "internalType": "string",
              "name": "fileType",
              "type": "string"
            },
            {
              "internalType": "string",
              "name": "fileName",
              "type": "string"
            },
            {
              "internalType": "string",
              "name": "fileDescription",
              "type": "string"
            },
            {
              "internalType": "address",
              "name": "recipient",
              "type": "address"
            },
            {
              "internalType": "uint256",
              "name": "uploadTime",
              "type": "uint256"
            },
            {
              "internalType": "address",
              "name": "uploader",
              "type": "address"
            }
          ],
          "internalType": "struct DStor.File[]",
          "name": "",
          "type": "tuple[]"
        }
      ],
      "stateMutability": "view",
      "type": "function"
    },
    {
      "inputs": [
        {
          "internalType": "string",
          "name": "query",
          "type": "string"
        }
      ],
      "name": "getAddresses",
      "outputs": [
        {
          "internalType": "address",
          "name": "from",
          "type": "address"
        },
        {
          "internalType": "address",
          "name": "to",
          "type": "address"
        }
      ],
      "stateMutability": "view",
      "type": "function"
    },
    {
      "inputs": [],
      "name": "getAllData",
      "outputs": [
        {
          "components": [
            {
              "internalType": "string",
              "name": "fileHash",
              "type": "string"
            },
            {
              "internalType": "uint256",
              "name": "fileSize",
              "type": "uint256"
            },
            {
              "internalType": "string",
              "name": "fileType",
              "type": "string"
            },
            {
              "internalType": "string",
              "name": "fileName",
              "type": "string"
            },
            {
              "internalType": "string",
              "name": "fileDescription",
              "type": "string"
            },
            {
              "internalType": "address",
              "name": "recipient",
              "type": "address"
            },
            {
              "internalType": "uint256",
              "name": "uploadTime",
              "type": "uint256"
            },
            {
              "internalType": "address",
              "name": "uploader",
              "type": "address"
            }
          ],
          "internalType": "struct DStor.File[]",
          "name": "sent",
          "type": "tuple[]"
        },
        {
          "internalType": "uint256[]",
          "name": "sentExps",
          "type": "uint256[]"
        },
        {
          "internalType": "uint256[]",
          "name": "sentIds",
          "type": "uint256[]"
        },
        {
          "components": [
            {
              "internalType": "string",
              "name": "fileHash",
              "type": "string"
            },
            {
              "internalType": "uint256",
              "name": "fileSize",
              "type": "uint256"
            },
            {
              "internalType": "string",
              "name": "fileType",
              "type": "string"
            },
            {
              "internalType": "string",
              "name": "fileName",
              "type": "string"
            },
            {
              "internalType": "string",
              "name": "fileDescription",
              "type": "string"
            },
            {
              "internalType": "address",
              "name": "recipient",
              "type": "address"
            },
            {
              "internalType": "uint256",
              "name": "uploadTime",
              "type": "uint256"
            },
            {
              "internalType": "address",
              "name": "uploader",
              "type": "address"
            }
          ],
          "internalType": "struct DStor.File[]",
          "name": "received",
          "type": "tuple[]"
        },
        {
          "internalType": "uint256[]",
          "name": "receivedExps",
          "type": "uint256[]"
        },
        {
          "internalType": "uint256[]",
          "name": "receivedIds",
          "type": "uint256[]"
        }
      ],
      "stateMutability": "view",
      "type": "function"
    },
    {
      "inputs": [],
      "name": "minimumFileSize",
      "outputs": [
        {
          "internalType": "uint256",
          "name": "",
          "type": "uint256"
        }
      ],
      "stateMutability": "view",
      "type": "function"
    },
    {
      "inputs": [],
      "name": "minimumPin",
      "outputs": [
        {
          "internalType": "uint256",
          "name": "",
          "type": "uint256"
        }
      ],
      "stateMutability": "view",
      "type": "function"
    },
    {
      "inputs": [
        {
          "internalType": "uint256",
          "name": "fileId",
          "type": "uint256"
        },
        {
          "internalType": "string",
          "name": "fileName",
          "type": "string"
        },
        {
          "internalType": "string",
          "name": "description",
          "type": "string"
        },
        {
          "internalType": "address",
          "name": "recipient",
          "type": "address"
        }
      ],
      "name": "modify",
      "outputs": [],
      "stateMutability": "nonpayable",
      "type": "function"
    },
    {
      "inputs": [],
      "name": "name",
      "outputs": [
        {
          "internalType": "string",
          "name": "",
          "type": "string"
        }
      ],
      "stateMutability": "view",
      "type": "function"
    },
    {
      "inputs": [],
      "name": "owner",
      "outputs": [
        {
          "internalType": "address",
          "name": "",
          "type": "address"
        }
      ],
      "stateMutability": "view",
      "type": "function"
    },
    {
      "inputs": [],
      "name": "pinningRate",
      "outputs": [
        {
          "internalType": "uint256",
          "name": "",
          "type": "uint256"
        }
      ],
      "stateMutability": "view",
      "type": "function"
    },
    {
      "inputs": [
        {
          "internalType": "uint256",
          "name": "numBytes",
          "type": "uint256"
        }
      ],
      "name": "quote",
      "outputs": [
        {
          "internalType": "uint256",
          "name": "perDiem",
          "type": "uint256"
        },
        {
          "internalType": "uint256",
          "name": "benchFee",
          "type": "uint256"
        }
      ],
      "stateMutability": "view",
      "type": "function"
    },
    {
      "inputs": [],
      "name": "renounceOwnership",
      "outputs": [],
      "stateMutability": "nonpayable",
      "type": "function"
    },
    {
      "inputs": [
        {
          "internalType": "address",
          "name": "fission",
          "type": "address"
        }
      ],
      "name": "setFission",
      "outputs": [],
      "stateMutability": "nonpayable",
      "type": "function"
    },
    {
      "inputs": [
        {
          "internalType": "uint256",
          "name": "value",
          "type": "uint256"
        }
      ],
      "name": "setMinFileSize",
      "outputs": [],
      "stateMutability": "nonpayable",
      "type": "function"
    },
    {
      "inputs": [
        {
          "internalType": "uint256",
          "name": "value",
          "type": "uint256"
        }
      ],
      "name": "setPinningRate",
      "outputs": [],
      "stateMutability": "nonpayable",
      "type": "function"
    },
    {
      "inputs": [],
      "name": "takeProfit",
      "outputs": [],
      "stateMutability": "nonpayable",
      "type": "function"
    },
    {
      "inputs": [
        {
          "internalType": "address",
          "name": "newOwner",
          "type": "address"
        }
      ],
      "name": "transferOwnership",
      "outputs": [],
      "stateMutability": "nonpayable",
      "type": "function"
    },
    {
      "inputs": [
        {
          "internalType": "string",
          "name": "_fileHash",
          "type": "string"
        },
        {
          "internalType": "uint256",
          "name": "_fileSize",
          "type": "uint256"
        },
        {
          "internalType": "string",
          "name": "_fileType",
          "type": "string"
        },
        {
          "internalType": "string",
          "name": "_fileName",
          "type": "string"
        },
        {
          "internalType": "string",
          "name": "_fileDescription",
          "type": "string"
        },
        {
          "internalType": "address",
          "name": "recipient",
          "type": "address"
        }
      ],
      "name": "upload",
      "outputs": [],
      "stateMutability": "payable",
      "type": "function"
    }
  ],
  "bytecode": "0x6080604052609660025561040060035560006006553480156200002157600080fd5b5062000042620000366200004860201b60201c565b6200005060201b60201c565b62000114565b600033905090565b60008060009054906101000a900473ffffffffffffffffffffffffffffffffffffffff169050816000806101000a81548173ffffffffffffffffffffffffffffffffffffffff021916908373ffffffffffffffffffffffffffffffffffffffff1602179055508173ffffffffffffffffffffffffffffffffffffffff168173ffffffffffffffffffffffffffffffffffffffff167f8be0079c531659141344cd1fd0a4f28419497f9722a3daafe3b4186f6b6457e060405160405180910390a35050565b613a0680620001246000396000f3fe6080604052600436106101b75760003560e01c806370c10578116100ec578063ba22ef261161008a578063ed1bd76c11610064578063ed1bd76c14610632578063ee0a395114610670578063f2fde38b146106a0578063fe668460146106c9576101b7565b8063ba22ef261461059e578063d8ca79d2146105c9578063e88bae8f14610607576101b7565b80638da5cb5b116100c65780638da5cb5b146104d05780638e6513a8146104fb5780639507d39a14610538578063a3e0fdc314610575576101b7565b806370c1057814610479578063715018a6146104905780638862af95146104a7576101b7565b806336ea260611610159578063439535191161013357806343953519146103bd57806348358d8f146103e85780635d7e00781461041157806366ecd0021461044e576101b7565b806336ea26061461031657806339a0f5571461033f57806339b64c301461037f576101b7565b806307a8e14c1161019557806307a8e14c146102405780631932e8d11461027d57806321f6fb11146102bb5780632d10fa28146102e6576101b7565b80630502ca6b146101bc5780630617ff79146101d857806306fdde0314610215575b600080fd5b6101d660048036038101906101d19190612c77565b6106e5565b005b3480156101e457600080fd5b506101ff60048036038101906101fa9190612b24565b61087d565b60405161020c9190613221565b60405180910390f35b34801561022157600080fd5b5061022a6109c7565b60405161023791906132f0565b60405180910390f35b34801561024c57600080fd5b5061026760048036038101906102629190612b4d565b610a00565b60405161027491906133dc565b60405180910390f35b34801561028957600080fd5b506102a4600480360381019061029f9190612c77565b610a2e565b6040516102b29291906133f7565b60405180910390f35b3480156102c757600080fd5b506102d0610b2d565b6040516102dd91906133dc565b60405180910390f35b3480156102f257600080fd5b506102fb610b32565b60405161030d96959493929190613243565b60405180910390f35b34801561032257600080fd5b5061033d60048036038101906103389190612c77565b610b8b565b005b34801561034b57600080fd5b5061036660048036038101906103619190612c77565b610c11565b6040516103769493929190613420565b60405180910390f35b34801561038b57600080fd5b506103a660048036038101906103a19190612b4d565b610c40565b6040516103b49291906131c1565b60405180910390f35b3480156103c957600080fd5b506103d2610fff565b6040516103df91906133dc565b60405180910390f35b3480156103f457600080fd5b5061040f600480360381019061040a9190612c77565b611005565b005b34801561041d57600080fd5b5061043860048036038101906104339190612b24565b61108b565b60405161044591906132ce565b60405180910390f35b34801561045a57600080fd5b5061046361131b565b60405161047091906131a6565b60405180910390f35b34801561048557600080fd5b5061048e611341565b005b34801561049c57600080fd5b506104a5611391565b005b3480156104b357600080fd5b506104ce60048036038101906104c99190612cc9565b611419565b005b3480156104dc57600080fd5b506104e5611794565b6040516104f291906131a6565b60405180910390f35b34801561050757600080fd5b50610522600480360381019061051d9190612b24565b6117bd565b60405161052f91906132ce565b60405180910390f35b34801561054457600080fd5b5061055f600480360381019061055a9190612c77565b611917565b60405161056c91906133ba565b60405180910390f35b34801561058157600080fd5b5061059c60048036038101906105979190612aba565b611d38565b005b3480156105aa57600080fd5b506105b3611df8565b6040516105c091906133dc565b60405180910390f35b3480156105d557600080fd5b506105f060048036038101906105eb9190612ae3565b611dfe565b6040516105fe9291906131ea565b60405180910390f35b34801561061357600080fd5b5061061c61207b565b60405161062991906133dc565b60405180910390f35b34801561063e57600080fd5b5061065960048036038101906106549190612c77565b612081565b6040516106679291906133f7565b60405180910390f35b34801561067c57600080fd5b5061068561217a565b60405161069796959493929190613312565b60405180910390f35b3480156106ac57600080fd5b506106c760048036038101906106c29190612aba565b6121fc565b005b6106e360048036038101906106de9190612b8e565b6122f4565b005b60006106f082611917565b905060006107018260200151610a2e565b509050803410156040518060400160405280600981526020017f56414c5545204c4f5700000000000000000000000000000000000000000000008152509061077f576040517f08c379a000000000000000000000000000000000000000000000000000000000815260040161077691906132f0565b60405180910390fd5b506000826000015190504260048260405161079a919061318f565b90815260200160405180910390205410156040518060400160405280600d81526020017f4143434553532044454e4945440000000000000000000000000000000000000081525090610822576040517f08c379a000000000000000000000000000000000000000000000000000000000815260040161081991906132f0565b60405180910390fd5b5060006201518083346108359190613620565b61083f9190613651565b905080600483604051610852919061318f565b9081526020016040518091039020600082825461086f91906135ca565b925050819055505050505050565b6060600061088a8361108b565b905060008151905060008167ffffffffffffffff8111156108d4577f4e487b7100000000000000000000000000000000000000000000000000000000600052604160045260246000fd5b60405190808252806020026020018201604052801561090d57816020015b6108fa61283a565b8152602001906001900390816108f25790505b50905060005b828110156109bb57610964848281518110610957577f4e487b7100000000000000000000000000000000000000000000000000000000600052603260045260246000fd5b6020026020010151611917565b82828151811061099d577f4e487b7100000000000000000000000000000000000000000000000000000000600052603260045260246000fd5b602002602001018190525080806109b3906137cc565b915050610913565b50809350505050919050565b6040518060400160405280601681526020017f4465616444726f704048656d6c6f636b5374726565740000000000000000000081525081565b6004818051602081018201805184825260208301602085012081835280955050505050506000915090505481565b600080600080610a3d85612081565b915091506000600160009054906101000a900473ffffffffffffffffffffffffffffffffffffffff16905060008173ffffffffffffffffffffffffffffffffffffffff1663e113e6406040518163ffffffff1660e01b815260040160206040518083038186803b158015610ab057600080fd5b505afa158015610ac4573d6000803e3d6000fd5b505050506040513d601f19601f82011682018060405250810190610ae89190612ca0565b90506305f5e1008185610afb9190613651565b610b059190613620565b95506305f5e1008184610b189190613651565b610b229190613620565b945050505050915091565b601e81565b606080606080606080610b45600161087d565b9550610b5160016117bd565b9450610b5d600161108b565b9350610b69600061087d565b9250610b7560006117bd565b9150610b81600061108b565b9050909192939495565b610b9361276e565b73ffffffffffffffffffffffffffffffffffffffff16610bb1611794565b73ffffffffffffffffffffffffffffffffffffffff1614610c07576040517f08c379a0000000000000000000000000000000000000000000000000000000008152600401610bfe9061339a565b60405180910390fd5b8060028190555050565b600080600080610c2085612081565b8094508195505050610c3185612081565b80925081935050509193509193565b6000806000600190505b6006548111610ff95760006005600083815260200190815260200160002060405180610100016040529081600082018054610c8490613769565b80601f0160208091040260200160405190810160405280929190818152602001828054610cb090613769565b8015610cfd5780601f10610cd257610100808354040283529160200191610cfd565b820191906000526020600020905b815481529060010190602001808311610ce057829003601f168201915b5050505050815260200160018201548152602001600282018054610d2090613769565b80601f0160208091040260200160405190810160405280929190818152602001828054610d4c90613769565b8015610d995780601f10610d6e57610100808354040283529160200191610d99565b820191906000526020600020905b815481529060010190602001808311610d7c57829003601f168201915b50505050508152602001600382018054610db290613769565b80601f0160208091040260200160405190810160405280929190818152602001828054610dde90613769565b8015610e2b5780601f10610e0057610100808354040283529160200191610e2b565b820191906000526020600020905b815481529060010190602001808311610e0e57829003601f168201915b50505050508152602001600482018054610e4490613769565b80601f0160208091040260200160405190810160405280929190818152602001828054610e7090613769565b8015610ebd5780601f10610e9257610100808354040283529160200191610ebd565b820191906000526020600020905b815481529060010190602001808311610ea057829003601f168201915b505050505081526020016005820160009054906101000a900473ffffffffffffffffffffffffffffffffffffffff1673ffffffffffffffffffffffffffffffffffffffff1673ffffffffffffffffffffffffffffffffffffffff168152602001600682015481526020016007820160009054906101000a900473ffffffffffffffffffffffffffffffffffffffff1673ffffffffffffffffffffffffffffffffffffffff1673ffffffffffffffffffffffffffffffffffffffff1681525050905084604051602001610f8f919061318f565b604051602081830303815290604052805190602001208160000151604051602001610fba919061318f565b604051602081830303815290604052805190602001201415610fe5578060e0015193508060a0015192505b508080610ff1906137cc565b915050610c4a565b50915091565b60065481565b61100d61276e565b73ffffffffffffffffffffffffffffffffffffffff1661102b611794565b73ffffffffffffffffffffffffffffffffffffffff1614611081576040517f08c379a00000000000000000000000000000000000000000000000000000000081526004016110789061339a565b60405180910390fd5b8060038190555050565b6060600080600090505b6006548111611172576000846110e1576005600083815260200190815260200160002060050160009054906101000a900473ffffffffffffffffffffffffffffffffffffffff16611119565b6005600083815260200190815260200160002060070160009054906101000a900473ffffffffffffffffffffffffffffffffffffffff165b90503373ffffffffffffffffffffffffffffffffffffffff168173ffffffffffffffffffffffffffffffffffffffff16141561115e57828061115a906137cc565b9350505b50808061116a906137cc565b915050611095565b5060008167ffffffffffffffff8111156111b5577f4e487b7100000000000000000000000000000000000000000000000000000000600052604160045260246000fd5b6040519080825280602002602001820160405280156111e35781602001602082028036833780820191505090505b5090506000915060005b600654811161131057600085611239576005600083815260200190815260200160002060050160009054906101000a900473ffffffffffffffffffffffffffffffffffffffff16611271565b6005600083815260200190815260200160002060070160009054906101000a900473ffffffffffffffffffffffffffffffffffffffff165b90503373ffffffffffffffffffffffffffffffffffffffff168173ffffffffffffffffffffffffffffffffffffffff1614156112fc57818385815181106112e1577f4e487b7100000000000000000000000000000000000000000000000000000000600052603260045260246000fd5b60200260200101818152505083806112f8906137cc565b9450505b508080611308906137cc565b9150506111ed565b508092505050919050565b600160009054906101000a900473ffffffffffffffffffffffffffffffffffffffff1681565b611349611794565b73ffffffffffffffffffffffffffffffffffffffff166108fc479081150290604051600060405180830381858888f1935050505015801561138e573d6000803e3d6000fd5b50565b61139961276e565b73ffffffffffffffffffffffffffffffffffffffff166113b7611794565b73ffffffffffffffffffffffffffffffffffffffff161461140d576040517f08c379a00000000000000000000000000000000000000000000000000000000081526004016114049061339a565b60405180910390fd5b6114176000612776565b565b60006005600086815260200190815260200160002090503373ffffffffffffffffffffffffffffffffffffffff168160070160009054906101000a900473ffffffffffffffffffffffffffffffffffffffff1673ffffffffffffffffffffffffffffffffffffffff16146040518060400160405280600d81526020017f4143434553532044454e49454400000000000000000000000000000000000000815250906114fa576040517f08c379a00000000000000000000000000000000000000000000000000000000081526004016114f191906132f0565b60405180910390fd5b503373ffffffffffffffffffffffffffffffffffffffff168273ffffffffffffffffffffffffffffffffffffffff1614156040518060400160405280600c81526020017f4e4f2053454c462053454e440000000000000000000000000000000000000000815250906115a2576040517f08c379a000000000000000000000000000000000000000000000000000000000815260040161159991906132f0565b60405180910390fd5b506000845190506000845190506000821415806115c0575060008114155b806115f85750600073ffffffffffffffffffffffffffffffffffffffff168473ffffffffffffffffffffffffffffffffffffffff1614155b156116be576000821461161f578583600301908051906020019061161d9291906128ab565b505b60008114611641578483600401908051906020019061163f9291906128ab565b505b600073ffffffffffffffffffffffffffffffffffffffff168473ffffffffffffffffffffffffffffffffffffffff16146116b957838360050160006101000a81548173ffffffffffffffffffffffffffffffffffffffff021916908373ffffffffffffffffffffffffffffffffffffffff1602179055505b611730565b6040518060400160405280600881526020017f4241442043414c4c0000000000000000000000000000000000000000000000008152506040517f08c379a000000000000000000000000000000000000000000000000000000000815260040161172791906132f0565b60405180910390fd5b7fc2b72a0fe8c458577d2c9ac0f97d01cbb043a6faae7c6b7eeda2a4812575027b8360050160009054906101000a900473ffffffffffffffffffffffffffffffffffffffff1660405161178391906131a6565b60405180910390a150505050505050565b60008060009054906101000a900473ffffffffffffffffffffffffffffffffffffffff16905090565b606060006117ca8361087d565b905060008151905060008167ffffffffffffffff811115611814577f4e487b7100000000000000000000000000000000000000000000000000000000600052604160045260246000fd5b6040519080825280602002602001820160405280156118425781602001602082028036833780820191505090505b50905060005b8281101561190b57600484828151811061188b577f4e487b7100000000000000000000000000000000000000000000000000000000600052603260045260246000fd5b6020026020010151600001516040516118a4919061318f565b9081526020016040518091039020548282815181106118ec577f4e487b7100000000000000000000000000000000000000000000000000000000600052603260045260246000fd5b6020026020010181815250508080611903906137cc565b915050611848565b50809350505050919050565b61191f61283a565b6000600560008481526020019081526020016000206040518061010001604052908160008201805461195090613769565b80601f016020809104026020016040519081016040528092919081815260200182805461197c90613769565b80156119c95780601f1061199e576101008083540402835291602001916119c9565b820191906000526020600020905b8154815290600101906020018083116119ac57829003601f168201915b50505050508152602001600182015481526020016002820180546119ec90613769565b80601f0160208091040260200160405190810160405280929190818152602001828054611a1890613769565b8015611a655780601f10611a3a57610100808354040283529160200191611a65565b820191906000526020600020905b815481529060010190602001808311611a4857829003601f168201915b50505050508152602001600382018054611a7e90613769565b80601f0160208091040260200160405190810160405280929190818152602001828054611aaa90613769565b8015611af75780601f10611acc57610100808354040283529160200191611af7565b820191906000526020600020905b815481529060010190602001808311611ada57829003601f168201915b50505050508152602001600482018054611b1090613769565b80601f0160208091040260200160405190810160405280929190818152602001828054611b3c90613769565b8015611b895780601f10611b5e57610100808354040283529160200191611b89565b820191906000526020600020905b815481529060010190602001808311611b6c57829003601f168201915b505050505081526020016005820160009054906101000a900473ffffffffffffffffffffffffffffffffffffffff1673ffffffffffffffffffffffffffffffffffffffff1673ffffffffffffffffffffffffffffffffffffffff168152602001600682015481526020016007820160009054906101000a900473ffffffffffffffffffffffffffffffffffffffff1673ffffffffffffffffffffffffffffffffffffffff1673ffffffffffffffffffffffffffffffffffffffff168152505090503373ffffffffffffffffffffffffffffffffffffffff168160e0015173ffffffffffffffffffffffffffffffffffffffff161480611cb757503373ffffffffffffffffffffffffffffffffffffffff168160a0015173ffffffffffffffffffffffffffffffffffffffff16145b6040518060400160405280600d81526020017f4143434553532044454e4945440000000000000000000000000000000000000081525090611d2e576040517f08c379a0000000000000000000000000000000000000000000000000000000008152600401611d2591906132f0565b60405180910390fd5b5080915050919050565b611d4061276e565b73ffffffffffffffffffffffffffffffffffffffff16611d5e611794565b73ffffffffffffffffffffffffffffffffffffffff1614611db4576040517f08c379a0000000000000000000000000000000000000000000000000000000008152600401611dab9061339a565b60405180910390fd5b80600160006101000a81548173ffffffffffffffffffffffffffffffffffffffff021916908373ffffffffffffffffffffffffffffffffffffffff16021790555050565b60025481565b60608060008351905060008167ffffffffffffffff811115611e49577f4e487b7100000000000000000000000000000000000000000000000000000000600052604160045260246000fd5b604051908082528060200260200182016040528015611e775781602001602082028036833780820191505090505b50905060008267ffffffffffffffff811115611ebc577f4e487b7100000000000000000000000000000000000000000000000000000000600052604160045260246000fd5b604051908082528060200260200182016040528015611eea5781602001602082028036833780820191505090505b50905060005b8381101561206c5760006004888381518110611f35577f4e487b7100000000000000000000000000000000000000000000000000000000600052603260045260246000fd5b6020026020010151604051611f4a919061318f565b9081526020016040518091039020549050426004898481518110611f97577f4e487b7100000000000000000000000000000000000000000000000000000000600052603260045260246000fd5b6020026020010151604051611fac919061318f565b90815260200160405180910390205411848381518110611ff5577f4e487b7100000000000000000000000000000000000000000000000000000000600052603260045260246000fd5b602002602001019015159081151581525050804261201391906136ab565b83838151811061204c577f4e487b7100000000000000000000000000000000000000000000000000000000600052603260045260246000fd5b602002602001018181525050508080612064906137cc565b915050611ef0565b50819450809350505050915091565b60035481565b6000806003548310156040518060400160405280600881526020017f4241442043414c4c00000000000000000000000000000000000000000000000081525090612101576040517f08c379a00000000000000000000000000000000000000000000000000000000081526004016120f891906132f0565b60405180910390fd5b506000610400846121129190613620565b90506000610400856121249190613815565b1115612139578080612135906137cc565b9150505b62100000620f424060025461214e9190613651565b6121589190613620565b816121639190613651565b9150601e826121729190613620565b925050915091565b606060008060008060006040518060400160405280601681526020017f4465616444726f704048656d6c6f636b537472656574000000000000000000008152509550600160009054906101000a900473ffffffffffffffffffffffffffffffffffffffff169450601e9350600254925060035491506006549050909192939495565b61220461276e565b73ffffffffffffffffffffffffffffffffffffffff16612222611794565b73ffffffffffffffffffffffffffffffffffffffff1614612278576040517f08c379a000000000000000000000000000000000000000000000000000000000815260040161226f9061339a565b60405180910390fd5b600073ffffffffffffffffffffffffffffffffffffffff168173ffffffffffffffffffffffffffffffffffffffff1614156122e8576040517f08c379a00000000000000000000000000000000000000000000000000000000081526004016122df9061337a565b60405180910390fd5b6122f181612776565b50565b6000865111801561230757506003548510155b8015612314575060008451115b8015612321575060008351115b801561232e575060008251115b80156123675750600073ffffffffffffffffffffffffffffffffffffffff163373ffffffffffffffffffffffffffffffffffffffff1614155b80156123a05750600073ffffffffffffffffffffffffffffffffffffffff168173ffffffffffffffffffffffffffffffffffffffff1614155b6040518060400160405280600881526020017f4241442043414c4c00000000000000000000000000000000000000000000000081525090612417576040517f08c379a000000000000000000000000000000000000000000000000000000000815260040161240e91906132f0565b60405180910390fd5b503373ffffffffffffffffffffffffffffffffffffffff168173ffffffffffffffffffffffffffffffffffffffff1614156040518060400160405280600c81526020017f4e4f2053454c462053454e440000000000000000000000000000000000000000815250906124bf576040517f08c379a00000000000000000000000000000000000000000000000000000000081526004016124b691906132f0565b60405180910390fd5b506000806124cc87610a2e565b91509150803410156040518060400160405280600981526020017f56414c5545204c4f5700000000000000000000000000000000000000000000008152509061254b576040517f08c379a000000000000000000000000000000000000000000000000000000000815260040161254291906132f0565b60405180910390fd5b5060006201518083833461255f91906136ab565b6125699190613620565b6125739190613651565b905060008162278d004261258791906135ca565b61259191906135ca565b90508060048b6040516125a4919061318f565b908152602001604051809103902081905550600660008154809291906125c9906137cc565b91905055506040518061010001604052808b81526020018a81526020018981526020018881526020018781526020018673ffffffffffffffffffffffffffffffffffffffff1681526020014281526020013373ffffffffffffffffffffffffffffffffffffffff1681525060056000600654815260200190815260200160002060008201518160000190805190602001906126659291906128ab565b5060208201518160010155604082015181600201908051906020019061268c9291906128ab565b5060608201518160030190805190602001906126a99291906128ab565b5060808201518160040190805190602001906126c69291906128ab565b5060a08201518160050160006101000a81548173ffffffffffffffffffffffffffffffffffffffff021916908373ffffffffffffffffffffffffffffffffffffffff16021790555060c0820151816006015560e08201518160070160006101000a81548173ffffffffffffffffffffffffffffffffffffffff021916908373ffffffffffffffffffffffffffffffffffffffff16021790555090505050505050505050505050565b600033905090565b60008060009054906101000a900473ffffffffffffffffffffffffffffffffffffffff169050816000806101000a81548173ffffffffffffffffffffffffffffffffffffffff021916908373ffffffffffffffffffffffffffffffffffffffff1602179055508173ffffffffffffffffffffffffffffffffffffffff168173ffffffffffffffffffffffffffffffffffffffff167f8be0079c531659141344cd1fd0a4f28419497f9722a3daafe3b4186f6b6457e060405160405180910390a35050565b6040518061010001604052806060815260200160008152602001606081526020016060815260200160608152602001600073ffffffffffffffffffffffffffffffffffffffff16815260200160008152602001600073ffffffffffffffffffffffffffffffffffffffff1681525090565b8280546128b790613769565b90600052602060002090601f0160209004810192826128d95760008555612920565b82601f106128f257805160ff1916838001178555612920565b82800160010185558215612920579182015b8281111561291f578251825591602001919060010190612904565b5b50905061292d9190612931565b5090565b5b8082111561294a576000816000905550600101612932565b5090565b600061296161295c8461348a565b613465565b9050808382526020820190508285602086028201111561298057600080fd5b60005b858110156129ca57813567ffffffffffffffff8111156129a257600080fd5b8086016129af8982612a66565b85526020850194506020840193505050600181019050612983565b5050509392505050565b60006129e76129e2846134b6565b613465565b9050828152602081018484840111156129ff57600080fd5b612a0a848285613727565b509392505050565b600081359050612a218161398b565b92915050565b600082601f830112612a3857600080fd5b8135612a4884826020860161294e565b91505092915050565b600081359050612a60816139a2565b92915050565b600082601f830112612a7757600080fd5b8135612a878482602086016129d4565b91505092915050565b600081359050612a9f816139b9565b92915050565b600081519050612ab4816139b9565b92915050565b600060208284031215612acc57600080fd5b6000612ada84828501612a12565b91505092915050565b600060208284031215612af557600080fd5b600082013567ffffffffffffffff811115612b0f57600080fd5b612b1b84828501612a27565b91505092915050565b600060208284031215612b3657600080fd5b6000612b4484828501612a51565b91505092915050565b600060208284031215612b5f57600080fd5b600082013567ffffffffffffffff811115612b7957600080fd5b612b8584828501612a66565b91505092915050565b60008060008060008060c08789031215612ba757600080fd5b600087013567ffffffffffffffff811115612bc157600080fd5b612bcd89828a01612a66565b9650506020612bde89828a01612a90565b955050604087013567ffffffffffffffff811115612bfb57600080fd5b612c0789828a01612a66565b945050606087013567ffffffffffffffff811115612c2457600080fd5b612c3089828a01612a66565b935050608087013567ffffffffffffffff811115612c4d57600080fd5b612c5989828a01612a66565b92505060a0612c6a89828a01612a12565b9150509295509295509295565b600060208284031215612c8957600080fd5b6000612c9784828501612a90565b91505092915050565b600060208284031215612cb257600080fd5b6000612cc084828501612aa5565b91505092915050565b60008060008060808587031215612cdf57600080fd5b6000612ced87828801612a90565b945050602085013567ffffffffffffffff811115612d0a57600080fd5b612d1687828801612a66565b935050604085013567ffffffffffffffff811115612d3357600080fd5b612d3f87828801612a66565b9250506060612d5087828801612a12565b91505092959194509250565b6000612d688383612eef565b60208301905092915050565b6000612d808383612fe7565b905092915050565b6000612d948383613171565b60208301905092915050565b612da9816136df565b82525050565b612db8816136df565b82525050565b6000612dc982613517565b612dd3818561356a565b9350612dde836134e7565b8060005b83811015612e0f578151612df68882612d5c565b9750612e0183613543565b925050600181019050612de2565b5085935050505092915050565b6000612e2782613522565b612e31818561357b565b935083602082028501612e43856134f7565b8060005b85811015612e7f5784840389528151612e608582612d74565b9450612e6b83613550565b925060208a01995050600181019050612e47565b50829750879550505050505092915050565b6000612e9c8261352d565b612ea6818561358c565b9350612eb183613507565b8060005b83811015612ee2578151612ec98882612d88565b9750612ed48361355d565b925050600181019050612eb5565b5085935050505092915050565b612ef8816136f1565b82525050565b6000612f0982613538565b612f13818561359d565b9350612f23818560208601613736565b612f2c81613902565b840191505092915050565b6000612f4282613538565b612f4c81856135ae565b9350612f5c818560208601613736565b612f6581613902565b840191505092915050565b6000612f7b82613538565b612f8581856135bf565b9350612f95818560208601613736565b80840191505092915050565b6000612fae6026836135ae565b9150612fb982613913565b604082019050919050565b6000612fd16020836135ae565b9150612fdc82613962565b602082019050919050565b60006101008301600083015184820360008601526130058282612efe565b915050602083015161301a6020860182613171565b50604083015184820360408601526130328282612efe565b9150506060830151848203606086015261304c8282612efe565b915050608083015184820360808601526130668282612efe565b91505060a083015161307b60a0860182612da0565b5060c083015161308e60c0860182613171565b5060e08301516130a160e0860182612da0565b508091505092915050565b60006101008301600083015184820360008601526130ca8282612efe565b91505060208301516130df6020860182613171565b50604083015184820360408601526130f78282612efe565b915050606083015184820360608601526131118282612efe565b9150506080830151848203608086015261312b8282612efe565b91505060a083015161314060a0860182612da0565b5060c083015161315360c0860182613171565b5060e083015161316660e0860182612da0565b508091505092915050565b61317a8161371d565b82525050565b6131898161371d565b82525050565b600061319b8284612f70565b915081905092915050565b60006020820190506131bb6000830184612daf565b92915050565b60006040820190506131d66000830185612daf565b6131e36020830184612daf565b9392505050565b600060408201905081810360008301526132048185612dbe565b905081810360208301526132188184612e91565b90509392505050565b6000602082019050818103600083015261323b8184612e1c565b905092915050565b600060c082019050818103600083015261325d8189612e1c565b905081810360208301526132718188612e91565b905081810360408301526132858187612e91565b905081810360608301526132998186612e1c565b905081810360808301526132ad8185612e91565b905081810360a08301526132c18184612e91565b9050979650505050505050565b600060208201905081810360008301526132e88184612e91565b905092915050565b6000602082019050818103600083015261330a8184612f37565b905092915050565b600060c082019050818103600083015261332c8189612f37565b905061333b6020830188612daf565b6133486040830187613180565b6133556060830186613180565b6133626080830185613180565b61336f60a0830184613180565b979650505050505050565b6000602082019050818103600083015261339381612fa1565b9050919050565b600060208201905081810360008301526133b381612fc4565b9050919050565b600060208201905081810360008301526133d481846130ac565b905092915050565b60006020820190506133f16000830184613180565b92915050565b600060408201905061340c6000830185613180565b6134196020830184613180565b9392505050565b60006080820190506134356000830187613180565b6134426020830186613180565b61344f6040830185613180565b61345c6060830184613180565b95945050505050565b600061346f613480565b905061347b828261379b565b919050565b6000604051905090565b600067ffffffffffffffff8211156134a5576134a46138d3565b5b602082029050602081019050919050565b600067ffffffffffffffff8211156134d1576134d06138d3565b5b6134da82613902565b9050602081019050919050565b6000819050602082019050919050565b6000819050602082019050919050565b6000819050602082019050919050565b600081519050919050565b600081519050919050565b600081519050919050565b600081519050919050565b6000602082019050919050565b6000602082019050919050565b6000602082019050919050565b600082825260208201905092915050565b600082825260208201905092915050565b600082825260208201905092915050565b600082825260208201905092915050565b600082825260208201905092915050565b600081905092915050565b60006135d58261371d565b91506135e08361371d565b9250827fffffffffffffffffffffffffffffffffffffffffffffffffffffffffffffffff0382111561361557613614613846565b5b828201905092915050565b600061362b8261371d565b91506136368361371d565b92508261364657613645613875565b5b828204905092915050565b600061365c8261371d565b91506136678361371d565b9250817fffffffffffffffffffffffffffffffffffffffffffffffffffffffffffffffff04831182151516156136a05761369f613846565b5b828202905092915050565b60006136b68261371d565b91506136c18361371d565b9250828210156136d4576136d3613846565b5b828203905092915050565b60006136ea826136fd565b9050919050565b60008115159050919050565b600073ffffffffffffffffffffffffffffffffffffffff82169050919050565b6000819050919050565b82818337600083830152505050565b60005b83811015613754578082015181840152602081019050613739565b83811115613763576000848401525b50505050565b6000600282049050600182168061378157607f821691505b60208210811415613795576137946138a4565b5b50919050565b6137a482613902565b810181811067ffffffffffffffff821117156137c3576137c26138d3565b5b80604052505050565b60006137d78261371d565b91507fffffffffffffffffffffffffffffffffffffffffffffffffffffffffffffffff82141561380a57613809613846565b5b600182019050919050565b60006138208261371d565b915061382b8361371d565b92508261383b5761383a613875565b5b828206905092915050565b7f4e487b7100000000000000000000000000000000000000000000000000000000600052601160045260246000fd5b7f4e487b7100000000000000000000000000000000000000000000000000000000600052601260045260246000fd5b7f4e487b7100000000000000000000000000000000000000000000000000000000600052602260045260246000fd5b7f4e487b7100000000000000000000000000000000000000000000000000000000600052604160045260246000fd5b6000601f19601f8301169050919050565b7f4f776e61626c653a206e6577206f776e657220697320746865207a65726f206160008201527f6464726573730000000000000000000000000000000000000000000000000000602082015250565b7f4f776e61626c653a2063616c6c6572206973206e6f7420746865206f776e6572600082015250565b613994816136df565b811461399f57600080fd5b50565b6139ab816136f1565b81146139b657600080fd5b50565b6139c28161371d565b81146139cd57600080fd5b5056fea2646970667358221220d9aa75e20465629da679ee2950298910f70d271a2cd53087991c3c1bc7b0652e64736f6c63430008040033",
  "linkReferences": {},
  "deployedLinkReferences": {}
}