{
  "_format": "hh-sol-artifact-1",
  "contractName": "DStor",
  "sourceName": "src/backend/contracts/DStor.sol",
  "abi": [
    {
      "inputs": [],
      "stateMutability": "nonpayable",
      "type": "constructor"
    },
    {
      "anonymous": false,
      "inputs": [
        {
          "indexed": false,
          "internalType": "address",
          "name": "recipient",
          "type": "address"
        }
      ],
      "name": "FileUpdated",
      "type": "event"
    },
    {
      "anonymous": false,
      "inputs": [
        {
          "indexed": false,
          "internalType": "address",
          "name": "sender",
          "type": "address"
        },
        {
          "indexed": false,
          "internalType": "address",
          "name": "recipient",
          "type": "address"
        }
      ],
      "name": "FileUploaded",
      "type": "event"
    },
    {
      "anonymous": false,
      "inputs": [
        {
          "indexed": true,
          "internalType": "address",
          "name": "previousOwner",
          "type": "address"
        },
        {
          "indexed": true,
          "internalType": "address",
          "name": "newOwner",
          "type": "address"
        }
      ],
      "name": "OwnershipTransferred",
      "type": "event"
    },
    {
      "inputs": [
        {
          "internalType": "uint256",
          "name": "fileId",
          "type": "uint256"
        }
      ],
      "name": "addTime",
      "outputs": [],
      "stateMutability": "payable",
      "type": "function"
    },
    {
      "inputs": [
        {
          "internalType": "string",
          "name": "",
          "type": "string"
        }
      ],
      "name": "expirationDates",
      "outputs": [
        {
          "internalType": "uint256",
          "name": "",
          "type": "uint256"
        }
      ],
      "stateMutability": "view",
      "type": "function"
    },
    {
      "inputs": [],
      "name": "fileCount",
      "outputs": [
        {
          "internalType": "uint256",
          "name": "",
          "type": "uint256"
        }
      ],
      "stateMutability": "view",
      "type": "function"
    },
    {
      "inputs": [],
      "name": "fissionEngine",
      "outputs": [
        {
          "internalType": "address",
          "name": "",
          "type": "address"
        }
      ],
      "stateMutability": "view",
      "type": "function"
    },
    {
      "inputs": [
        {
          "internalType": "uint256",
          "name": "numBytes",
          "type": "uint256"
        }
      ],
      "name": "gasQuote",
      "outputs": [
        {
          "internalType": "uint256",
          "name": "weiPerDiem",
          "type": "uint256"
        },
        {
          "internalType": "uint256",
          "name": "weiBenchFee",
          "type": "uint256"
        }
      ],
      "stateMutability": "view",
      "type": "function"
    },
    {
      "inputs": [
        {
          "internalType": "uint256",
          "name": "fileId",
          "type": "uint256"
        }
      ],
      "name": "get",
      "outputs": [
        {
          "components": [
            {
              "internalType": "string",
              "name": "fileHash",
              "type": "string"
            },
            {
              "internalType": "uint256",
              "name": "fileSize",
              "type": "uint256"
            },
            {
              "internalType": "string",
              "name": "fileType",
              "type": "string"
            },
            {
              "internalType": "string",
              "name": "fileName",
              "type": "string"
            },
            {
              "internalType": "string",
              "name": "fileDescription",
              "type": "string"
            },
            {
              "internalType": "address",
              "name": "recipient",
              "type": "address"
            },
            {
              "internalType": "uint256",
              "name": "uploadTime",
              "type": "uint256"
            },
            {
              "internalType": "address",
              "name": "uploader",
              "type": "address"
            }
          ],
          "internalType": "struct DStor.File",
          "name": "",
          "type": "tuple"
        }
      ],
      "stateMutability": "view",
      "type": "function"
    },
    {
      "inputs": [
        {
          "internalType": "bool",
          "name": "isSender",
          "type": "bool"
        }
      ],
      "name": "getAccessibleFileIds",
      "outputs": [
        {
          "internalType": "uint256[]",
          "name": "",
          "type": "uint256[]"
        }
      ],
      "stateMutability": "view",
      "type": "function"
    },
    {
      "inputs": [
        {
          "internalType": "bool",
          "name": "isSender",
          "type": "bool"
        }
      ],
      "name": "getAccessibleFiles",
      "outputs": [
        {
          "components": [
            {
              "internalType": "string",
              "name": "fileHash",
              "type": "string"
            },
            {
              "internalType": "uint256",
              "name": "fileSize",
              "type": "uint256"
            },
            {
              "internalType": "string",
              "name": "fileType",
              "type": "string"
            },
            {
              "internalType": "string",
              "name": "fileName",
              "type": "string"
            },
            {
              "internalType": "string",
              "name": "fileDescription",
              "type": "string"
            },
            {
              "internalType": "address",
              "name": "recipient",
              "type": "address"
            },
            {
              "internalType": "uint256",
              "name": "uploadTime",
              "type": "uint256"
            },
            {
              "internalType": "address",
              "name": "uploader",
              "type": "address"
            }
          ],
          "internalType": "struct DStor.File[]",
          "name": "",
          "type": "tuple[]"
        }
      ],
      "stateMutability": "view",
      "type": "function"
    },
    {
      "inputs": [],
      "name": "minimumFileSize",
      "outputs": [
        {
          "internalType": "uint256",
          "name": "",
          "type": "uint256"
        }
      ],
      "stateMutability": "view",
      "type": "function"
    },
    {
      "inputs": [],
      "name": "minimumPin",
      "outputs": [
        {
          "internalType": "uint256",
          "name": "",
          "type": "uint256"
        }
      ],
      "stateMutability": "view",
      "type": "function"
    },
    {
      "inputs": [
        {
          "internalType": "uint256",
          "name": "fileId",
          "type": "uint256"
        },
        {
          "internalType": "string",
          "name": "fileName",
          "type": "string"
        },
        {
          "internalType": "string",
          "name": "description",
          "type": "string"
        },
        {
          "internalType": "address",
          "name": "recipient",
          "type": "address"
        }
      ],
      "name": "modify",
      "outputs": [],
      "stateMutability": "nonpayable",
      "type": "function"
    },
    {
      "inputs": [],
      "name": "name",
      "outputs": [
        {
          "internalType": "string",
          "name": "",
          "type": "string"
        }
      ],
      "stateMutability": "view",
      "type": "function"
    },
    {
      "inputs": [],
      "name": "owner",
      "outputs": [
        {
          "internalType": "address",
          "name": "",
          "type": "address"
        }
      ],
      "stateMutability": "view",
      "type": "function"
    },
    {
      "inputs": [],
      "name": "pinningRate",
      "outputs": [
        {
          "internalType": "uint256",
          "name": "",
          "type": "uint256"
        }
      ],
      "stateMutability": "view",
      "type": "function"
    },
    {
      "inputs": [
        {
          "internalType": "uint256",
          "name": "numBytes",
          "type": "uint256"
        }
      ],
      "name": "quote",
      "outputs": [
        {
          "internalType": "uint256",
          "name": "perDiem",
          "type": "uint256"
        },
        {
          "internalType": "uint256",
          "name": "benchFee",
          "type": "uint256"
        }
      ],
      "stateMutability": "view",
      "type": "function"
    },
    {
      "inputs": [],
      "name": "received",
      "outputs": [
        {
          "components": [
            {
              "internalType": "string",
              "name": "fileHash",
              "type": "string"
            },
            {
              "internalType": "uint256",
              "name": "fileSize",
              "type": "uint256"
            },
            {
              "internalType": "string",
              "name": "fileType",
              "type": "string"
            },
            {
              "internalType": "string",
              "name": "fileName",
              "type": "string"
            },
            {
              "internalType": "string",
              "name": "fileDescription",
              "type": "string"
            },
            {
              "internalType": "address",
              "name": "recipient",
              "type": "address"
            },
            {
              "internalType": "uint256",
              "name": "uploadTime",
              "type": "uint256"
            },
            {
              "internalType": "address",
              "name": "uploader",
              "type": "address"
            }
          ],
          "internalType": "struct DStor.File[]",
          "name": "",
          "type": "tuple[]"
        }
      ],
      "stateMutability": "view",
      "type": "function"
    },
    {
      "inputs": [],
      "name": "renounceOwnership",
      "outputs": [],
      "stateMutability": "nonpayable",
      "type": "function"
    },
    {
      "inputs": [],
      "name": "sent",
      "outputs": [
        {
          "components": [
            {
              "internalType": "string",
              "name": "fileHash",
              "type": "string"
            },
            {
              "internalType": "uint256",
              "name": "fileSize",
              "type": "uint256"
            },
            {
              "internalType": "string",
              "name": "fileType",
              "type": "string"
            },
            {
              "internalType": "string",
              "name": "fileName",
              "type": "string"
            },
            {
              "internalType": "string",
              "name": "fileDescription",
              "type": "string"
            },
            {
              "internalType": "address",
              "name": "recipient",
              "type": "address"
            },
            {
              "internalType": "uint256",
              "name": "uploadTime",
              "type": "uint256"
            },
            {
              "internalType": "address",
              "name": "uploader",
              "type": "address"
            }
          ],
          "internalType": "struct DStor.File[]",
          "name": "",
          "type": "tuple[]"
        }
      ],
      "stateMutability": "view",
      "type": "function"
    },
    {
      "inputs": [
        {
          "internalType": "address",
          "name": "fission",
          "type": "address"
        }
      ],
      "name": "setFission",
      "outputs": [],
      "stateMutability": "nonpayable",
      "type": "function"
    },
    {
      "inputs": [
        {
          "internalType": "uint256",
          "name": "value",
          "type": "uint256"
        }
      ],
      "name": "setPinningRate",
      "outputs": [],
      "stateMutability": "nonpayable",
      "type": "function"
    },
    {
      "inputs": [
        {
          "internalType": "bool",
          "name": "isMinimumPin",
          "type": "bool"
        },
        {
          "internalType": "uint256",
          "name": "value",
          "type": "uint256"
        }
      ],
      "name": "setRules",
      "outputs": [],
      "stateMutability": "nonpayable",
      "type": "function"
    },
    {
      "inputs": [],
      "name": "takeProfit",
      "outputs": [],
      "stateMutability": "nonpayable",
      "type": "function"
    },
    {
      "inputs": [
        {
          "internalType": "address",
          "name": "newOwner",
          "type": "address"
        }
      ],
      "name": "transferOwnership",
      "outputs": [],
      "stateMutability": "nonpayable",
      "type": "function"
    },
    {
      "inputs": [
        {
          "internalType": "string",
          "name": "_fileHash",
          "type": "string"
        },
        {
          "internalType": "uint256",
          "name": "_fileSize",
          "type": "uint256"
        },
        {
          "internalType": "string",
          "name": "_fileType",
          "type": "string"
        },
        {
          "internalType": "string",
          "name": "_fileName",
          "type": "string"
        },
        {
          "internalType": "string",
          "name": "_fileDescription",
          "type": "string"
        },
        {
          "internalType": "address",
          "name": "recipient",
          "type": "address"
        }
      ],
      "name": "upload",
      "outputs": [],
      "stateMutability": "payable",
      "type": "function"
    }
  ],
  "bytecode": "0x60806040526096600255601e60035561040060045560006007553480156200002657600080fd5b50620000476200003b6200004d60201b60201c565b6200005560201b60201c565b62000119565b600033905090565b60008060009054906101000a900473ffffffffffffffffffffffffffffffffffffffff169050816000806101000a81548173ffffffffffffffffffffffffffffffffffffffff021916908373ffffffffffffffffffffffffffffffffffffffff1602179055508173ffffffffffffffffffffffffffffffffffffffff168173ffffffffffffffffffffffffffffffffffffffff167f8be0079c531659141344cd1fd0a4f28419497f9722a3daafe3b4186f6b6457e060405160405180910390a35050565b6129e980620001296000396000f3fe60806040526004361061014b5760003560e01c8063715018a6116100b6578063ba22ef261161006f578063ba22ef2614610472578063c2bfccc01461049d578063e88bae8f146104c8578063ed1bd76c146104f3578063f2fde38b14610531578063fe6684601461055a5761014b565b8063715018a61461037657806383a6deb51461038d5780638862af95146103b85780638da5cb5b146103e15780639507d39a1461040c578063a3e0fdc3146104495761014b565b806336ea26061161010857806336ea26061461027a5780633c1f81ff146102a357806343953519146102cc5780635d7e0078146102f757806366ecd0021461033457806370c105781461035f5761014b565b80630502ca6b146101505780630617ff791461016c57806306fdde03146101a957806307a8e14c146101d45780631932e8d11461021157806321f6fb111461024f575b600080fd5b61016a60048036038101906101659190611e47565b610576565b005b34801561017857600080fd5b50610193600480360381019061018e9190611cb8565b610630565b6040516101a09190612358565b60405180910390f35b3480156101b557600080fd5b506101be61077a565b6040516101cb919061239c565b60405180910390f35b3480156101e057600080fd5b506101fb60048036038101906101f69190611d1d565b6107b3565b6040516102089190612440565b60405180910390f35b34801561021d57600080fd5b5061023860048036038101906102339190611e47565b6107e1565b60405161024692919061245b565b60405180910390f35b34801561025b57600080fd5b506102646108e0565b6040516102719190612440565b60405180910390f35b34801561028657600080fd5b506102a1600480360381019061029c9190611e47565b6108e6565b005b3480156102af57600080fd5b506102ca60048036038101906102c59190611ce1565b61096c565b005b3480156102d857600080fd5b506102e1610a0d565b6040516102ee9190612440565b60405180910390f35b34801561030357600080fd5b5061031e60048036038101906103199190611cb8565b610a13565b60405161032b919061237a565b60405180910390f35b34801561034057600080fd5b50610349610ca3565b6040516103569190612314565b60405180910390f35b34801561036b57600080fd5b50610374610cc9565b005b34801561038257600080fd5b5061038b610d19565b005b34801561039957600080fd5b506103a2610da1565b6040516103af9190612358565b60405180910390f35b3480156103c457600080fd5b506103df60048036038101906103da9190611e99565b610db2565b005b3480156103ed57600080fd5b506103f6611017565b6040516104039190612314565b60405180910390f35b34801561041857600080fd5b50610433600480360381019061042e9190611e47565b611040565b604051610440919061241e565b60405180910390f35b34801561045557600080fd5b50610470600480360381019061046b9190611c8f565b611428565b005b34801561047e57600080fd5b506104876114e8565b6040516104949190612440565b60405180910390f35b3480156104a957600080fd5b506104b26114ee565b6040516104bf9190612358565b60405180910390f35b3480156104d457600080fd5b506104dd6114ff565b6040516104ea9190612440565b60405180910390f35b3480156104ff57600080fd5b5061051a60048036038101906105159190611e47565b611505565b60405161052892919061245b565b60405180910390f35b34801561053d57600080fd5b5061055860048036038101906105539190611c8f565b611596565b005b610574600480360381019061056f9190611d5e565b61168e565b005b600061058182611040565b9050600061059282602001516107e1565b509050803410156105a257600080fd5b600082600001519050426005826040516105bc91906122fd565b90815260200160405180910390205410156105d657600080fd5b60006201518083346105e891906127cf565b6105f2919061260b565b90508060058360405161060591906122fd565b908152602001604051809103902060008282546106229190612584565b925050819055505050505050565b6060600061063d83610a13565b905060008151905060008167ffffffffffffffff811115610687577f4e487b7100000000000000000000000000000000000000000000000000000000600052604160045260246000fd5b6040519080825280602002602001820160405280156106c057816020015b6106ad611abf565b8152602001906001900390816106a55790505b50905060005b8281101561076e5761071784828151811061070a577f4e487b7100000000000000000000000000000000000000000000000000000000600052603260045260246000fd5b6020026020010151611040565b828281518110610750577f4e487b7100000000000000000000000000000000000000000000000000000000600052603260045260246000fd5b6020026020010181905250808061076690612786565b9150506106c6565b50809350505050919050565b6040518060400160405280601681526020017f4465616444726f704048656d6c6f636b5374726565740000000000000000000081525081565b6005818051602081018201805184825260208301602085012081835280955050505050506000915090505481565b6000806000806107f085611505565b915091506000600160009054906101000a900473ffffffffffffffffffffffffffffffffffffffff16905060008173ffffffffffffffffffffffffffffffffffffffff1663e113e6406040518163ffffffff1660e01b815260040160206040518083038186803b15801561086357600080fd5b505afa158015610877573d6000803e3d6000fd5b505050506040513d601f19601f8201168201806040525081019061089b9190611e70565b90506305f5e10081856108ae919061260b565b6108b891906125da565b95506305f5e10081846108cb919061260b565b6108d591906125da565b945050505050915091565b60035481565b6108ee6119f3565b73ffffffffffffffffffffffffffffffffffffffff1661090c611017565b73ffffffffffffffffffffffffffffffffffffffff1614610962576040517f08c379a0000000000000000000000000000000000000000000000000000000008152600401610959906123fe565b60405180910390fd5b8060028190555050565b6109746119f3565b73ffffffffffffffffffffffffffffffffffffffff16610992611017565b73ffffffffffffffffffffffffffffffffffffffff16146109e8576040517f08c379a00000000000000000000000000000000000000000000000000000000081526004016109df906123fe565b60405180910390fd5b600115158215151415610a015780600381905550610a09565b806004819055505b5050565b60075481565b6060600080600090505b6007548111610afa57600084610a69576006600083815260200190815260200160002060050160009054906101000a900473ffffffffffffffffffffffffffffffffffffffff16610aa1565b6006600083815260200190815260200160002060070160009054906101000a900473ffffffffffffffffffffffffffffffffffffffff165b90503373ffffffffffffffffffffffffffffffffffffffff168173ffffffffffffffffffffffffffffffffffffffff161415610ae6578280610ae290612786565b9350505b508080610af290612786565b915050610a1d565b5060008167ffffffffffffffff811115610b3d577f4e487b7100000000000000000000000000000000000000000000000000000000600052604160045260246000fd5b604051908082528060200260200182016040528015610b6b5781602001602082028036833780820191505090505b5090506000915060005b6007548111610c9857600085610bc1576006600083815260200190815260200160002060050160009054906101000a900473ffffffffffffffffffffffffffffffffffffffff16610bf9565b6006600083815260200190815260200160002060070160009054906101000a900473ffffffffffffffffffffffffffffffffffffffff165b90503373ffffffffffffffffffffffffffffffffffffffff168173ffffffffffffffffffffffffffffffffffffffff161415610c845781838581518110610c69577f4e487b7100000000000000000000000000000000000000000000000000000000600052603260045260246000fd5b6020026020010181815250508380610c8090612786565b9450505b508080610c9090612786565b915050610b75565b508092505050919050565b600160009054906101000a900473ffffffffffffffffffffffffffffffffffffffff1681565b610cd1611017565b73ffffffffffffffffffffffffffffffffffffffff166108fc479081150290604051600060405180830381858888f19350505050158015610d16573d6000803e3d6000fd5b50565b610d216119f3565b73ffffffffffffffffffffffffffffffffffffffff16610d3f611017565b73ffffffffffffffffffffffffffffffffffffffff1614610d95576040517f08c379a0000000000000000000000000000000000000000000000000000000008152600401610d8c906123fe565b60405180910390fd5b610d9f60006119fb565b565b6060610dad6000610630565b905090565b60006006600086815260200190815260200160002090503373ffffffffffffffffffffffffffffffffffffffff168160070160009054906101000a900473ffffffffffffffffffffffffffffffffffffffff1673ffffffffffffffffffffffffffffffffffffffff1614610e5b576040517f08c379a0000000000000000000000000000000000000000000000000000000008152600401610e52906123de565b60405180910390fd5b600084519050600084519050600082141580610e78575060008114155b80610eb05750600073ffffffffffffffffffffffffffffffffffffffff168473ffffffffffffffffffffffffffffffffffffffff1614155b8015610ee857503373ffffffffffffffffffffffffffffffffffffffff168473ffffffffffffffffffffffffffffffffffffffff1614155b15610fae5760008214610f0f5785836003019080519060200190610f0d929190611b30565b505b60008114610f315784836004019080519060200190610f2f929190611b30565b505b600073ffffffffffffffffffffffffffffffffffffffff168473ffffffffffffffffffffffffffffffffffffffff1614610fa957838360050160006101000a81548173ffffffffffffffffffffffffffffffffffffffff021916908373ffffffffffffffffffffffffffffffffffffffff1602179055505b610fb3565b600080fd5b7fc2b72a0fe8c458577d2c9ac0f97d01cbb043a6faae7c6b7eeda2a4812575027b8360050160009054906101000a900473ffffffffffffffffffffffffffffffffffffffff166040516110069190612314565b60405180910390a150505050505050565b60008060009054906101000a900473ffffffffffffffffffffffffffffffffffffffff16905090565b611048611abf565b6000600660008481526020019081526020016000206040518061010001604052908160008201805461107990612723565b80601f01602080910402602001604051908101604052809291908181526020018280546110a590612723565b80156110f25780601f106110c7576101008083540402835291602001916110f2565b820191906000526020600020905b8154815290600101906020018083116110d557829003601f168201915b505050505081526020016001820154815260200160028201805461111590612723565b80601f016020809104026020016040519081016040528092919081815260200182805461114190612723565b801561118e5780601f106111635761010080835404028352916020019161118e565b820191906000526020600020905b81548152906001019060200180831161117157829003601f168201915b505050505081526020016003820180546111a790612723565b80601f01602080910402602001604051908101604052809291908181526020018280546111d390612723565b80156112205780601f106111f557610100808354040283529160200191611220565b820191906000526020600020905b81548152906001019060200180831161120357829003601f168201915b5050505050815260200160048201805461123990612723565b80601f016020809104026020016040519081016040528092919081815260200182805461126590612723565b80156112b25780601f10611287576101008083540402835291602001916112b2565b820191906000526020600020905b81548152906001019060200180831161129557829003601f168201915b505050505081526020016005820160009054906101000a900473ffffffffffffffffffffffffffffffffffffffff1673ffffffffffffffffffffffffffffffffffffffff1673ffffffffffffffffffffffffffffffffffffffff168152602001600682015481526020016007820160009054906101000a900473ffffffffffffffffffffffffffffffffffffffff1673ffffffffffffffffffffffffffffffffffffffff1673ffffffffffffffffffffffffffffffffffffffff168152505090503373ffffffffffffffffffffffffffffffffffffffff168160e0015173ffffffffffffffffffffffffffffffffffffffff1614806113e057503373ffffffffffffffffffffffffffffffffffffffff168160a0015173ffffffffffffffffffffffffffffffffffffffff16145b61141f576040517f08c379a0000000000000000000000000000000000000000000000000000000008152600401611416906123de565b60405180910390fd5b80915050919050565b6114306119f3565b73ffffffffffffffffffffffffffffffffffffffff1661144e611017565b73ffffffffffffffffffffffffffffffffffffffff16146114a4576040517f08c379a000000000000000000000000000000000000000000000000000000000815260040161149b906123fe565b60405180910390fd5b80600160006101000a81548173ffffffffffffffffffffffffffffffffffffffff021916908373ffffffffffffffffffffffffffffffffffffffff16021790555050565b60025481565b60606114fa6001610630565b905090565b60045481565b60008060045483101561151757600080fd5b60006104008461152791906125da565b905060006104008561153991906127cf565b111561154e57808061154a90612786565b9150505b600062100000620f4240600254611565919061260b565b61156f91906125da565b9050808261157d919061260b565b93506003548461158d919061260b565b92505050915091565b61159e6119f3565b73ffffffffffffffffffffffffffffffffffffffff166115bc611017565b73ffffffffffffffffffffffffffffffffffffffff1614611612576040517f08c379a0000000000000000000000000000000000000000000000000000000008152600401611609906123fe565b60405180910390fd5b600073ffffffffffffffffffffffffffffffffffffffff168173ffffffffffffffffffffffffffffffffffffffff161415611682576040517f08c379a0000000000000000000000000000000000000000000000000000000008152600401611679906123be565b60405180910390fd5b61168b816119fb565b50565b600086511180156116a157506004548510155b80156116ae575060008451115b80156116bb575060008351115b80156116c8575060008251115b80156117015750600073ffffffffffffffffffffffffffffffffffffffff163373ffffffffffffffffffffffffffffffffffffffff1614155b801561173957503373ffffffffffffffffffffffffffffffffffffffff168173ffffffffffffffffffffffffffffffffffffffff1614155b80156117725750600073ffffffffffffffffffffffffffffffffffffffff168173ffffffffffffffffffffffffffffffffffffffff1614155b61177b57600080fd5b600080611787876107e1565b915091508034101561179857600080fd5b6000620151808383346117ab9190612665565b6117b591906125da565b6117bf919061260b565b905060008162278d00426117d39190612584565b6117dd9190612584565b90508060058b6040516117f091906122fd565b9081526020016040518091039020819055506007600081548092919061181590612786565b91905055506040518061010001604052808b81526020018a81526020018981526020018881526020018781526020018673ffffffffffffffffffffffffffffffffffffffff1681526020014281526020013373ffffffffffffffffffffffffffffffffffffffff1681525060066000600754815260200190815260200160002060008201518160000190805190602001906118b1929190611b30565b506020820151816001015560408201518160020190805190602001906118d8929190611b30565b5060608201518160030190805190602001906118f5929190611b30565b506080820151816004019080519060200190611912929190611b30565b5060a08201518160050160006101000a81548173ffffffffffffffffffffffffffffffffffffffff021916908373ffffffffffffffffffffffffffffffffffffffff16021790555060c0820151816006015560e08201518160070160006101000a81548173ffffffffffffffffffffffffffffffffffffffff021916908373ffffffffffffffffffffffffffffffffffffffff1602179055509050507f2ed6b29ed6f9dfc1441858346e53f608893095656cd9a14653917f5ade7a8a2e33866040516119df92919061232f565b60405180910390a150505050505050505050565b600033905090565b60008060009054906101000a900473ffffffffffffffffffffffffffffffffffffffff169050816000806101000a81548173ffffffffffffffffffffffffffffffffffffffff021916908373ffffffffffffffffffffffffffffffffffffffff1602179055508173ffffffffffffffffffffffffffffffffffffffff168173ffffffffffffffffffffffffffffffffffffffff167f8be0079c531659141344cd1fd0a4f28419497f9722a3daafe3b4186f6b6457e060405160405180910390a35050565b6040518061010001604052806060815260200160008152602001606081526020016060815260200160608152602001600073ffffffffffffffffffffffffffffffffffffffff16815260200160008152602001600073ffffffffffffffffffffffffffffffffffffffff1681525090565b828054611b3c90612723565b90600052602060002090601f016020900481019282611b5e5760008555611ba5565b82601f10611b7757805160ff1916838001178555611ba5565b82800160010185558215611ba5579182015b82811115611ba4578251825591602001919060010190611b89565b5b509050611bb29190611bb6565b5090565b5b80821115611bcf576000816000905550600101611bb7565b5090565b6000611be6611be1846124a9565b612484565b905082815260208101848484011115611bfe57600080fd5b611c098482856126e1565b509392505050565b600081359050611c208161296e565b92915050565b600081359050611c3581612985565b92915050565b600082601f830112611c4c57600080fd5b8135611c5c848260208601611bd3565b91505092915050565b600081359050611c748161299c565b92915050565b600081519050611c898161299c565b92915050565b600060208284031215611ca157600080fd5b6000611caf84828501611c11565b91505092915050565b600060208284031215611cca57600080fd5b6000611cd884828501611c26565b91505092915050565b60008060408385031215611cf457600080fd5b6000611d0285828601611c26565b9250506020611d1385828601611c65565b9150509250929050565b600060208284031215611d2f57600080fd5b600082013567ffffffffffffffff811115611d4957600080fd5b611d5584828501611c3b565b91505092915050565b60008060008060008060c08789031215611d7757600080fd5b600087013567ffffffffffffffff811115611d9157600080fd5b611d9d89828a01611c3b565b9650506020611dae89828a01611c65565b955050604087013567ffffffffffffffff811115611dcb57600080fd5b611dd789828a01611c3b565b945050606087013567ffffffffffffffff811115611df457600080fd5b611e0089828a01611c3b565b935050608087013567ffffffffffffffff811115611e1d57600080fd5b611e2989828a01611c3b565b92505060a0611e3a89828a01611c11565b9150509295509295509295565b600060208284031215611e5957600080fd5b6000611e6784828501611c65565b91505092915050565b600060208284031215611e8257600080fd5b6000611e9084828501611c7a565b91505092915050565b60008060008060808587031215611eaf57600080fd5b6000611ebd87828801611c65565b945050602085013567ffffffffffffffff811115611eda57600080fd5b611ee687828801611c3b565b935050604085013567ffffffffffffffff811115611f0357600080fd5b611f0f87828801611c3b565b9250506060611f2087828801611c11565b91505092959194509250565b6000611f388383612155565b905092915050565b6000611f4c83836122df565b60208301905092915050565b611f6181612699565b82525050565b611f7081612699565b82525050565b6000611f81826124fa565b611f8b8185612535565b935083602082028501611f9d856124da565b8060005b85811015611fd95784840389528151611fba8582611f2c565b9450611fc58361251b565b925060208a01995050600181019050611fa1565b50829750879550505050505092915050565b6000611ff682612505565b6120008185612546565b935061200b836124ea565b8060005b8381101561203c5781516120238882611f40565b975061202e83612528565b92505060018101905061200f565b5085935050505092915050565b600061205482612510565b61205e8185612557565b935061206e8185602086016126f0565b612077816128bc565b840191505092915050565b600061208d82612510565b6120978185612568565b93506120a78185602086016126f0565b6120b0816128bc565b840191505092915050565b60006120c682612510565b6120d08185612579565b93506120e08185602086016126f0565b80840191505092915050565b60006120f9602683612568565b9150612104826128cd565b604082019050919050565b600061211c600d83612568565b91506121278261291c565b602082019050919050565b600061213f602083612568565b915061214a82612945565b602082019050919050565b60006101008301600083015184820360008601526121738282612049565b915050602083015161218860208601826122df565b50604083015184820360408601526121a08282612049565b915050606083015184820360608601526121ba8282612049565b915050608083015184820360808601526121d48282612049565b91505060a08301516121e960a0860182611f58565b5060c08301516121fc60c08601826122df565b5060e083015161220f60e0860182611f58565b508091505092915050565b60006101008301600083015184820360008601526122388282612049565b915050602083015161224d60208601826122df565b50604083015184820360408601526122658282612049565b9150506060830151848203606086015261227f8282612049565b915050608083015184820360808601526122998282612049565b91505060a08301516122ae60a0860182611f58565b5060c08301516122c160c08601826122df565b5060e08301516122d460e0860182611f58565b508091505092915050565b6122e8816126d7565b82525050565b6122f7816126d7565b82525050565b600061230982846120bb565b915081905092915050565b60006020820190506123296000830184611f67565b92915050565b60006040820190506123446000830185611f67565b6123516020830184611f67565b9392505050565b600060208201905081810360008301526123728184611f76565b905092915050565b600060208201905081810360008301526123948184611feb565b905092915050565b600060208201905081810360008301526123b68184612082565b905092915050565b600060208201905081810360008301526123d7816120ec565b9050919050565b600060208201905081810360008301526123f78161210f565b9050919050565b6000602082019050818103600083015261241781612132565b9050919050565b60006020820190508181036000830152612438818461221a565b905092915050565b600060208201905061245560008301846122ee565b92915050565b600060408201905061247060008301856122ee565b61247d60208301846122ee565b9392505050565b600061248e61249f565b905061249a8282612755565b919050565b6000604051905090565b600067ffffffffffffffff8211156124c4576124c361288d565b5b6124cd826128bc565b9050602081019050919050565b6000819050602082019050919050565b6000819050602082019050919050565b600081519050919050565b600081519050919050565b600081519050919050565b6000602082019050919050565b6000602082019050919050565b600082825260208201905092915050565b600082825260208201905092915050565b600082825260208201905092915050565b600082825260208201905092915050565b600081905092915050565b600061258f826126d7565b915061259a836126d7565b9250827fffffffffffffffffffffffffffffffffffffffffffffffffffffffffffffffff038211156125cf576125ce612800565b5b828201905092915050565b60006125e5826126d7565b91506125f0836126d7565b925082612600576125ff61282f565b5b828204905092915050565b6000612616826126d7565b9150612621836126d7565b9250817fffffffffffffffffffffffffffffffffffffffffffffffffffffffffffffffff048311821515161561265a57612659612800565b5b828202905092915050565b6000612670826126d7565b915061267b836126d7565b92508282101561268e5761268d612800565b5b828203905092915050565b60006126a4826126b7565b9050919050565b60008115159050919050565b600073ffffffffffffffffffffffffffffffffffffffff82169050919050565b6000819050919050565b82818337600083830152505050565b60005b8381101561270e5780820151818401526020810190506126f3565b8381111561271d576000848401525b50505050565b6000600282049050600182168061273b57607f821691505b6020821081141561274f5761274e61285e565b5b50919050565b61275e826128bc565b810181811067ffffffffffffffff8211171561277d5761277c61288d565b5b80604052505050565b6000612791826126d7565b91507fffffffffffffffffffffffffffffffffffffffffffffffffffffffffffffffff8214156127c4576127c3612800565b5b600182019050919050565b60006127da826126d7565b91506127e5836126d7565b9250826127f5576127f461282f565b5b828206905092915050565b7f4e487b7100000000000000000000000000000000000000000000000000000000600052601160045260246000fd5b7f4e487b7100000000000000000000000000000000000000000000000000000000600052601260045260246000fd5b7f4e487b7100000000000000000000000000000000000000000000000000000000600052602260045260246000fd5b7f4e487b7100000000000000000000000000000000000000000000000000000000600052604160045260246000fd5b6000601f19601f8301169050919050565b7f4f776e61626c653a206e6577206f776e657220697320746865207a65726f206160008201527f6464726573730000000000000000000000000000000000000000000000000000602082015250565b7f4143434553532044454e49454400000000000000000000000000000000000000600082015250565b7f4f776e61626c653a2063616c6c6572206973206e6f7420746865206f776e6572600082015250565b61297781612699565b811461298257600080fd5b50565b61298e816126ab565b811461299957600080fd5b50565b6129a5816126d7565b81146129b057600080fd5b5056fea26469706673582212208286d5e29543edac2e0917e4cddff7367cbc6193223bc544ef0b12ee62d1b06c64736f6c63430008040033",
  "linkReferences": {},
  "deployedLinkReferences": {}
}