{
  "_format": "hh-sol-artifact-1",
  "contractName": "DStor",
  "sourceName": "src/backend/contracts/DStor.sol",
  "abi": [
    {
      "inputs": [],
      "stateMutability": "nonpayable",
      "type": "constructor"
    },
    {
      "anonymous": false,
      "inputs": [
        {
          "indexed": false,
          "internalType": "address",
          "name": "recipient",
          "type": "address"
        }
      ],
      "name": "FileUpdated",
      "type": "event"
    },
    {
      "anonymous": false,
      "inputs": [
        {
          "indexed": false,
          "internalType": "address",
          "name": "sender",
          "type": "address"
        },
        {
          "indexed": false,
          "internalType": "address",
          "name": "recipient",
          "type": "address"
        }
      ],
      "name": "FileUploaded",
      "type": "event"
    },
    {
      "inputs": [],
      "name": "fileCount",
      "outputs": [
        {
          "internalType": "uint256",
          "name": "",
          "type": "uint256"
        }
      ],
      "stateMutability": "view",
      "type": "function"
    },
    {
      "inputs": [
        {
          "internalType": "uint256",
          "name": "fileId",
          "type": "uint256"
        }
      ],
      "name": "get",
      "outputs": [
        {
          "components": [
            {
              "internalType": "string",
              "name": "fileHash",
              "type": "string"
            },
            {
              "internalType": "uint256",
              "name": "fileSize",
              "type": "uint256"
            },
            {
              "internalType": "string",
              "name": "fileType",
              "type": "string"
            },
            {
              "internalType": "string",
              "name": "fileName",
              "type": "string"
            },
            {
              "internalType": "string",
              "name": "fileDescription",
              "type": "string"
            },
            {
              "internalType": "address",
              "name": "recipient",
              "type": "address"
            },
            {
              "internalType": "uint256",
              "name": "uploadTime",
              "type": "uint256"
            },
            {
              "internalType": "address",
              "name": "uploader",
              "type": "address"
            }
          ],
          "internalType": "struct DStor.File",
          "name": "",
          "type": "tuple"
        }
      ],
      "stateMutability": "view",
      "type": "function"
    },
    {
      "inputs": [
        {
          "internalType": "bool",
          "name": "isSender",
          "type": "bool"
        }
      ],
      "name": "getAccessibleFileIds",
      "outputs": [
        {
          "internalType": "uint256[]",
          "name": "",
          "type": "uint256[]"
        }
      ],
      "stateMutability": "view",
      "type": "function"
    },
    {
      "inputs": [
        {
          "internalType": "bool",
          "name": "isSender",
          "type": "bool"
        }
      ],
      "name": "getAccessibleFiles",
      "outputs": [
        {
          "components": [
            {
              "internalType": "string",
              "name": "fileHash",
              "type": "string"
            },
            {
              "internalType": "uint256",
              "name": "fileSize",
              "type": "uint256"
            },
            {
              "internalType": "string",
              "name": "fileType",
              "type": "string"
            },
            {
              "internalType": "string",
              "name": "fileName",
              "type": "string"
            },
            {
              "internalType": "string",
              "name": "fileDescription",
              "type": "string"
            },
            {
              "internalType": "address",
              "name": "recipient",
              "type": "address"
            },
            {
              "internalType": "uint256",
              "name": "uploadTime",
              "type": "uint256"
            },
            {
              "internalType": "address",
              "name": "uploader",
              "type": "address"
            }
          ],
          "internalType": "struct DStor.File[]",
          "name": "",
          "type": "tuple[]"
        }
      ],
      "stateMutability": "view",
      "type": "function"
    },
    {
      "inputs": [
        {
          "internalType": "uint256",
          "name": "fileId",
          "type": "uint256"
        },
        {
          "internalType": "string",
          "name": "fileName",
          "type": "string"
        },
        {
          "internalType": "string",
          "name": "description",
          "type": "string"
        },
        {
          "internalType": "address",
          "name": "recipient",
          "type": "address"
        }
      ],
      "name": "modify",
      "outputs": [],
      "stateMutability": "nonpayable",
      "type": "function"
    },
    {
      "inputs": [],
      "name": "name",
      "outputs": [
        {
          "internalType": "string",
          "name": "",
          "type": "string"
        }
      ],
      "stateMutability": "view",
      "type": "function"
    },
    {
      "inputs": [],
      "name": "owner",
      "outputs": [
        {
          "internalType": "address",
          "name": "",
          "type": "address"
        }
      ],
      "stateMutability": "view",
      "type": "function"
    },
    {
      "inputs": [],
      "name": "received",
      "outputs": [
        {
          "components": [
            {
              "internalType": "string",
              "name": "fileHash",
              "type": "string"
            },
            {
              "internalType": "uint256",
              "name": "fileSize",
              "type": "uint256"
            },
            {
              "internalType": "string",
              "name": "fileType",
              "type": "string"
            },
            {
              "internalType": "string",
              "name": "fileName",
              "type": "string"
            },
            {
              "internalType": "string",
              "name": "fileDescription",
              "type": "string"
            },
            {
              "internalType": "address",
              "name": "recipient",
              "type": "address"
            },
            {
              "internalType": "uint256",
              "name": "uploadTime",
              "type": "uint256"
            },
            {
              "internalType": "address",
              "name": "uploader",
              "type": "address"
            }
          ],
          "internalType": "struct DStor.File[]",
          "name": "",
          "type": "tuple[]"
        }
      ],
      "stateMutability": "view",
      "type": "function"
    },
    {
      "inputs": [],
      "name": "sent",
      "outputs": [
        {
          "components": [
            {
              "internalType": "string",
              "name": "fileHash",
              "type": "string"
            },
            {
              "internalType": "uint256",
              "name": "fileSize",
              "type": "uint256"
            },
            {
              "internalType": "string",
              "name": "fileType",
              "type": "string"
            },
            {
              "internalType": "string",
              "name": "fileName",
              "type": "string"
            },
            {
              "internalType": "string",
              "name": "fileDescription",
              "type": "string"
            },
            {
              "internalType": "address",
              "name": "recipient",
              "type": "address"
            },
            {
              "internalType": "uint256",
              "name": "uploadTime",
              "type": "uint256"
            },
            {
              "internalType": "address",
              "name": "uploader",
              "type": "address"
            }
          ],
          "internalType": "struct DStor.File[]",
          "name": "",
          "type": "tuple[]"
        }
      ],
      "stateMutability": "view",
      "type": "function"
    },
    {
      "inputs": [
        {
          "internalType": "string",
          "name": "_fileHash",
          "type": "string"
        },
        {
          "internalType": "uint256",
          "name": "_fileSize",
          "type": "uint256"
        },
        {
          "internalType": "string",
          "name": "_fileType",
          "type": "string"
        },
        {
          "internalType": "string",
          "name": "_fileName",
          "type": "string"
        },
        {
          "internalType": "string",
          "name": "_fileDescription",
          "type": "string"
        },
        {
          "internalType": "address",
          "name": "recipient",
          "type": "address"
        }
      ],
      "name": "upload",
      "outputs": [],
      "stateMutability": "nonpayable",
      "type": "function"
    }
  ],
  "bytecode": "0x6080604052600060025534801561001557600080fd5b50336000806101000a81548173ffffffffffffffffffffffffffffffffffffffff021916908373ffffffffffffffffffffffffffffffffffffffff160217905550611ae4806100656000396000f3fe608060405234801561001057600080fd5b506004361061009e5760003560e01c80638862af95116100665780638862af951461015d5780638da5cb5b146101795780639507d39a14610197578063c2bfccc0146101c7578063fe668460146101e55761009e565b80630617ff79146100a357806306fdde03146100d357806343953519146100f15780635d7e00781461010f57806383a6deb51461013f575b600080fd5b6100bd60048036038101906100b89190611148565b610201565b6040516100ca91906116b4565b60405180910390f35b6100db610353565b6040516100e891906116f8565b60405180910390f35b6100f961038c565b604051610106919061175c565b60405180910390f35b61012960048036038101906101249190611148565b610392565b60405161013691906116d6565b60405180910390f35b610147610622565b60405161015491906116b4565b60405180910390f35b61017760048036038101906101729190611283565b610633565b005b610181610898565b60405161018e9190611670565b60405180910390f35b6101b160048036038101906101ac919061125a565b6108bc565b6040516101be919061173a565b60405180910390f35b6101cf610ca4565b6040516101dc91906116b4565b60405180910390f35b6101ff60048036038101906101fa9190611171565b610cb5565b005b6060600061020e83610392565b905060008151905060008167ffffffffffffffff811115610258577f4e487b7100000000000000000000000000000000000000000000000000000000600052604160045260246000fd5b60405190808252806020026020018201604052801561029157816020015b61027e610f8d565b8152602001906001900390816102765790505b509050600082146103485760005b828111610346576102ef8482815181106102e2577f4e487b7100000000000000000000000000000000000000000000000000000000600052603260045260246000fd5b60200260200101516108bc565b828281518110610328577f4e487b7100000000000000000000000000000000000000000000000000000000600052603260045260246000fd5b6020026020010181905250808061033e90611959565b91505061029f565b505b809350505050919050565b6040518060400160405280601381526020017f4453746f724048656d6c6f636b5374726565740000000000000000000000000081525081565b60025481565b6060600080600090505b6002548111610479576000846103e8576001600083815260200190815260200160002060050160009054906101000a900473ffffffffffffffffffffffffffffffffffffffff16610420565b6001600083815260200190815260200160002060070160009054906101000a900473ffffffffffffffffffffffffffffffffffffffff165b90503373ffffffffffffffffffffffffffffffffffffffff168173ffffffffffffffffffffffffffffffffffffffff16141561046557828061046190611959565b9350505b50808061047190611959565b91505061039c565b5060008167ffffffffffffffff8111156104bc577f4e487b7100000000000000000000000000000000000000000000000000000000600052604160045260246000fd5b6040519080825280602002602001820160405280156104ea5781602001602082028036833780820191505090505b5090506000915060005b600254811161061757600085610540576001600083815260200190815260200160002060050160009054906101000a900473ffffffffffffffffffffffffffffffffffffffff16610578565b6001600083815260200190815260200160002060070160009054906101000a900473ffffffffffffffffffffffffffffffffffffffff165b90503373ffffffffffffffffffffffffffffffffffffffff168173ffffffffffffffffffffffffffffffffffffffff16141561060357818385815181106105e8577f4e487b7100000000000000000000000000000000000000000000000000000000600052603260045260246000fd5b60200260200101818152505083806105ff90611959565b9450505b50808061060f90611959565b9150506104f4565b508092505050919050565b606061062e6000610201565b905090565b60006001600086815260200190815260200160002090503373ffffffffffffffffffffffffffffffffffffffff168160070160009054906101000a900473ffffffffffffffffffffffffffffffffffffffff1673ffffffffffffffffffffffffffffffffffffffff16146106dc576040517f08c379a00000000000000000000000000000000000000000000000000000000081526004016106d39061171a565b60405180910390fd5b6000845190506000845190506000821415806106f9575060008114155b806107315750600073ffffffffffffffffffffffffffffffffffffffff168473ffffffffffffffffffffffffffffffffffffffff1614155b801561076957503373ffffffffffffffffffffffffffffffffffffffff168473ffffffffffffffffffffffffffffffffffffffff1614155b1561082f5760008214610790578583600301908051906020019061078e929190610ffe565b505b600081146107b257848360040190805190602001906107b0929190610ffe565b505b600073ffffffffffffffffffffffffffffffffffffffff168473ffffffffffffffffffffffffffffffffffffffff161461082a57838360050160006101000a81548173ffffffffffffffffffffffffffffffffffffffff021916908373ffffffffffffffffffffffffffffffffffffffff1602179055505b610834565b600080fd5b7fc2b72a0fe8c458577d2c9ac0f97d01cbb043a6faae7c6b7eeda2a4812575027b8360050160009054906101000a900473ffffffffffffffffffffffffffffffffffffffff166040516108879190611670565b60405180910390a150505050505050565b60008054906101000a900473ffffffffffffffffffffffffffffffffffffffff1681565b6108c4610f8d565b600060016000848152602001908152602001600020604051806101000160405290816000820180546108f5906118f6565b80601f0160208091040260200160405190810160405280929190818152602001828054610921906118f6565b801561096e5780601f106109435761010080835404028352916020019161096e565b820191906000526020600020905b81548152906001019060200180831161095157829003601f168201915b5050505050815260200160018201548152602001600282018054610991906118f6565b80601f01602080910402602001604051908101604052809291908181526020018280546109bd906118f6565b8015610a0a5780601f106109df57610100808354040283529160200191610a0a565b820191906000526020600020905b8154815290600101906020018083116109ed57829003601f168201915b50505050508152602001600382018054610a23906118f6565b80601f0160208091040260200160405190810160405280929190818152602001828054610a4f906118f6565b8015610a9c5780601f10610a7157610100808354040283529160200191610a9c565b820191906000526020600020905b815481529060010190602001808311610a7f57829003601f168201915b50505050508152602001600482018054610ab5906118f6565b80601f0160208091040260200160405190810160405280929190818152602001828054610ae1906118f6565b8015610b2e5780601f10610b0357610100808354040283529160200191610b2e565b820191906000526020600020905b815481529060010190602001808311610b1157829003601f168201915b505050505081526020016005820160009054906101000a900473ffffffffffffffffffffffffffffffffffffffff1673ffffffffffffffffffffffffffffffffffffffff1673ffffffffffffffffffffffffffffffffffffffff168152602001600682015481526020016007820160009054906101000a900473ffffffffffffffffffffffffffffffffffffffff1673ffffffffffffffffffffffffffffffffffffffff1673ffffffffffffffffffffffffffffffffffffffff168152505090503373ffffffffffffffffffffffffffffffffffffffff168160e0015173ffffffffffffffffffffffffffffffffffffffff161480610c5c57503373ffffffffffffffffffffffffffffffffffffffff168160a0015173ffffffffffffffffffffffffffffffffffffffff16145b610c9b576040517f08c379a0000000000000000000000000000000000000000000000000000000008152600401610c929061171a565b60405180910390fd5b80915050919050565b6060610cb06001610201565b905090565b60008651118015610cc65750600085115b8015610cd3575060008451115b8015610ce0575060008351115b8015610ced575060008251115b8015610d265750600073ffffffffffffffffffffffffffffffffffffffff163373ffffffffffffffffffffffffffffffffffffffff1614155b8015610d5e57503373ffffffffffffffffffffffffffffffffffffffff168173ffffffffffffffffffffffffffffffffffffffff1614155b8015610d975750600073ffffffffffffffffffffffffffffffffffffffff168173ffffffffffffffffffffffffffffffffffffffff1614155b610da057600080fd5b60026000815480929190610db390611959565b91905055506040518061010001604052808781526020018681526020018581526020018481526020018381526020018273ffffffffffffffffffffffffffffffffffffffff1681526020014281526020013373ffffffffffffffffffffffffffffffffffffffff168152506001600060025481526020019081526020016000206000820151816000019080519060200190610e4f929190610ffe565b50602082015181600101556040820151816002019080519060200190610e76929190610ffe565b506060820151816003019080519060200190610e93929190610ffe565b506080820151816004019080519060200190610eb0929190610ffe565b5060a08201518160050160006101000a81548173ffffffffffffffffffffffffffffffffffffffff021916908373ffffffffffffffffffffffffffffffffffffffff16021790555060c0820151816006015560e08201518160070160006101000a81548173ffffffffffffffffffffffffffffffffffffffff021916908373ffffffffffffffffffffffffffffffffffffffff1602179055509050507f2ed6b29ed6f9dfc1441858346e53f608893095656cd9a14653917f5ade7a8a2e3382604051610f7d92919061168b565b60405180910390a1505050505050565b6040518061010001604052806060815260200160008152602001606081526020016060815260200160608152602001600073ffffffffffffffffffffffffffffffffffffffff16815260200160008152602001600073ffffffffffffffffffffffffffffffffffffffff1681525090565b82805461100a906118f6565b90600052602060002090601f01602090048101928261102c5760008555611073565b82601f1061104557805160ff1916838001178555611073565b82800160010185558215611073579182015b82811115611072578251825591602001919060010190611057565b5b5090506110809190611084565b5090565b5b8082111561109d576000816000905550600101611085565b5090565b60006110b46110af8461179c565b611777565b9050828152602081018484840111156110cc57600080fd5b6110d78482856118b4565b509392505050565b6000813590506110ee81611a69565b92915050565b60008135905061110381611a80565b92915050565b600082601f83011261111a57600080fd5b813561112a8482602086016110a1565b91505092915050565b60008135905061114281611a97565b92915050565b60006020828403121561115a57600080fd5b6000611168848285016110f4565b91505092915050565b60008060008060008060c0878903121561118a57600080fd5b600087013567ffffffffffffffff8111156111a457600080fd5b6111b089828a01611109565b96505060206111c189828a01611133565b955050604087013567ffffffffffffffff8111156111de57600080fd5b6111ea89828a01611109565b945050606087013567ffffffffffffffff81111561120757600080fd5b61121389828a01611109565b935050608087013567ffffffffffffffff81111561123057600080fd5b61123c89828a01611109565b92505060a061124d89828a016110df565b9150509295509295509295565b60006020828403121561126c57600080fd5b600061127a84828501611133565b91505092915050565b6000806000806080858703121561129957600080fd5b60006112a787828801611133565b945050602085013567ffffffffffffffff8111156112c457600080fd5b6112d087828801611109565b935050604085013567ffffffffffffffff8111156112ed57600080fd5b6112f987828801611109565b925050606061130a878288016110df565b91505092959194509250565b600061132283836114c8565b905092915050565b60006113368383611652565b60208301905092915050565b61134b8161186c565b82525050565b61135a8161186c565b82525050565b600061136b826117ed565b6113758185611828565b935083602082028501611387856117cd565b8060005b858110156113c357848403895281516113a48582611316565b94506113af8361180e565b925060208a0199505060018101905061138b565b50829750879550505050505092915050565b60006113e0826117f8565b6113ea8185611839565b93506113f5836117dd565b8060005b8381101561142657815161140d888261132a565b97506114188361181b565b9250506001810190506113f9565b5085935050505092915050565b600061143e82611803565b611448818561184a565b93506114588185602086016118c3565b61146181611a2f565b840191505092915050565b600061147782611803565b611481818561185b565b93506114918185602086016118c3565b61149a81611a2f565b840191505092915050565b60006114b2600d8361185b565b91506114bd82611a40565b602082019050919050565b60006101008301600083015184820360008601526114e68282611433565b91505060208301516114fb6020860182611652565b50604083015184820360408601526115138282611433565b9150506060830151848203606086015261152d8282611433565b915050608083015184820360808601526115478282611433565b91505060a083015161155c60a0860182611342565b5060c083015161156f60c0860182611652565b5060e083015161158260e0860182611342565b508091505092915050565b60006101008301600083015184820360008601526115ab8282611433565b91505060208301516115c06020860182611652565b50604083015184820360408601526115d88282611433565b915050606083015184820360608601526115f28282611433565b9150506080830151848203608086015261160c8282611433565b91505060a083015161162160a0860182611342565b5060c083015161163460c0860182611652565b5060e083015161164760e0860182611342565b508091505092915050565b61165b816118aa565b82525050565b61166a816118aa565b82525050565b60006020820190506116856000830184611351565b92915050565b60006040820190506116a06000830185611351565b6116ad6020830184611351565b9392505050565b600060208201905081810360008301526116ce8184611360565b905092915050565b600060208201905081810360008301526116f081846113d5565b905092915050565b60006020820190508181036000830152611712818461146c565b905092915050565b60006020820190508181036000830152611733816114a5565b9050919050565b60006020820190508181036000830152611754818461158d565b905092915050565b60006020820190506117716000830184611661565b92915050565b6000611781611792565b905061178d8282611928565b919050565b6000604051905090565b600067ffffffffffffffff8211156117b7576117b6611a00565b5b6117c082611a2f565b9050602081019050919050565b6000819050602082019050919050565b6000819050602082019050919050565b600081519050919050565b600081519050919050565b600081519050919050565b6000602082019050919050565b6000602082019050919050565b600082825260208201905092915050565b600082825260208201905092915050565b600082825260208201905092915050565b600082825260208201905092915050565b60006118778261188a565b9050919050565b60008115159050919050565b600073ffffffffffffffffffffffffffffffffffffffff82169050919050565b6000819050919050565b82818337600083830152505050565b60005b838110156118e15780820151818401526020810190506118c6565b838111156118f0576000848401525b50505050565b6000600282049050600182168061190e57607f821691505b60208210811415611922576119216119d1565b5b50919050565b61193182611a2f565b810181811067ffffffffffffffff821117156119505761194f611a00565b5b80604052505050565b6000611964826118aa565b91507fffffffffffffffffffffffffffffffffffffffffffffffffffffffffffffffff821415611997576119966119a2565b5b600182019050919050565b7f4e487b7100000000000000000000000000000000000000000000000000000000600052601160045260246000fd5b7f4e487b7100000000000000000000000000000000000000000000000000000000600052602260045260246000fd5b7f4e487b7100000000000000000000000000000000000000000000000000000000600052604160045260246000fd5b6000601f19601f8301169050919050565b7f4143434553532044454e49454400000000000000000000000000000000000000600082015250565b611a728161186c565b8114611a7d57600080fd5b50565b611a898161187e565b8114611a9457600080fd5b50565b611aa0816118aa565b8114611aab57600080fd5b5056fea26469706673582212205ad42632dc254eca82edcadcaae3c16d00bdafaab219078ced8e2fac431a996364736f6c63430008040033",
  "linkReferences": {},
  "deployedLinkReferences": {}
}